{
	"Product Calalog/productcatalog.sol": {
		"productCatalog": {
			"abi": [
				{
					"inputs": [
						{
							"internalType": "uint256",
							"name": "id",
							"type": "uint256"
						},
						{
							"internalType": "string",
							"name": "name",
							"type": "string"
						},
						{
							"internalType": "uint256",
							"name": "price",
							"type": "uint256"
						}
					],
					"name": "addProduct",
					"outputs": [],
					"stateMutability": "nonpayable",
					"type": "function"
				},
				{
					"inputs": [
						{
							"internalType": "uint256",
							"name": "id",
							"type": "uint256"
						}
					],
					"name": "getProduct",
					"outputs": [
						{
							"internalType": "uint256",
							"name": "",
							"type": "uint256"
						},
						{
							"internalType": "string",
							"name": "",
							"type": "string"
						},
						{
							"internalType": "uint256",
							"name": "",
							"type": "uint256"
						}
					],
					"stateMutability": "view",
					"type": "function"
				},
				{
					"inputs": [
						{
							"internalType": "uint256",
							"name": "id",
							"type": "uint256"
						},
						{
							"internalType": "uint256",
							"name": "price",
							"type": "uint256"
						}
					],
					"name": "updateProductPrice",
					"outputs": [],
					"stateMutability": "nonpayable",
					"type": "function"
				}
			],
			"devdoc": {
				"kind": "dev",
				"methods": {},
				"version": 1
			},
			"evm": {
				"assembly": "    /* \"Product Calalog/productcatalog.sol\":60:629  contract productCatalog{... */\n  mstore(0x40, 0x80)\n  callvalue\n  dup1\n  iszero\n  tag_1\n  jumpi\n  0x00\n  dup1\n  revert\ntag_1:\n  pop\n  dataSize(sub_0)\n  dup1\n  dataOffset(sub_0)\n  0x00\n  codecopy\n  0x00\n  return\nstop\n\nsub_0: assembly {\n        /* \"Product Calalog/productcatalog.sol\":60:629  contract productCatalog{... */\n      mstore(0x40, 0x80)\n      callvalue\n      dup1\n      iszero\n      tag_1\n      jumpi\n      0x00\n      dup1\n      revert\n    tag_1:\n      pop\n      jumpi(tag_2, lt(calldatasize, 0x04))\n      shr(0xe0, calldataload(0x00))\n      dup1\n      0x4268ff2d\n      eq\n      tag_3\n      jumpi\n      dup1\n      0x9c3bddb2\n      eq\n      tag_4\n      jumpi\n      dup1\n      0xb9db15b4\n      eq\n      tag_5\n      jumpi\n    tag_2:\n      0x00\n      dup1\n      revert\n        /* \"Product Calalog/productcatalog.sol\":231:355  function addProduct(uint id, string memory name, uint price) public {... */\n    tag_3:\n      tag_6\n      0x04\n      dup1\n      calldatasize\n      sub\n      dup2\n      add\n      swap1\n      tag_7\n      swap2\n      swap1\n      tag_8\n      jump\t// in\n    tag_7:\n      tag_9\n      jump\t// in\n    tag_6:\n      stop\n        /* \"Product Calalog/productcatalog.sol\":363:464  function updateProductPrice(uint id, uint price) public {... */\n    tag_4:\n      tag_10\n      0x04\n      dup1\n      calldatasize\n      sub\n      dup2\n      add\n      swap1\n      tag_11\n      swap2\n      swap1\n      tag_12\n      jump\t// in\n    tag_11:\n      tag_13\n      jump\t// in\n    tag_10:\n      stop\n        /* \"Product Calalog/productcatalog.sol\":472:626  function getProduct(uint id) public view returns(uint,string memory,uint) {... */\n    tag_5:\n      tag_14\n      0x04\n      dup1\n      calldatasize\n      sub\n      dup2\n      add\n      swap1\n      tag_15\n      swap2\n      swap1\n      tag_16\n      jump\t// in\n    tag_15:\n      tag_17\n      jump\t// in\n    tag_14:\n      mload(0x40)\n      tag_18\n      swap4\n      swap3\n      swap2\n      swap1\n      tag_19\n      jump\t// in\n    tag_18:\n      mload(0x40)\n      dup1\n      swap2\n      sub\n      swap1\n      return\n        /* \"Product Calalog/productcatalog.sol\":231:355  function addProduct(uint id, string memory name, uint price) public {... */\n    tag_9:\n        /* \"Product Calalog/productcatalog.sol\":325:347  product(id,name,price) */\n      mload(0x40)\n      dup1\n      0x60\n      add\n      0x40\n      mstore\n      dup1\n        /* \"Product Calalog/productcatalog.sol\":333:335  id */\n      dup5\n        /* \"Product Calalog/productcatalog.sol\":325:347  product(id,name,price) */\n      dup2\n      mstore\n      0x20\n      add\n        /* \"Product Calalog/productcatalog.sol\":336:340  name */\n      dup4\n        /* \"Product Calalog/productcatalog.sol\":325:347  product(id,name,price) */\n      dup2\n      mstore\n      0x20\n      add\n        /* \"Product Calalog/productcatalog.sol\":341:346  price */\n      dup3\n        /* \"Product Calalog/productcatalog.sol\":325:347  product(id,name,price) */\n      dup2\n      mstore\n      pop\n        /* \"Product Calalog/productcatalog.sol\":310:318  products */\n      0x00\n        /* \"Product Calalog/productcatalog.sol\":310:322  products[id] */\n      dup1\n        /* \"Product Calalog/productcatalog.sol\":319:321  id */\n      dup6\n        /* \"Product Calalog/productcatalog.sol\":310:322  products[id] */\n      dup2\n      mstore\n      0x20\n      add\n      swap1\n      dup2\n      mstore\n      0x20\n      add\n      0x00\n      keccak256\n        /* \"Product Calalog/productcatalog.sol\":310:347  products[id] = product(id,name,price) */\n      0x00\n      dup3\n      add\n      mload\n      dup2\n      0x00\n      add\n      sstore\n      0x20\n      dup3\n      add\n      mload\n      dup2\n      0x01\n      add\n      swap1\n      dup2\n      tag_21\n      swap2\n      swap1\n      tag_22\n      jump\t// in\n    tag_21:\n      pop\n      0x40\n      dup3\n      add\n      mload\n      dup2\n      0x02\n      add\n      sstore\n      swap1\n      pop\n      pop\n        /* \"Product Calalog/productcatalog.sol\":231:355  function addProduct(uint id, string memory name, uint price) public {... */\n      pop\n      pop\n      pop\n      jump\t// out\n        /* \"Product Calalog/productcatalog.sol\":363:464  function updateProductPrice(uint id, uint price) public {... */\n    tag_13:\n        /* \"Product Calalog/productcatalog.sol\":451:456  price */\n      dup1\n        /* \"Product Calalog/productcatalog.sol\":430:438  products */\n      0x00\n        /* \"Product Calalog/productcatalog.sol\":430:442  products[id] */\n      dup1\n        /* \"Product Calalog/productcatalog.sol\":439:441  id */\n      dup5\n        /* \"Product Calalog/productcatalog.sol\":430:442  products[id] */\n      dup2\n      mstore\n      0x20\n      add\n      swap1\n      dup2\n      mstore\n      0x20\n      add\n      0x00\n      keccak256\n        /* \"Product Calalog/productcatalog.sol\":430:448  products[id].price */\n      0x02\n      add\n        /* \"Product Calalog/productcatalog.sol\":430:456  products[id].price = price */\n      dup2\n      swap1\n      sstore\n      pop\n        /* \"Product Calalog/productcatalog.sol\":363:464  function updateProductPrice(uint id, uint price) public {... */\n      pop\n      pop\n      jump\t// out\n        /* \"Product Calalog/productcatalog.sol\":472:626  function getProduct(uint id) public view returns(uint,string memory,uint) {... */\n    tag_17:\n        /* \"Product Calalog/productcatalog.sol\":521:525  uint */\n      0x00\n        /* \"Product Calalog/productcatalog.sol\":526:539  string memory */\n      0x60\n        /* \"Product Calalog/productcatalog.sol\":540:544  uint */\n      0x00\n        /* \"Product Calalog/productcatalog.sol\":565:573  products */\n      dup1\n        /* \"Product Calalog/productcatalog.sol\":565:577  products[id] */\n      0x00\n        /* \"Product Calalog/productcatalog.sol\":574:576  id */\n      dup6\n        /* \"Product Calalog/productcatalog.sol\":565:577  products[id] */\n      dup2\n      mstore\n      0x20\n      add\n      swap1\n      dup2\n      mstore\n      0x20\n      add\n      0x00\n      keccak256\n        /* \"Product Calalog/productcatalog.sol\":565:580  products[id].id */\n      0x00\n      add\n      sload\n        /* \"Product Calalog/productcatalog.sol\":581:589  products */\n      0x00\n        /* \"Product Calalog/productcatalog.sol\":581:593  products[id] */\n      dup1\n        /* \"Product Calalog/productcatalog.sol\":590:592  id */\n      dup7\n        /* \"Product Calalog/productcatalog.sol\":581:593  products[id] */\n      dup2\n      mstore\n      0x20\n      add\n      swap1\n      dup2\n      mstore\n      0x20\n      add\n      0x00\n      keccak256\n        /* \"Product Calalog/productcatalog.sol\":581:598  products[id].name */\n      0x01\n      add\n        /* \"Product Calalog/productcatalog.sol\":599:607  products */\n      0x00\n        /* \"Product Calalog/productcatalog.sol\":599:611  products[id] */\n      dup1\n        /* \"Product Calalog/productcatalog.sol\":608:610  id */\n      dup8\n        /* \"Product Calalog/productcatalog.sol\":599:611  products[id] */\n      dup2\n      mstore\n      0x20\n      add\n      swap1\n      dup2\n      mstore\n      0x20\n      add\n      0x00\n      keccak256\n        /* \"Product Calalog/productcatalog.sol\":599:617  products[id].price */\n      0x02\n      add\n      sload\n        /* \"Product Calalog/productcatalog.sol\":557:618  return (products[id].id,products[id].name,products[id].price) */\n      dup2\n      dup1\n      sload\n      tag_25\n      swap1\n      tag_26\n      jump\t// in\n    tag_25:\n      dup1\n      0x1f\n      add\n      0x20\n      dup1\n      swap2\n      div\n      mul\n      0x20\n      add\n      mload(0x40)\n      swap1\n      dup2\n      add\n      0x40\n      mstore\n      dup1\n      swap3\n      swap2\n      swap1\n      dup2\n      dup2\n      mstore\n      0x20\n      add\n      dup3\n      dup1\n      sload\n      tag_27\n      swap1\n      tag_26\n      jump\t// in\n    tag_27:\n      dup1\n      iszero\n      tag_28\n      jumpi\n      dup1\n      0x1f\n      lt\n      tag_29\n      jumpi\n      0x0100\n      dup1\n      dup4\n      sload\n      div\n      mul\n      dup4\n      mstore\n      swap2\n      0x20\n      add\n      swap2\n      jump(tag_28)\n    tag_29:\n      dup3\n      add\n      swap2\n      swap1\n      0x00\n      mstore\n      keccak256(0x00, 0x20)\n      swap1\n    tag_30:\n      dup2\n      sload\n      dup2\n      mstore\n      swap1\n      0x01\n      add\n      swap1\n      0x20\n      add\n      dup1\n      dup4\n      gt\n      tag_30\n      jumpi\n      dup3\n      swap1\n      sub\n      0x1f\n      and\n      dup3\n      add\n      swap2\n    tag_28:\n      pop\n      pop\n      pop\n      pop\n      pop\n      swap2\n      pop\n      swap3\n      pop\n      swap3\n      pop\n      swap3\n      pop\n        /* \"Product Calalog/productcatalog.sol\":472:626  function getProduct(uint id) public view returns(uint,string memory,uint) {... */\n      swap2\n      swap4\n      swap1\n      swap3\n      pop\n      jump\t// out\n        /* \"#utility.yul\":7:82   */\n    tag_31:\n        /* \"#utility.yul\":40:46   */\n      0x00\n        /* \"#utility.yul\":73:75   */\n      0x40\n        /* \"#utility.yul\":67:76   */\n      mload\n        /* \"#utility.yul\":57:76   */\n      swap1\n      pop\n        /* \"#utility.yul\":7:82   */\n      swap1\n      jump\t// out\n        /* \"#utility.yul\":88:205   */\n    tag_32:\n        /* \"#utility.yul\":197:198   */\n      0x00\n        /* \"#utility.yul\":194:195   */\n      dup1\n        /* \"#utility.yul\":187:199   */\n      revert\n        /* \"#utility.yul\":211:328   */\n    tag_33:\n        /* \"#utility.yul\":320:321   */\n      0x00\n        /* \"#utility.yul\":317:318   */\n      dup1\n        /* \"#utility.yul\":310:322   */\n      revert\n        /* \"#utility.yul\":334:411   */\n    tag_34:\n        /* \"#utility.yul\":371:378   */\n      0x00\n        /* \"#utility.yul\":400:405   */\n      dup2\n        /* \"#utility.yul\":389:405   */\n      swap1\n      pop\n        /* \"#utility.yul\":334:411   */\n      swap2\n      swap1\n      pop\n      jump\t// out\n        /* \"#utility.yul\":417:539   */\n    tag_35:\n        /* \"#utility.yul\":490:514   */\n      tag_74\n        /* \"#utility.yul\":508:513   */\n      dup2\n        /* \"#utility.yul\":490:514   */\n      tag_34\n      jump\t// in\n    tag_74:\n        /* \"#utility.yul\":483:488   */\n      dup2\n        /* \"#utility.yul\":480:515   */\n      eq\n        /* \"#utility.yul\":470:533   */\n      tag_75\n      jumpi\n        /* \"#utility.yul\":529:530   */\n      0x00\n        /* \"#utility.yul\":526:527   */\n      dup1\n        /* \"#utility.yul\":519:531   */\n      revert\n        /* \"#utility.yul\":470:533   */\n    tag_75:\n        /* \"#utility.yul\":417:539   */\n      pop\n      jump\t// out\n        /* \"#utility.yul\":545:684   */\n    tag_36:\n        /* \"#utility.yul\":591:596   */\n      0x00\n        /* \"#utility.yul\":629:635   */\n      dup2\n        /* \"#utility.yul\":616:636   */\n      calldataload\n        /* \"#utility.yul\":607:636   */\n      swap1\n      pop\n        /* \"#utility.yul\":645:678   */\n      tag_77\n        /* \"#utility.yul\":672:677   */\n      dup2\n        /* \"#utility.yul\":645:678   */\n      tag_35\n      jump\t// in\n    tag_77:\n        /* \"#utility.yul\":545:684   */\n      swap3\n      swap2\n      pop\n      pop\n      jump\t// out\n        /* \"#utility.yul\":690:807   */\n    tag_37:\n        /* \"#utility.yul\":799:800   */\n      0x00\n        /* \"#utility.yul\":796:797   */\n      dup1\n        /* \"#utility.yul\":789:801   */\n      revert\n        /* \"#utility.yul\":813:930   */\n    tag_38:\n        /* \"#utility.yul\":922:923   */\n      0x00\n        /* \"#utility.yul\":919:920   */\n      dup1\n        /* \"#utility.yul\":912:924   */\n      revert\n        /* \"#utility.yul\":936:1038   */\n    tag_39:\n        /* \"#utility.yul\":977:983   */\n      0x00\n        /* \"#utility.yul\":1028:1030   */\n      0x1f\n        /* \"#utility.yul\":1024:1031   */\n      not\n        /* \"#utility.yul\":1019:1021   */\n      0x1f\n        /* \"#utility.yul\":1012:1017   */\n      dup4\n        /* \"#utility.yul\":1008:1022   */\n      add\n        /* \"#utility.yul\":1004:1032   */\n      and\n        /* \"#utility.yul\":994:1032   */\n      swap1\n      pop\n        /* \"#utility.yul\":936:1038   */\n      swap2\n      swap1\n      pop\n      jump\t// out\n        /* \"#utility.yul\":1044:1224   */\n    tag_40:\n        /* \"#utility.yul\":1092:1169   */\n      0x4e487b7100000000000000000000000000000000000000000000000000000000\n        /* \"#utility.yul\":1089:1090   */\n      0x00\n        /* \"#utility.yul\":1082:1170   */\n      mstore\n        /* \"#utility.yul\":1189:1193   */\n      0x41\n        /* \"#utility.yul\":1186:1187   */\n      0x04\n        /* \"#utility.yul\":1179:1194   */\n      mstore\n        /* \"#utility.yul\":1213:1217   */\n      0x24\n        /* \"#utility.yul\":1210:1211   */\n      0x00\n        /* \"#utility.yul\":1203:1218   */\n      revert\n        /* \"#utility.yul\":1230:1511   */\n    tag_41:\n        /* \"#utility.yul\":1313:1340   */\n      tag_83\n        /* \"#utility.yul\":1335:1339   */\n      dup3\n        /* \"#utility.yul\":1313:1340   */\n      tag_39\n      jump\t// in\n    tag_83:\n        /* \"#utility.yul\":1305:1311   */\n      dup2\n        /* \"#utility.yul\":1301:1341   */\n      add\n        /* \"#utility.yul\":1443:1449   */\n      dup2\n        /* \"#utility.yul\":1431:1441   */\n      dup2\n        /* \"#utility.yul\":1428:1450   */\n      lt\n        /* \"#utility.yul\":1407:1425   */\n      0xffffffffffffffff\n        /* \"#utility.yul\":1395:1405   */\n      dup3\n        /* \"#utility.yul\":1392:1426   */\n      gt\n        /* \"#utility.yul\":1389:1451   */\n      or\n        /* \"#utility.yul\":1386:1474   */\n      iszero\n      tag_84\n      jumpi\n        /* \"#utility.yul\":1454:1472   */\n      tag_85\n      tag_40\n      jump\t// in\n    tag_85:\n        /* \"#utility.yul\":1386:1474   */\n    tag_84:\n        /* \"#utility.yul\":1494:1504   */\n      dup1\n        /* \"#utility.yul\":1490:1492   */\n      0x40\n        /* \"#utility.yul\":1483:1505   */\n      mstore\n        /* \"#utility.yul\":1273:1511   */\n      pop\n        /* \"#utility.yul\":1230:1511   */\n      pop\n      pop\n      jump\t// out\n        /* \"#utility.yul\":1517:1646   */\n    tag_42:\n        /* \"#utility.yul\":1551:1557   */\n      0x00\n        /* \"#utility.yul\":1578:1598   */\n      tag_87\n      tag_31\n      jump\t// in\n    tag_87:\n        /* \"#utility.yul\":1568:1598   */\n      swap1\n      pop\n        /* \"#utility.yul\":1607:1640   */\n      tag_88\n        /* \"#utility.yul\":1635:1639   */\n      dup3\n        /* \"#utility.yul\":1627:1633   */\n      dup3\n        /* \"#utility.yul\":1607:1640   */\n      tag_41\n      jump\t// in\n    tag_88:\n        /* \"#utility.yul\":1517:1646   */\n      swap2\n      swap1\n      pop\n      jump\t// out\n        /* \"#utility.yul\":1652:1960   */\n    tag_43:\n        /* \"#utility.yul\":1714:1718   */\n      0x00\n        /* \"#utility.yul\":1804:1822   */\n      0xffffffffffffffff\n        /* \"#utility.yul\":1796:1802   */\n      dup3\n        /* \"#utility.yul\":1793:1823   */\n      gt\n        /* \"#utility.yul\":1790:1846   */\n      iszero\n      tag_90\n      jumpi\n        /* \"#utility.yul\":1826:1844   */\n      tag_91\n      tag_40\n      jump\t// in\n    tag_91:\n        /* \"#utility.yul\":1790:1846   */\n    tag_90:\n        /* \"#utility.yul\":1864:1893   */\n      tag_92\n        /* \"#utility.yul\":1886:1892   */\n      dup3\n        /* \"#utility.yul\":1864:1893   */\n      tag_39\n      jump\t// in\n    tag_92:\n        /* \"#utility.yul\":1856:1893   */\n      swap1\n      pop\n        /* \"#utility.yul\":1948:1952   */\n      0x20\n        /* \"#utility.yul\":1942:1946   */\n      dup2\n        /* \"#utility.yul\":1938:1953   */\n      add\n        /* \"#utility.yul\":1930:1953   */\n      swap1\n      pop\n        /* \"#utility.yul\":1652:1960   */\n      swap2\n      swap1\n      pop\n      jump\t// out\n        /* \"#utility.yul\":1966:2114   */\n    tag_44:\n        /* \"#utility.yul\":2064:2070   */\n      dup3\n        /* \"#utility.yul\":2059:2062   */\n      dup2\n        /* \"#utility.yul\":2054:2057   */\n      dup4\n        /* \"#utility.yul\":2041:2071   */\n      calldatacopy\n        /* \"#utility.yul\":2105:2106   */\n      0x00\n        /* \"#utility.yul\":2096:2102   */\n      dup4\n        /* \"#utility.yul\":2091:2094   */\n      dup4\n        /* \"#utility.yul\":2087:2103   */\n      add\n        /* \"#utility.yul\":2080:2107   */\n      mstore\n        /* \"#utility.yul\":1966:2114   */\n      pop\n      pop\n      pop\n      jump\t// out\n        /* \"#utility.yul\":2120:2545   */\n    tag_45:\n        /* \"#utility.yul\":2198:2203   */\n      0x00\n        /* \"#utility.yul\":2223:2289   */\n      tag_95\n        /* \"#utility.yul\":2239:2288   */\n      tag_96\n        /* \"#utility.yul\":2281:2287   */\n      dup5\n        /* \"#utility.yul\":2239:2288   */\n      tag_43\n      jump\t// in\n    tag_96:\n        /* \"#utility.yul\":2223:2289   */\n      tag_42\n      jump\t// in\n    tag_95:\n        /* \"#utility.yul\":2214:2289   */\n      swap1\n      pop\n        /* \"#utility.yul\":2312:2318   */\n      dup3\n        /* \"#utility.yul\":2305:2310   */\n      dup2\n        /* \"#utility.yul\":2298:2319   */\n      mstore\n        /* \"#utility.yul\":2350:2354   */\n      0x20\n        /* \"#utility.yul\":2343:2348   */\n      dup2\n        /* \"#utility.yul\":2339:2355   */\n      add\n        /* \"#utility.yul\":2388:2391   */\n      dup5\n        /* \"#utility.yul\":2379:2385   */\n      dup5\n        /* \"#utility.yul\":2374:2377   */\n      dup5\n        /* \"#utility.yul\":2370:2386   */\n      add\n        /* \"#utility.yul\":2367:2392   */\n      gt\n        /* \"#utility.yul\":2364:2476   */\n      iszero\n      tag_97\n      jumpi\n        /* \"#utility.yul\":2395:2474   */\n      tag_98\n      tag_38\n      jump\t// in\n    tag_98:\n        /* \"#utility.yul\":2364:2476   */\n    tag_97:\n        /* \"#utility.yul\":2485:2539   */\n      tag_99\n        /* \"#utility.yul\":2532:2538   */\n      dup5\n        /* \"#utility.yul\":2527:2530   */\n      dup3\n        /* \"#utility.yul\":2522:2525   */\n      dup6\n        /* \"#utility.yul\":2485:2539   */\n      tag_44\n      jump\t// in\n    tag_99:\n        /* \"#utility.yul\":2204:2545   */\n      pop\n        /* \"#utility.yul\":2120:2545   */\n      swap4\n      swap3\n      pop\n      pop\n      pop\n      jump\t// out\n        /* \"#utility.yul\":2565:2905   */\n    tag_46:\n        /* \"#utility.yul\":2621:2626   */\n      0x00\n        /* \"#utility.yul\":2670:2673   */\n      dup3\n        /* \"#utility.yul\":2663:2667   */\n      0x1f\n        /* \"#utility.yul\":2655:2661   */\n      dup4\n        /* \"#utility.yul\":2651:2668   */\n      add\n        /* \"#utility.yul\":2647:2674   */\n      slt\n        /* \"#utility.yul\":2637:2759   */\n      tag_101\n      jumpi\n        /* \"#utility.yul\":2678:2757   */\n      tag_102\n      tag_37\n      jump\t// in\n    tag_102:\n        /* \"#utility.yul\":2637:2759   */\n    tag_101:\n        /* \"#utility.yul\":2795:2801   */\n      dup2\n        /* \"#utility.yul\":2782:2802   */\n      calldataload\n        /* \"#utility.yul\":2820:2899   */\n      tag_103\n        /* \"#utility.yul\":2895:2898   */\n      dup5\n        /* \"#utility.yul\":2887:2893   */\n      dup3\n        /* \"#utility.yul\":2880:2884   */\n      0x20\n        /* \"#utility.yul\":2872:2878   */\n      dup7\n        /* \"#utility.yul\":2868:2885   */\n      add\n        /* \"#utility.yul\":2820:2899   */\n      tag_45\n      jump\t// in\n    tag_103:\n        /* \"#utility.yul\":2811:2899   */\n      swap2\n      pop\n        /* \"#utility.yul\":2627:2905   */\n      pop\n        /* \"#utility.yul\":2565:2905   */\n      swap3\n      swap2\n      pop\n      pop\n      jump\t// out\n        /* \"#utility.yul\":2911:3710   */\n    tag_8:\n        /* \"#utility.yul\":2998:3004   */\n      0x00\n        /* \"#utility.yul\":3006:3012   */\n      dup1\n        /* \"#utility.yul\":3014:3020   */\n      0x00\n        /* \"#utility.yul\":3063:3065   */\n      0x60\n        /* \"#utility.yul\":3051:3060   */\n      dup5\n        /* \"#utility.yul\":3042:3049   */\n      dup7\n        /* \"#utility.yul\":3038:3061   */\n      sub\n        /* \"#utility.yul\":3034:3066   */\n      slt\n        /* \"#utility.yul\":3031:3150   */\n      iszero\n      tag_105\n      jumpi\n        /* \"#utility.yul\":3069:3148   */\n      tag_106\n      tag_32\n      jump\t// in\n    tag_106:\n        /* \"#utility.yul\":3031:3150   */\n    tag_105:\n        /* \"#utility.yul\":3189:3190   */\n      0x00\n        /* \"#utility.yul\":3214:3267   */\n      tag_107\n        /* \"#utility.yul\":3259:3266   */\n      dup7\n        /* \"#utility.yul\":3250:3256   */\n      dup3\n        /* \"#utility.yul\":3239:3248   */\n      dup8\n        /* \"#utility.yul\":3235:3257   */\n      add\n        /* \"#utility.yul\":3214:3267   */\n      tag_36\n      jump\t// in\n    tag_107:\n        /* \"#utility.yul\":3204:3267   */\n      swap4\n      pop\n        /* \"#utility.yul\":3160:3277   */\n      pop\n        /* \"#utility.yul\":3344:3346   */\n      0x20\n        /* \"#utility.yul\":3333:3342   */\n      dup5\n        /* \"#utility.yul\":3329:3347   */\n      add\n        /* \"#utility.yul\":3316:3348   */\n      calldataload\n        /* \"#utility.yul\":3375:3393   */\n      0xffffffffffffffff\n        /* \"#utility.yul\":3367:3373   */\n      dup2\n        /* \"#utility.yul\":3364:3394   */\n      gt\n        /* \"#utility.yul\":3361:3478   */\n      iszero\n      tag_108\n      jumpi\n        /* \"#utility.yul\":3397:3476   */\n      tag_109\n      tag_33\n      jump\t// in\n    tag_109:\n        /* \"#utility.yul\":3361:3478   */\n    tag_108:\n        /* \"#utility.yul\":3502:3565   */\n      tag_110\n        /* \"#utility.yul\":3557:3564   */\n      dup7\n        /* \"#utility.yul\":3548:3554   */\n      dup3\n        /* \"#utility.yul\":3537:3546   */\n      dup8\n        /* \"#utility.yul\":3533:3555   */\n      add\n        /* \"#utility.yul\":3502:3565   */\n      tag_46\n      jump\t// in\n    tag_110:\n        /* \"#utility.yul\":3492:3565   */\n      swap3\n      pop\n        /* \"#utility.yul\":3287:3575   */\n      pop\n        /* \"#utility.yul\":3614:3616   */\n      0x40\n        /* \"#utility.yul\":3640:3693   */\n      tag_111\n        /* \"#utility.yul\":3685:3692   */\n      dup7\n        /* \"#utility.yul\":3676:3682   */\n      dup3\n        /* \"#utility.yul\":3665:3674   */\n      dup8\n        /* \"#utility.yul\":3661:3683   */\n      add\n        /* \"#utility.yul\":3640:3693   */\n      tag_36\n      jump\t// in\n    tag_111:\n        /* \"#utility.yul\":3630:3693   */\n      swap2\n      pop\n        /* \"#utility.yul\":3585:3703   */\n      pop\n        /* \"#utility.yul\":2911:3710   */\n      swap3\n      pop\n      swap3\n      pop\n      swap3\n      jump\t// out\n        /* \"#utility.yul\":3716:4190   */\n    tag_12:\n        /* \"#utility.yul\":3784:3790   */\n      0x00\n        /* \"#utility.yul\":3792:3798   */\n      dup1\n        /* \"#utility.yul\":3841:3843   */\n      0x40\n        /* \"#utility.yul\":3829:3838   */\n      dup4\n        /* \"#utility.yul\":3820:3827   */\n      dup6\n        /* \"#utility.yul\":3816:3839   */\n      sub\n        /* \"#utility.yul\":3812:3844   */\n      slt\n        /* \"#utility.yul\":3809:3928   */\n      iszero\n      tag_113\n      jumpi\n        /* \"#utility.yul\":3847:3926   */\n      tag_114\n      tag_32\n      jump\t// in\n    tag_114:\n        /* \"#utility.yul\":3809:3928   */\n    tag_113:\n        /* \"#utility.yul\":3967:3968   */\n      0x00\n        /* \"#utility.yul\":3992:4045   */\n      tag_115\n        /* \"#utility.yul\":4037:4044   */\n      dup6\n        /* \"#utility.yul\":4028:4034   */\n      dup3\n        /* \"#utility.yul\":4017:4026   */\n      dup7\n        /* \"#utility.yul\":4013:4035   */\n      add\n        /* \"#utility.yul\":3992:4045   */\n      tag_36\n      jump\t// in\n    tag_115:\n        /* \"#utility.yul\":3982:4045   */\n      swap3\n      pop\n        /* \"#utility.yul\":3938:4055   */\n      pop\n        /* \"#utility.yul\":4094:4096   */\n      0x20\n        /* \"#utility.yul\":4120:4173   */\n      tag_116\n        /* \"#utility.yul\":4165:4172   */\n      dup6\n        /* \"#utility.yul\":4156:4162   */\n      dup3\n        /* \"#utility.yul\":4145:4154   */\n      dup7\n        /* \"#utility.yul\":4141:4163   */\n      add\n        /* \"#utility.yul\":4120:4173   */\n      tag_36\n      jump\t// in\n    tag_116:\n        /* \"#utility.yul\":4110:4173   */\n      swap2\n      pop\n        /* \"#utility.yul\":4065:4183   */\n      pop\n        /* \"#utility.yul\":3716:4190   */\n      swap3\n      pop\n      swap3\n      swap1\n      pop\n      jump\t// out\n        /* \"#utility.yul\":4196:4525   */\n    tag_16:\n        /* \"#utility.yul\":4255:4261   */\n      0x00\n        /* \"#utility.yul\":4304:4306   */\n      0x20\n        /* \"#utility.yul\":4292:4301   */\n      dup3\n        /* \"#utility.yul\":4283:4290   */\n      dup5\n        /* \"#utility.yul\":4279:4302   */\n      sub\n        /* \"#utility.yul\":4275:4307   */\n      slt\n        /* \"#utility.yul\":4272:4391   */\n      iszero\n      tag_118\n      jumpi\n        /* \"#utility.yul\":4310:4389   */\n      tag_119\n      tag_32\n      jump\t// in\n    tag_119:\n        /* \"#utility.yul\":4272:4391   */\n    tag_118:\n        /* \"#utility.yul\":4430:4431   */\n      0x00\n        /* \"#utility.yul\":4455:4508   */\n      tag_120\n        /* \"#utility.yul\":4500:4507   */\n      dup5\n        /* \"#utility.yul\":4491:4497   */\n      dup3\n        /* \"#utility.yul\":4480:4489   */\n      dup6\n        /* \"#utility.yul\":4476:4498   */\n      add\n        /* \"#utility.yul\":4455:4508   */\n      tag_36\n      jump\t// in\n    tag_120:\n        /* \"#utility.yul\":4445:4508   */\n      swap2\n      pop\n        /* \"#utility.yul\":4401:4518   */\n      pop\n        /* \"#utility.yul\":4196:4525   */\n      swap3\n      swap2\n      pop\n      pop\n      jump\t// out\n        /* \"#utility.yul\":4531:4649   */\n    tag_47:\n        /* \"#utility.yul\":4618:4642   */\n      tag_122\n        /* \"#utility.yul\":4636:4641   */\n      dup2\n        /* \"#utility.yul\":4618:4642   */\n      tag_34\n      jump\t// in\n    tag_122:\n        /* \"#utility.yul\":4613:4616   */\n      dup3\n        /* \"#utility.yul\":4606:4643   */\n      mstore\n        /* \"#utility.yul\":4531:4649   */\n      pop\n      pop\n      jump\t// out\n        /* \"#utility.yul\":4655:4754   */\n    tag_48:\n        /* \"#utility.yul\":4707:4713   */\n      0x00\n        /* \"#utility.yul\":4741:4746   */\n      dup2\n        /* \"#utility.yul\":4735:4747   */\n      mload\n        /* \"#utility.yul\":4725:4747   */\n      swap1\n      pop\n        /* \"#utility.yul\":4655:4754   */\n      swap2\n      swap1\n      pop\n      jump\t// out\n        /* \"#utility.yul\":4760:4929   */\n    tag_49:\n        /* \"#utility.yul\":4844:4855   */\n      0x00\n        /* \"#utility.yul\":4878:4884   */\n      dup3\n        /* \"#utility.yul\":4873:4876   */\n      dup3\n        /* \"#utility.yul\":4866:4885   */\n      mstore\n        /* \"#utility.yul\":4918:4922   */\n      0x20\n        /* \"#utility.yul\":4913:4916   */\n      dup3\n        /* \"#utility.yul\":4909:4923   */\n      add\n        /* \"#utility.yul\":4894:4923   */\n      swap1\n      pop\n        /* \"#utility.yul\":4760:4929   */\n      swap3\n      swap2\n      pop\n      pop\n      jump\t// out\n        /* \"#utility.yul\":4935:5074   */\n    tag_50:\n        /* \"#utility.yul\":5024:5030   */\n      dup3\n        /* \"#utility.yul\":5019:5022   */\n      dup2\n        /* \"#utility.yul\":5014:5017   */\n      dup4\n        /* \"#utility.yul\":5008:5031   */\n      mcopy\n        /* \"#utility.yul\":5065:5066   */\n      0x00\n        /* \"#utility.yul\":5056:5062   */\n      dup4\n        /* \"#utility.yul\":5051:5054   */\n      dup4\n        /* \"#utility.yul\":5047:5063   */\n      add\n        /* \"#utility.yul\":5040:5067   */\n      mstore\n        /* \"#utility.yul\":4935:5074   */\n      pop\n      pop\n      pop\n      jump\t// out\n        /* \"#utility.yul\":5080:5457   */\n    tag_51:\n        /* \"#utility.yul\":5168:5171   */\n      0x00\n        /* \"#utility.yul\":5196:5235   */\n      tag_127\n        /* \"#utility.yul\":5229:5234   */\n      dup3\n        /* \"#utility.yul\":5196:5235   */\n      tag_48\n      jump\t// in\n    tag_127:\n        /* \"#utility.yul\":5251:5322   */\n      tag_128\n        /* \"#utility.yul\":5315:5321   */\n      dup2\n        /* \"#utility.yul\":5310:5313   */\n      dup6\n        /* \"#utility.yul\":5251:5322   */\n      tag_49\n      jump\t// in\n    tag_128:\n        /* \"#utility.yul\":5244:5322   */\n      swap4\n      pop\n        /* \"#utility.yul\":5331:5396   */\n      tag_129\n        /* \"#utility.yul\":5389:5395   */\n      dup2\n        /* \"#utility.yul\":5384:5387   */\n      dup6\n        /* \"#utility.yul\":5377:5381   */\n      0x20\n        /* \"#utility.yul\":5370:5375   */\n      dup7\n        /* \"#utility.yul\":5366:5382   */\n      add\n        /* \"#utility.yul\":5331:5396   */\n      tag_50\n      jump\t// in\n    tag_129:\n        /* \"#utility.yul\":5421:5450   */\n      tag_130\n        /* \"#utility.yul\":5443:5449   */\n      dup2\n        /* \"#utility.yul\":5421:5450   */\n      tag_39\n      jump\t// in\n    tag_130:\n        /* \"#utility.yul\":5416:5419   */\n      dup5\n        /* \"#utility.yul\":5412:5451   */\n      add\n        /* \"#utility.yul\":5405:5451   */\n      swap2\n      pop\n        /* \"#utility.yul\":5172:5457   */\n      pop\n        /* \"#utility.yul\":5080:5457   */\n      swap3\n      swap2\n      pop\n      pop\n      jump\t// out\n        /* \"#utility.yul\":5463:5996   */\n    tag_19:\n        /* \"#utility.yul\":5632:5636   */\n      0x00\n        /* \"#utility.yul\":5670:5672   */\n      0x60\n        /* \"#utility.yul\":5659:5668   */\n      dup3\n        /* \"#utility.yul\":5655:5673   */\n      add\n        /* \"#utility.yul\":5647:5673   */\n      swap1\n      pop\n        /* \"#utility.yul\":5683:5754   */\n      tag_132\n        /* \"#utility.yul\":5751:5752   */\n      0x00\n        /* \"#utility.yul\":5740:5749   */\n      dup4\n        /* \"#utility.yul\":5736:5753   */\n      add\n        /* \"#utility.yul\":5727:5733   */\n      dup7\n        /* \"#utility.yul\":5683:5754   */\n      tag_47\n      jump\t// in\n    tag_132:\n        /* \"#utility.yul\":5801:5810   */\n      dup2\n        /* \"#utility.yul\":5795:5799   */\n      dup2\n        /* \"#utility.yul\":5791:5811   */\n      sub\n        /* \"#utility.yul\":5786:5788   */\n      0x20\n        /* \"#utility.yul\":5775:5784   */\n      dup4\n        /* \"#utility.yul\":5771:5789   */\n      add\n        /* \"#utility.yul\":5764:5812   */\n      mstore\n        /* \"#utility.yul\":5829:5907   */\n      tag_133\n        /* \"#utility.yul\":5902:5906   */\n      dup2\n        /* \"#utility.yul\":5893:5899   */\n      dup6\n        /* \"#utility.yul\":5829:5907   */\n      tag_51\n      jump\t// in\n    tag_133:\n        /* \"#utility.yul\":5821:5907   */\n      swap1\n      pop\n        /* \"#utility.yul\":5917:5989   */\n      tag_134\n        /* \"#utility.yul\":5985:5987   */\n      0x40\n        /* \"#utility.yul\":5974:5983   */\n      dup4\n        /* \"#utility.yul\":5970:5988   */\n      add\n        /* \"#utility.yul\":5961:5967   */\n      dup5\n        /* \"#utility.yul\":5917:5989   */\n      tag_47\n      jump\t// in\n    tag_134:\n        /* \"#utility.yul\":5463:5996   */\n      swap5\n      swap4\n      pop\n      pop\n      pop\n      pop\n      jump\t// out\n        /* \"#utility.yul\":6002:6182   */\n    tag_52:\n        /* \"#utility.yul\":6050:6127   */\n      0x4e487b7100000000000000000000000000000000000000000000000000000000\n        /* \"#utility.yul\":6047:6048   */\n      0x00\n        /* \"#utility.yul\":6040:6128   */\n      mstore\n        /* \"#utility.yul\":6147:6151   */\n      0x22\n        /* \"#utility.yul\":6144:6145   */\n      0x04\n        /* \"#utility.yul\":6137:6152   */\n      mstore\n        /* \"#utility.yul\":6171:6175   */\n      0x24\n        /* \"#utility.yul\":6168:6169   */\n      0x00\n        /* \"#utility.yul\":6161:6176   */\n      revert\n        /* \"#utility.yul\":6188:6508   */\n    tag_26:\n        /* \"#utility.yul\":6232:6238   */\n      0x00\n        /* \"#utility.yul\":6269:6270   */\n      0x02\n        /* \"#utility.yul\":6263:6267   */\n      dup3\n        /* \"#utility.yul\":6259:6271   */\n      div\n        /* \"#utility.yul\":6249:6271   */\n      swap1\n      pop\n        /* \"#utility.yul\":6316:6317   */\n      0x01\n        /* \"#utility.yul\":6310:6314   */\n      dup3\n        /* \"#utility.yul\":6306:6318   */\n      and\n        /* \"#utility.yul\":6337:6355   */\n      dup1\n        /* \"#utility.yul\":6327:6408   */\n      tag_137\n      jumpi\n        /* \"#utility.yul\":6393:6397   */\n      0x7f\n        /* \"#utility.yul\":6385:6391   */\n      dup3\n        /* \"#utility.yul\":6381:6398   */\n      and\n        /* \"#utility.yul\":6371:6398   */\n      swap2\n      pop\n        /* \"#utility.yul\":6327:6408   */\n    tag_137:\n        /* \"#utility.yul\":6455:6457   */\n      0x20\n        /* \"#utility.yul\":6447:6453   */\n      dup3\n        /* \"#utility.yul\":6444:6458   */\n      lt\n        /* \"#utility.yul\":6424:6442   */\n      dup2\n        /* \"#utility.yul\":6421:6459   */\n      sub\n        /* \"#utility.yul\":6418:6502   */\n      tag_138\n      jumpi\n        /* \"#utility.yul\":6474:6492   */\n      tag_139\n      tag_52\n      jump\t// in\n    tag_139:\n        /* \"#utility.yul\":6418:6502   */\n    tag_138:\n        /* \"#utility.yul\":6239:6508   */\n      pop\n        /* \"#utility.yul\":6188:6508   */\n      swap2\n      swap1\n      pop\n      jump\t// out\n        /* \"#utility.yul\":6514:6655   */\n    tag_53:\n        /* \"#utility.yul\":6563:6567   */\n      0x00\n        /* \"#utility.yul\":6586:6589   */\n      dup2\n        /* \"#utility.yul\":6578:6589   */\n      swap1\n      pop\n        /* \"#utility.yul\":6609:6612   */\n      dup2\n        /* \"#utility.yul\":6606:6607   */\n      0x00\n        /* \"#utility.yul\":6599:6613   */\n      mstore\n        /* \"#utility.yul\":6643:6647   */\n      0x20\n        /* \"#utility.yul\":6640:6641   */\n      0x00\n        /* \"#utility.yul\":6630:6648   */\n      keccak256\n        /* \"#utility.yul\":6622:6648   */\n      swap1\n      pop\n        /* \"#utility.yul\":6514:6655   */\n      swap2\n      swap1\n      pop\n      jump\t// out\n        /* \"#utility.yul\":6661:6754   */\n    tag_54:\n        /* \"#utility.yul\":6698:6704   */\n      0x00\n        /* \"#utility.yul\":6745:6747   */\n      0x20\n        /* \"#utility.yul\":6740:6742   */\n      0x1f\n        /* \"#utility.yul\":6733:6738   */\n      dup4\n        /* \"#utility.yul\":6729:6743   */\n      add\n        /* \"#utility.yul\":6725:6748   */\n      div\n        /* \"#utility.yul\":6715:6748   */\n      swap1\n      pop\n        /* \"#utility.yul\":6661:6754   */\n      swap2\n      swap1\n      pop\n      jump\t// out\n        /* \"#utility.yul\":6760:6867   */\n    tag_55:\n        /* \"#utility.yul\":6804:6812   */\n      0x00\n        /* \"#utility.yul\":6854:6859   */\n      dup3\n        /* \"#utility.yul\":6848:6852   */\n      dup3\n        /* \"#utility.yul\":6844:6860   */\n      shl\n        /* \"#utility.yul\":6823:6860   */\n      swap1\n      pop\n        /* \"#utility.yul\":6760:6867   */\n      swap3\n      swap2\n      pop\n      pop\n      jump\t// out\n        /* \"#utility.yul\":6873:7266   */\n    tag_56:\n        /* \"#utility.yul\":6942:6948   */\n      0x00\n        /* \"#utility.yul\":6992:6993   */\n      0x08\n        /* \"#utility.yul\":6980:6990   */\n      dup4\n        /* \"#utility.yul\":6976:6994   */\n      mul\n        /* \"#utility.yul\":7015:7112   */\n      tag_144\n        /* \"#utility.yul\":7045:7111   */\n      0xffffffffffffffffffffffffffffffffffffffffffffffffffffffffffffffff\n        /* \"#utility.yul\":7034:7043   */\n      dup3\n        /* \"#utility.yul\":7015:7112   */\n      tag_55\n      jump\t// in\n    tag_144:\n        /* \"#utility.yul\":7133:7172   */\n      tag_145\n        /* \"#utility.yul\":7163:7171   */\n      dup7\n        /* \"#utility.yul\":7152:7161   */\n      dup4\n        /* \"#utility.yul\":7133:7172   */\n      tag_55\n      jump\t// in\n    tag_145:\n        /* \"#utility.yul\":7121:7172   */\n      swap6\n      pop\n        /* \"#utility.yul\":7205:7209   */\n      dup1\n        /* \"#utility.yul\":7201:7210   */\n      not\n        /* \"#utility.yul\":7194:7199   */\n      dup5\n        /* \"#utility.yul\":7190:7211   */\n      and\n        /* \"#utility.yul\":7181:7211   */\n      swap4\n      pop\n        /* \"#utility.yul\":7254:7258   */\n      dup1\n        /* \"#utility.yul\":7244:7252   */\n      dup7\n        /* \"#utility.yul\":7240:7259   */\n      and\n        /* \"#utility.yul\":7233:7238   */\n      dup5\n        /* \"#utility.yul\":7230:7260   */\n      or\n        /* \"#utility.yul\":7220:7260   */\n      swap3\n      pop\n        /* \"#utility.yul\":6949:7266   */\n      pop\n      pop\n        /* \"#utility.yul\":6873:7266   */\n      swap4\n      swap3\n      pop\n      pop\n      pop\n      jump\t// out\n        /* \"#utility.yul\":7272:7332   */\n    tag_57:\n        /* \"#utility.yul\":7300:7303   */\n      0x00\n        /* \"#utility.yul\":7321:7326   */\n      dup2\n        /* \"#utility.yul\":7314:7326   */\n      swap1\n      pop\n        /* \"#utility.yul\":7272:7332   */\n      swap2\n      swap1\n      pop\n      jump\t// out\n        /* \"#utility.yul\":7338:7480   */\n    tag_58:\n        /* \"#utility.yul\":7388:7397   */\n      0x00\n        /* \"#utility.yul\":7421:7474   */\n      tag_148\n        /* \"#utility.yul\":7439:7473   */\n      tag_149\n        /* \"#utility.yul\":7448:7472   */\n      tag_150\n        /* \"#utility.yul\":7466:7471   */\n      dup5\n        /* \"#utility.yul\":7448:7472   */\n      tag_34\n      jump\t// in\n    tag_150:\n        /* \"#utility.yul\":7439:7473   */\n      tag_57\n      jump\t// in\n    tag_149:\n        /* \"#utility.yul\":7421:7474   */\n      tag_34\n      jump\t// in\n    tag_148:\n        /* \"#utility.yul\":7408:7474   */\n      swap1\n      pop\n        /* \"#utility.yul\":7338:7480   */\n      swap2\n      swap1\n      pop\n      jump\t// out\n        /* \"#utility.yul\":7486:7561   */\n    tag_59:\n        /* \"#utility.yul\":7529:7532   */\n      0x00\n        /* \"#utility.yul\":7550:7555   */\n      dup2\n        /* \"#utility.yul\":7543:7555   */\n      swap1\n      pop\n        /* \"#utility.yul\":7486:7561   */\n      swap2\n      swap1\n      pop\n      jump\t// out\n        /* \"#utility.yul\":7567:7836   */\n    tag_60:\n        /* \"#utility.yul\":7677:7716   */\n      tag_153\n        /* \"#utility.yul\":7708:7715   */\n      dup4\n        /* \"#utility.yul\":7677:7716   */\n      tag_58\n      jump\t// in\n    tag_153:\n        /* \"#utility.yul\":7738:7829   */\n      tag_154\n        /* \"#utility.yul\":7787:7828   */\n      tag_155\n        /* \"#utility.yul\":7811:7827   */\n      dup3\n        /* \"#utility.yul\":7787:7828   */\n      tag_59\n      jump\t// in\n    tag_155:\n        /* \"#utility.yul\":7779:7785   */\n      dup5\n        /* \"#utility.yul\":7772:7776   */\n      dup5\n        /* \"#utility.yul\":7766:7777   */\n      sload\n        /* \"#utility.yul\":7738:7829   */\n      tag_56\n      jump\t// in\n    tag_154:\n        /* \"#utility.yul\":7732:7736   */\n      dup3\n        /* \"#utility.yul\":7725:7830   */\n      sstore\n        /* \"#utility.yul\":7643:7836   */\n      pop\n        /* \"#utility.yul\":7567:7836   */\n      pop\n      pop\n      pop\n      jump\t// out\n        /* \"#utility.yul\":7842:7915   */\n    tag_61:\n        /* \"#utility.yul\":7887:7890   */\n      0x00\n        /* \"#utility.yul\":7842:7915   */\n      swap1\n      jump\t// out\n        /* \"#utility.yul\":7921:8110   */\n    tag_62:\n        /* \"#utility.yul\":7998:8030   */\n      tag_158\n      tag_61\n      jump\t// in\n    tag_158:\n        /* \"#utility.yul\":8039:8104   */\n      tag_159\n        /* \"#utility.yul\":8097:8103   */\n      dup2\n        /* \"#utility.yul\":8089:8095   */\n      dup5\n        /* \"#utility.yul\":8083:8087   */\n      dup5\n        /* \"#utility.yul\":8039:8104   */\n      tag_60\n      jump\t// in\n    tag_159:\n        /* \"#utility.yul\":7974:8110   */\n      pop\n        /* \"#utility.yul\":7921:8110   */\n      pop\n      pop\n      jump\t// out\n        /* \"#utility.yul\":8116:8302   */\n    tag_63:\n        /* \"#utility.yul\":8176:8296   */\n    tag_161:\n        /* \"#utility.yul\":8193:8196   */\n      dup2\n        /* \"#utility.yul\":8186:8191   */\n      dup2\n        /* \"#utility.yul\":8183:8197   */\n      lt\n        /* \"#utility.yul\":8176:8296   */\n      iszero\n      tag_163\n      jumpi\n        /* \"#utility.yul\":8247:8286   */\n      tag_164\n        /* \"#utility.yul\":8284:8285   */\n      0x00\n        /* \"#utility.yul\":8277:8282   */\n      dup3\n        /* \"#utility.yul\":8247:8286   */\n      tag_62\n      jump\t// in\n    tag_164:\n        /* \"#utility.yul\":8220:8221   */\n      0x01\n        /* \"#utility.yul\":8213:8218   */\n      dup2\n        /* \"#utility.yul\":8209:8222   */\n      add\n        /* \"#utility.yul\":8200:8222   */\n      swap1\n      pop\n        /* \"#utility.yul\":8176:8296   */\n      jump(tag_161)\n    tag_163:\n        /* \"#utility.yul\":8116:8302   */\n      pop\n      pop\n      jump\t// out\n        /* \"#utility.yul\":8308:8851   */\n    tag_64:\n        /* \"#utility.yul\":8409:8411   */\n      0x1f\n        /* \"#utility.yul\":8404:8407   */\n      dup3\n        /* \"#utility.yul\":8401:8412   */\n      gt\n        /* \"#utility.yul\":8398:8844   */\n      iszero\n      tag_166\n      jumpi\n        /* \"#utility.yul\":8443:8481   */\n      tag_167\n        /* \"#utility.yul\":8475:8480   */\n      dup2\n        /* \"#utility.yul\":8443:8481   */\n      tag_53\n      jump\t// in\n    tag_167:\n        /* \"#utility.yul\":8527:8556   */\n      tag_168\n        /* \"#utility.yul\":8545:8555   */\n      dup5\n        /* \"#utility.yul\":8527:8556   */\n      tag_54\n      jump\t// in\n    tag_168:\n        /* \"#utility.yul\":8517:8525   */\n      dup2\n        /* \"#utility.yul\":8513:8557   */\n      add\n        /* \"#utility.yul\":8710:8712   */\n      0x20\n        /* \"#utility.yul\":8698:8708   */\n      dup6\n        /* \"#utility.yul\":8695:8713   */\n      lt\n        /* \"#utility.yul\":8692:8741   */\n      iszero\n      tag_169\n      jumpi\n        /* \"#utility.yul\":8731:8739   */\n      dup2\n        /* \"#utility.yul\":8716:8739   */\n      swap1\n      pop\n        /* \"#utility.yul\":8692:8741   */\n    tag_169:\n        /* \"#utility.yul\":8754:8834   */\n      tag_170\n        /* \"#utility.yul\":8810:8832   */\n      tag_171\n        /* \"#utility.yul\":8828:8831   */\n      dup6\n        /* \"#utility.yul\":8810:8832   */\n      tag_54\n      jump\t// in\n    tag_171:\n        /* \"#utility.yul\":8800:8808   */\n      dup4\n        /* \"#utility.yul\":8796:8833   */\n      add\n        /* \"#utility.yul\":8783:8794   */\n      dup3\n        /* \"#utility.yul\":8754:8834   */\n      tag_63\n      jump\t// in\n    tag_170:\n        /* \"#utility.yul\":8413:8844   */\n      pop\n      pop\n        /* \"#utility.yul\":8398:8844   */\n    tag_166:\n        /* \"#utility.yul\":8308:8851   */\n      pop\n      pop\n      pop\n      jump\t// out\n        /* \"#utility.yul\":8857:8974   */\n    tag_65:\n        /* \"#utility.yul\":8911:8919   */\n      0x00\n        /* \"#utility.yul\":8961:8966   */\n      dup3\n        /* \"#utility.yul\":8955:8959   */\n      dup3\n        /* \"#utility.yul\":8951:8967   */\n      shr\n        /* \"#utility.yul\":8930:8967   */\n      swap1\n      pop\n        /* \"#utility.yul\":8857:8974   */\n      swap3\n      swap2\n      pop\n      pop\n      jump\t// out\n        /* \"#utility.yul\":8980:9149   */\n    tag_66:\n        /* \"#utility.yul\":9024:9030   */\n      0x00\n        /* \"#utility.yul\":9057:9108   */\n      tag_174\n        /* \"#utility.yul\":9105:9106   */\n      0x00\n        /* \"#utility.yul\":9101:9107   */\n      not\n        /* \"#utility.yul\":9093:9098   */\n      dup5\n        /* \"#utility.yul\":9090:9091   */\n      0x08\n        /* \"#utility.yul\":9086:9099   */\n      mul\n        /* \"#utility.yul\":9057:9108   */\n      tag_65\n      jump\t// in\n    tag_174:\n        /* \"#utility.yul\":9053:9109   */\n      not\n        /* \"#utility.yul\":9138:9142   */\n      dup1\n        /* \"#utility.yul\":9132:9136   */\n      dup4\n        /* \"#utility.yul\":9128:9143   */\n      and\n        /* \"#utility.yul\":9118:9143   */\n      swap2\n      pop\n        /* \"#utility.yul\":9031:9149   */\n      pop\n        /* \"#utility.yul\":8980:9149   */\n      swap3\n      swap2\n      pop\n      pop\n      jump\t// out\n        /* \"#utility.yul\":9154:9449   */\n    tag_67:\n        /* \"#utility.yul\":9230:9234   */\n      0x00\n        /* \"#utility.yul\":9376:9405   */\n      tag_176\n        /* \"#utility.yul\":9401:9404   */\n      dup4\n        /* \"#utility.yul\":9395:9399   */\n      dup4\n        /* \"#utility.yul\":9376:9405   */\n      tag_66\n      jump\t// in\n    tag_176:\n        /* \"#utility.yul\":9368:9405   */\n      swap2\n      pop\n        /* \"#utility.yul\":9438:9441   */\n      dup3\n        /* \"#utility.yul\":9435:9436   */\n      0x02\n        /* \"#utility.yul\":9431:9442   */\n      mul\n        /* \"#utility.yul\":9425:9429   */\n      dup3\n        /* \"#utility.yul\":9422:9443   */\n      or\n        /* \"#utility.yul\":9414:9443   */\n      swap1\n      pop\n        /* \"#utility.yul\":9154:9449   */\n      swap3\n      swap2\n      pop\n      pop\n      jump\t// out\n        /* \"#utility.yul\":9454:10849   */\n    tag_22:\n        /* \"#utility.yul\":9571:9608   */\n      tag_178\n        /* \"#utility.yul\":9604:9607   */\n      dup3\n        /* \"#utility.yul\":9571:9608   */\n      tag_48\n      jump\t// in\n    tag_178:\n        /* \"#utility.yul\":9673:9691   */\n      0xffffffffffffffff\n        /* \"#utility.yul\":9665:9671   */\n      dup2\n        /* \"#utility.yul\":9662:9692   */\n      gt\n        /* \"#utility.yul\":9659:9715   */\n      iszero\n      tag_179\n      jumpi\n        /* \"#utility.yul\":9695:9713   */\n      tag_180\n      tag_40\n      jump\t// in\n    tag_180:\n        /* \"#utility.yul\":9659:9715   */\n    tag_179:\n        /* \"#utility.yul\":9739:9777   */\n      tag_181\n        /* \"#utility.yul\":9771:9775   */\n      dup3\n        /* \"#utility.yul\":9765:9776   */\n      sload\n        /* \"#utility.yul\":9739:9777   */\n      tag_26\n      jump\t// in\n    tag_181:\n        /* \"#utility.yul\":9824:9891   */\n      tag_182\n        /* \"#utility.yul\":9884:9890   */\n      dup3\n        /* \"#utility.yul\":9876:9882   */\n      dup3\n        /* \"#utility.yul\":9870:9874   */\n      dup6\n        /* \"#utility.yul\":9824:9891   */\n      tag_64\n      jump\t// in\n    tag_182:\n        /* \"#utility.yul\":9918:9919   */\n      0x00\n        /* \"#utility.yul\":9942:9946   */\n      0x20\n        /* \"#utility.yul\":9929:9946   */\n      swap1\n      pop\n        /* \"#utility.yul\":9974:9976   */\n      0x1f\n        /* \"#utility.yul\":9966:9972   */\n      dup4\n        /* \"#utility.yul\":9963:9977   */\n      gt\n        /* \"#utility.yul\":9991:9992   */\n      0x01\n        /* \"#utility.yul\":9986:10604   */\n      dup2\n      eq\n      tag_184\n      jumpi\n        /* \"#utility.yul\":10648:10649   */\n      0x00\n        /* \"#utility.yul\":10665:10671   */\n      dup5\n        /* \"#utility.yul\":10662:10739   */\n      iszero\n      tag_185\n      jumpi\n        /* \"#utility.yul\":10714:10723   */\n      dup3\n        /* \"#utility.yul\":10709:10712   */\n      dup8\n        /* \"#utility.yul\":10705:10724   */\n      add\n        /* \"#utility.yul\":10699:10725   */\n      mload\n        /* \"#utility.yul\":10690:10725   */\n      swap1\n      pop\n        /* \"#utility.yul\":10662:10739   */\n    tag_185:\n        /* \"#utility.yul\":10765:10832   */\n      tag_186\n        /* \"#utility.yul\":10825:10831   */\n      dup6\n        /* \"#utility.yul\":10818:10823   */\n      dup3\n        /* \"#utility.yul\":10765:10832   */\n      tag_67\n      jump\t// in\n    tag_186:\n        /* \"#utility.yul\":10759:10763   */\n      dup7\n        /* \"#utility.yul\":10752:10833   */\n      sstore\n        /* \"#utility.yul\":10621:10843   */\n      pop\n        /* \"#utility.yul\":9956:10843   */\n      jump(tag_183)\n        /* \"#utility.yul\":9986:10604   */\n    tag_184:\n        /* \"#utility.yul\":10038:10042   */\n      0x1f\n        /* \"#utility.yul\":10034:10043   */\n      not\n        /* \"#utility.yul\":10026:10032   */\n      dup5\n        /* \"#utility.yul\":10022:10044   */\n      and\n        /* \"#utility.yul\":10072:10109   */\n      tag_187\n        /* \"#utility.yul\":10104:10108   */\n      dup7\n        /* \"#utility.yul\":10072:10109   */\n      tag_53\n      jump\t// in\n    tag_187:\n        /* \"#utility.yul\":10131:10132   */\n      0x00\n        /* \"#utility.yul\":10145:10353   */\n    tag_188:\n        /* \"#utility.yul\":10159:10166   */\n      dup3\n        /* \"#utility.yul\":10156:10157   */\n      dup2\n        /* \"#utility.yul\":10153:10167   */\n      lt\n        /* \"#utility.yul\":10145:10353   */\n      iszero\n      tag_190\n      jumpi\n        /* \"#utility.yul\":10238:10247   */\n      dup5\n        /* \"#utility.yul\":10233:10236   */\n      dup10\n        /* \"#utility.yul\":10229:10248   */\n      add\n        /* \"#utility.yul\":10223:10249   */\n      mload\n        /* \"#utility.yul\":10215:10221   */\n      dup3\n        /* \"#utility.yul\":10208:10250   */\n      sstore\n        /* \"#utility.yul\":10289:10290   */\n      0x01\n        /* \"#utility.yul\":10281:10287   */\n      dup3\n        /* \"#utility.yul\":10277:10291   */\n      add\n        /* \"#utility.yul\":10267:10291   */\n      swap2\n      pop\n        /* \"#utility.yul\":10336:10338   */\n      0x20\n        /* \"#utility.yul\":10325:10334   */\n      dup6\n        /* \"#utility.yul\":10321:10339   */\n      add\n        /* \"#utility.yul\":10308:10339   */\n      swap5\n      pop\n        /* \"#utility.yul\":10182:10186   */\n      0x20\n        /* \"#utility.yul\":10179:10180   */\n      dup2\n        /* \"#utility.yul\":10175:10187   */\n      add\n        /* \"#utility.yul\":10170:10187   */\n      swap1\n      pop\n        /* \"#utility.yul\":10145:10353   */\n      jump(tag_188)\n    tag_190:\n        /* \"#utility.yul\":10381:10387   */\n      dup7\n        /* \"#utility.yul\":10372:10379   */\n      dup4\n        /* \"#utility.yul\":10369:10388   */\n      lt\n        /* \"#utility.yul\":10366:10545   */\n      iszero\n      tag_191\n      jumpi\n        /* \"#utility.yul\":10439:10448   */\n      dup5\n        /* \"#utility.yul\":10434:10437   */\n      dup10\n        /* \"#utility.yul\":10430:10449   */\n      add\n        /* \"#utility.yul\":10424:10450   */\n      mload\n        /* \"#utility.yul\":10482:10530   */\n      tag_192\n        /* \"#utility.yul\":10524:10528   */\n      0x1f\n        /* \"#utility.yul\":10516:10522   */\n      dup10\n        /* \"#utility.yul\":10512:10529   */\n      and\n        /* \"#utility.yul\":10501:10510   */\n      dup3\n        /* \"#utility.yul\":10482:10530   */\n      tag_66\n      jump\t// in\n    tag_192:\n        /* \"#utility.yul\":10474:10480   */\n      dup4\n        /* \"#utility.yul\":10467:10531   */\n      sstore\n        /* \"#utility.yul\":10389:10545   */\n      pop\n        /* \"#utility.yul\":10366:10545   */\n    tag_191:\n        /* \"#utility.yul\":10591:10592   */\n      0x01\n        /* \"#utility.yul\":10587:10588   */\n      0x02\n        /* \"#utility.yul\":10579:10585   */\n      dup9\n        /* \"#utility.yul\":10575:10589   */\n      mul\n        /* \"#utility.yul\":10571:10593   */\n      add\n        /* \"#utility.yul\":10565:10569   */\n      dup9\n        /* \"#utility.yul\":10558:10594   */\n      sstore\n        /* \"#utility.yul\":9993:10604   */\n      pop\n      pop\n      pop\n        /* \"#utility.yul\":9956:10843   */\n    tag_183:\n      pop\n        /* \"#utility.yul\":9546:10849   */\n      pop\n      pop\n      pop\n        /* \"#utility.yul\":9454:10849   */\n      pop\n      pop\n      jump\t// out\n\n    auxdata: 0xa2646970667358221220d259953709aa6addf4b76cf1e40319317a7b66316125f303acd68200fab52df864736f6c634300081a0033\n}\n",
				"bytecode": {
					"linkReferences": {},
					"object": "6080604052348015600e575f80fd5b506107f88061001c5f395ff3fe608060405234801561000f575f80fd5b506004361061003f575f3560e01c80634268ff2d146100435780639c3bddb21461005f578063b9db15b41461007b575b5f80fd5b61005d60048036038101906100589190610379565b6100ad565b005b610079600480360381019061007491906103e5565b610108565b005b61009560048036038101906100909190610423565b610124565b6040516100a4939291906104bd565b60405180910390f35b6040518060600160405280848152602001838152602001828152505f808581526020019081526020015f205f820151815f015560208201518160010190816100f591906106f3565b5060408201518160020155905050505050565b805f808481526020019081526020015f20600201819055505050565b5f60605f805f8581526020019081526020015f205f01545f808681526020019081526020015f206001015f808781526020019081526020015f206002015481805461016e90610526565b80601f016020809104026020016040519081016040528092919081815260200182805461019a90610526565b80156101e55780601f106101bc576101008083540402835291602001916101e5565b820191905f5260205f20905b8154815290600101906020018083116101c857829003601f168201915b505050505091509250925092509193909250565b5f604051905090565b5f80fd5b5f80fd5b5f819050919050565b61021c8161020a565b8114610226575f80fd5b50565b5f8135905061023781610213565b92915050565b5f80fd5b5f80fd5b5f601f19601f8301169050919050565b7f4e487b71000000000000000000000000000000000000000000000000000000005f52604160045260245ffd5b61028b82610245565b810181811067ffffffffffffffff821117156102aa576102a9610255565b5b80604052505050565b5f6102bc6101f9565b90506102c88282610282565b919050565b5f67ffffffffffffffff8211156102e7576102e6610255565b5b6102f082610245565b9050602081019050919050565b828183375f83830152505050565b5f61031d610318846102cd565b6102b3565b90508281526020810184848401111561033957610338610241565b5b6103448482856102fd565b509392505050565b5f82601f8301126103605761035f61023d565b5b813561037084826020860161030b565b91505092915050565b5f805f606084860312156103905761038f610202565b5b5f61039d86828701610229565b935050602084013567ffffffffffffffff8111156103be576103bd610206565b5b6103ca8682870161034c565b92505060406103db86828701610229565b9150509250925092565b5f80604083850312156103fb576103fa610202565b5b5f61040885828601610229565b925050602061041985828601610229565b9150509250929050565b5f6020828403121561043857610437610202565b5b5f61044584828501610229565b91505092915050565b6104578161020a565b82525050565b5f81519050919050565b5f82825260208201905092915050565b8281835e5f83830152505050565b5f61048f8261045d565b6104998185610467565b93506104a9818560208601610477565b6104b281610245565b840191505092915050565b5f6060820190506104d05f83018661044e565b81810360208301526104e28185610485565b90506104f1604083018461044e565b949350505050565b7f4e487b71000000000000000000000000000000000000000000000000000000005f52602260045260245ffd5b5f600282049050600182168061053d57607f821691505b6020821081036105505761054f6104f9565b5b50919050565b5f819050815f5260205f209050919050565b5f6020601f8301049050919050565b5f82821b905092915050565b5f600883026105b27fffffffffffffffffffffffffffffffffffffffffffffffffffffffffffffffff82610577565b6105bc8683610577565b95508019841693508086168417925050509392505050565b5f819050919050565b5f6105f76105f26105ed8461020a565b6105d4565b61020a565b9050919050565b5f819050919050565b610610836105dd565b61062461061c826105fe565b848454610583565b825550505050565b5f90565b61063861062c565b610643818484610607565b505050565b5b818110156106665761065b5f82610630565b600181019050610649565b5050565b601f8211156106ab5761067c81610556565b61068584610568565b81016020851015610694578190505b6106a86106a085610568565b830182610648565b50505b505050565b5f82821c905092915050565b5f6106cb5f19846008026106b0565b1980831691505092915050565b5f6106e383836106bc565b9150826002028217905092915050565b6106fc8261045d565b67ffffffffffffffff81111561071557610714610255565b5b61071f8254610526565b61072a82828561066a565b5f60209050601f83116001811461075b575f8415610749578287015190505b61075385826106d8565b8655506107ba565b601f19841661076986610556565b5f5b828110156107905784890151825560018201915060208501945060208101905061076b565b868310156107ad57848901516107a9601f8916826106bc565b8355505b6001600288020188555050505b50505050505056fea2646970667358221220d259953709aa6addf4b76cf1e40319317a7b66316125f303acd68200fab52df864736f6c634300081a0033",
					"opcodes": "PUSH1 0x80 PUSH1 0x40 MSTORE CALLVALUE DUP1 ISZERO PUSH1 0xE JUMPI PUSH0 DUP1 REVERT JUMPDEST POP PUSH2 0x7F8 DUP1 PUSH2 0x1C PUSH0 CODECOPY PUSH0 RETURN INVALID PUSH1 0x80 PUSH1 0x40 MSTORE CALLVALUE DUP1 ISZERO PUSH2 0xF JUMPI PUSH0 DUP1 REVERT JUMPDEST POP PUSH1 0x4 CALLDATASIZE LT PUSH2 0x3F JUMPI PUSH0 CALLDATALOAD PUSH1 0xE0 SHR DUP1 PUSH4 0x4268FF2D EQ PUSH2 0x43 JUMPI DUP1 PUSH4 0x9C3BDDB2 EQ PUSH2 0x5F JUMPI DUP1 PUSH4 0xB9DB15B4 EQ PUSH2 0x7B JUMPI JUMPDEST PUSH0 DUP1 REVERT JUMPDEST PUSH2 0x5D PUSH1 0x4 DUP1 CALLDATASIZE SUB DUP2 ADD SWAP1 PUSH2 0x58 SWAP2 SWAP1 PUSH2 0x379 JUMP JUMPDEST PUSH2 0xAD JUMP JUMPDEST STOP JUMPDEST PUSH2 0x79 PUSH1 0x4 DUP1 CALLDATASIZE SUB DUP2 ADD SWAP1 PUSH2 0x74 SWAP2 SWAP1 PUSH2 0x3E5 JUMP JUMPDEST PUSH2 0x108 JUMP JUMPDEST STOP JUMPDEST PUSH2 0x95 PUSH1 0x4 DUP1 CALLDATASIZE SUB DUP2 ADD SWAP1 PUSH2 0x90 SWAP2 SWAP1 PUSH2 0x423 JUMP JUMPDEST PUSH2 0x124 JUMP JUMPDEST PUSH1 0x40 MLOAD PUSH2 0xA4 SWAP4 SWAP3 SWAP2 SWAP1 PUSH2 0x4BD JUMP JUMPDEST PUSH1 0x40 MLOAD DUP1 SWAP2 SUB SWAP1 RETURN JUMPDEST PUSH1 0x40 MLOAD DUP1 PUSH1 0x60 ADD PUSH1 0x40 MSTORE DUP1 DUP5 DUP2 MSTORE PUSH1 0x20 ADD DUP4 DUP2 MSTORE PUSH1 0x20 ADD DUP3 DUP2 MSTORE POP PUSH0 DUP1 DUP6 DUP2 MSTORE PUSH1 0x20 ADD SWAP1 DUP2 MSTORE PUSH1 0x20 ADD PUSH0 KECCAK256 PUSH0 DUP3 ADD MLOAD DUP2 PUSH0 ADD SSTORE PUSH1 0x20 DUP3 ADD MLOAD DUP2 PUSH1 0x1 ADD SWAP1 DUP2 PUSH2 0xF5 SWAP2 SWAP1 PUSH2 0x6F3 JUMP JUMPDEST POP PUSH1 0x40 DUP3 ADD MLOAD DUP2 PUSH1 0x2 ADD SSTORE SWAP1 POP POP POP POP POP JUMP JUMPDEST DUP1 PUSH0 DUP1 DUP5 DUP2 MSTORE PUSH1 0x20 ADD SWAP1 DUP2 MSTORE PUSH1 0x20 ADD PUSH0 KECCAK256 PUSH1 0x2 ADD DUP2 SWAP1 SSTORE POP POP POP JUMP JUMPDEST PUSH0 PUSH1 0x60 PUSH0 DUP1 PUSH0 DUP6 DUP2 MSTORE PUSH1 0x20 ADD SWAP1 DUP2 MSTORE PUSH1 0x20 ADD PUSH0 KECCAK256 PUSH0 ADD SLOAD PUSH0 DUP1 DUP7 DUP2 MSTORE PUSH1 0x20 ADD SWAP1 DUP2 MSTORE PUSH1 0x20 ADD PUSH0 KECCAK256 PUSH1 0x1 ADD PUSH0 DUP1 DUP8 DUP2 MSTORE PUSH1 0x20 ADD SWAP1 DUP2 MSTORE PUSH1 0x20 ADD PUSH0 KECCAK256 PUSH1 0x2 ADD SLOAD DUP2 DUP1 SLOAD PUSH2 0x16E SWAP1 PUSH2 0x526 JUMP JUMPDEST DUP1 PUSH1 0x1F ADD PUSH1 0x20 DUP1 SWAP2 DIV MUL PUSH1 0x20 ADD PUSH1 0x40 MLOAD SWAP1 DUP2 ADD PUSH1 0x40 MSTORE DUP1 SWAP3 SWAP2 SWAP1 DUP2 DUP2 MSTORE PUSH1 0x20 ADD DUP3 DUP1 SLOAD PUSH2 0x19A SWAP1 PUSH2 0x526 JUMP JUMPDEST DUP1 ISZERO PUSH2 0x1E5 JUMPI DUP1 PUSH1 0x1F LT PUSH2 0x1BC JUMPI PUSH2 0x100 DUP1 DUP4 SLOAD DIV MUL DUP4 MSTORE SWAP2 PUSH1 0x20 ADD SWAP2 PUSH2 0x1E5 JUMP JUMPDEST DUP3 ADD SWAP2 SWAP1 PUSH0 MSTORE PUSH1 0x20 PUSH0 KECCAK256 SWAP1 JUMPDEST DUP2 SLOAD DUP2 MSTORE SWAP1 PUSH1 0x1 ADD SWAP1 PUSH1 0x20 ADD DUP1 DUP4 GT PUSH2 0x1C8 JUMPI DUP3 SWAP1 SUB PUSH1 0x1F AND DUP3 ADD SWAP2 JUMPDEST POP POP POP POP POP SWAP2 POP SWAP3 POP SWAP3 POP SWAP3 POP SWAP2 SWAP4 SWAP1 SWAP3 POP JUMP JUMPDEST PUSH0 PUSH1 0x40 MLOAD SWAP1 POP SWAP1 JUMP JUMPDEST PUSH0 DUP1 REVERT JUMPDEST PUSH0 DUP1 REVERT JUMPDEST PUSH0 DUP2 SWAP1 POP SWAP2 SWAP1 POP JUMP JUMPDEST PUSH2 0x21C DUP2 PUSH2 0x20A JUMP JUMPDEST DUP2 EQ PUSH2 0x226 JUMPI PUSH0 DUP1 REVERT JUMPDEST POP JUMP JUMPDEST PUSH0 DUP2 CALLDATALOAD SWAP1 POP PUSH2 0x237 DUP2 PUSH2 0x213 JUMP JUMPDEST SWAP3 SWAP2 POP POP JUMP JUMPDEST PUSH0 DUP1 REVERT JUMPDEST PUSH0 DUP1 REVERT JUMPDEST PUSH0 PUSH1 0x1F NOT PUSH1 0x1F DUP4 ADD AND SWAP1 POP SWAP2 SWAP1 POP JUMP JUMPDEST PUSH32 0x4E487B7100000000000000000000000000000000000000000000000000000000 PUSH0 MSTORE PUSH1 0x41 PUSH1 0x4 MSTORE PUSH1 0x24 PUSH0 REVERT JUMPDEST PUSH2 0x28B DUP3 PUSH2 0x245 JUMP JUMPDEST DUP2 ADD DUP2 DUP2 LT PUSH8 0xFFFFFFFFFFFFFFFF DUP3 GT OR ISZERO PUSH2 0x2AA JUMPI PUSH2 0x2A9 PUSH2 0x255 JUMP JUMPDEST JUMPDEST DUP1 PUSH1 0x40 MSTORE POP POP POP JUMP JUMPDEST PUSH0 PUSH2 0x2BC PUSH2 0x1F9 JUMP JUMPDEST SWAP1 POP PUSH2 0x2C8 DUP3 DUP3 PUSH2 0x282 JUMP JUMPDEST SWAP2 SWAP1 POP JUMP JUMPDEST PUSH0 PUSH8 0xFFFFFFFFFFFFFFFF DUP3 GT ISZERO PUSH2 0x2E7 JUMPI PUSH2 0x2E6 PUSH2 0x255 JUMP JUMPDEST JUMPDEST PUSH2 0x2F0 DUP3 PUSH2 0x245 JUMP JUMPDEST SWAP1 POP PUSH1 0x20 DUP2 ADD SWAP1 POP SWAP2 SWAP1 POP JUMP JUMPDEST DUP3 DUP2 DUP4 CALLDATACOPY PUSH0 DUP4 DUP4 ADD MSTORE POP POP POP JUMP JUMPDEST PUSH0 PUSH2 0x31D PUSH2 0x318 DUP5 PUSH2 0x2CD JUMP JUMPDEST PUSH2 0x2B3 JUMP JUMPDEST SWAP1 POP DUP3 DUP2 MSTORE PUSH1 0x20 DUP2 ADD DUP5 DUP5 DUP5 ADD GT ISZERO PUSH2 0x339 JUMPI PUSH2 0x338 PUSH2 0x241 JUMP JUMPDEST JUMPDEST PUSH2 0x344 DUP5 DUP3 DUP6 PUSH2 0x2FD JUMP JUMPDEST POP SWAP4 SWAP3 POP POP POP JUMP JUMPDEST PUSH0 DUP3 PUSH1 0x1F DUP4 ADD SLT PUSH2 0x360 JUMPI PUSH2 0x35F PUSH2 0x23D JUMP JUMPDEST JUMPDEST DUP2 CALLDATALOAD PUSH2 0x370 DUP5 DUP3 PUSH1 0x20 DUP7 ADD PUSH2 0x30B JUMP JUMPDEST SWAP2 POP POP SWAP3 SWAP2 POP POP JUMP JUMPDEST PUSH0 DUP1 PUSH0 PUSH1 0x60 DUP5 DUP7 SUB SLT ISZERO PUSH2 0x390 JUMPI PUSH2 0x38F PUSH2 0x202 JUMP JUMPDEST JUMPDEST PUSH0 PUSH2 0x39D DUP7 DUP3 DUP8 ADD PUSH2 0x229 JUMP JUMPDEST SWAP4 POP POP PUSH1 0x20 DUP5 ADD CALLDATALOAD PUSH8 0xFFFFFFFFFFFFFFFF DUP2 GT ISZERO PUSH2 0x3BE JUMPI PUSH2 0x3BD PUSH2 0x206 JUMP JUMPDEST JUMPDEST PUSH2 0x3CA DUP7 DUP3 DUP8 ADD PUSH2 0x34C JUMP JUMPDEST SWAP3 POP POP PUSH1 0x40 PUSH2 0x3DB DUP7 DUP3 DUP8 ADD PUSH2 0x229 JUMP JUMPDEST SWAP2 POP POP SWAP3 POP SWAP3 POP SWAP3 JUMP JUMPDEST PUSH0 DUP1 PUSH1 0x40 DUP4 DUP6 SUB SLT ISZERO PUSH2 0x3FB JUMPI PUSH2 0x3FA PUSH2 0x202 JUMP JUMPDEST JUMPDEST PUSH0 PUSH2 0x408 DUP6 DUP3 DUP7 ADD PUSH2 0x229 JUMP JUMPDEST SWAP3 POP POP PUSH1 0x20 PUSH2 0x419 DUP6 DUP3 DUP7 ADD PUSH2 0x229 JUMP JUMPDEST SWAP2 POP POP SWAP3 POP SWAP3 SWAP1 POP JUMP JUMPDEST PUSH0 PUSH1 0x20 DUP3 DUP5 SUB SLT ISZERO PUSH2 0x438 JUMPI PUSH2 0x437 PUSH2 0x202 JUMP JUMPDEST JUMPDEST PUSH0 PUSH2 0x445 DUP5 DUP3 DUP6 ADD PUSH2 0x229 JUMP JUMPDEST SWAP2 POP POP SWAP3 SWAP2 POP POP JUMP JUMPDEST PUSH2 0x457 DUP2 PUSH2 0x20A JUMP JUMPDEST DUP3 MSTORE POP POP JUMP JUMPDEST PUSH0 DUP2 MLOAD SWAP1 POP SWAP2 SWAP1 POP JUMP JUMPDEST PUSH0 DUP3 DUP3 MSTORE PUSH1 0x20 DUP3 ADD SWAP1 POP SWAP3 SWAP2 POP POP JUMP JUMPDEST DUP3 DUP2 DUP4 MCOPY PUSH0 DUP4 DUP4 ADD MSTORE POP POP POP JUMP JUMPDEST PUSH0 PUSH2 0x48F DUP3 PUSH2 0x45D JUMP JUMPDEST PUSH2 0x499 DUP2 DUP6 PUSH2 0x467 JUMP JUMPDEST SWAP4 POP PUSH2 0x4A9 DUP2 DUP6 PUSH1 0x20 DUP7 ADD PUSH2 0x477 JUMP JUMPDEST PUSH2 0x4B2 DUP2 PUSH2 0x245 JUMP JUMPDEST DUP5 ADD SWAP2 POP POP SWAP3 SWAP2 POP POP JUMP JUMPDEST PUSH0 PUSH1 0x60 DUP3 ADD SWAP1 POP PUSH2 0x4D0 PUSH0 DUP4 ADD DUP7 PUSH2 0x44E JUMP JUMPDEST DUP2 DUP2 SUB PUSH1 0x20 DUP4 ADD MSTORE PUSH2 0x4E2 DUP2 DUP6 PUSH2 0x485 JUMP JUMPDEST SWAP1 POP PUSH2 0x4F1 PUSH1 0x40 DUP4 ADD DUP5 PUSH2 0x44E JUMP JUMPDEST SWAP5 SWAP4 POP POP POP POP JUMP JUMPDEST PUSH32 0x4E487B7100000000000000000000000000000000000000000000000000000000 PUSH0 MSTORE PUSH1 0x22 PUSH1 0x4 MSTORE PUSH1 0x24 PUSH0 REVERT JUMPDEST PUSH0 PUSH1 0x2 DUP3 DIV SWAP1 POP PUSH1 0x1 DUP3 AND DUP1 PUSH2 0x53D JUMPI PUSH1 0x7F DUP3 AND SWAP2 POP JUMPDEST PUSH1 0x20 DUP3 LT DUP2 SUB PUSH2 0x550 JUMPI PUSH2 0x54F PUSH2 0x4F9 JUMP JUMPDEST JUMPDEST POP SWAP2 SWAP1 POP JUMP JUMPDEST PUSH0 DUP2 SWAP1 POP DUP2 PUSH0 MSTORE PUSH1 0x20 PUSH0 KECCAK256 SWAP1 POP SWAP2 SWAP1 POP JUMP JUMPDEST PUSH0 PUSH1 0x20 PUSH1 0x1F DUP4 ADD DIV SWAP1 POP SWAP2 SWAP1 POP JUMP JUMPDEST PUSH0 DUP3 DUP3 SHL SWAP1 POP SWAP3 SWAP2 POP POP JUMP JUMPDEST PUSH0 PUSH1 0x8 DUP4 MUL PUSH2 0x5B2 PUSH32 0xFFFFFFFFFFFFFFFFFFFFFFFFFFFFFFFFFFFFFFFFFFFFFFFFFFFFFFFFFFFFFFFF DUP3 PUSH2 0x577 JUMP JUMPDEST PUSH2 0x5BC DUP7 DUP4 PUSH2 0x577 JUMP JUMPDEST SWAP6 POP DUP1 NOT DUP5 AND SWAP4 POP DUP1 DUP7 AND DUP5 OR SWAP3 POP POP POP SWAP4 SWAP3 POP POP POP JUMP JUMPDEST PUSH0 DUP2 SWAP1 POP SWAP2 SWAP1 POP JUMP JUMPDEST PUSH0 PUSH2 0x5F7 PUSH2 0x5F2 PUSH2 0x5ED DUP5 PUSH2 0x20A JUMP JUMPDEST PUSH2 0x5D4 JUMP JUMPDEST PUSH2 0x20A JUMP JUMPDEST SWAP1 POP SWAP2 SWAP1 POP JUMP JUMPDEST PUSH0 DUP2 SWAP1 POP SWAP2 SWAP1 POP JUMP JUMPDEST PUSH2 0x610 DUP4 PUSH2 0x5DD JUMP JUMPDEST PUSH2 0x624 PUSH2 0x61C DUP3 PUSH2 0x5FE JUMP JUMPDEST DUP5 DUP5 SLOAD PUSH2 0x583 JUMP JUMPDEST DUP3 SSTORE POP POP POP POP JUMP JUMPDEST PUSH0 SWAP1 JUMP JUMPDEST PUSH2 0x638 PUSH2 0x62C JUMP JUMPDEST PUSH2 0x643 DUP2 DUP5 DUP5 PUSH2 0x607 JUMP JUMPDEST POP POP POP JUMP JUMPDEST JUMPDEST DUP2 DUP2 LT ISZERO PUSH2 0x666 JUMPI PUSH2 0x65B PUSH0 DUP3 PUSH2 0x630 JUMP JUMPDEST PUSH1 0x1 DUP2 ADD SWAP1 POP PUSH2 0x649 JUMP JUMPDEST POP POP JUMP JUMPDEST PUSH1 0x1F DUP3 GT ISZERO PUSH2 0x6AB JUMPI PUSH2 0x67C DUP2 PUSH2 0x556 JUMP JUMPDEST PUSH2 0x685 DUP5 PUSH2 0x568 JUMP JUMPDEST DUP2 ADD PUSH1 0x20 DUP6 LT ISZERO PUSH2 0x694 JUMPI DUP2 SWAP1 POP JUMPDEST PUSH2 0x6A8 PUSH2 0x6A0 DUP6 PUSH2 0x568 JUMP JUMPDEST DUP4 ADD DUP3 PUSH2 0x648 JUMP JUMPDEST POP POP JUMPDEST POP POP POP JUMP JUMPDEST PUSH0 DUP3 DUP3 SHR SWAP1 POP SWAP3 SWAP2 POP POP JUMP JUMPDEST PUSH0 PUSH2 0x6CB PUSH0 NOT DUP5 PUSH1 0x8 MUL PUSH2 0x6B0 JUMP JUMPDEST NOT DUP1 DUP4 AND SWAP2 POP POP SWAP3 SWAP2 POP POP JUMP JUMPDEST PUSH0 PUSH2 0x6E3 DUP4 DUP4 PUSH2 0x6BC JUMP JUMPDEST SWAP2 POP DUP3 PUSH1 0x2 MUL DUP3 OR SWAP1 POP SWAP3 SWAP2 POP POP JUMP JUMPDEST PUSH2 0x6FC DUP3 PUSH2 0x45D JUMP JUMPDEST PUSH8 0xFFFFFFFFFFFFFFFF DUP2 GT ISZERO PUSH2 0x715 JUMPI PUSH2 0x714 PUSH2 0x255 JUMP JUMPDEST JUMPDEST PUSH2 0x71F DUP3 SLOAD PUSH2 0x526 JUMP JUMPDEST PUSH2 0x72A DUP3 DUP3 DUP6 PUSH2 0x66A JUMP JUMPDEST PUSH0 PUSH1 0x20 SWAP1 POP PUSH1 0x1F DUP4 GT PUSH1 0x1 DUP2 EQ PUSH2 0x75B JUMPI PUSH0 DUP5 ISZERO PUSH2 0x749 JUMPI DUP3 DUP8 ADD MLOAD SWAP1 POP JUMPDEST PUSH2 0x753 DUP6 DUP3 PUSH2 0x6D8 JUMP JUMPDEST DUP7 SSTORE POP PUSH2 0x7BA JUMP JUMPDEST PUSH1 0x1F NOT DUP5 AND PUSH2 0x769 DUP7 PUSH2 0x556 JUMP JUMPDEST PUSH0 JUMPDEST DUP3 DUP2 LT ISZERO PUSH2 0x790 JUMPI DUP5 DUP10 ADD MLOAD DUP3 SSTORE PUSH1 0x1 DUP3 ADD SWAP2 POP PUSH1 0x20 DUP6 ADD SWAP5 POP PUSH1 0x20 DUP2 ADD SWAP1 POP PUSH2 0x76B JUMP JUMPDEST DUP7 DUP4 LT ISZERO PUSH2 0x7AD JUMPI DUP5 DUP10 ADD MLOAD PUSH2 0x7A9 PUSH1 0x1F DUP10 AND DUP3 PUSH2 0x6BC JUMP JUMPDEST DUP4 SSTORE POP JUMPDEST PUSH1 0x1 PUSH1 0x2 DUP9 MUL ADD DUP9 SSTORE POP POP POP JUMPDEST POP POP POP POP POP POP JUMP INVALID LOG2 PUSH5 0x6970667358 0x22 SLT KECCAK256 0xD2 MSIZE SWAP6 CALLDATACOPY MULMOD 0xAA PUSH11 0xDDF4B76CF1E40319317A7B PUSH7 0x316125F303ACD6 DUP3 STOP STATICCALL 0xB5 0x2D 0xF8 PUSH5 0x736F6C6343 STOP ADDMOD BYTE STOP CALLER "
				},
				"gasEstimates": {
					"creation": {
						"codeDepositCost": "408000",
						"executionCost": "441",
						"totalCost": "408441"
					},
					"external": {
						"addProduct(uint256,string,uint256)": "infinite",
						"getProduct(uint256)": "infinite",
						"updateProductPrice(uint256,uint256)": "infinite"
					}
				},
				"methodIdentifiers": {
					"addProduct(uint256,string,uint256)": "4268ff2d",
					"getProduct(uint256)": "b9db15b4",
					"updateProductPrice(uint256,uint256)": "9c3bddb2"
				}
			},
			"storageLayout": {
				"storage": [
					{
						"astId": 13,
						"contract": "Product Calalog/productcatalog.sol:productCatalog",
						"label": "products",
						"offset": 0,
						"slot": "0",
						"type": "t_mapping(t_uint256,t_struct(product)8_storage)"
					}
				],
				"types": {
					"t_mapping(t_uint256,t_struct(product)8_storage)": {
						"encoding": "mapping",
						"key": "t_uint256",
						"label": "mapping(uint256 => struct productCatalog.product)",
						"numberOfBytes": "32",
						"value": "t_struct(product)8_storage"
					},
					"t_string_storage": {
						"encoding": "bytes",
						"label": "string",
						"numberOfBytes": "32"
					},
					"t_struct(product)8_storage": {
						"encoding": "inplace",
						"label": "struct productCatalog.product",
						"members": [
							{
								"astId": 3,
								"contract": "Product Calalog/productcatalog.sol:productCatalog",
								"label": "id",
								"offset": 0,
								"slot": "0",
								"type": "t_uint256"
							},
							{
								"astId": 5,
								"contract": "Product Calalog/productcatalog.sol:productCatalog",
								"label": "name",
								"offset": 0,
								"slot": "1",
								"type": "t_string_storage"
							},
							{
								"astId": 7,
								"contract": "Product Calalog/productcatalog.sol:productCatalog",
								"label": "price",
								"offset": 0,
								"slot": "2",
								"type": "t_uint256"
							}
						],
						"numberOfBytes": "96"
					},
					"t_uint256": {
						"encoding": "inplace",
						"label": "uint256",
						"numberOfBytes": "32"
					}
				}
			},
			"userdoc": {
				"kind": "user",
				"methods": {},
				"version": 1
			}
		}
	}
}