{
	"VotingSystem/VotingSystem.sol": {
		"DecentralizedVotingSystem": {
			"abi": [
				{
					"inputs": [
						{
							"internalType": "uint256",
							"name": "_id",
							"type": "uint256"
						},
						{
							"internalType": "string",
							"name": "_name",
							"type": "string"
						}
					],
					"stateMutability": "nonpayable",
					"type": "constructor"
				},
				{
					"anonymous": false,
					"inputs": [
						{
							"indexed": false,
							"internalType": "uint256",
							"name": "electionId",
							"type": "uint256"
						},
						{
							"indexed": false,
							"internalType": "string",
							"name": "electionName",
							"type": "string"
						},
						{
							"indexed": false,
							"internalType": "uint256",
							"name": "endTime",
							"type": "uint256"
						}
					],
					"name": "ElectionEnded",
					"type": "event"
				},
				{
					"anonymous": false,
					"inputs": [
						{
							"indexed": false,
							"internalType": "uint256",
							"name": "electionId",
							"type": "uint256"
						},
						{
							"indexed": false,
							"internalType": "string",
							"name": "electionName",
							"type": "string"
						},
						{
							"indexed": false,
							"internalType": "uint256",
							"name": "stratTime",
							"type": "uint256"
						},
						{
							"indexed": false,
							"internalType": "uint256",
							"name": "endTime",
							"type": "uint256"
						}
					],
					"name": "ElectionStarted",
					"type": "event"
				},
				{
					"anonymous": false,
					"inputs": [
						{
							"indexed": true,
							"internalType": "address",
							"name": "voter",
							"type": "address"
						},
						{
							"indexed": false,
							"internalType": "uint256",
							"name": "candidateId",
							"type": "uint256"
						},
						{
							"indexed": false,
							"internalType": "string",
							"name": "candidateName",
							"type": "string"
						},
						{
							"indexed": false,
							"internalType": "uint256",
							"name": "voteCount",
							"type": "uint256"
						}
					],
					"name": "voted",
					"type": "event"
				},
				{
					"inputs": [
						{
							"internalType": "uint256",
							"name": "_id",
							"type": "uint256"
						},
						{
							"internalType": "string",
							"name": "_name",
							"type": "string"
						}
					],
					"name": "addCandidate",
					"outputs": [],
					"stateMutability": "nonpayable",
					"type": "function"
				},
				{
					"inputs": [],
					"name": "endElection",
					"outputs": [],
					"stateMutability": "nonpayable",
					"type": "function"
				},
				{
					"inputs": [
						{
							"internalType": "uint256",
							"name": "_candidateId",
							"type": "uint256"
						}
					],
					"name": "getCandidate",
					"outputs": [
						{
							"components": [
								{
									"internalType": "uint256",
									"name": "Id",
									"type": "uint256"
								},
								{
									"internalType": "string",
									"name": "name",
									"type": "string"
								},
								{
									"internalType": "uint256",
									"name": "voteCount",
									"type": "uint256"
								}
							],
							"internalType": "struct DecentralizedVotingSystem.Candidate",
							"name": "",
							"type": "tuple"
						}
					],
					"stateMutability": "view",
					"type": "function"
				},
				{
					"inputs": [],
					"name": "getElectionDetails",
					"outputs": [
						{
							"internalType": "uint256",
							"name": "",
							"type": "uint256"
						},
						{
							"internalType": "string",
							"name": "",
							"type": "string"
						},
						{
							"internalType": "uint256",
							"name": "",
							"type": "uint256"
						},
						{
							"internalType": "uint256",
							"name": "",
							"type": "uint256"
						}
					],
					"stateMutability": "view",
					"type": "function"
				},
				{
					"inputs": [
						{
							"internalType": "uint256",
							"name": "_startTime",
							"type": "uint256"
						},
						{
							"internalType": "uint256",
							"name": "_endTime",
							"type": "uint256"
						}
					],
					"name": "startElection",
					"outputs": [],
					"stateMutability": "nonpayable",
					"type": "function"
				},
				{
					"inputs": [
						{
							"internalType": "uint256",
							"name": "_candidateId",
							"type": "uint256"
						}
					],
					"name": "vote",
					"outputs": [],
					"stateMutability": "nonpayable",
					"type": "function"
				}
			],
			"devdoc": {
				"kind": "dev",
				"methods": {},
				"version": 1
			},
			"evm": {
				"assembly": "    /* \"VotingSystem/VotingSystem.sol\":1782:4656  contract DecentralizedVotingSystem {... */\n  mstore(0x40, 0x80)\n    /* \"VotingSystem/VotingSystem.sol\":2572:2709  constructor(uint256 _id, string memory _name) {... */\n  callvalue\n  dup1\n  iszero\n  tag_1\n  jumpi\n  0x00\n  dup1\n  revert\ntag_1:\n  pop\n  mload(0x40)\n  sub(codesize, bytecodeSize)\n  dup1\n  bytecodeSize\n  dup4\n  codecopy\n  dup2\n  dup2\n  add\n  0x40\n  mstore\n  dup2\n  add\n  swap1\n  tag_2\n  swap2\n  swap1\n  tag_3\n  jump\t// in\ntag_2:\n    /* \"VotingSystem/VotingSystem.sol\":2641:2644  _id */\n  dup2\n    /* \"VotingSystem/VotingSystem.sol\":2628:2638  electionId */\n  0x03\n    /* \"VotingSystem/VotingSystem.sol\":2628:2644  electionId = _id */\n  dup2\n  swap1\n  sstore\n  pop\n    /* \"VotingSystem/VotingSystem.sol\":2669:2674  _name */\n  dup1\n    /* \"VotingSystem/VotingSystem.sol\":2654:2666  electionName */\n  0x04\n    /* \"VotingSystem/VotingSystem.sol\":2654:2674  electionName = _name */\n  swap1\n  dup2\n  tag_6\n  swap2\n  swap1\n  tag_7\n  jump\t// in\ntag_6:\n  pop\n    /* \"VotingSystem/VotingSystem.sol\":2692:2702  msg.sender */\n  caller\n    /* \"VotingSystem/VotingSystem.sol\":2684:2689  owner */\n  0x00\n  dup1\n    /* \"VotingSystem/VotingSystem.sol\":2684:2702  owner = msg.sender */\n  0x0100\n  exp\n  dup2\n  sload\n  dup2\n  0xffffffffffffffffffffffffffffffffffffffff\n  mul\n  not\n  and\n  swap1\n  dup4\n  0xffffffffffffffffffffffffffffffffffffffff\n  and\n  mul\n  or\n  swap1\n  sstore\n  pop\n    /* \"VotingSystem/VotingSystem.sol\":2572:2709  constructor(uint256 _id, string memory _name) {... */\n  pop\n  pop\n    /* \"VotingSystem/VotingSystem.sol\":1782:4656  contract DecentralizedVotingSystem {... */\n  jump(tag_8)\n    /* \"#utility.yul\":7:82   */\ntag_9:\n    /* \"#utility.yul\":40:46   */\n  0x00\n    /* \"#utility.yul\":73:75   */\n  0x40\n    /* \"#utility.yul\":67:76   */\n  mload\n    /* \"#utility.yul\":57:76   */\n  swap1\n  pop\n    /* \"#utility.yul\":7:82   */\n  swap1\n  jump\t// out\n    /* \"#utility.yul\":88:205   */\ntag_10:\n    /* \"#utility.yul\":197:198   */\n  0x00\n    /* \"#utility.yul\":194:195   */\n  dup1\n    /* \"#utility.yul\":187:199   */\n  revert\n    /* \"#utility.yul\":211:328   */\ntag_11:\n    /* \"#utility.yul\":320:321   */\n  0x00\n    /* \"#utility.yul\":317:318   */\n  dup1\n    /* \"#utility.yul\":310:322   */\n  revert\n    /* \"#utility.yul\":334:411   */\ntag_12:\n    /* \"#utility.yul\":371:378   */\n  0x00\n    /* \"#utility.yul\":400:405   */\n  dup2\n    /* \"#utility.yul\":389:405   */\n  swap1\n  pop\n    /* \"#utility.yul\":334:411   */\n  swap2\n  swap1\n  pop\n  jump\t// out\n    /* \"#utility.yul\":417:539   */\ntag_13:\n    /* \"#utility.yul\":490:514   */\n  tag_49\n    /* \"#utility.yul\":508:513   */\n  dup2\n    /* \"#utility.yul\":490:514   */\n  tag_12\n  jump\t// in\ntag_49:\n    /* \"#utility.yul\":483:488   */\n  dup2\n    /* \"#utility.yul\":480:515   */\n  eq\n    /* \"#utility.yul\":470:533   */\n  tag_50\n  jumpi\n    /* \"#utility.yul\":529:530   */\n  0x00\n    /* \"#utility.yul\":526:527   */\n  dup1\n    /* \"#utility.yul\":519:531   */\n  revert\n    /* \"#utility.yul\":470:533   */\ntag_50:\n    /* \"#utility.yul\":417:539   */\n  pop\n  jump\t// out\n    /* \"#utility.yul\":545:688   */\ntag_14:\n    /* \"#utility.yul\":602:607   */\n  0x00\n    /* \"#utility.yul\":633:639   */\n  dup2\n    /* \"#utility.yul\":627:640   */\n  mload\n    /* \"#utility.yul\":618:640   */\n  swap1\n  pop\n    /* \"#utility.yul\":649:682   */\n  tag_52\n    /* \"#utility.yul\":676:681   */\n  dup2\n    /* \"#utility.yul\":649:682   */\n  tag_13\n  jump\t// in\ntag_52:\n    /* \"#utility.yul\":545:688   */\n  swap3\n  swap2\n  pop\n  pop\n  jump\t// out\n    /* \"#utility.yul\":694:811   */\ntag_15:\n    /* \"#utility.yul\":803:804   */\n  0x00\n    /* \"#utility.yul\":800:801   */\n  dup1\n    /* \"#utility.yul\":793:805   */\n  revert\n    /* \"#utility.yul\":817:934   */\ntag_16:\n    /* \"#utility.yul\":926:927   */\n  0x00\n    /* \"#utility.yul\":923:924   */\n  dup1\n    /* \"#utility.yul\":916:928   */\n  revert\n    /* \"#utility.yul\":940:1042   */\ntag_17:\n    /* \"#utility.yul\":981:987   */\n  0x00\n    /* \"#utility.yul\":1032:1034   */\n  0x1f\n    /* \"#utility.yul\":1028:1035   */\n  not\n    /* \"#utility.yul\":1023:1025   */\n  0x1f\n    /* \"#utility.yul\":1016:1021   */\n  dup4\n    /* \"#utility.yul\":1012:1026   */\n  add\n    /* \"#utility.yul\":1008:1036   */\n  and\n    /* \"#utility.yul\":998:1036   */\n  swap1\n  pop\n    /* \"#utility.yul\":940:1042   */\n  swap2\n  swap1\n  pop\n  jump\t// out\n    /* \"#utility.yul\":1048:1228   */\ntag_18:\n    /* \"#utility.yul\":1096:1173   */\n  0x4e487b7100000000000000000000000000000000000000000000000000000000\n    /* \"#utility.yul\":1093:1094   */\n  0x00\n    /* \"#utility.yul\":1086:1174   */\n  mstore\n    /* \"#utility.yul\":1193:1197   */\n  0x41\n    /* \"#utility.yul\":1190:1191   */\n  0x04\n    /* \"#utility.yul\":1183:1198   */\n  mstore\n    /* \"#utility.yul\":1217:1221   */\n  0x24\n    /* \"#utility.yul\":1214:1215   */\n  0x00\n    /* \"#utility.yul\":1207:1222   */\n  revert\n    /* \"#utility.yul\":1234:1515   */\ntag_19:\n    /* \"#utility.yul\":1317:1344   */\n  tag_58\n    /* \"#utility.yul\":1339:1343   */\n  dup3\n    /* \"#utility.yul\":1317:1344   */\n  tag_17\n  jump\t// in\ntag_58:\n    /* \"#utility.yul\":1309:1315   */\n  dup2\n    /* \"#utility.yul\":1305:1345   */\n  add\n    /* \"#utility.yul\":1447:1453   */\n  dup2\n    /* \"#utility.yul\":1435:1445   */\n  dup2\n    /* \"#utility.yul\":1432:1454   */\n  lt\n    /* \"#utility.yul\":1411:1429   */\n  0xffffffffffffffff\n    /* \"#utility.yul\":1399:1409   */\n  dup3\n    /* \"#utility.yul\":1396:1430   */\n  gt\n    /* \"#utility.yul\":1393:1455   */\n  or\n    /* \"#utility.yul\":1390:1478   */\n  iszero\n  tag_59\n  jumpi\n    /* \"#utility.yul\":1458:1476   */\n  tag_60\n  tag_18\n  jump\t// in\ntag_60:\n    /* \"#utility.yul\":1390:1478   */\ntag_59:\n    /* \"#utility.yul\":1498:1508   */\n  dup1\n    /* \"#utility.yul\":1494:1496   */\n  0x40\n    /* \"#utility.yul\":1487:1509   */\n  mstore\n    /* \"#utility.yul\":1277:1515   */\n  pop\n    /* \"#utility.yul\":1234:1515   */\n  pop\n  pop\n  jump\t// out\n    /* \"#utility.yul\":1521:1650   */\ntag_20:\n    /* \"#utility.yul\":1555:1561   */\n  0x00\n    /* \"#utility.yul\":1582:1602   */\n  tag_62\n  tag_9\n  jump\t// in\ntag_62:\n    /* \"#utility.yul\":1572:1602   */\n  swap1\n  pop\n    /* \"#utility.yul\":1611:1644   */\n  tag_63\n    /* \"#utility.yul\":1639:1643   */\n  dup3\n    /* \"#utility.yul\":1631:1637   */\n  dup3\n    /* \"#utility.yul\":1611:1644   */\n  tag_19\n  jump\t// in\ntag_63:\n    /* \"#utility.yul\":1521:1650   */\n  swap2\n  swap1\n  pop\n  jump\t// out\n    /* \"#utility.yul\":1656:1964   */\ntag_21:\n    /* \"#utility.yul\":1718:1722   */\n  0x00\n    /* \"#utility.yul\":1808:1826   */\n  0xffffffffffffffff\n    /* \"#utility.yul\":1800:1806   */\n  dup3\n    /* \"#utility.yul\":1797:1827   */\n  gt\n    /* \"#utility.yul\":1794:1850   */\n  iszero\n  tag_65\n  jumpi\n    /* \"#utility.yul\":1830:1848   */\n  tag_66\n  tag_18\n  jump\t// in\ntag_66:\n    /* \"#utility.yul\":1794:1850   */\ntag_65:\n    /* \"#utility.yul\":1868:1897   */\n  tag_67\n    /* \"#utility.yul\":1890:1896   */\n  dup3\n    /* \"#utility.yul\":1868:1897   */\n  tag_17\n  jump\t// in\ntag_67:\n    /* \"#utility.yul\":1860:1897   */\n  swap1\n  pop\n    /* \"#utility.yul\":1952:1956   */\n  0x20\n    /* \"#utility.yul\":1946:1950   */\n  dup2\n    /* \"#utility.yul\":1942:1957   */\n  add\n    /* \"#utility.yul\":1934:1957   */\n  swap1\n  pop\n    /* \"#utility.yul\":1656:1964   */\n  swap2\n  swap1\n  pop\n  jump\t// out\n    /* \"#utility.yul\":1970:2109   */\ntag_22:\n    /* \"#utility.yul\":2059:2065   */\n  dup3\n    /* \"#utility.yul\":2054:2057   */\n  dup2\n    /* \"#utility.yul\":2049:2052   */\n  dup4\n    /* \"#utility.yul\":2043:2066   */\n  mcopy\n    /* \"#utility.yul\":2100:2101   */\n  0x00\n    /* \"#utility.yul\":2091:2097   */\n  dup4\n    /* \"#utility.yul\":2086:2089   */\n  dup4\n    /* \"#utility.yul\":2082:2098   */\n  add\n    /* \"#utility.yul\":2075:2102   */\n  mstore\n    /* \"#utility.yul\":1970:2109   */\n  pop\n  pop\n  pop\n  jump\t// out\n    /* \"#utility.yul\":2115:2549   */\ntag_23:\n    /* \"#utility.yul\":2204:2209   */\n  0x00\n    /* \"#utility.yul\":2229:2295   */\n  tag_70\n    /* \"#utility.yul\":2245:2294   */\n  tag_71\n    /* \"#utility.yul\":2287:2293   */\n  dup5\n    /* \"#utility.yul\":2245:2294   */\n  tag_21\n  jump\t// in\ntag_71:\n    /* \"#utility.yul\":2229:2295   */\n  tag_20\n  jump\t// in\ntag_70:\n    /* \"#utility.yul\":2220:2295   */\n  swap1\n  pop\n    /* \"#utility.yul\":2318:2324   */\n  dup3\n    /* \"#utility.yul\":2311:2316   */\n  dup2\n    /* \"#utility.yul\":2304:2325   */\n  mstore\n    /* \"#utility.yul\":2356:2360   */\n  0x20\n    /* \"#utility.yul\":2349:2354   */\n  dup2\n    /* \"#utility.yul\":2345:2361   */\n  add\n    /* \"#utility.yul\":2394:2397   */\n  dup5\n    /* \"#utility.yul\":2385:2391   */\n  dup5\n    /* \"#utility.yul\":2380:2383   */\n  dup5\n    /* \"#utility.yul\":2376:2392   */\n  add\n    /* \"#utility.yul\":2373:2398   */\n  gt\n    /* \"#utility.yul\":2370:2482   */\n  iszero\n  tag_72\n  jumpi\n    /* \"#utility.yul\":2401:2480   */\n  tag_73\n  tag_16\n  jump\t// in\ntag_73:\n    /* \"#utility.yul\":2370:2482   */\ntag_72:\n    /* \"#utility.yul\":2491:2543   */\n  tag_74\n    /* \"#utility.yul\":2536:2542   */\n  dup5\n    /* \"#utility.yul\":2531:2534   */\n  dup3\n    /* \"#utility.yul\":2526:2529   */\n  dup6\n    /* \"#utility.yul\":2491:2543   */\n  tag_22\n  jump\t// in\ntag_74:\n    /* \"#utility.yul\":2210:2549   */\n  pop\n    /* \"#utility.yul\":2115:2549   */\n  swap4\n  swap3\n  pop\n  pop\n  pop\n  jump\t// out\n    /* \"#utility.yul\":2569:2924   */\ntag_24:\n    /* \"#utility.yul\":2636:2641   */\n  0x00\n    /* \"#utility.yul\":2685:2688   */\n  dup3\n    /* \"#utility.yul\":2678:2682   */\n  0x1f\n    /* \"#utility.yul\":2670:2676   */\n  dup4\n    /* \"#utility.yul\":2666:2683   */\n  add\n    /* \"#utility.yul\":2662:2689   */\n  slt\n    /* \"#utility.yul\":2652:2774   */\n  tag_76\n  jumpi\n    /* \"#utility.yul\":2693:2772   */\n  tag_77\n  tag_15\n  jump\t// in\ntag_77:\n    /* \"#utility.yul\":2652:2774   */\ntag_76:\n    /* \"#utility.yul\":2803:2809   */\n  dup2\n    /* \"#utility.yul\":2797:2810   */\n  mload\n    /* \"#utility.yul\":2828:2918   */\n  tag_78\n    /* \"#utility.yul\":2914:2917   */\n  dup5\n    /* \"#utility.yul\":2906:2912   */\n  dup3\n    /* \"#utility.yul\":2899:2903   */\n  0x20\n    /* \"#utility.yul\":2891:2897   */\n  dup7\n    /* \"#utility.yul\":2887:2904   */\n  add\n    /* \"#utility.yul\":2828:2918   */\n  tag_23\n  jump\t// in\ntag_78:\n    /* \"#utility.yul\":2819:2918   */\n  swap2\n  pop\n    /* \"#utility.yul\":2642:2924   */\n  pop\n    /* \"#utility.yul\":2569:2924   */\n  swap3\n  swap2\n  pop\n  pop\n  jump\t// out\n    /* \"#utility.yul\":2930:3610   */\ntag_3:\n    /* \"#utility.yul\":3019:3025   */\n  0x00\n    /* \"#utility.yul\":3027:3033   */\n  dup1\n    /* \"#utility.yul\":3076:3078   */\n  0x40\n    /* \"#utility.yul\":3064:3073   */\n  dup4\n    /* \"#utility.yul\":3055:3062   */\n  dup6\n    /* \"#utility.yul\":3051:3074   */\n  sub\n    /* \"#utility.yul\":3047:3079   */\n  slt\n    /* \"#utility.yul\":3044:3163   */\n  iszero\n  tag_80\n  jumpi\n    /* \"#utility.yul\":3082:3161   */\n  tag_81\n  tag_10\n  jump\t// in\ntag_81:\n    /* \"#utility.yul\":3044:3163   */\ntag_80:\n    /* \"#utility.yul\":3202:3203   */\n  0x00\n    /* \"#utility.yul\":3227:3291   */\n  tag_82\n    /* \"#utility.yul\":3283:3290   */\n  dup6\n    /* \"#utility.yul\":3274:3280   */\n  dup3\n    /* \"#utility.yul\":3263:3272   */\n  dup7\n    /* \"#utility.yul\":3259:3281   */\n  add\n    /* \"#utility.yul\":3227:3291   */\n  tag_14\n  jump\t// in\ntag_82:\n    /* \"#utility.yul\":3217:3291   */\n  swap3\n  pop\n    /* \"#utility.yul\":3173:3301   */\n  pop\n    /* \"#utility.yul\":3361:3363   */\n  0x20\n    /* \"#utility.yul\":3350:3359   */\n  dup4\n    /* \"#utility.yul\":3346:3364   */\n  add\n    /* \"#utility.yul\":3340:3365   */\n  mload\n    /* \"#utility.yul\":3392:3410   */\n  0xffffffffffffffff\n    /* \"#utility.yul\":3384:3390   */\n  dup2\n    /* \"#utility.yul\":3381:3411   */\n  gt\n    /* \"#utility.yul\":3378:3495   */\n  iszero\n  tag_83\n  jumpi\n    /* \"#utility.yul\":3414:3493   */\n  tag_84\n  tag_11\n  jump\t// in\ntag_84:\n    /* \"#utility.yul\":3378:3495   */\ntag_83:\n    /* \"#utility.yul\":3519:3593   */\n  tag_85\n    /* \"#utility.yul\":3585:3592   */\n  dup6\n    /* \"#utility.yul\":3576:3582   */\n  dup3\n    /* \"#utility.yul\":3565:3574   */\n  dup7\n    /* \"#utility.yul\":3561:3583   */\n  add\n    /* \"#utility.yul\":3519:3593   */\n  tag_24\n  jump\t// in\ntag_85:\n    /* \"#utility.yul\":3509:3593   */\n  swap2\n  pop\n    /* \"#utility.yul\":3311:3603   */\n  pop\n    /* \"#utility.yul\":2930:3610   */\n  swap3\n  pop\n  swap3\n  swap1\n  pop\n  jump\t// out\n    /* \"#utility.yul\":3616:3715   */\ntag_25:\n    /* \"#utility.yul\":3668:3674   */\n  0x00\n    /* \"#utility.yul\":3702:3707   */\n  dup2\n    /* \"#utility.yul\":3696:3708   */\n  mload\n    /* \"#utility.yul\":3686:3708   */\n  swap1\n  pop\n    /* \"#utility.yul\":3616:3715   */\n  swap2\n  swap1\n  pop\n  jump\t// out\n    /* \"#utility.yul\":3721:3901   */\ntag_26:\n    /* \"#utility.yul\":3769:3846   */\n  0x4e487b7100000000000000000000000000000000000000000000000000000000\n    /* \"#utility.yul\":3766:3767   */\n  0x00\n    /* \"#utility.yul\":3759:3847   */\n  mstore\n    /* \"#utility.yul\":3866:3870   */\n  0x22\n    /* \"#utility.yul\":3863:3864   */\n  0x04\n    /* \"#utility.yul\":3856:3871   */\n  mstore\n    /* \"#utility.yul\":3890:3894   */\n  0x24\n    /* \"#utility.yul\":3887:3888   */\n  0x00\n    /* \"#utility.yul\":3880:3895   */\n  revert\n    /* \"#utility.yul\":3907:4227   */\ntag_27:\n    /* \"#utility.yul\":3951:3957   */\n  0x00\n    /* \"#utility.yul\":3988:3989   */\n  0x02\n    /* \"#utility.yul\":3982:3986   */\n  dup3\n    /* \"#utility.yul\":3978:3990   */\n  div\n    /* \"#utility.yul\":3968:3990   */\n  swap1\n  pop\n    /* \"#utility.yul\":4035:4036   */\n  0x01\n    /* \"#utility.yul\":4029:4033   */\n  dup3\n    /* \"#utility.yul\":4025:4037   */\n  and\n    /* \"#utility.yul\":4056:4074   */\n  dup1\n    /* \"#utility.yul\":4046:4127   */\n  tag_89\n  jumpi\n    /* \"#utility.yul\":4112:4116   */\n  0x7f\n    /* \"#utility.yul\":4104:4110   */\n  dup3\n    /* \"#utility.yul\":4100:4117   */\n  and\n    /* \"#utility.yul\":4090:4117   */\n  swap2\n  pop\n    /* \"#utility.yul\":4046:4127   */\ntag_89:\n    /* \"#utility.yul\":4174:4176   */\n  0x20\n    /* \"#utility.yul\":4166:4172   */\n  dup3\n    /* \"#utility.yul\":4163:4177   */\n  lt\n    /* \"#utility.yul\":4143:4161   */\n  dup2\n    /* \"#utility.yul\":4140:4178   */\n  sub\n    /* \"#utility.yul\":4137:4221   */\n  tag_90\n  jumpi\n    /* \"#utility.yul\":4193:4211   */\n  tag_91\n  tag_26\n  jump\t// in\ntag_91:\n    /* \"#utility.yul\":4137:4221   */\ntag_90:\n    /* \"#utility.yul\":3958:4227   */\n  pop\n    /* \"#utility.yul\":3907:4227   */\n  swap2\n  swap1\n  pop\n  jump\t// out\n    /* \"#utility.yul\":4233:4374   */\ntag_28:\n    /* \"#utility.yul\":4282:4286   */\n  0x00\n    /* \"#utility.yul\":4305:4308   */\n  dup2\n    /* \"#utility.yul\":4297:4308   */\n  swap1\n  pop\n    /* \"#utility.yul\":4328:4331   */\n  dup2\n    /* \"#utility.yul\":4325:4326   */\n  0x00\n    /* \"#utility.yul\":4318:4332   */\n  mstore\n    /* \"#utility.yul\":4362:4366   */\n  0x20\n    /* \"#utility.yul\":4359:4360   */\n  0x00\n    /* \"#utility.yul\":4349:4367   */\n  keccak256\n    /* \"#utility.yul\":4341:4367   */\n  swap1\n  pop\n    /* \"#utility.yul\":4233:4374   */\n  swap2\n  swap1\n  pop\n  jump\t// out\n    /* \"#utility.yul\":4380:4473   */\ntag_29:\n    /* \"#utility.yul\":4417:4423   */\n  0x00\n    /* \"#utility.yul\":4464:4466   */\n  0x20\n    /* \"#utility.yul\":4459:4461   */\n  0x1f\n    /* \"#utility.yul\":4452:4457   */\n  dup4\n    /* \"#utility.yul\":4448:4462   */\n  add\n    /* \"#utility.yul\":4444:4467   */\n  div\n    /* \"#utility.yul\":4434:4467   */\n  swap1\n  pop\n    /* \"#utility.yul\":4380:4473   */\n  swap2\n  swap1\n  pop\n  jump\t// out\n    /* \"#utility.yul\":4479:4586   */\ntag_30:\n    /* \"#utility.yul\":4523:4531   */\n  0x00\n    /* \"#utility.yul\":4573:4578   */\n  dup3\n    /* \"#utility.yul\":4567:4571   */\n  dup3\n    /* \"#utility.yul\":4563:4579   */\n  shl\n    /* \"#utility.yul\":4542:4579   */\n  swap1\n  pop\n    /* \"#utility.yul\":4479:4586   */\n  swap3\n  swap2\n  pop\n  pop\n  jump\t// out\n    /* \"#utility.yul\":4592:4985   */\ntag_31:\n    /* \"#utility.yul\":4661:4667   */\n  0x00\n    /* \"#utility.yul\":4711:4712   */\n  0x08\n    /* \"#utility.yul\":4699:4709   */\n  dup4\n    /* \"#utility.yul\":4695:4713   */\n  mul\n    /* \"#utility.yul\":4734:4831   */\n  tag_96\n    /* \"#utility.yul\":4764:4830   */\n  0xffffffffffffffffffffffffffffffffffffffffffffffffffffffffffffffff\n    /* \"#utility.yul\":4753:4762   */\n  dup3\n    /* \"#utility.yul\":4734:4831   */\n  tag_30\n  jump\t// in\ntag_96:\n    /* \"#utility.yul\":4852:4891   */\n  tag_97\n    /* \"#utility.yul\":4882:4890   */\n  dup7\n    /* \"#utility.yul\":4871:4880   */\n  dup4\n    /* \"#utility.yul\":4852:4891   */\n  tag_30\n  jump\t// in\ntag_97:\n    /* \"#utility.yul\":4840:4891   */\n  swap6\n  pop\n    /* \"#utility.yul\":4924:4928   */\n  dup1\n    /* \"#utility.yul\":4920:4929   */\n  not\n    /* \"#utility.yul\":4913:4918   */\n  dup5\n    /* \"#utility.yul\":4909:4930   */\n  and\n    /* \"#utility.yul\":4900:4930   */\n  swap4\n  pop\n    /* \"#utility.yul\":4973:4977   */\n  dup1\n    /* \"#utility.yul\":4963:4971   */\n  dup7\n    /* \"#utility.yul\":4959:4978   */\n  and\n    /* \"#utility.yul\":4952:4957   */\n  dup5\n    /* \"#utility.yul\":4949:4979   */\n  or\n    /* \"#utility.yul\":4939:4979   */\n  swap3\n  pop\n    /* \"#utility.yul\":4668:4985   */\n  pop\n  pop\n    /* \"#utility.yul\":4592:4985   */\n  swap4\n  swap3\n  pop\n  pop\n  pop\n  jump\t// out\n    /* \"#utility.yul\":4991:5051   */\ntag_32:\n    /* \"#utility.yul\":5019:5022   */\n  0x00\n    /* \"#utility.yul\":5040:5045   */\n  dup2\n    /* \"#utility.yul\":5033:5045   */\n  swap1\n  pop\n    /* \"#utility.yul\":4991:5051   */\n  swap2\n  swap1\n  pop\n  jump\t// out\n    /* \"#utility.yul\":5057:5199   */\ntag_33:\n    /* \"#utility.yul\":5107:5116   */\n  0x00\n    /* \"#utility.yul\":5140:5193   */\n  tag_100\n    /* \"#utility.yul\":5158:5192   */\n  tag_101\n    /* \"#utility.yul\":5167:5191   */\n  tag_102\n    /* \"#utility.yul\":5185:5190   */\n  dup5\n    /* \"#utility.yul\":5167:5191   */\n  tag_12\n  jump\t// in\ntag_102:\n    /* \"#utility.yul\":5158:5192   */\n  tag_32\n  jump\t// in\ntag_101:\n    /* \"#utility.yul\":5140:5193   */\n  tag_12\n  jump\t// in\ntag_100:\n    /* \"#utility.yul\":5127:5193   */\n  swap1\n  pop\n    /* \"#utility.yul\":5057:5199   */\n  swap2\n  swap1\n  pop\n  jump\t// out\n    /* \"#utility.yul\":5205:5280   */\ntag_34:\n    /* \"#utility.yul\":5248:5251   */\n  0x00\n    /* \"#utility.yul\":5269:5274   */\n  dup2\n    /* \"#utility.yul\":5262:5274   */\n  swap1\n  pop\n    /* \"#utility.yul\":5205:5280   */\n  swap2\n  swap1\n  pop\n  jump\t// out\n    /* \"#utility.yul\":5286:5555   */\ntag_35:\n    /* \"#utility.yul\":5396:5435   */\n  tag_105\n    /* \"#utility.yul\":5427:5434   */\n  dup4\n    /* \"#utility.yul\":5396:5435   */\n  tag_33\n  jump\t// in\ntag_105:\n    /* \"#utility.yul\":5457:5548   */\n  tag_106\n    /* \"#utility.yul\":5506:5547   */\n  tag_107\n    /* \"#utility.yul\":5530:5546   */\n  dup3\n    /* \"#utility.yul\":5506:5547   */\n  tag_34\n  jump\t// in\ntag_107:\n    /* \"#utility.yul\":5498:5504   */\n  dup5\n    /* \"#utility.yul\":5491:5495   */\n  dup5\n    /* \"#utility.yul\":5485:5496   */\n  sload\n    /* \"#utility.yul\":5457:5548   */\n  tag_31\n  jump\t// in\ntag_106:\n    /* \"#utility.yul\":5451:5455   */\n  dup3\n    /* \"#utility.yul\":5444:5549   */\n  sstore\n    /* \"#utility.yul\":5362:5555   */\n  pop\n    /* \"#utility.yul\":5286:5555   */\n  pop\n  pop\n  pop\n  jump\t// out\n    /* \"#utility.yul\":5561:5634   */\ntag_36:\n    /* \"#utility.yul\":5606:5609   */\n  0x00\n    /* \"#utility.yul\":5561:5634   */\n  swap1\n  jump\t// out\n    /* \"#utility.yul\":5640:5829   */\ntag_37:\n    /* \"#utility.yul\":5717:5749   */\n  tag_110\n  tag_36\n  jump\t// in\ntag_110:\n    /* \"#utility.yul\":5758:5823   */\n  tag_111\n    /* \"#utility.yul\":5816:5822   */\n  dup2\n    /* \"#utility.yul\":5808:5814   */\n  dup5\n    /* \"#utility.yul\":5802:5806   */\n  dup5\n    /* \"#utility.yul\":5758:5823   */\n  tag_35\n  jump\t// in\ntag_111:\n    /* \"#utility.yul\":5693:5829   */\n  pop\n    /* \"#utility.yul\":5640:5829   */\n  pop\n  pop\n  jump\t// out\n    /* \"#utility.yul\":5835:6021   */\ntag_38:\n    /* \"#utility.yul\":5895:6015   */\ntag_113:\n    /* \"#utility.yul\":5912:5915   */\n  dup2\n    /* \"#utility.yul\":5905:5910   */\n  dup2\n    /* \"#utility.yul\":5902:5916   */\n  lt\n    /* \"#utility.yul\":5895:6015   */\n  iszero\n  tag_115\n  jumpi\n    /* \"#utility.yul\":5966:6005   */\n  tag_116\n    /* \"#utility.yul\":6003:6004   */\n  0x00\n    /* \"#utility.yul\":5996:6001   */\n  dup3\n    /* \"#utility.yul\":5966:6005   */\n  tag_37\n  jump\t// in\ntag_116:\n    /* \"#utility.yul\":5939:5940   */\n  0x01\n    /* \"#utility.yul\":5932:5937   */\n  dup2\n    /* \"#utility.yul\":5928:5941   */\n  add\n    /* \"#utility.yul\":5919:5941   */\n  swap1\n  pop\n    /* \"#utility.yul\":5895:6015   */\n  jump(tag_113)\ntag_115:\n    /* \"#utility.yul\":5835:6021   */\n  pop\n  pop\n  jump\t// out\n    /* \"#utility.yul\":6027:6570   */\ntag_39:\n    /* \"#utility.yul\":6128:6130   */\n  0x1f\n    /* \"#utility.yul\":6123:6126   */\n  dup3\n    /* \"#utility.yul\":6120:6131   */\n  gt\n    /* \"#utility.yul\":6117:6563   */\n  iszero\n  tag_118\n  jumpi\n    /* \"#utility.yul\":6162:6200   */\n  tag_119\n    /* \"#utility.yul\":6194:6199   */\n  dup2\n    /* \"#utility.yul\":6162:6200   */\n  tag_28\n  jump\t// in\ntag_119:\n    /* \"#utility.yul\":6246:6275   */\n  tag_120\n    /* \"#utility.yul\":6264:6274   */\n  dup5\n    /* \"#utility.yul\":6246:6275   */\n  tag_29\n  jump\t// in\ntag_120:\n    /* \"#utility.yul\":6236:6244   */\n  dup2\n    /* \"#utility.yul\":6232:6276   */\n  add\n    /* \"#utility.yul\":6429:6431   */\n  0x20\n    /* \"#utility.yul\":6417:6427   */\n  dup6\n    /* \"#utility.yul\":6414:6432   */\n  lt\n    /* \"#utility.yul\":6411:6460   */\n  iszero\n  tag_121\n  jumpi\n    /* \"#utility.yul\":6450:6458   */\n  dup2\n    /* \"#utility.yul\":6435:6458   */\n  swap1\n  pop\n    /* \"#utility.yul\":6411:6460   */\ntag_121:\n    /* \"#utility.yul\":6473:6553   */\n  tag_122\n    /* \"#utility.yul\":6529:6551   */\n  tag_123\n    /* \"#utility.yul\":6547:6550   */\n  dup6\n    /* \"#utility.yul\":6529:6551   */\n  tag_29\n  jump\t// in\ntag_123:\n    /* \"#utility.yul\":6519:6527   */\n  dup4\n    /* \"#utility.yul\":6515:6552   */\n  add\n    /* \"#utility.yul\":6502:6513   */\n  dup3\n    /* \"#utility.yul\":6473:6553   */\n  tag_38\n  jump\t// in\ntag_122:\n    /* \"#utility.yul\":6132:6563   */\n  pop\n  pop\n    /* \"#utility.yul\":6117:6563   */\ntag_118:\n    /* \"#utility.yul\":6027:6570   */\n  pop\n  pop\n  pop\n  jump\t// out\n    /* \"#utility.yul\":6576:6693   */\ntag_40:\n    /* \"#utility.yul\":6630:6638   */\n  0x00\n    /* \"#utility.yul\":6680:6685   */\n  dup3\n    /* \"#utility.yul\":6674:6678   */\n  dup3\n    /* \"#utility.yul\":6670:6686   */\n  shr\n    /* \"#utility.yul\":6649:6686   */\n  swap1\n  pop\n    /* \"#utility.yul\":6576:6693   */\n  swap3\n  swap2\n  pop\n  pop\n  jump\t// out\n    /* \"#utility.yul\":6699:6868   */\ntag_41:\n    /* \"#utility.yul\":6743:6749   */\n  0x00\n    /* \"#utility.yul\":6776:6827   */\n  tag_126\n    /* \"#utility.yul\":6824:6825   */\n  0x00\n    /* \"#utility.yul\":6820:6826   */\n  not\n    /* \"#utility.yul\":6812:6817   */\n  dup5\n    /* \"#utility.yul\":6809:6810   */\n  0x08\n    /* \"#utility.yul\":6805:6818   */\n  mul\n    /* \"#utility.yul\":6776:6827   */\n  tag_40\n  jump\t// in\ntag_126:\n    /* \"#utility.yul\":6772:6828   */\n  not\n    /* \"#utility.yul\":6857:6861   */\n  dup1\n    /* \"#utility.yul\":6851:6855   */\n  dup4\n    /* \"#utility.yul\":6847:6862   */\n  and\n    /* \"#utility.yul\":6837:6862   */\n  swap2\n  pop\n    /* \"#utility.yul\":6750:6868   */\n  pop\n    /* \"#utility.yul\":6699:6868   */\n  swap3\n  swap2\n  pop\n  pop\n  jump\t// out\n    /* \"#utility.yul\":6873:7168   */\ntag_42:\n    /* \"#utility.yul\":6949:6953   */\n  0x00\n    /* \"#utility.yul\":7095:7124   */\n  tag_128\n    /* \"#utility.yul\":7120:7123   */\n  dup4\n    /* \"#utility.yul\":7114:7118   */\n  dup4\n    /* \"#utility.yul\":7095:7124   */\n  tag_41\n  jump\t// in\ntag_128:\n    /* \"#utility.yul\":7087:7124   */\n  swap2\n  pop\n    /* \"#utility.yul\":7157:7160   */\n  dup3\n    /* \"#utility.yul\":7154:7155   */\n  0x02\n    /* \"#utility.yul\":7150:7161   */\n  mul\n    /* \"#utility.yul\":7144:7148   */\n  dup3\n    /* \"#utility.yul\":7141:7162   */\n  or\n    /* \"#utility.yul\":7133:7162   */\n  swap1\n  pop\n    /* \"#utility.yul\":6873:7168   */\n  swap3\n  swap2\n  pop\n  pop\n  jump\t// out\n    /* \"#utility.yul\":7173:8568   */\ntag_7:\n    /* \"#utility.yul\":7290:7327   */\n  tag_130\n    /* \"#utility.yul\":7323:7326   */\n  dup3\n    /* \"#utility.yul\":7290:7327   */\n  tag_25\n  jump\t// in\ntag_130:\n    /* \"#utility.yul\":7392:7410   */\n  0xffffffffffffffff\n    /* \"#utility.yul\":7384:7390   */\n  dup2\n    /* \"#utility.yul\":7381:7411   */\n  gt\n    /* \"#utility.yul\":7378:7434   */\n  iszero\n  tag_131\n  jumpi\n    /* \"#utility.yul\":7414:7432   */\n  tag_132\n  tag_18\n  jump\t// in\ntag_132:\n    /* \"#utility.yul\":7378:7434   */\ntag_131:\n    /* \"#utility.yul\":7458:7496   */\n  tag_133\n    /* \"#utility.yul\":7490:7494   */\n  dup3\n    /* \"#utility.yul\":7484:7495   */\n  sload\n    /* \"#utility.yul\":7458:7496   */\n  tag_27\n  jump\t// in\ntag_133:\n    /* \"#utility.yul\":7543:7610   */\n  tag_134\n    /* \"#utility.yul\":7603:7609   */\n  dup3\n    /* \"#utility.yul\":7595:7601   */\n  dup3\n    /* \"#utility.yul\":7589:7593   */\n  dup6\n    /* \"#utility.yul\":7543:7610   */\n  tag_39\n  jump\t// in\ntag_134:\n    /* \"#utility.yul\":7637:7638   */\n  0x00\n    /* \"#utility.yul\":7661:7665   */\n  0x20\n    /* \"#utility.yul\":7648:7665   */\n  swap1\n  pop\n    /* \"#utility.yul\":7693:7695   */\n  0x1f\n    /* \"#utility.yul\":7685:7691   */\n  dup4\n    /* \"#utility.yul\":7682:7696   */\n  gt\n    /* \"#utility.yul\":7710:7711   */\n  0x01\n    /* \"#utility.yul\":7705:8323   */\n  dup2\n  eq\n  tag_136\n  jumpi\n    /* \"#utility.yul\":8367:8368   */\n  0x00\n    /* \"#utility.yul\":8384:8390   */\n  dup5\n    /* \"#utility.yul\":8381:8458   */\n  iszero\n  tag_137\n  jumpi\n    /* \"#utility.yul\":8433:8442   */\n  dup3\n    /* \"#utility.yul\":8428:8431   */\n  dup8\n    /* \"#utility.yul\":8424:8443   */\n  add\n    /* \"#utility.yul\":8418:8444   */\n  mload\n    /* \"#utility.yul\":8409:8444   */\n  swap1\n  pop\n    /* \"#utility.yul\":8381:8458   */\ntag_137:\n    /* \"#utility.yul\":8484:8551   */\n  tag_138\n    /* \"#utility.yul\":8544:8550   */\n  dup6\n    /* \"#utility.yul\":8537:8542   */\n  dup3\n    /* \"#utility.yul\":8484:8551   */\n  tag_42\n  jump\t// in\ntag_138:\n    /* \"#utility.yul\":8478:8482   */\n  dup7\n    /* \"#utility.yul\":8471:8552   */\n  sstore\n    /* \"#utility.yul\":8340:8562   */\n  pop\n    /* \"#utility.yul\":7675:8562   */\n  jump(tag_135)\n    /* \"#utility.yul\":7705:8323   */\ntag_136:\n    /* \"#utility.yul\":7757:7761   */\n  0x1f\n    /* \"#utility.yul\":7753:7762   */\n  not\n    /* \"#utility.yul\":7745:7751   */\n  dup5\n    /* \"#utility.yul\":7741:7763   */\n  and\n    /* \"#utility.yul\":7791:7828   */\n  tag_139\n    /* \"#utility.yul\":7823:7827   */\n  dup7\n    /* \"#utility.yul\":7791:7828   */\n  tag_28\n  jump\t// in\ntag_139:\n    /* \"#utility.yul\":7850:7851   */\n  0x00\n    /* \"#utility.yul\":7864:8072   */\ntag_140:\n    /* \"#utility.yul\":7878:7885   */\n  dup3\n    /* \"#utility.yul\":7875:7876   */\n  dup2\n    /* \"#utility.yul\":7872:7886   */\n  lt\n    /* \"#utility.yul\":7864:8072   */\n  iszero\n  tag_142\n  jumpi\n    /* \"#utility.yul\":7957:7966   */\n  dup5\n    /* \"#utility.yul\":7952:7955   */\n  dup10\n    /* \"#utility.yul\":7948:7967   */\n  add\n    /* \"#utility.yul\":7942:7968   */\n  mload\n    /* \"#utility.yul\":7934:7940   */\n  dup3\n    /* \"#utility.yul\":7927:7969   */\n  sstore\n    /* \"#utility.yul\":8008:8009   */\n  0x01\n    /* \"#utility.yul\":8000:8006   */\n  dup3\n    /* \"#utility.yul\":7996:8010   */\n  add\n    /* \"#utility.yul\":7986:8010   */\n  swap2\n  pop\n    /* \"#utility.yul\":8055:8057   */\n  0x20\n    /* \"#utility.yul\":8044:8053   */\n  dup6\n    /* \"#utility.yul\":8040:8058   */\n  add\n    /* \"#utility.yul\":8027:8058   */\n  swap5\n  pop\n    /* \"#utility.yul\":7901:7905   */\n  0x20\n    /* \"#utility.yul\":7898:7899   */\n  dup2\n    /* \"#utility.yul\":7894:7906   */\n  add\n    /* \"#utility.yul\":7889:7906   */\n  swap1\n  pop\n    /* \"#utility.yul\":7864:8072   */\n  jump(tag_140)\ntag_142:\n    /* \"#utility.yul\":8100:8106   */\n  dup7\n    /* \"#utility.yul\":8091:8098   */\n  dup4\n    /* \"#utility.yul\":8088:8107   */\n  lt\n    /* \"#utility.yul\":8085:8264   */\n  iszero\n  tag_143\n  jumpi\n    /* \"#utility.yul\":8158:8167   */\n  dup5\n    /* \"#utility.yul\":8153:8156   */\n  dup10\n    /* \"#utility.yul\":8149:8168   */\n  add\n    /* \"#utility.yul\":8143:8169   */\n  mload\n    /* \"#utility.yul\":8201:8249   */\n  tag_144\n    /* \"#utility.yul\":8243:8247   */\n  0x1f\n    /* \"#utility.yul\":8235:8241   */\n  dup10\n    /* \"#utility.yul\":8231:8248   */\n  and\n    /* \"#utility.yul\":8220:8229   */\n  dup3\n    /* \"#utility.yul\":8201:8249   */\n  tag_41\n  jump\t// in\ntag_144:\n    /* \"#utility.yul\":8193:8199   */\n  dup4\n    /* \"#utility.yul\":8186:8250   */\n  sstore\n    /* \"#utility.yul\":8108:8264   */\n  pop\n    /* \"#utility.yul\":8085:8264   */\ntag_143:\n    /* \"#utility.yul\":8310:8311   */\n  0x01\n    /* \"#utility.yul\":8306:8307   */\n  0x02\n    /* \"#utility.yul\":8298:8304   */\n  dup9\n    /* \"#utility.yul\":8294:8308   */\n  mul\n    /* \"#utility.yul\":8290:8312   */\n  add\n    /* \"#utility.yul\":8284:8288   */\n  dup9\n    /* \"#utility.yul\":8277:8313   */\n  sstore\n    /* \"#utility.yul\":7712:8323   */\n  pop\n  pop\n  pop\n    /* \"#utility.yul\":7675:8562   */\ntag_135:\n  pop\n    /* \"#utility.yul\":7265:8568   */\n  pop\n  pop\n  pop\n    /* \"#utility.yul\":7173:8568   */\n  pop\n  pop\n  jump\t// out\n    /* \"VotingSystem/VotingSystem.sol\":1782:4656  contract DecentralizedVotingSystem {... */\ntag_8:\n  dataSize(sub_0)\n  dup1\n  dataOffset(sub_0)\n  0x00\n  codecopy\n  0x00\n  return\nstop\n\nsub_0: assembly {\n        /* \"VotingSystem/VotingSystem.sol\":1782:4656  contract DecentralizedVotingSystem {... */\n      mstore(0x40, 0x80)\n      callvalue\n      dup1\n      iszero\n      tag_1\n      jumpi\n      0x00\n      dup1\n      revert\n    tag_1:\n      pop\n      jumpi(tag_2, lt(calldatasize, 0x04))\n      shr(0xe0, calldataload(0x00))\n      dup1\n      0x0121b93f\n      eq\n      tag_3\n      jumpi\n      dup1\n      0x0c54b463\n      eq\n      tag_4\n      jumpi\n      dup1\n      0x1750a3d0\n      eq\n      tag_5\n      jumpi\n      dup1\n      0x35b8e820\n      eq\n      tag_6\n      jumpi\n      dup1\n      0x59f78468\n      eq\n      tag_7\n      jumpi\n      dup1\n      0xed836bc3\n      eq\n      tag_8\n      jumpi\n    tag_2:\n      0x00\n      dup1\n      revert\n        /* \"VotingSystem/VotingSystem.sol\":3767:4232  function vote(uint256 _candidateId) public electionOnGoing {... */\n    tag_3:\n      tag_9\n      0x04\n      dup1\n      calldatasize\n      sub\n      dup2\n      add\n      swap1\n      tag_10\n      swap2\n      swap1\n      tag_11\n      jump\t// in\n    tag_10:\n      tag_12\n      jump\t// in\n    tag_9:\n      stop\n        /* \"VotingSystem/VotingSystem.sol\":3270:3594  function startElection(... */\n    tag_4:\n      tag_13\n      0x04\n      dup1\n      calldatasize\n      sub\n      dup2\n      add\n      swap1\n      tag_14\n      swap2\n      swap1\n      tag_15\n      jump\t// in\n    tag_14:\n      tag_16\n      jump\t// in\n    tag_13:\n      stop\n        /* \"VotingSystem/VotingSystem.sol\":3013:3264  function addCandidate(... */\n    tag_5:\n      tag_17\n      0x04\n      dup1\n      calldatasize\n      sub\n      dup2\n      add\n      swap1\n      tag_18\n      swap2\n      swap1\n      tag_19\n      jump\t// in\n    tag_18:\n      tag_20\n      jump\t// in\n    tag_17:\n      stop\n        /* \"VotingSystem/VotingSystem.sol\":4238:4457  function getCandidate(... */\n    tag_6:\n      tag_21\n      0x04\n      dup1\n      calldatasize\n      sub\n      dup2\n      add\n      swap1\n      tag_22\n      swap2\n      swap1\n      tag_11\n      jump\t// in\n    tag_22:\n      tag_23\n      jump\t// in\n    tag_21:\n      mload(0x40)\n      tag_24\n      swap2\n      swap1\n      tag_25\n      jump\t// in\n    tag_24:\n      mload(0x40)\n      dup1\n      swap2\n      sub\n      swap1\n      return\n        /* \"VotingSystem/VotingSystem.sol\":3600:3761  function endElection() public onlyOwner electionOnGoing {... */\n    tag_7:\n      tag_26\n      tag_27\n      jump\t// in\n    tag_26:\n      stop\n        /* \"VotingSystem/VotingSystem.sol\":4463:4654  function getElectionDetails()... */\n    tag_8:\n      tag_28\n      tag_29\n      jump\t// in\n    tag_28:\n      mload(0x40)\n      tag_30\n      swap5\n      swap4\n      swap3\n      swap2\n      swap1\n      tag_31\n      jump\t// in\n    tag_30:\n      mload(0x40)\n      dup1\n      swap2\n      sub\n      swap1\n      return\n        /* \"VotingSystem/VotingSystem.sol\":3767:4232  function vote(uint256 _candidateId) public electionOnGoing {... */\n    tag_12:\n        /* \"VotingSystem/VotingSystem.sol\":2901:2910  startTime */\n      sload(0x01)\n        /* \"VotingSystem/VotingSystem.sol\":2882:2897  block.timestamp */\n      timestamp\n        /* \"VotingSystem/VotingSystem.sol\":2882:2910  block.timestamp >= startTime */\n      lt\n      iszero\n        /* \"VotingSystem/VotingSystem.sol\":2882:2940  block.timestamp >= startTime && block.timestamp <= endTime */\n      dup1\n      iszero\n      tag_33\n      jumpi\n      pop\n        /* \"VotingSystem/VotingSystem.sol\":2933:2940  endTime */\n      sload(0x02)\n        /* \"VotingSystem/VotingSystem.sol\":2914:2929  block.timestamp */\n      timestamp\n        /* \"VotingSystem/VotingSystem.sol\":2914:2940  block.timestamp <= endTime */\n      gt\n      iszero\n        /* \"VotingSystem/VotingSystem.sol\":2882:2940  block.timestamp >= startTime && block.timestamp <= endTime */\n    tag_33:\n        /* \"VotingSystem/VotingSystem.sol\":2861:2989  require(... */\n      tag_34\n      jumpi\n      mload(0x40)\n      0x08c379a000000000000000000000000000000000000000000000000000000000\n      dup2\n      mstore\n      0x04\n      add\n      tag_35\n      swap1\n      tag_36\n      jump\t// in\n    tag_35:\n      mload(0x40)\n      dup1\n      swap2\n      sub\n      swap1\n      revert\n    tag_34:\n        /* \"VotingSystem/VotingSystem.sol\":3845:3853  hasVoted */\n      0x06\n        /* \"VotingSystem/VotingSystem.sol\":3845:3865  hasVoted[msg.sender] */\n      0x00\n        /* \"VotingSystem/VotingSystem.sol\":3854:3864  msg.sender */\n      caller\n        /* \"VotingSystem/VotingSystem.sol\":3845:3865  hasVoted[msg.sender] */\n      0xffffffffffffffffffffffffffffffffffffffff\n      and\n      0xffffffffffffffffffffffffffffffffffffffff\n      and\n      dup2\n      mstore\n      0x20\n      add\n      swap1\n      dup2\n      mstore\n      0x20\n      add\n      0x00\n      keccak256\n      0x00\n      swap1\n      sload\n      swap1\n      0x0100\n      exp\n      swap1\n      div\n      0xff\n      and\n        /* \"VotingSystem/VotingSystem.sol\":3844:3865  !hasVoted[msg.sender] */\n      iszero\n        /* \"VotingSystem/VotingSystem.sol\":3836:3892  require(!hasVoted[msg.sender], \"You have already voted\") */\n      tag_38\n      jumpi\n      mload(0x40)\n      0x08c379a000000000000000000000000000000000000000000000000000000000\n      dup2\n      mstore\n      0x04\n      add\n      tag_39\n      swap1\n      tag_40\n      jump\t// in\n    tag_39:\n      mload(0x40)\n      dup1\n      swap2\n      sub\n      swap1\n      revert\n    tag_38:\n        /* \"VotingSystem/VotingSystem.sol\":3941:3942  0 */\n      0x00\n        /* \"VotingSystem/VotingSystem.sol\":3910:3920  candidates */\n      0x05\n        /* \"VotingSystem/VotingSystem.sol\":3910:3934  candidates[_candidateId] */\n      0x00\n        /* \"VotingSystem/VotingSystem.sol\":3921:3933  _candidateId */\n      dup4\n        /* \"VotingSystem/VotingSystem.sol\":3910:3934  candidates[_candidateId] */\n      dup2\n      mstore\n      0x20\n      add\n      swap1\n      dup2\n      mstore\n      0x20\n      add\n      0x00\n      keccak256\n        /* \"VotingSystem/VotingSystem.sol\":3910:3937  candidates[_candidateId].Id */\n      0x00\n      add\n      sload\n        /* \"VotingSystem/VotingSystem.sol\":3910:3942  candidates[_candidateId].Id != 0 */\n      sub\n        /* \"VotingSystem/VotingSystem.sol\":3902:3966  require(candidates[_candidateId].Id != 0, \"Candidate not fount\") */\n      tag_41\n      jumpi\n      mload(0x40)\n      0x08c379a000000000000000000000000000000000000000000000000000000000\n      dup2\n      mstore\n      0x04\n      add\n      tag_42\n      swap1\n      tag_43\n      jump\t// in\n    tag_42:\n      mload(0x40)\n      dup1\n      swap2\n      sub\n      swap1\n      revert\n    tag_41:\n        /* \"VotingSystem/VotingSystem.sol\":4015:4016  1 */\n      0x01\n        /* \"VotingSystem/VotingSystem.sol\":3977:3987  candidates */\n      0x05\n        /* \"VotingSystem/VotingSystem.sol\":3977:4001  candidates[_candidateId] */\n      0x00\n        /* \"VotingSystem/VotingSystem.sol\":3988:4000  _candidateId */\n      dup4\n        /* \"VotingSystem/VotingSystem.sol\":3977:4001  candidates[_candidateId] */\n      dup2\n      mstore\n      0x20\n      add\n      swap1\n      dup2\n      mstore\n      0x20\n      add\n      0x00\n      keccak256\n        /* \"VotingSystem/VotingSystem.sol\":3977:4011  candidates[_candidateId].voteCount */\n      0x02\n      add\n      0x00\n        /* \"VotingSystem/VotingSystem.sol\":3977:4016  candidates[_candidateId].voteCount += 1 */\n      dup3\n      dup3\n      sload\n      tag_44\n      swap2\n      swap1\n      tag_45\n      jump\t// in\n    tag_44:\n      swap3\n      pop\n      pop\n      dup2\n      swap1\n      sstore\n      pop\n        /* \"VotingSystem/VotingSystem.sol\":4049:4053  true */\n      0x01\n        /* \"VotingSystem/VotingSystem.sol\":4026:4034  hasVoted */\n      0x06\n        /* \"VotingSystem/VotingSystem.sol\":4026:4046  hasVoted[msg.sender] */\n      0x00\n        /* \"VotingSystem/VotingSystem.sol\":4035:4045  msg.sender */\n      caller\n        /* \"VotingSystem/VotingSystem.sol\":4026:4046  hasVoted[msg.sender] */\n      0xffffffffffffffffffffffffffffffffffffffff\n      and\n      0xffffffffffffffffffffffffffffffffffffffff\n      and\n      dup2\n      mstore\n      0x20\n      add\n      swap1\n      dup2\n      mstore\n      0x20\n      add\n      0x00\n      keccak256\n      0x00\n        /* \"VotingSystem/VotingSystem.sol\":4026:4053  hasVoted[msg.sender] = true */\n      0x0100\n      exp\n      dup2\n      sload\n      dup2\n      0xff\n      mul\n      not\n      and\n      swap1\n      dup4\n      iszero\n      iszero\n      mul\n      or\n      swap1\n      sstore\n      pop\n        /* \"VotingSystem/VotingSystem.sol\":4088:4098  msg.sender */\n      caller\n        /* \"VotingSystem/VotingSystem.sol\":4069:4225  voted(... */\n      0xffffffffffffffffffffffffffffffffffffffff\n      and\n      0x5065d9a3e554fac09a264a633e7f6096ac507b887f948cac1c7ea44ad6682145\n        /* \"VotingSystem/VotingSystem.sol\":4112:4124  _candidateId */\n      dup3\n        /* \"VotingSystem/VotingSystem.sol\":4138:4148  candidates */\n      0x05\n        /* \"VotingSystem/VotingSystem.sol\":4138:4162  candidates[_candidateId] */\n      0x00\n        /* \"VotingSystem/VotingSystem.sol\":4149:4161  _candidateId */\n      dup6\n        /* \"VotingSystem/VotingSystem.sol\":4138:4162  candidates[_candidateId] */\n      dup2\n      mstore\n      0x20\n      add\n      swap1\n      dup2\n      mstore\n      0x20\n      add\n      0x00\n      keccak256\n        /* \"VotingSystem/VotingSystem.sol\":4138:4167  candidates[_candidateId].name */\n      0x01\n      add\n        /* \"VotingSystem/VotingSystem.sol\":4181:4191  candidates */\n      0x05\n        /* \"VotingSystem/VotingSystem.sol\":4181:4205  candidates[_candidateId] */\n      0x00\n        /* \"VotingSystem/VotingSystem.sol\":4192:4204  _candidateId */\n      dup7\n        /* \"VotingSystem/VotingSystem.sol\":4181:4205  candidates[_candidateId] */\n      dup2\n      mstore\n      0x20\n      add\n      swap1\n      dup2\n      mstore\n      0x20\n      add\n      0x00\n      keccak256\n        /* \"VotingSystem/VotingSystem.sol\":4181:4215  candidates[_candidateId].voteCount */\n      0x02\n      add\n      sload\n        /* \"VotingSystem/VotingSystem.sol\":4069:4225  voted(... */\n      mload(0x40)\n      tag_46\n      swap4\n      swap3\n      swap2\n      swap1\n      tag_47\n      jump\t// in\n    tag_46:\n      mload(0x40)\n      dup1\n      swap2\n      sub\n      swap1\n      log2\n        /* \"VotingSystem/VotingSystem.sol\":3767:4232  function vote(uint256 _candidateId) public electionOnGoing {... */\n      pop\n      jump\t// out\n        /* \"VotingSystem/VotingSystem.sol\":3270:3594  function startElection(... */\n    tag_16:\n        /* \"VotingSystem/VotingSystem.sol\":2768:2773  owner */\n      0x00\n      dup1\n      sload\n      swap1\n      0x0100\n      exp\n      swap1\n      div\n      0xffffffffffffffffffffffffffffffffffffffff\n      and\n        /* \"VotingSystem/VotingSystem.sol\":2754:2773  msg.sender == owner */\n      0xffffffffffffffffffffffffffffffffffffffff\n      and\n        /* \"VotingSystem/VotingSystem.sol\":2754:2764  msg.sender */\n      caller\n        /* \"VotingSystem/VotingSystem.sol\":2754:2773  msg.sender == owner */\n      0xffffffffffffffffffffffffffffffffffffffff\n      and\n      eq\n        /* \"VotingSystem/VotingSystem.sol\":2746:2800  require(msg.sender == owner, \"Your are not the owner\") */\n      tag_49\n      jumpi\n      mload(0x40)\n      0x08c379a000000000000000000000000000000000000000000000000000000000\n      dup2\n      mstore\n      0x04\n      add\n      tag_50\n      swap1\n      tag_51\n      jump\t// in\n    tag_50:\n      mload(0x40)\n      dup1\n      swap2\n      sub\n      swap1\n      revert\n    tag_49:\n        /* \"VotingSystem/VotingSystem.sol\":3401:3409  _endTime */\n      dup1\n        /* \"VotingSystem/VotingSystem.sol\":3388:3398  _startTime */\n      dup3\n        /* \"VotingSystem/VotingSystem.sol\":3388:3409  _startTime < _endTime */\n      lt\n        /* \"VotingSystem/VotingSystem.sol\":3380:3451  require(_startTime < _endTime, \"Start time must be less than end time\") */\n      tag_53\n      jumpi\n      mload(0x40)\n      0x08c379a000000000000000000000000000000000000000000000000000000000\n      dup2\n      mstore\n      0x04\n      add\n      tag_54\n      swap1\n      tag_55\n      jump\t// in\n    tag_54:\n      mload(0x40)\n      dup1\n      swap2\n      sub\n      swap1\n      revert\n    tag_53:\n        /* \"VotingSystem/VotingSystem.sol\":3473:3483  _startTime */\n      dup2\n        /* \"VotingSystem/VotingSystem.sol\":3461:3470  startTime */\n      0x01\n        /* \"VotingSystem/VotingSystem.sol\":3461:3483  startTime = _startTime */\n      dup2\n      swap1\n      sstore\n      pop\n        /* \"VotingSystem/VotingSystem.sol\":3503:3511  _endTime */\n      dup1\n        /* \"VotingSystem/VotingSystem.sol\":3493:3500  endTime */\n      0x02\n        /* \"VotingSystem/VotingSystem.sol\":3493:3511  endTime = _endTime */\n      dup2\n      swap1\n      sstore\n      pop\n        /* \"VotingSystem/VotingSystem.sol\":3526:3587  ElectionStarted(electionId, electionName, startTime, endTime) */\n      0x9b1260f8b980e6d24d53093bd6bb9f6ed9991d62063f9202d8714a48c043c508\n        /* \"VotingSystem/VotingSystem.sol\":3542:3552  electionId */\n      sload(0x03)\n        /* \"VotingSystem/VotingSystem.sol\":3554:3566  electionName */\n      0x04\n        /* \"VotingSystem/VotingSystem.sol\":3568:3577  startTime */\n      sload(0x01)\n        /* \"VotingSystem/VotingSystem.sol\":3579:3586  endTime */\n      sload(0x02)\n        /* \"VotingSystem/VotingSystem.sol\":3526:3587  ElectionStarted(electionId, electionName, startTime, endTime) */\n      mload(0x40)\n      tag_56\n      swap5\n      swap4\n      swap3\n      swap2\n      swap1\n      tag_57\n      jump\t// in\n    tag_56:\n      mload(0x40)\n      dup1\n      swap2\n      sub\n      swap1\n      log1\n        /* \"VotingSystem/VotingSystem.sol\":3270:3594  function startElection(... */\n      pop\n      pop\n      jump\t// out\n        /* \"VotingSystem/VotingSystem.sol\":3013:3264  function addCandidate(... */\n    tag_20:\n        /* \"VotingSystem/VotingSystem.sol\":2768:2773  owner */\n      0x00\n      dup1\n      sload\n      swap1\n      0x0100\n      exp\n      swap1\n      div\n      0xffffffffffffffffffffffffffffffffffffffff\n      and\n        /* \"VotingSystem/VotingSystem.sol\":2754:2773  msg.sender == owner */\n      0xffffffffffffffffffffffffffffffffffffffff\n      and\n        /* \"VotingSystem/VotingSystem.sol\":2754:2764  msg.sender */\n      caller\n        /* \"VotingSystem/VotingSystem.sol\":2754:2773  msg.sender == owner */\n      0xffffffffffffffffffffffffffffffffffffffff\n      and\n      eq\n        /* \"VotingSystem/VotingSystem.sol\":2746:2800  require(msg.sender == owner, \"Your are not the owner\") */\n      tag_59\n      jumpi\n      mload(0x40)\n      0x08c379a000000000000000000000000000000000000000000000000000000000\n      dup2\n      mstore\n      0x04\n      add\n      tag_60\n      swap1\n      tag_51\n      jump\t// in\n    tag_60:\n      mload(0x40)\n      dup1\n      swap2\n      sub\n      swap1\n      revert\n    tag_59:\n        /* \"VotingSystem/VotingSystem.sol\":2901:2910  startTime */\n      sload(0x01)\n        /* \"VotingSystem/VotingSystem.sol\":2882:2897  block.timestamp */\n      timestamp\n        /* \"VotingSystem/VotingSystem.sol\":2882:2910  block.timestamp >= startTime */\n      lt\n      iszero\n        /* \"VotingSystem/VotingSystem.sol\":2882:2940  block.timestamp >= startTime && block.timestamp <= endTime */\n      dup1\n      iszero\n      tag_62\n      jumpi\n      pop\n        /* \"VotingSystem/VotingSystem.sol\":2933:2940  endTime */\n      sload(0x02)\n        /* \"VotingSystem/VotingSystem.sol\":2914:2929  block.timestamp */\n      timestamp\n        /* \"VotingSystem/VotingSystem.sol\":2914:2940  block.timestamp <= endTime */\n      gt\n      iszero\n        /* \"VotingSystem/VotingSystem.sol\":2882:2940  block.timestamp >= startTime && block.timestamp <= endTime */\n    tag_62:\n        /* \"VotingSystem/VotingSystem.sol\":2861:2989  require(... */\n      tag_63\n      jumpi\n      mload(0x40)\n      0x08c379a000000000000000000000000000000000000000000000000000000000\n      dup2\n      mstore\n      0x04\n      add\n      tag_64\n      swap1\n      tag_36\n      jump\t// in\n    tag_64:\n      mload(0x40)\n      dup1\n      swap2\n      sub\n      swap1\n      revert\n    tag_63:\n        /* \"VotingSystem/VotingSystem.sol\":3164:3165  0 */\n      0x00\n        /* \"VotingSystem/VotingSystem.sol\":3142:3152  candidates */\n      0x05\n        /* \"VotingSystem/VotingSystem.sol\":3142:3157  candidates[_id] */\n      0x00\n        /* \"VotingSystem/VotingSystem.sol\":3153:3156  _id */\n      dup5\n        /* \"VotingSystem/VotingSystem.sol\":3142:3157  candidates[_id] */\n      dup2\n      mstore\n      0x20\n      add\n      swap1\n      dup2\n      mstore\n      0x20\n      add\n      0x00\n      keccak256\n        /* \"VotingSystem/VotingSystem.sol\":3142:3160  candidates[_id].Id */\n      0x00\n      add\n      sload\n        /* \"VotingSystem/VotingSystem.sol\":3142:3165  candidates[_id].Id == 0 */\n      eq\n        /* \"VotingSystem/VotingSystem.sol\":3134:3205  require(candidates[_id].Id == 0, \"You have already added as candidate\") */\n      tag_66\n      jumpi\n      mload(0x40)\n      0x08c379a000000000000000000000000000000000000000000000000000000000\n      dup2\n      mstore\n      0x04\n      add\n      tag_67\n      swap1\n      tag_68\n      jump\t// in\n    tag_67:\n      mload(0x40)\n      dup1\n      swap2\n      sub\n      swap1\n      revert\n    tag_66:\n        /* \"VotingSystem/VotingSystem.sol\":3233:3257  Candidate(_id, _name, 0) */\n      mload(0x40)\n      dup1\n      0x60\n      add\n      0x40\n      mstore\n      dup1\n        /* \"VotingSystem/VotingSystem.sol\":3243:3246  _id */\n      dup4\n        /* \"VotingSystem/VotingSystem.sol\":3233:3257  Candidate(_id, _name, 0) */\n      dup2\n      mstore\n      0x20\n      add\n        /* \"VotingSystem/VotingSystem.sol\":3248:3253  _name */\n      dup3\n        /* \"VotingSystem/VotingSystem.sol\":3233:3257  Candidate(_id, _name, 0) */\n      dup2\n      mstore\n      0x20\n      add\n        /* \"VotingSystem/VotingSystem.sol\":3255:3256  0 */\n      0x00\n        /* \"VotingSystem/VotingSystem.sol\":3233:3257  Candidate(_id, _name, 0) */\n      dup2\n      mstore\n      pop\n        /* \"VotingSystem/VotingSystem.sol\":3215:3225  candidates */\n      0x05\n        /* \"VotingSystem/VotingSystem.sol\":3215:3230  candidates[_id] */\n      0x00\n        /* \"VotingSystem/VotingSystem.sol\":3226:3229  _id */\n      dup5\n        /* \"VotingSystem/VotingSystem.sol\":3215:3230  candidates[_id] */\n      dup2\n      mstore\n      0x20\n      add\n      swap1\n      dup2\n      mstore\n      0x20\n      add\n      0x00\n      keccak256\n        /* \"VotingSystem/VotingSystem.sol\":3215:3257  candidates[_id] = Candidate(_id, _name, 0) */\n      0x00\n      dup3\n      add\n      mload\n      dup2\n      0x00\n      add\n      sstore\n      0x20\n      dup3\n      add\n      mload\n      dup2\n      0x01\n      add\n      swap1\n      dup2\n      tag_69\n      swap2\n      swap1\n      tag_70\n      jump\t// in\n    tag_69:\n      pop\n      0x40\n      dup3\n      add\n      mload\n      dup2\n      0x02\n      add\n      sstore\n      swap1\n      pop\n      pop\n        /* \"VotingSystem/VotingSystem.sol\":3013:3264  function addCandidate(... */\n      pop\n      pop\n      jump\t// out\n        /* \"VotingSystem/VotingSystem.sol\":4238:4457  function getCandidate(... */\n    tag_23:\n        /* \"VotingSystem/VotingSystem.sol\":4317:4333  Candidate memory */\n      tag_71\n      tag_72\n      jump\t// in\n    tag_71:\n        /* \"VotingSystem/VotingSystem.sol\":4384:4385  0 */\n      0x00\n        /* \"VotingSystem/VotingSystem.sol\":4353:4363  candidates */\n      0x05\n        /* \"VotingSystem/VotingSystem.sol\":4353:4377  candidates[_candidateId] */\n      0x00\n        /* \"VotingSystem/VotingSystem.sol\":4364:4376  _candidateId */\n      dup5\n        /* \"VotingSystem/VotingSystem.sol\":4353:4377  candidates[_candidateId] */\n      dup2\n      mstore\n      0x20\n      add\n      swap1\n      dup2\n      mstore\n      0x20\n      add\n      0x00\n      keccak256\n        /* \"VotingSystem/VotingSystem.sol\":4353:4380  candidates[_candidateId].Id */\n      0x00\n      add\n      sload\n        /* \"VotingSystem/VotingSystem.sol\":4353:4385  candidates[_candidateId].Id != 0 */\n      sub\n        /* \"VotingSystem/VotingSystem.sol\":4345:4409  require(candidates[_candidateId].Id != 0, \"Candidate Not Found\") */\n      tag_74\n      jumpi\n      mload(0x40)\n      0x08c379a000000000000000000000000000000000000000000000000000000000\n      dup2\n      mstore\n      0x04\n      add\n      tag_75\n      swap1\n      tag_76\n      jump\t// in\n    tag_75:\n      mload(0x40)\n      dup1\n      swap2\n      sub\n      swap1\n      revert\n    tag_74:\n        /* \"VotingSystem/VotingSystem.sol\":4426:4436  candidates */\n      0x05\n        /* \"VotingSystem/VotingSystem.sol\":4426:4450  candidates[_candidateId] */\n      0x00\n        /* \"VotingSystem/VotingSystem.sol\":4437:4449  _candidateId */\n      dup4\n        /* \"VotingSystem/VotingSystem.sol\":4426:4450  candidates[_candidateId] */\n      dup2\n      mstore\n      0x20\n      add\n      swap1\n      dup2\n      mstore\n      0x20\n      add\n      0x00\n      keccak256\n        /* \"VotingSystem/VotingSystem.sol\":4419:4450  return candidates[_candidateId] */\n      mload(0x40)\n      dup1\n      0x60\n      add\n      0x40\n      mstore\n      swap1\n      dup2\n      0x00\n      dup3\n      add\n      sload\n      dup2\n      mstore\n      0x20\n      add\n      0x01\n      dup3\n      add\n      dup1\n      sload\n      tag_77\n      swap1\n      tag_78\n      jump\t// in\n    tag_77:\n      dup1\n      0x1f\n      add\n      0x20\n      dup1\n      swap2\n      div\n      mul\n      0x20\n      add\n      mload(0x40)\n      swap1\n      dup2\n      add\n      0x40\n      mstore\n      dup1\n      swap3\n      swap2\n      swap1\n      dup2\n      dup2\n      mstore\n      0x20\n      add\n      dup3\n      dup1\n      sload\n      tag_79\n      swap1\n      tag_78\n      jump\t// in\n    tag_79:\n      dup1\n      iszero\n      tag_80\n      jumpi\n      dup1\n      0x1f\n      lt\n      tag_81\n      jumpi\n      0x0100\n      dup1\n      dup4\n      sload\n      div\n      mul\n      dup4\n      mstore\n      swap2\n      0x20\n      add\n      swap2\n      jump(tag_80)\n    tag_81:\n      dup3\n      add\n      swap2\n      swap1\n      0x00\n      mstore\n      keccak256(0x00, 0x20)\n      swap1\n    tag_82:\n      dup2\n      sload\n      dup2\n      mstore\n      swap1\n      0x01\n      add\n      swap1\n      0x20\n      add\n      dup1\n      dup4\n      gt\n      tag_82\n      jumpi\n      dup3\n      swap1\n      sub\n      0x1f\n      and\n      dup3\n      add\n      swap2\n    tag_80:\n      pop\n      pop\n      pop\n      pop\n      pop\n      dup2\n      mstore\n      0x20\n      add\n      0x02\n      dup3\n      add\n      sload\n      dup2\n      mstore\n      pop\n      pop\n      swap1\n      pop\n        /* \"VotingSystem/VotingSystem.sol\":4238:4457  function getCandidate(... */\n      swap2\n      swap1\n      pop\n      jump\t// out\n        /* \"VotingSystem/VotingSystem.sol\":3600:3761  function endElection() public onlyOwner electionOnGoing {... */\n    tag_27:\n        /* \"VotingSystem/VotingSystem.sol\":2768:2773  owner */\n      0x00\n      dup1\n      sload\n      swap1\n      0x0100\n      exp\n      swap1\n      div\n      0xffffffffffffffffffffffffffffffffffffffff\n      and\n        /* \"VotingSystem/VotingSystem.sol\":2754:2773  msg.sender == owner */\n      0xffffffffffffffffffffffffffffffffffffffff\n      and\n        /* \"VotingSystem/VotingSystem.sol\":2754:2764  msg.sender */\n      caller\n        /* \"VotingSystem/VotingSystem.sol\":2754:2773  msg.sender == owner */\n      0xffffffffffffffffffffffffffffffffffffffff\n      and\n      eq\n        /* \"VotingSystem/VotingSystem.sol\":2746:2800  require(msg.sender == owner, \"Your are not the owner\") */\n      tag_84\n      jumpi\n      mload(0x40)\n      0x08c379a000000000000000000000000000000000000000000000000000000000\n      dup2\n      mstore\n      0x04\n      add\n      tag_85\n      swap1\n      tag_51\n      jump\t// in\n    tag_85:\n      mload(0x40)\n      dup1\n      swap2\n      sub\n      swap1\n      revert\n    tag_84:\n        /* \"VotingSystem/VotingSystem.sol\":2901:2910  startTime */\n      sload(0x01)\n        /* \"VotingSystem/VotingSystem.sol\":2882:2897  block.timestamp */\n      timestamp\n        /* \"VotingSystem/VotingSystem.sol\":2882:2910  block.timestamp >= startTime */\n      lt\n      iszero\n        /* \"VotingSystem/VotingSystem.sol\":2882:2940  block.timestamp >= startTime && block.timestamp <= endTime */\n      dup1\n      iszero\n      tag_87\n      jumpi\n      pop\n        /* \"VotingSystem/VotingSystem.sol\":2933:2940  endTime */\n      sload(0x02)\n        /* \"VotingSystem/VotingSystem.sol\":2914:2929  block.timestamp */\n      timestamp\n        /* \"VotingSystem/VotingSystem.sol\":2914:2940  block.timestamp <= endTime */\n      gt\n      iszero\n        /* \"VotingSystem/VotingSystem.sol\":2882:2940  block.timestamp >= startTime && block.timestamp <= endTime */\n    tag_87:\n        /* \"VotingSystem/VotingSystem.sol\":2861:2989  require(... */\n      tag_88\n      jumpi\n      mload(0x40)\n      0x08c379a000000000000000000000000000000000000000000000000000000000\n      dup2\n      mstore\n      0x04\n      add\n      tag_89\n      swap1\n      tag_36\n      jump\t// in\n    tag_89:\n      mload(0x40)\n      dup1\n      swap2\n      sub\n      swap1\n      revert\n    tag_88:\n        /* \"VotingSystem/VotingSystem.sol\":3676:3691  block.timestamp */\n      timestamp\n        /* \"VotingSystem/VotingSystem.sol\":3666:3673  endTime */\n      0x02\n        /* \"VotingSystem/VotingSystem.sol\":3666:3691  endTime = block.timestamp */\n      dup2\n      swap1\n      sstore\n      pop\n        /* \"VotingSystem/VotingSystem.sol\":3706:3754  ElectionEnded(electionId, electionName, endTime) */\n      0x768f23cc1edb48955299fa848c47d3fdebf8c6c78b4136045ba193ebad23fb8d\n        /* \"VotingSystem/VotingSystem.sol\":3720:3730  electionId */\n      sload(0x03)\n        /* \"VotingSystem/VotingSystem.sol\":3732:3744  electionName */\n      0x04\n        /* \"VotingSystem/VotingSystem.sol\":3746:3753  endTime */\n      sload(0x02)\n        /* \"VotingSystem/VotingSystem.sol\":3706:3754  ElectionEnded(electionId, electionName, endTime) */\n      mload(0x40)\n      tag_91\n      swap4\n      swap3\n      swap2\n      swap1\n      tag_47\n      jump\t// in\n    tag_91:\n      mload(0x40)\n      dup1\n      swap2\n      sub\n      swap1\n      log1\n        /* \"VotingSystem/VotingSystem.sol\":3600:3761  function endElection() public onlyOwner electionOnGoing {... */\n      jump\t// out\n        /* \"VotingSystem/VotingSystem.sol\":4463:4654  function getElectionDetails()... */\n    tag_29:\n        /* \"VotingSystem/VotingSystem.sol\":4538:4545  uint256 */\n      0x00\n        /* \"VotingSystem/VotingSystem.sol\":4547:4560  string memory */\n      0x60\n        /* \"VotingSystem/VotingSystem.sol\":4562:4569  uint256 */\n      0x00\n        /* \"VotingSystem/VotingSystem.sol\":4571:4578  uint256 */\n      dup1\n        /* \"VotingSystem/VotingSystem.sol\":4602:4612  electionId */\n      sload(0x03)\n        /* \"VotingSystem/VotingSystem.sol\":4614:4626  electionName */\n      0x04\n        /* \"VotingSystem/VotingSystem.sol\":4628:4637  startTime */\n      sload(0x01)\n        /* \"VotingSystem/VotingSystem.sol\":4639:4646  endTime */\n      sload(0x02)\n        /* \"VotingSystem/VotingSystem.sol\":4594:4647  return (electionId, electionName, startTime, endTime) */\n      dup3\n      dup1\n      sload\n      tag_93\n      swap1\n      tag_78\n      jump\t// in\n    tag_93:\n      dup1\n      0x1f\n      add\n      0x20\n      dup1\n      swap2\n      div\n      mul\n      0x20\n      add\n      mload(0x40)\n      swap1\n      dup2\n      add\n      0x40\n      mstore\n      dup1\n      swap3\n      swap2\n      swap1\n      dup2\n      dup2\n      mstore\n      0x20\n      add\n      dup3\n      dup1\n      sload\n      tag_94\n      swap1\n      tag_78\n      jump\t// in\n    tag_94:\n      dup1\n      iszero\n      tag_95\n      jumpi\n      dup1\n      0x1f\n      lt\n      tag_96\n      jumpi\n      0x0100\n      dup1\n      dup4\n      sload\n      div\n      mul\n      dup4\n      mstore\n      swap2\n      0x20\n      add\n      swap2\n      jump(tag_95)\n    tag_96:\n      dup3\n      add\n      swap2\n      swap1\n      0x00\n      mstore\n      keccak256(0x00, 0x20)\n      swap1\n    tag_97:\n      dup2\n      sload\n      dup2\n      mstore\n      swap1\n      0x01\n      add\n      swap1\n      0x20\n      add\n      dup1\n      dup4\n      gt\n      tag_97\n      jumpi\n      dup3\n      swap1\n      sub\n      0x1f\n      and\n      dup3\n      add\n      swap2\n    tag_95:\n      pop\n      pop\n      pop\n      pop\n      pop\n      swap3\n      pop\n      swap4\n      pop\n      swap4\n      pop\n      swap4\n      pop\n      swap4\n      pop\n        /* \"VotingSystem/VotingSystem.sol\":4463:4654  function getElectionDetails()... */\n      swap1\n      swap2\n      swap3\n      swap4\n      jump\t// out\n    tag_72:\n      mload(0x40)\n      dup1\n      0x60\n      add\n      0x40\n      mstore\n      dup1\n      0x00\n      dup2\n      mstore\n      0x20\n      add\n      0x60\n      dup2\n      mstore\n      0x20\n      add\n      0x00\n      dup2\n      mstore\n      pop\n      swap1\n      jump\t// out\n        /* \"#utility.yul\":7:82   */\n    tag_98:\n        /* \"#utility.yul\":40:46   */\n      0x00\n        /* \"#utility.yul\":73:75   */\n      0x40\n        /* \"#utility.yul\":67:76   */\n      mload\n        /* \"#utility.yul\":57:76   */\n      swap1\n      pop\n        /* \"#utility.yul\":7:82   */\n      swap1\n      jump\t// out\n        /* \"#utility.yul\":88:205   */\n    tag_99:\n        /* \"#utility.yul\":197:198   */\n      0x00\n        /* \"#utility.yul\":194:195   */\n      dup1\n        /* \"#utility.yul\":187:199   */\n      revert\n        /* \"#utility.yul\":211:328   */\n    tag_100:\n        /* \"#utility.yul\":320:321   */\n      0x00\n        /* \"#utility.yul\":317:318   */\n      dup1\n        /* \"#utility.yul\":310:322   */\n      revert\n        /* \"#utility.yul\":334:411   */\n    tag_101:\n        /* \"#utility.yul\":371:378   */\n      0x00\n        /* \"#utility.yul\":400:405   */\n      dup2\n        /* \"#utility.yul\":389:405   */\n      swap1\n      pop\n        /* \"#utility.yul\":334:411   */\n      swap2\n      swap1\n      pop\n      jump\t// out\n        /* \"#utility.yul\":417:539   */\n    tag_102:\n        /* \"#utility.yul\":490:514   */\n      tag_161\n        /* \"#utility.yul\":508:513   */\n      dup2\n        /* \"#utility.yul\":490:514   */\n      tag_101\n      jump\t// in\n    tag_161:\n        /* \"#utility.yul\":483:488   */\n      dup2\n        /* \"#utility.yul\":480:515   */\n      eq\n        /* \"#utility.yul\":470:533   */\n      tag_162\n      jumpi\n        /* \"#utility.yul\":529:530   */\n      0x00\n        /* \"#utility.yul\":526:527   */\n      dup1\n        /* \"#utility.yul\":519:531   */\n      revert\n        /* \"#utility.yul\":470:533   */\n    tag_162:\n        /* \"#utility.yul\":417:539   */\n      pop\n      jump\t// out\n        /* \"#utility.yul\":545:684   */\n    tag_103:\n        /* \"#utility.yul\":591:596   */\n      0x00\n        /* \"#utility.yul\":629:635   */\n      dup2\n        /* \"#utility.yul\":616:636   */\n      calldataload\n        /* \"#utility.yul\":607:636   */\n      swap1\n      pop\n        /* \"#utility.yul\":645:678   */\n      tag_164\n        /* \"#utility.yul\":672:677   */\n      dup2\n        /* \"#utility.yul\":645:678   */\n      tag_102\n      jump\t// in\n    tag_164:\n        /* \"#utility.yul\":545:684   */\n      swap3\n      swap2\n      pop\n      pop\n      jump\t// out\n        /* \"#utility.yul\":690:1019   */\n    tag_11:\n        /* \"#utility.yul\":749:755   */\n      0x00\n        /* \"#utility.yul\":798:800   */\n      0x20\n        /* \"#utility.yul\":786:795   */\n      dup3\n        /* \"#utility.yul\":777:784   */\n      dup5\n        /* \"#utility.yul\":773:796   */\n      sub\n        /* \"#utility.yul\":769:801   */\n      slt\n        /* \"#utility.yul\":766:885   */\n      iszero\n      tag_166\n      jumpi\n        /* \"#utility.yul\":804:883   */\n      tag_167\n      tag_99\n      jump\t// in\n    tag_167:\n        /* \"#utility.yul\":766:885   */\n    tag_166:\n        /* \"#utility.yul\":924:925   */\n      0x00\n        /* \"#utility.yul\":949:1002   */\n      tag_168\n        /* \"#utility.yul\":994:1001   */\n      dup5\n        /* \"#utility.yul\":985:991   */\n      dup3\n        /* \"#utility.yul\":974:983   */\n      dup6\n        /* \"#utility.yul\":970:992   */\n      add\n        /* \"#utility.yul\":949:1002   */\n      tag_103\n      jump\t// in\n    tag_168:\n        /* \"#utility.yul\":939:1002   */\n      swap2\n      pop\n        /* \"#utility.yul\":895:1012   */\n      pop\n        /* \"#utility.yul\":690:1019   */\n      swap3\n      swap2\n      pop\n      pop\n      jump\t// out\n        /* \"#utility.yul\":1025:1499   */\n    tag_15:\n        /* \"#utility.yul\":1093:1099   */\n      0x00\n        /* \"#utility.yul\":1101:1107   */\n      dup1\n        /* \"#utility.yul\":1150:1152   */\n      0x40\n        /* \"#utility.yul\":1138:1147   */\n      dup4\n        /* \"#utility.yul\":1129:1136   */\n      dup6\n        /* \"#utility.yul\":1125:1148   */\n      sub\n        /* \"#utility.yul\":1121:1153   */\n      slt\n        /* \"#utility.yul\":1118:1237   */\n      iszero\n      tag_170\n      jumpi\n        /* \"#utility.yul\":1156:1235   */\n      tag_171\n      tag_99\n      jump\t// in\n    tag_171:\n        /* \"#utility.yul\":1118:1237   */\n    tag_170:\n        /* \"#utility.yul\":1276:1277   */\n      0x00\n        /* \"#utility.yul\":1301:1354   */\n      tag_172\n        /* \"#utility.yul\":1346:1353   */\n      dup6\n        /* \"#utility.yul\":1337:1343   */\n      dup3\n        /* \"#utility.yul\":1326:1335   */\n      dup7\n        /* \"#utility.yul\":1322:1344   */\n      add\n        /* \"#utility.yul\":1301:1354   */\n      tag_103\n      jump\t// in\n    tag_172:\n        /* \"#utility.yul\":1291:1354   */\n      swap3\n      pop\n        /* \"#utility.yul\":1247:1364   */\n      pop\n        /* \"#utility.yul\":1403:1405   */\n      0x20\n        /* \"#utility.yul\":1429:1482   */\n      tag_173\n        /* \"#utility.yul\":1474:1481   */\n      dup6\n        /* \"#utility.yul\":1465:1471   */\n      dup3\n        /* \"#utility.yul\":1454:1463   */\n      dup7\n        /* \"#utility.yul\":1450:1472   */\n      add\n        /* \"#utility.yul\":1429:1482   */\n      tag_103\n      jump\t// in\n    tag_173:\n        /* \"#utility.yul\":1419:1482   */\n      swap2\n      pop\n        /* \"#utility.yul\":1374:1492   */\n      pop\n        /* \"#utility.yul\":1025:1499   */\n      swap3\n      pop\n      swap3\n      swap1\n      pop\n      jump\t// out\n        /* \"#utility.yul\":1505:1622   */\n    tag_104:\n        /* \"#utility.yul\":1614:1615   */\n      0x00\n        /* \"#utility.yul\":1611:1612   */\n      dup1\n        /* \"#utility.yul\":1604:1616   */\n      revert\n        /* \"#utility.yul\":1628:1745   */\n    tag_105:\n        /* \"#utility.yul\":1737:1738   */\n      0x00\n        /* \"#utility.yul\":1734:1735   */\n      dup1\n        /* \"#utility.yul\":1727:1739   */\n      revert\n        /* \"#utility.yul\":1751:1853   */\n    tag_106:\n        /* \"#utility.yul\":1792:1798   */\n      0x00\n        /* \"#utility.yul\":1843:1845   */\n      0x1f\n        /* \"#utility.yul\":1839:1846   */\n      not\n        /* \"#utility.yul\":1834:1836   */\n      0x1f\n        /* \"#utility.yul\":1827:1832   */\n      dup4\n        /* \"#utility.yul\":1823:1837   */\n      add\n        /* \"#utility.yul\":1819:1847   */\n      and\n        /* \"#utility.yul\":1809:1847   */\n      swap1\n      pop\n        /* \"#utility.yul\":1751:1853   */\n      swap2\n      swap1\n      pop\n      jump\t// out\n        /* \"#utility.yul\":1859:2039   */\n    tag_107:\n        /* \"#utility.yul\":1907:1984   */\n      0x4e487b7100000000000000000000000000000000000000000000000000000000\n        /* \"#utility.yul\":1904:1905   */\n      0x00\n        /* \"#utility.yul\":1897:1985   */\n      mstore\n        /* \"#utility.yul\":2004:2008   */\n      0x41\n        /* \"#utility.yul\":2001:2002   */\n      0x04\n        /* \"#utility.yul\":1994:2009   */\n      mstore\n        /* \"#utility.yul\":2028:2032   */\n      0x24\n        /* \"#utility.yul\":2025:2026   */\n      0x00\n        /* \"#utility.yul\":2018:2033   */\n      revert\n        /* \"#utility.yul\":2045:2326   */\n    tag_108:\n        /* \"#utility.yul\":2128:2155   */\n      tag_179\n        /* \"#utility.yul\":2150:2154   */\n      dup3\n        /* \"#utility.yul\":2128:2155   */\n      tag_106\n      jump\t// in\n    tag_179:\n        /* \"#utility.yul\":2120:2126   */\n      dup2\n        /* \"#utility.yul\":2116:2156   */\n      add\n        /* \"#utility.yul\":2258:2264   */\n      dup2\n        /* \"#utility.yul\":2246:2256   */\n      dup2\n        /* \"#utility.yul\":2243:2265   */\n      lt\n        /* \"#utility.yul\":2222:2240   */\n      0xffffffffffffffff\n        /* \"#utility.yul\":2210:2220   */\n      dup3\n        /* \"#utility.yul\":2207:2241   */\n      gt\n        /* \"#utility.yul\":2204:2266   */\n      or\n        /* \"#utility.yul\":2201:2289   */\n      iszero\n      tag_180\n      jumpi\n        /* \"#utility.yul\":2269:2287   */\n      tag_181\n      tag_107\n      jump\t// in\n    tag_181:\n        /* \"#utility.yul\":2201:2289   */\n    tag_180:\n        /* \"#utility.yul\":2309:2319   */\n      dup1\n        /* \"#utility.yul\":2305:2307   */\n      0x40\n        /* \"#utility.yul\":2298:2320   */\n      mstore\n        /* \"#utility.yul\":2088:2326   */\n      pop\n        /* \"#utility.yul\":2045:2326   */\n      pop\n      pop\n      jump\t// out\n        /* \"#utility.yul\":2332:2461   */\n    tag_109:\n        /* \"#utility.yul\":2366:2372   */\n      0x00\n        /* \"#utility.yul\":2393:2413   */\n      tag_183\n      tag_98\n      jump\t// in\n    tag_183:\n        /* \"#utility.yul\":2383:2413   */\n      swap1\n      pop\n        /* \"#utility.yul\":2422:2455   */\n      tag_184\n        /* \"#utility.yul\":2450:2454   */\n      dup3\n        /* \"#utility.yul\":2442:2448   */\n      dup3\n        /* \"#utility.yul\":2422:2455   */\n      tag_108\n      jump\t// in\n    tag_184:\n        /* \"#utility.yul\":2332:2461   */\n      swap2\n      swap1\n      pop\n      jump\t// out\n        /* \"#utility.yul\":2467:2775   */\n    tag_110:\n        /* \"#utility.yul\":2529:2533   */\n      0x00\n        /* \"#utility.yul\":2619:2637   */\n      0xffffffffffffffff\n        /* \"#utility.yul\":2611:2617   */\n      dup3\n        /* \"#utility.yul\":2608:2638   */\n      gt\n        /* \"#utility.yul\":2605:2661   */\n      iszero\n      tag_186\n      jumpi\n        /* \"#utility.yul\":2641:2659   */\n      tag_187\n      tag_107\n      jump\t// in\n    tag_187:\n        /* \"#utility.yul\":2605:2661   */\n    tag_186:\n        /* \"#utility.yul\":2679:2708   */\n      tag_188\n        /* \"#utility.yul\":2701:2707   */\n      dup3\n        /* \"#utility.yul\":2679:2708   */\n      tag_106\n      jump\t// in\n    tag_188:\n        /* \"#utility.yul\":2671:2708   */\n      swap1\n      pop\n        /* \"#utility.yul\":2763:2767   */\n      0x20\n        /* \"#utility.yul\":2757:2761   */\n      dup2\n        /* \"#utility.yul\":2753:2768   */\n      add\n        /* \"#utility.yul\":2745:2768   */\n      swap1\n      pop\n        /* \"#utility.yul\":2467:2775   */\n      swap2\n      swap1\n      pop\n      jump\t// out\n        /* \"#utility.yul\":2781:2929   */\n    tag_111:\n        /* \"#utility.yul\":2879:2885   */\n      dup3\n        /* \"#utility.yul\":2874:2877   */\n      dup2\n        /* \"#utility.yul\":2869:2872   */\n      dup4\n        /* \"#utility.yul\":2856:2886   */\n      calldatacopy\n        /* \"#utility.yul\":2920:2921   */\n      0x00\n        /* \"#utility.yul\":2911:2917   */\n      dup4\n        /* \"#utility.yul\":2906:2909   */\n      dup4\n        /* \"#utility.yul\":2902:2918   */\n      add\n        /* \"#utility.yul\":2895:2922   */\n      mstore\n        /* \"#utility.yul\":2781:2929   */\n      pop\n      pop\n      pop\n      jump\t// out\n        /* \"#utility.yul\":2935:3360   */\n    tag_112:\n        /* \"#utility.yul\":3013:3018   */\n      0x00\n        /* \"#utility.yul\":3038:3104   */\n      tag_191\n        /* \"#utility.yul\":3054:3103   */\n      tag_192\n        /* \"#utility.yul\":3096:3102   */\n      dup5\n        /* \"#utility.yul\":3054:3103   */\n      tag_110\n      jump\t// in\n    tag_192:\n        /* \"#utility.yul\":3038:3104   */\n      tag_109\n      jump\t// in\n    tag_191:\n        /* \"#utility.yul\":3029:3104   */\n      swap1\n      pop\n        /* \"#utility.yul\":3127:3133   */\n      dup3\n        /* \"#utility.yul\":3120:3125   */\n      dup2\n        /* \"#utility.yul\":3113:3134   */\n      mstore\n        /* \"#utility.yul\":3165:3169   */\n      0x20\n        /* \"#utility.yul\":3158:3163   */\n      dup2\n        /* \"#utility.yul\":3154:3170   */\n      add\n        /* \"#utility.yul\":3203:3206   */\n      dup5\n        /* \"#utility.yul\":3194:3200   */\n      dup5\n        /* \"#utility.yul\":3189:3192   */\n      dup5\n        /* \"#utility.yul\":3185:3201   */\n      add\n        /* \"#utility.yul\":3182:3207   */\n      gt\n        /* \"#utility.yul\":3179:3291   */\n      iszero\n      tag_193\n      jumpi\n        /* \"#utility.yul\":3210:3289   */\n      tag_194\n      tag_105\n      jump\t// in\n    tag_194:\n        /* \"#utility.yul\":3179:3291   */\n    tag_193:\n        /* \"#utility.yul\":3300:3354   */\n      tag_195\n        /* \"#utility.yul\":3347:3353   */\n      dup5\n        /* \"#utility.yul\":3342:3345   */\n      dup3\n        /* \"#utility.yul\":3337:3340   */\n      dup6\n        /* \"#utility.yul\":3300:3354   */\n      tag_111\n      jump\t// in\n    tag_195:\n        /* \"#utility.yul\":3019:3360   */\n      pop\n        /* \"#utility.yul\":2935:3360   */\n      swap4\n      swap3\n      pop\n      pop\n      pop\n      jump\t// out\n        /* \"#utility.yul\":3380:3720   */\n    tag_113:\n        /* \"#utility.yul\":3436:3441   */\n      0x00\n        /* \"#utility.yul\":3485:3488   */\n      dup3\n        /* \"#utility.yul\":3478:3482   */\n      0x1f\n        /* \"#utility.yul\":3470:3476   */\n      dup4\n        /* \"#utility.yul\":3466:3483   */\n      add\n        /* \"#utility.yul\":3462:3489   */\n      slt\n        /* \"#utility.yul\":3452:3574   */\n      tag_197\n      jumpi\n        /* \"#utility.yul\":3493:3572   */\n      tag_198\n      tag_104\n      jump\t// in\n    tag_198:\n        /* \"#utility.yul\":3452:3574   */\n    tag_197:\n        /* \"#utility.yul\":3610:3616   */\n      dup2\n        /* \"#utility.yul\":3597:3617   */\n      calldataload\n        /* \"#utility.yul\":3635:3714   */\n      tag_199\n        /* \"#utility.yul\":3710:3713   */\n      dup5\n        /* \"#utility.yul\":3702:3708   */\n      dup3\n        /* \"#utility.yul\":3695:3699   */\n      0x20\n        /* \"#utility.yul\":3687:3693   */\n      dup7\n        /* \"#utility.yul\":3683:3700   */\n      add\n        /* \"#utility.yul\":3635:3714   */\n      tag_112\n      jump\t// in\n    tag_199:\n        /* \"#utility.yul\":3626:3714   */\n      swap2\n      pop\n        /* \"#utility.yul\":3442:3720   */\n      pop\n        /* \"#utility.yul\":3380:3720   */\n      swap3\n      swap2\n      pop\n      pop\n      jump\t// out\n        /* \"#utility.yul\":3726:4380   */\n    tag_19:\n        /* \"#utility.yul\":3804:3810   */\n      0x00\n        /* \"#utility.yul\":3812:3818   */\n      dup1\n        /* \"#utility.yul\":3861:3863   */\n      0x40\n        /* \"#utility.yul\":3849:3858   */\n      dup4\n        /* \"#utility.yul\":3840:3847   */\n      dup6\n        /* \"#utility.yul\":3836:3859   */\n      sub\n        /* \"#utility.yul\":3832:3864   */\n      slt\n        /* \"#utility.yul\":3829:3948   */\n      iszero\n      tag_201\n      jumpi\n        /* \"#utility.yul\":3867:3946   */\n      tag_202\n      tag_99\n      jump\t// in\n    tag_202:\n        /* \"#utility.yul\":3829:3948   */\n    tag_201:\n        /* \"#utility.yul\":3987:3988   */\n      0x00\n        /* \"#utility.yul\":4012:4065   */\n      tag_203\n        /* \"#utility.yul\":4057:4064   */\n      dup6\n        /* \"#utility.yul\":4048:4054   */\n      dup3\n        /* \"#utility.yul\":4037:4046   */\n      dup7\n        /* \"#utility.yul\":4033:4055   */\n      add\n        /* \"#utility.yul\":4012:4065   */\n      tag_103\n      jump\t// in\n    tag_203:\n        /* \"#utility.yul\":4002:4065   */\n      swap3\n      pop\n        /* \"#utility.yul\":3958:4075   */\n      pop\n        /* \"#utility.yul\":4142:4144   */\n      0x20\n        /* \"#utility.yul\":4131:4140   */\n      dup4\n        /* \"#utility.yul\":4127:4145   */\n      add\n        /* \"#utility.yul\":4114:4146   */\n      calldataload\n        /* \"#utility.yul\":4173:4191   */\n      0xffffffffffffffff\n        /* \"#utility.yul\":4165:4171   */\n      dup2\n        /* \"#utility.yul\":4162:4192   */\n      gt\n        /* \"#utility.yul\":4159:4276   */\n      iszero\n      tag_204\n      jumpi\n        /* \"#utility.yul\":4195:4274   */\n      tag_205\n      tag_100\n      jump\t// in\n    tag_205:\n        /* \"#utility.yul\":4159:4276   */\n    tag_204:\n        /* \"#utility.yul\":4300:4363   */\n      tag_206\n        /* \"#utility.yul\":4355:4362   */\n      dup6\n        /* \"#utility.yul\":4346:4352   */\n      dup3\n        /* \"#utility.yul\":4335:4344   */\n      dup7\n        /* \"#utility.yul\":4331:4353   */\n      add\n        /* \"#utility.yul\":4300:4363   */\n      tag_113\n      jump\t// in\n    tag_206:\n        /* \"#utility.yul\":4290:4363   */\n      swap2\n      pop\n        /* \"#utility.yul\":4085:4373   */\n      pop\n        /* \"#utility.yul\":3726:4380   */\n      swap3\n      pop\n      swap3\n      swap1\n      pop\n      jump\t// out\n        /* \"#utility.yul\":4386:4494   */\n    tag_114:\n        /* \"#utility.yul\":4463:4487   */\n      tag_208\n        /* \"#utility.yul\":4481:4486   */\n      dup2\n        /* \"#utility.yul\":4463:4487   */\n      tag_101\n      jump\t// in\n    tag_208:\n        /* \"#utility.yul\":4458:4461   */\n      dup3\n        /* \"#utility.yul\":4451:4488   */\n      mstore\n        /* \"#utility.yul\":4386:4494   */\n      pop\n      pop\n      jump\t// out\n        /* \"#utility.yul\":4500:4599   */\n    tag_115:\n        /* \"#utility.yul\":4552:4558   */\n      0x00\n        /* \"#utility.yul\":4586:4591   */\n      dup2\n        /* \"#utility.yul\":4580:4592   */\n      mload\n        /* \"#utility.yul\":4570:4592   */\n      swap1\n      pop\n        /* \"#utility.yul\":4500:4599   */\n      swap2\n      swap1\n      pop\n      jump\t// out\n        /* \"#utility.yul\":4605:4764   */\n    tag_116:\n        /* \"#utility.yul\":4679:4690   */\n      0x00\n        /* \"#utility.yul\":4713:4719   */\n      dup3\n        /* \"#utility.yul\":4708:4711   */\n      dup3\n        /* \"#utility.yul\":4701:4720   */\n      mstore\n        /* \"#utility.yul\":4753:4757   */\n      0x20\n        /* \"#utility.yul\":4748:4751   */\n      dup3\n        /* \"#utility.yul\":4744:4758   */\n      add\n        /* \"#utility.yul\":4729:4758   */\n      swap1\n      pop\n        /* \"#utility.yul\":4605:4764   */\n      swap3\n      swap2\n      pop\n      pop\n      jump\t// out\n        /* \"#utility.yul\":4770:4909   */\n    tag_117:\n        /* \"#utility.yul\":4859:4865   */\n      dup3\n        /* \"#utility.yul\":4854:4857   */\n      dup2\n        /* \"#utility.yul\":4849:4852   */\n      dup4\n        /* \"#utility.yul\":4843:4866   */\n      mcopy\n        /* \"#utility.yul\":4900:4901   */\n      0x00\n        /* \"#utility.yul\":4891:4897   */\n      dup4\n        /* \"#utility.yul\":4886:4889   */\n      dup4\n        /* \"#utility.yul\":4882:4898   */\n      add\n        /* \"#utility.yul\":4875:4902   */\n      mstore\n        /* \"#utility.yul\":4770:4909   */\n      pop\n      pop\n      pop\n      jump\t// out\n        /* \"#utility.yul\":4915:5272   */\n    tag_118:\n        /* \"#utility.yul\":4993:4996   */\n      0x00\n        /* \"#utility.yul\":5021:5060   */\n      tag_213\n        /* \"#utility.yul\":5054:5059   */\n      dup3\n        /* \"#utility.yul\":5021:5060   */\n      tag_115\n      jump\t// in\n    tag_213:\n        /* \"#utility.yul\":5076:5137   */\n      tag_214\n        /* \"#utility.yul\":5130:5136   */\n      dup2\n        /* \"#utility.yul\":5125:5128   */\n      dup6\n        /* \"#utility.yul\":5076:5137   */\n      tag_116\n      jump\t// in\n    tag_214:\n        /* \"#utility.yul\":5069:5137   */\n      swap4\n      pop\n        /* \"#utility.yul\":5146:5211   */\n      tag_215\n        /* \"#utility.yul\":5204:5210   */\n      dup2\n        /* \"#utility.yul\":5199:5202   */\n      dup6\n        /* \"#utility.yul\":5192:5196   */\n      0x20\n        /* \"#utility.yul\":5185:5190   */\n      dup7\n        /* \"#utility.yul\":5181:5197   */\n      add\n        /* \"#utility.yul\":5146:5211   */\n      tag_117\n      jump\t// in\n    tag_215:\n        /* \"#utility.yul\":5236:5265   */\n      tag_216\n        /* \"#utility.yul\":5258:5264   */\n      dup2\n        /* \"#utility.yul\":5236:5265   */\n      tag_106\n      jump\t// in\n    tag_216:\n        /* \"#utility.yul\":5231:5234   */\n      dup5\n        /* \"#utility.yul\":5227:5266   */\n      add\n        /* \"#utility.yul\":5220:5266   */\n      swap2\n      pop\n        /* \"#utility.yul\":4997:5272   */\n      pop\n        /* \"#utility.yul\":4915:5272   */\n      swap3\n      swap2\n      pop\n      pop\n      jump\t// out\n        /* \"#utility.yul\":5374:6155   */\n    tag_119:\n        /* \"#utility.yul\":5491:5494   */\n      0x00\n        /* \"#utility.yul\":5527:5531   */\n      0x60\n        /* \"#utility.yul\":5522:5525   */\n      dup4\n        /* \"#utility.yul\":5518:5532   */\n      add\n        /* \"#utility.yul\":5612:5616   */\n      0x00\n        /* \"#utility.yul\":5605:5610   */\n      dup4\n        /* \"#utility.yul\":5601:5617   */\n      add\n        /* \"#utility.yul\":5595:5618   */\n      mload\n        /* \"#utility.yul\":5631:5694   */\n      tag_218\n        /* \"#utility.yul\":5688:5692   */\n      0x00\n        /* \"#utility.yul\":5683:5686   */\n      dup7\n        /* \"#utility.yul\":5679:5693   */\n      add\n        /* \"#utility.yul\":5665:5677   */\n      dup3\n        /* \"#utility.yul\":5631:5694   */\n      tag_114\n      jump\t// in\n    tag_218:\n        /* \"#utility.yul\":5542:5704   */\n      pop\n        /* \"#utility.yul\":5786:5790   */\n      0x20\n        /* \"#utility.yul\":5779:5784   */\n      dup4\n        /* \"#utility.yul\":5775:5791   */\n      add\n        /* \"#utility.yul\":5769:5792   */\n      mload\n        /* \"#utility.yul\":5839:5842   */\n      dup5\n        /* \"#utility.yul\":5833:5837   */\n      dup3\n        /* \"#utility.yul\":5829:5843   */\n      sub\n        /* \"#utility.yul\":5822:5826   */\n      0x20\n        /* \"#utility.yul\":5817:5820   */\n      dup7\n        /* \"#utility.yul\":5813:5827   */\n      add\n        /* \"#utility.yul\":5806:5844   */\n      mstore\n        /* \"#utility.yul\":5865:5938   */\n      tag_219\n        /* \"#utility.yul\":5933:5937   */\n      dup3\n        /* \"#utility.yul\":5919:5931   */\n      dup3\n        /* \"#utility.yul\":5865:5938   */\n      tag_118\n      jump\t// in\n    tag_219:\n        /* \"#utility.yul\":5857:5938   */\n      swap2\n      pop\n        /* \"#utility.yul\":5714:5949   */\n      pop\n        /* \"#utility.yul\":6036:6040   */\n      0x40\n        /* \"#utility.yul\":6029:6034   */\n      dup4\n        /* \"#utility.yul\":6025:6041   */\n      add\n        /* \"#utility.yul\":6019:6042   */\n      mload\n        /* \"#utility.yul\":6055:6118   */\n      tag_220\n        /* \"#utility.yul\":6112:6116   */\n      0x40\n        /* \"#utility.yul\":6107:6110   */\n      dup7\n        /* \"#utility.yul\":6103:6117   */\n      add\n        /* \"#utility.yul\":6089:6101   */\n      dup3\n        /* \"#utility.yul\":6055:6118   */\n      tag_114\n      jump\t// in\n    tag_220:\n        /* \"#utility.yul\":5959:6128   */\n      pop\n        /* \"#utility.yul\":6145:6149   */\n      dup1\n        /* \"#utility.yul\":6138:6149   */\n      swap2\n      pop\n        /* \"#utility.yul\":5496:6155   */\n      pop\n        /* \"#utility.yul\":5374:6155   */\n      swap3\n      swap2\n      pop\n      pop\n      jump\t// out\n        /* \"#utility.yul\":6161:6530   */\n    tag_25:\n        /* \"#utility.yul\":6302:6306   */\n      0x00\n        /* \"#utility.yul\":6340:6342   */\n      0x20\n        /* \"#utility.yul\":6329:6338   */\n      dup3\n        /* \"#utility.yul\":6325:6343   */\n      add\n        /* \"#utility.yul\":6317:6343   */\n      swap1\n      pop\n        /* \"#utility.yul\":6389:6398   */\n      dup2\n        /* \"#utility.yul\":6383:6387   */\n      dup2\n        /* \"#utility.yul\":6379:6399   */\n      sub\n        /* \"#utility.yul\":6375:6376   */\n      0x00\n        /* \"#utility.yul\":6364:6373   */\n      dup4\n        /* \"#utility.yul\":6360:6377   */\n      add\n        /* \"#utility.yul\":6353:6400   */\n      mstore\n        /* \"#utility.yul\":6417:6523   */\n      tag_222\n        /* \"#utility.yul\":6518:6522   */\n      dup2\n        /* \"#utility.yul\":6509:6515   */\n      dup5\n        /* \"#utility.yul\":6417:6523   */\n      tag_119\n      jump\t// in\n    tag_222:\n        /* \"#utility.yul\":6409:6523   */\n      swap1\n      pop\n        /* \"#utility.yul\":6161:6530   */\n      swap3\n      swap2\n      pop\n      pop\n      jump\t// out\n        /* \"#utility.yul\":6536:6654   */\n    tag_120:\n        /* \"#utility.yul\":6623:6647   */\n      tag_224\n        /* \"#utility.yul\":6641:6646   */\n      dup2\n        /* \"#utility.yul\":6623:6647   */\n      tag_101\n      jump\t// in\n    tag_224:\n        /* \"#utility.yul\":6618:6621   */\n      dup3\n        /* \"#utility.yul\":6611:6648   */\n      mstore\n        /* \"#utility.yul\":6536:6654   */\n      pop\n      pop\n      jump\t// out\n        /* \"#utility.yul\":6660:6829   */\n    tag_121:\n        /* \"#utility.yul\":6744:6755   */\n      0x00\n        /* \"#utility.yul\":6778:6784   */\n      dup3\n        /* \"#utility.yul\":6773:6776   */\n      dup3\n        /* \"#utility.yul\":6766:6785   */\n      mstore\n        /* \"#utility.yul\":6818:6822   */\n      0x20\n        /* \"#utility.yul\":6813:6816   */\n      dup3\n        /* \"#utility.yul\":6809:6823   */\n      add\n        /* \"#utility.yul\":6794:6823   */\n      swap1\n      pop\n        /* \"#utility.yul\":6660:6829   */\n      swap3\n      swap2\n      pop\n      pop\n      jump\t// out\n        /* \"#utility.yul\":6835:7212   */\n    tag_122:\n        /* \"#utility.yul\":6923:6926   */\n      0x00\n        /* \"#utility.yul\":6951:6990   */\n      tag_227\n        /* \"#utility.yul\":6984:6989   */\n      dup3\n        /* \"#utility.yul\":6951:6990   */\n      tag_115\n      jump\t// in\n    tag_227:\n        /* \"#utility.yul\":7006:7077   */\n      tag_228\n        /* \"#utility.yul\":7070:7076   */\n      dup2\n        /* \"#utility.yul\":7065:7068   */\n      dup6\n        /* \"#utility.yul\":7006:7077   */\n      tag_121\n      jump\t// in\n    tag_228:\n        /* \"#utility.yul\":6999:7077   */\n      swap4\n      pop\n        /* \"#utility.yul\":7086:7151   */\n      tag_229\n        /* \"#utility.yul\":7144:7150   */\n      dup2\n        /* \"#utility.yul\":7139:7142   */\n      dup6\n        /* \"#utility.yul\":7132:7136   */\n      0x20\n        /* \"#utility.yul\":7125:7130   */\n      dup7\n        /* \"#utility.yul\":7121:7137   */\n      add\n        /* \"#utility.yul\":7086:7151   */\n      tag_117\n      jump\t// in\n    tag_229:\n        /* \"#utility.yul\":7176:7205   */\n      tag_230\n        /* \"#utility.yul\":7198:7204   */\n      dup2\n        /* \"#utility.yul\":7176:7205   */\n      tag_106\n      jump\t// in\n    tag_230:\n        /* \"#utility.yul\":7171:7174   */\n      dup5\n        /* \"#utility.yul\":7167:7206   */\n      add\n        /* \"#utility.yul\":7160:7206   */\n      swap2\n      pop\n        /* \"#utility.yul\":6927:7212   */\n      pop\n        /* \"#utility.yul\":6835:7212   */\n      swap3\n      swap2\n      pop\n      pop\n      jump\t// out\n        /* \"#utility.yul\":7218:7862   */\n    tag_31:\n        /* \"#utility.yul\":7415:7419   */\n      0x00\n        /* \"#utility.yul\":7453:7456   */\n      0x80\n        /* \"#utility.yul\":7442:7451   */\n      dup3\n        /* \"#utility.yul\":7438:7457   */\n      add\n        /* \"#utility.yul\":7430:7457   */\n      swap1\n      pop\n        /* \"#utility.yul\":7467:7538   */\n      tag_232\n        /* \"#utility.yul\":7535:7536   */\n      0x00\n        /* \"#utility.yul\":7524:7533   */\n      dup4\n        /* \"#utility.yul\":7520:7537   */\n      add\n        /* \"#utility.yul\":7511:7517   */\n      dup8\n        /* \"#utility.yul\":7467:7538   */\n      tag_120\n      jump\t// in\n    tag_232:\n        /* \"#utility.yul\":7585:7594   */\n      dup2\n        /* \"#utility.yul\":7579:7583   */\n      dup2\n        /* \"#utility.yul\":7575:7595   */\n      sub\n        /* \"#utility.yul\":7570:7572   */\n      0x20\n        /* \"#utility.yul\":7559:7568   */\n      dup4\n        /* \"#utility.yul\":7555:7573   */\n      add\n        /* \"#utility.yul\":7548:7596   */\n      mstore\n        /* \"#utility.yul\":7613:7691   */\n      tag_233\n        /* \"#utility.yul\":7686:7690   */\n      dup2\n        /* \"#utility.yul\":7677:7683   */\n      dup7\n        /* \"#utility.yul\":7613:7691   */\n      tag_122\n      jump\t// in\n    tag_233:\n        /* \"#utility.yul\":7605:7691   */\n      swap1\n      pop\n        /* \"#utility.yul\":7701:7773   */\n      tag_234\n        /* \"#utility.yul\":7769:7771   */\n      0x40\n        /* \"#utility.yul\":7758:7767   */\n      dup4\n        /* \"#utility.yul\":7754:7772   */\n      add\n        /* \"#utility.yul\":7745:7751   */\n      dup6\n        /* \"#utility.yul\":7701:7773   */\n      tag_120\n      jump\t// in\n    tag_234:\n        /* \"#utility.yul\":7783:7855   */\n      tag_235\n        /* \"#utility.yul\":7851:7853   */\n      0x60\n        /* \"#utility.yul\":7840:7849   */\n      dup4\n        /* \"#utility.yul\":7836:7854   */\n      add\n        /* \"#utility.yul\":7827:7833   */\n      dup5\n        /* \"#utility.yul\":7783:7855   */\n      tag_120\n      jump\t// in\n    tag_235:\n        /* \"#utility.yul\":7218:7862   */\n      swap6\n      swap5\n      pop\n      pop\n      pop\n      pop\n      pop\n      jump\t// out\n        /* \"#utility.yul\":7868:8041   */\n    tag_123:\n        /* \"#utility.yul\":8008:8033   */\n      0x456c656374696f6e206973206e6f74206f6e676f696e67000000000000000000\n        /* \"#utility.yul\":8004:8005   */\n      0x00\n        /* \"#utility.yul\":7996:8002   */\n      dup3\n        /* \"#utility.yul\":7992:8006   */\n      add\n        /* \"#utility.yul\":7985:8034   */\n      mstore\n        /* \"#utility.yul\":7868:8041   */\n      pop\n      jump\t// out\n        /* \"#utility.yul\":8047:8413   */\n    tag_124:\n        /* \"#utility.yul\":8189:8192   */\n      0x00\n        /* \"#utility.yul\":8210:8277   */\n      tag_238\n        /* \"#utility.yul\":8274:8276   */\n      0x17\n        /* \"#utility.yul\":8269:8272   */\n      dup4\n        /* \"#utility.yul\":8210:8277   */\n      tag_121\n      jump\t// in\n    tag_238:\n        /* \"#utility.yul\":8203:8277   */\n      swap2\n      pop\n        /* \"#utility.yul\":8286:8379   */\n      tag_239\n        /* \"#utility.yul\":8375:8378   */\n      dup3\n        /* \"#utility.yul\":8286:8379   */\n      tag_123\n      jump\t// in\n    tag_239:\n        /* \"#utility.yul\":8404:8406   */\n      0x20\n        /* \"#utility.yul\":8399:8402   */\n      dup3\n        /* \"#utility.yul\":8395:8407   */\n      add\n        /* \"#utility.yul\":8388:8407   */\n      swap1\n      pop\n        /* \"#utility.yul\":8047:8413   */\n      swap2\n      swap1\n      pop\n      jump\t// out\n        /* \"#utility.yul\":8419:8838   */\n    tag_36:\n        /* \"#utility.yul\":8585:8589   */\n      0x00\n        /* \"#utility.yul\":8623:8625   */\n      0x20\n        /* \"#utility.yul\":8612:8621   */\n      dup3\n        /* \"#utility.yul\":8608:8626   */\n      add\n        /* \"#utility.yul\":8600:8626   */\n      swap1\n      pop\n        /* \"#utility.yul\":8672:8681   */\n      dup2\n        /* \"#utility.yul\":8666:8670   */\n      dup2\n        /* \"#utility.yul\":8662:8682   */\n      sub\n        /* \"#utility.yul\":8658:8659   */\n      0x00\n        /* \"#utility.yul\":8647:8656   */\n      dup4\n        /* \"#utility.yul\":8643:8660   */\n      add\n        /* \"#utility.yul\":8636:8683   */\n      mstore\n        /* \"#utility.yul\":8700:8831   */\n      tag_241\n        /* \"#utility.yul\":8826:8830   */\n      dup2\n        /* \"#utility.yul\":8700:8831   */\n      tag_124\n      jump\t// in\n    tag_241:\n        /* \"#utility.yul\":8692:8831   */\n      swap1\n      pop\n        /* \"#utility.yul\":8419:8838   */\n      swap2\n      swap1\n      pop\n      jump\t// out\n        /* \"#utility.yul\":8844:9016   */\n    tag_125:\n        /* \"#utility.yul\":8984:9008   */\n      0x596f75206861766520616c726561647920766f74656400000000000000000000\n        /* \"#utility.yul\":8980:8981   */\n      0x00\n        /* \"#utility.yul\":8972:8978   */\n      dup3\n        /* \"#utility.yul\":8968:8982   */\n      add\n        /* \"#utility.yul\":8961:9009   */\n      mstore\n        /* \"#utility.yul\":8844:9016   */\n      pop\n      jump\t// out\n        /* \"#utility.yul\":9022:9388   */\n    tag_126:\n        /* \"#utility.yul\":9164:9167   */\n      0x00\n        /* \"#utility.yul\":9185:9252   */\n      tag_244\n        /* \"#utility.yul\":9249:9251   */\n      0x16\n        /* \"#utility.yul\":9244:9247   */\n      dup4\n        /* \"#utility.yul\":9185:9252   */\n      tag_121\n      jump\t// in\n    tag_244:\n        /* \"#utility.yul\":9178:9252   */\n      swap2\n      pop\n        /* \"#utility.yul\":9261:9354   */\n      tag_245\n        /* \"#utility.yul\":9350:9353   */\n      dup3\n        /* \"#utility.yul\":9261:9354   */\n      tag_125\n      jump\t// in\n    tag_245:\n        /* \"#utility.yul\":9379:9381   */\n      0x20\n        /* \"#utility.yul\":9374:9377   */\n      dup3\n        /* \"#utility.yul\":9370:9382   */\n      add\n        /* \"#utility.yul\":9363:9382   */\n      swap1\n      pop\n        /* \"#utility.yul\":9022:9388   */\n      swap2\n      swap1\n      pop\n      jump\t// out\n        /* \"#utility.yul\":9394:9813   */\n    tag_40:\n        /* \"#utility.yul\":9560:9564   */\n      0x00\n        /* \"#utility.yul\":9598:9600   */\n      0x20\n        /* \"#utility.yul\":9587:9596   */\n      dup3\n        /* \"#utility.yul\":9583:9601   */\n      add\n        /* \"#utility.yul\":9575:9601   */\n      swap1\n      pop\n        /* \"#utility.yul\":9647:9656   */\n      dup2\n        /* \"#utility.yul\":9641:9645   */\n      dup2\n        /* \"#utility.yul\":9637:9657   */\n      sub\n        /* \"#utility.yul\":9633:9634   */\n      0x00\n        /* \"#utility.yul\":9622:9631   */\n      dup4\n        /* \"#utility.yul\":9618:9635   */\n      add\n        /* \"#utility.yul\":9611:9658   */\n      mstore\n        /* \"#utility.yul\":9675:9806   */\n      tag_247\n        /* \"#utility.yul\":9801:9805   */\n      dup2\n        /* \"#utility.yul\":9675:9806   */\n      tag_126\n      jump\t// in\n    tag_247:\n        /* \"#utility.yul\":9667:9806   */\n      swap1\n      pop\n        /* \"#utility.yul\":9394:9813   */\n      swap2\n      swap1\n      pop\n      jump\t// out\n        /* \"#utility.yul\":9819:9988   */\n    tag_127:\n        /* \"#utility.yul\":9959:9980   */\n      0x43616e646964617465206e6f7420666f756e7400000000000000000000000000\n        /* \"#utility.yul\":9955:9956   */\n      0x00\n        /* \"#utility.yul\":9947:9953   */\n      dup3\n        /* \"#utility.yul\":9943:9957   */\n      add\n        /* \"#utility.yul\":9936:9981   */\n      mstore\n        /* \"#utility.yul\":9819:9988   */\n      pop\n      jump\t// out\n        /* \"#utility.yul\":9994:10360   */\n    tag_128:\n        /* \"#utility.yul\":10136:10139   */\n      0x00\n        /* \"#utility.yul\":10157:10224   */\n      tag_250\n        /* \"#utility.yul\":10221:10223   */\n      0x13\n        /* \"#utility.yul\":10216:10219   */\n      dup4\n        /* \"#utility.yul\":10157:10224   */\n      tag_121\n      jump\t// in\n    tag_250:\n        /* \"#utility.yul\":10150:10224   */\n      swap2\n      pop\n        /* \"#utility.yul\":10233:10326   */\n      tag_251\n        /* \"#utility.yul\":10322:10325   */\n      dup3\n        /* \"#utility.yul\":10233:10326   */\n      tag_127\n      jump\t// in\n    tag_251:\n        /* \"#utility.yul\":10351:10353   */\n      0x20\n        /* \"#utility.yul\":10346:10349   */\n      dup3\n        /* \"#utility.yul\":10342:10354   */\n      add\n        /* \"#utility.yul\":10335:10354   */\n      swap1\n      pop\n        /* \"#utility.yul\":9994:10360   */\n      swap2\n      swap1\n      pop\n      jump\t// out\n        /* \"#utility.yul\":10366:10785   */\n    tag_43:\n        /* \"#utility.yul\":10532:10536   */\n      0x00\n        /* \"#utility.yul\":10570:10572   */\n      0x20\n        /* \"#utility.yul\":10559:10568   */\n      dup3\n        /* \"#utility.yul\":10555:10573   */\n      add\n        /* \"#utility.yul\":10547:10573   */\n      swap1\n      pop\n        /* \"#utility.yul\":10619:10628   */\n      dup2\n        /* \"#utility.yul\":10613:10617   */\n      dup2\n        /* \"#utility.yul\":10609:10629   */\n      sub\n        /* \"#utility.yul\":10605:10606   */\n      0x00\n        /* \"#utility.yul\":10594:10603   */\n      dup4\n        /* \"#utility.yul\":10590:10607   */\n      add\n        /* \"#utility.yul\":10583:10630   */\n      mstore\n        /* \"#utility.yul\":10647:10778   */\n      tag_253\n        /* \"#utility.yul\":10773:10777   */\n      dup2\n        /* \"#utility.yul\":10647:10778   */\n      tag_128\n      jump\t// in\n    tag_253:\n        /* \"#utility.yul\":10639:10778   */\n      swap1\n      pop\n        /* \"#utility.yul\":10366:10785   */\n      swap2\n      swap1\n      pop\n      jump\t// out\n        /* \"#utility.yul\":10791:10971   */\n    tag_129:\n        /* \"#utility.yul\":10839:10916   */\n      0x4e487b7100000000000000000000000000000000000000000000000000000000\n        /* \"#utility.yul\":10836:10837   */\n      0x00\n        /* \"#utility.yul\":10829:10917   */\n      mstore\n        /* \"#utility.yul\":10936:10940   */\n      0x11\n        /* \"#utility.yul\":10933:10934   */\n      0x04\n        /* \"#utility.yul\":10926:10941   */\n      mstore\n        /* \"#utility.yul\":10960:10964   */\n      0x24\n        /* \"#utility.yul\":10957:10958   */\n      0x00\n        /* \"#utility.yul\":10950:10965   */\n      revert\n        /* \"#utility.yul\":10977:11168   */\n    tag_45:\n        /* \"#utility.yul\":11017:11020   */\n      0x00\n        /* \"#utility.yul\":11036:11056   */\n      tag_256\n        /* \"#utility.yul\":11054:11055   */\n      dup3\n        /* \"#utility.yul\":11036:11056   */\n      tag_101\n      jump\t// in\n    tag_256:\n        /* \"#utility.yul\":11031:11056   */\n      swap2\n      pop\n        /* \"#utility.yul\":11070:11090   */\n      tag_257\n        /* \"#utility.yul\":11088:11089   */\n      dup4\n        /* \"#utility.yul\":11070:11090   */\n      tag_101\n      jump\t// in\n    tag_257:\n        /* \"#utility.yul\":11065:11090   */\n      swap3\n      pop\n        /* \"#utility.yul\":11113:11114   */\n      dup3\n        /* \"#utility.yul\":11110:11111   */\n      dup3\n        /* \"#utility.yul\":11106:11115   */\n      add\n        /* \"#utility.yul\":11099:11115   */\n      swap1\n      pop\n        /* \"#utility.yul\":11134:11137   */\n      dup1\n        /* \"#utility.yul\":11131:11132   */\n      dup3\n        /* \"#utility.yul\":11128:11138   */\n      gt\n        /* \"#utility.yul\":11125:11161   */\n      iszero\n      tag_258\n      jumpi\n        /* \"#utility.yul\":11141:11159   */\n      tag_259\n      tag_129\n      jump\t// in\n    tag_259:\n        /* \"#utility.yul\":11125:11161   */\n    tag_258:\n        /* \"#utility.yul\":10977:11168   */\n      swap3\n      swap2\n      pop\n      pop\n      jump\t// out\n        /* \"#utility.yul\":11174:11354   */\n    tag_130:\n        /* \"#utility.yul\":11222:11299   */\n      0x4e487b7100000000000000000000000000000000000000000000000000000000\n        /* \"#utility.yul\":11219:11220   */\n      0x00\n        /* \"#utility.yul\":11212:11300   */\n      mstore\n        /* \"#utility.yul\":11319:11323   */\n      0x22\n        /* \"#utility.yul\":11316:11317   */\n      0x04\n        /* \"#utility.yul\":11309:11324   */\n      mstore\n        /* \"#utility.yul\":11343:11347   */\n      0x24\n        /* \"#utility.yul\":11340:11341   */\n      0x00\n        /* \"#utility.yul\":11333:11348   */\n      revert\n        /* \"#utility.yul\":11360:11680   */\n    tag_78:\n        /* \"#utility.yul\":11404:11410   */\n      0x00\n        /* \"#utility.yul\":11441:11442   */\n      0x02\n        /* \"#utility.yul\":11435:11439   */\n      dup3\n        /* \"#utility.yul\":11431:11443   */\n      div\n        /* \"#utility.yul\":11421:11443   */\n      swap1\n      pop\n        /* \"#utility.yul\":11488:11489   */\n      0x01\n        /* \"#utility.yul\":11482:11486   */\n      dup3\n        /* \"#utility.yul\":11478:11490   */\n      and\n        /* \"#utility.yul\":11509:11527   */\n      dup1\n        /* \"#utility.yul\":11499:11580   */\n      tag_262\n      jumpi\n        /* \"#utility.yul\":11565:11569   */\n      0x7f\n        /* \"#utility.yul\":11557:11563   */\n      dup3\n        /* \"#utility.yul\":11553:11570   */\n      and\n        /* \"#utility.yul\":11543:11570   */\n      swap2\n      pop\n        /* \"#utility.yul\":11499:11580   */\n    tag_262:\n        /* \"#utility.yul\":11627:11629   */\n      0x20\n        /* \"#utility.yul\":11619:11625   */\n      dup3\n        /* \"#utility.yul\":11616:11630   */\n      lt\n        /* \"#utility.yul\":11596:11614   */\n      dup2\n        /* \"#utility.yul\":11593:11631   */\n      sub\n        /* \"#utility.yul\":11590:11674   */\n      tag_263\n      jumpi\n        /* \"#utility.yul\":11646:11664   */\n      tag_264\n      tag_130\n      jump\t// in\n    tag_264:\n        /* \"#utility.yul\":11590:11674   */\n    tag_263:\n        /* \"#utility.yul\":11411:11680   */\n      pop\n        /* \"#utility.yul\":11360:11680   */\n      swap2\n      swap1\n      pop\n      jump\t// out\n        /* \"#utility.yul\":11686:11827   */\n    tag_131:\n        /* \"#utility.yul\":11735:11739   */\n      0x00\n        /* \"#utility.yul\":11758:11761   */\n      dup2\n        /* \"#utility.yul\":11750:11761   */\n      swap1\n      pop\n        /* \"#utility.yul\":11781:11784   */\n      dup2\n        /* \"#utility.yul\":11778:11779   */\n      0x00\n        /* \"#utility.yul\":11771:11785   */\n      mstore\n        /* \"#utility.yul\":11815:11819   */\n      0x20\n        /* \"#utility.yul\":11812:11813   */\n      0x00\n        /* \"#utility.yul\":11802:11820   */\n      keccak256\n        /* \"#utility.yul\":11794:11820   */\n      swap1\n      pop\n        /* \"#utility.yul\":11686:11827   */\n      swap2\n      swap1\n      pop\n      jump\t// out\n        /* \"#utility.yul\":11857:12688   */\n    tag_132:\n        /* \"#utility.yul\":11942:11945   */\n      0x00\n        /* \"#utility.yul\":11979:11984   */\n      dup2\n        /* \"#utility.yul\":11973:11985   */\n      sload\n        /* \"#utility.yul\":12008:12044   */\n      tag_267\n        /* \"#utility.yul\":12034:12043   */\n      dup2\n        /* \"#utility.yul\":12008:12044   */\n      tag_78\n      jump\t// in\n    tag_267:\n        /* \"#utility.yul\":12060:12131   */\n      tag_268\n        /* \"#utility.yul\":12124:12130   */\n      dup2\n        /* \"#utility.yul\":12119:12122   */\n      dup7\n        /* \"#utility.yul\":12060:12131   */\n      tag_121\n      jump\t// in\n    tag_268:\n        /* \"#utility.yul\":12053:12131   */\n      swap5\n      pop\n        /* \"#utility.yul\":12162:12163   */\n      0x01\n        /* \"#utility.yul\":12151:12160   */\n      dup3\n        /* \"#utility.yul\":12147:12164   */\n      and\n        /* \"#utility.yul\":12178:12179   */\n      0x00\n        /* \"#utility.yul\":12173:12337   */\n      dup2\n      eq\n      tag_270\n      jumpi\n        /* \"#utility.yul\":12351:12352   */\n      0x01\n        /* \"#utility.yul\":12346:12682   */\n      dup2\n      eq\n      tag_271\n      jumpi\n        /* \"#utility.yul\":12140:12682   */\n      jump(tag_269)\n        /* \"#utility.yul\":12173:12337   */\n    tag_270:\n        /* \"#utility.yul\":12257:12261   */\n      0xff\n        /* \"#utility.yul\":12253:12262   */\n      not\n        /* \"#utility.yul\":12242:12251   */\n      dup4\n        /* \"#utility.yul\":12238:12263   */\n      and\n        /* \"#utility.yul\":12233:12236   */\n      dup7\n        /* \"#utility.yul\":12226:12264   */\n      mstore\n        /* \"#utility.yul\":12317:12323   */\n      dup2\n        /* \"#utility.yul\":12310:12324   */\n      iszero\n        /* \"#utility.yul\":12303:12325   */\n      iszero\n        /* \"#utility.yul\":12297:12301   */\n      0x20\n        /* \"#utility.yul\":12293:12326   */\n      mul\n        /* \"#utility.yul\":12288:12291   */\n      dup7\n        /* \"#utility.yul\":12284:12327   */\n      add\n        /* \"#utility.yul\":12277:12327   */\n      swap4\n      pop\n        /* \"#utility.yul\":12173:12337   */\n      jump(tag_269)\n        /* \"#utility.yul\":12346:12682   */\n    tag_271:\n        /* \"#utility.yul\":12413:12451   */\n      tag_272\n        /* \"#utility.yul\":12445:12450   */\n      dup6\n        /* \"#utility.yul\":12413:12451   */\n      tag_131\n      jump\t// in\n    tag_272:\n        /* \"#utility.yul\":12473:12474   */\n      0x00\n        /* \"#utility.yul\":12487:12641   */\n    tag_273:\n        /* \"#utility.yul\":12501:12507   */\n      dup4\n        /* \"#utility.yul\":12498:12499   */\n      dup2\n        /* \"#utility.yul\":12495:12508   */\n      lt\n        /* \"#utility.yul\":12487:12641   */\n      iszero\n      tag_275\n      jumpi\n        /* \"#utility.yul\":12575:12582   */\n      dup2\n        /* \"#utility.yul\":12569:12583   */\n      sload\n        /* \"#utility.yul\":12565:12566   */\n      dup2\n        /* \"#utility.yul\":12560:12563   */\n      dup10\n        /* \"#utility.yul\":12556:12567   */\n      add\n        /* \"#utility.yul\":12549:12584   */\n      mstore\n        /* \"#utility.yul\":12625:12626   */\n      0x01\n        /* \"#utility.yul\":12616:12623   */\n      dup3\n        /* \"#utility.yul\":12612:12627   */\n      add\n        /* \"#utility.yul\":12601:12627   */\n      swap2\n      pop\n        /* \"#utility.yul\":12523:12527   */\n      0x20\n        /* \"#utility.yul\":12520:12521   */\n      dup2\n        /* \"#utility.yul\":12516:12528   */\n      add\n        /* \"#utility.yul\":12511:12528   */\n      swap1\n      pop\n        /* \"#utility.yul\":12487:12641   */\n      jump(tag_273)\n    tag_275:\n        /* \"#utility.yul\":12670:12671   */\n      dup1\n        /* \"#utility.yul\":12665:12668   */\n      dup9\n        /* \"#utility.yul\":12661:12672   */\n      add\n        /* \"#utility.yul\":12654:12672   */\n      swap6\n      pop\n        /* \"#utility.yul\":12353:12682   */\n      pop\n      pop\n        /* \"#utility.yul\":12140:12682   */\n    tag_269:\n      pop\n        /* \"#utility.yul\":11946:12688   */\n      pop\n      pop\n        /* \"#utility.yul\":11857:12688   */\n      swap3\n      swap2\n      pop\n      pop\n      jump\t// out\n        /* \"#utility.yul\":12694:13221   */\n    tag_47:\n        /* \"#utility.yul\":12860:12864   */\n      0x00\n        /* \"#utility.yul\":12898:12900   */\n      0x60\n        /* \"#utility.yul\":12887:12896   */\n      dup3\n        /* \"#utility.yul\":12883:12901   */\n      add\n        /* \"#utility.yul\":12875:12901   */\n      swap1\n      pop\n        /* \"#utility.yul\":12911:12982   */\n      tag_277\n        /* \"#utility.yul\":12979:12980   */\n      0x00\n        /* \"#utility.yul\":12968:12977   */\n      dup4\n        /* \"#utility.yul\":12964:12981   */\n      add\n        /* \"#utility.yul\":12955:12961   */\n      dup7\n        /* \"#utility.yul\":12911:12982   */\n      tag_120\n      jump\t// in\n    tag_277:\n        /* \"#utility.yul\":13029:13038   */\n      dup2\n        /* \"#utility.yul\":13023:13027   */\n      dup2\n        /* \"#utility.yul\":13019:13039   */\n      sub\n        /* \"#utility.yul\":13014:13016   */\n      0x20\n        /* \"#utility.yul\":13003:13012   */\n      dup4\n        /* \"#utility.yul\":12999:13017   */\n      add\n        /* \"#utility.yul\":12992:13040   */\n      mstore\n        /* \"#utility.yul\":13057:13132   */\n      tag_278\n        /* \"#utility.yul\":13127:13131   */\n      dup2\n        /* \"#utility.yul\":13118:13124   */\n      dup6\n        /* \"#utility.yul\":13057:13132   */\n      tag_132\n      jump\t// in\n    tag_278:\n        /* \"#utility.yul\":13049:13132   */\n      swap1\n      pop\n        /* \"#utility.yul\":13142:13214   */\n      tag_279\n        /* \"#utility.yul\":13210:13212   */\n      0x40\n        /* \"#utility.yul\":13199:13208   */\n      dup4\n        /* \"#utility.yul\":13195:13213   */\n      add\n        /* \"#utility.yul\":13186:13192   */\n      dup5\n        /* \"#utility.yul\":13142:13214   */\n      tag_120\n      jump\t// in\n    tag_279:\n        /* \"#utility.yul\":12694:13221   */\n      swap5\n      swap4\n      pop\n      pop\n      pop\n      pop\n      jump\t// out\n        /* \"#utility.yul\":13227:13399   */\n    tag_133:\n        /* \"#utility.yul\":13367:13391   */\n      0x596f757220617265206e6f7420746865206f776e657200000000000000000000\n        /* \"#utility.yul\":13363:13364   */\n      0x00\n        /* \"#utility.yul\":13355:13361   */\n      dup3\n        /* \"#utility.yul\":13351:13365   */\n      add\n        /* \"#utility.yul\":13344:13392   */\n      mstore\n        /* \"#utility.yul\":13227:13399   */\n      pop\n      jump\t// out\n        /* \"#utility.yul\":13405:13771   */\n    tag_134:\n        /* \"#utility.yul\":13547:13550   */\n      0x00\n        /* \"#utility.yul\":13568:13635   */\n      tag_282\n        /* \"#utility.yul\":13632:13634   */\n      0x16\n        /* \"#utility.yul\":13627:13630   */\n      dup4\n        /* \"#utility.yul\":13568:13635   */\n      tag_121\n      jump\t// in\n    tag_282:\n        /* \"#utility.yul\":13561:13635   */\n      swap2\n      pop\n        /* \"#utility.yul\":13644:13737   */\n      tag_283\n        /* \"#utility.yul\":13733:13736   */\n      dup3\n        /* \"#utility.yul\":13644:13737   */\n      tag_133\n      jump\t// in\n    tag_283:\n        /* \"#utility.yul\":13762:13764   */\n      0x20\n        /* \"#utility.yul\":13757:13760   */\n      dup3\n        /* \"#utility.yul\":13753:13765   */\n      add\n        /* \"#utility.yul\":13746:13765   */\n      swap1\n      pop\n        /* \"#utility.yul\":13405:13771   */\n      swap2\n      swap1\n      pop\n      jump\t// out\n        /* \"#utility.yul\":13777:14196   */\n    tag_51:\n        /* \"#utility.yul\":13943:13947   */\n      0x00\n        /* \"#utility.yul\":13981:13983   */\n      0x20\n        /* \"#utility.yul\":13970:13979   */\n      dup3\n        /* \"#utility.yul\":13966:13984   */\n      add\n        /* \"#utility.yul\":13958:13984   */\n      swap1\n      pop\n        /* \"#utility.yul\":14030:14039   */\n      dup2\n        /* \"#utility.yul\":14024:14028   */\n      dup2\n        /* \"#utility.yul\":14020:14040   */\n      sub\n        /* \"#utility.yul\":14016:14017   */\n      0x00\n        /* \"#utility.yul\":14005:14014   */\n      dup4\n        /* \"#utility.yul\":14001:14018   */\n      add\n        /* \"#utility.yul\":13994:14041   */\n      mstore\n        /* \"#utility.yul\":14058:14189   */\n      tag_285\n        /* \"#utility.yul\":14184:14188   */\n      dup2\n        /* \"#utility.yul\":14058:14189   */\n      tag_134\n      jump\t// in\n    tag_285:\n        /* \"#utility.yul\":14050:14189   */\n      swap1\n      pop\n        /* \"#utility.yul\":13777:14196   */\n      swap2\n      swap1\n      pop\n      jump\t// out\n        /* \"#utility.yul\":14202:14426   */\n    tag_135:\n        /* \"#utility.yul\":14342:14376   */\n      0x53746172742074696d65206d757374206265206c657373207468616e20656e64\n        /* \"#utility.yul\":14338:14339   */\n      0x00\n        /* \"#utility.yul\":14330:14336   */\n      dup3\n        /* \"#utility.yul\":14326:14340   */\n      add\n        /* \"#utility.yul\":14319:14377   */\n      mstore\n        /* \"#utility.yul\":14411:14418   */\n      0x2074696d65000000000000000000000000000000000000000000000000000000\n        /* \"#utility.yul\":14406:14408   */\n      0x20\n        /* \"#utility.yul\":14398:14404   */\n      dup3\n        /* \"#utility.yul\":14394:14409   */\n      add\n        /* \"#utility.yul\":14387:14419   */\n      mstore\n        /* \"#utility.yul\":14202:14426   */\n      pop\n      jump\t// out\n        /* \"#utility.yul\":14432:14798   */\n    tag_136:\n        /* \"#utility.yul\":14574:14577   */\n      0x00\n        /* \"#utility.yul\":14595:14662   */\n      tag_288\n        /* \"#utility.yul\":14659:14661   */\n      0x25\n        /* \"#utility.yul\":14654:14657   */\n      dup4\n        /* \"#utility.yul\":14595:14662   */\n      tag_121\n      jump\t// in\n    tag_288:\n        /* \"#utility.yul\":14588:14662   */\n      swap2\n      pop\n        /* \"#utility.yul\":14671:14764   */\n      tag_289\n        /* \"#utility.yul\":14760:14763   */\n      dup3\n        /* \"#utility.yul\":14671:14764   */\n      tag_135\n      jump\t// in\n    tag_289:\n        /* \"#utility.yul\":14789:14791   */\n      0x40\n        /* \"#utility.yul\":14784:14787   */\n      dup3\n        /* \"#utility.yul\":14780:14792   */\n      add\n        /* \"#utility.yul\":14773:14792   */\n      swap1\n      pop\n        /* \"#utility.yul\":14432:14798   */\n      swap2\n      swap1\n      pop\n      jump\t// out\n        /* \"#utility.yul\":14804:15223   */\n    tag_55:\n        /* \"#utility.yul\":14970:14974   */\n      0x00\n        /* \"#utility.yul\":15008:15010   */\n      0x20\n        /* \"#utility.yul\":14997:15006   */\n      dup3\n        /* \"#utility.yul\":14993:15011   */\n      add\n        /* \"#utility.yul\":14985:15011   */\n      swap1\n      pop\n        /* \"#utility.yul\":15057:15066   */\n      dup2\n        /* \"#utility.yul\":15051:15055   */\n      dup2\n        /* \"#utility.yul\":15047:15067   */\n      sub\n        /* \"#utility.yul\":15043:15044   */\n      0x00\n        /* \"#utility.yul\":15032:15041   */\n      dup4\n        /* \"#utility.yul\":15028:15045   */\n      add\n        /* \"#utility.yul\":15021:15068   */\n      mstore\n        /* \"#utility.yul\":15085:15216   */\n      tag_291\n        /* \"#utility.yul\":15211:15215   */\n      dup2\n        /* \"#utility.yul\":15085:15216   */\n      tag_136\n      jump\t// in\n    tag_291:\n        /* \"#utility.yul\":15077:15216   */\n      swap1\n      pop\n        /* \"#utility.yul\":14804:15223   */\n      swap2\n      swap1\n      pop\n      jump\t// out\n        /* \"#utility.yul\":15229:15867   */\n    tag_57:\n        /* \"#utility.yul\":15423:15427   */\n      0x00\n        /* \"#utility.yul\":15461:15464   */\n      0x80\n        /* \"#utility.yul\":15450:15459   */\n      dup3\n        /* \"#utility.yul\":15446:15465   */\n      add\n        /* \"#utility.yul\":15438:15465   */\n      swap1\n      pop\n        /* \"#utility.yul\":15475:15546   */\n      tag_293\n        /* \"#utility.yul\":15543:15544   */\n      0x00\n        /* \"#utility.yul\":15532:15541   */\n      dup4\n        /* \"#utility.yul\":15528:15545   */\n      add\n        /* \"#utility.yul\":15519:15525   */\n      dup8\n        /* \"#utility.yul\":15475:15546   */\n      tag_120\n      jump\t// in\n    tag_293:\n        /* \"#utility.yul\":15593:15602   */\n      dup2\n        /* \"#utility.yul\":15587:15591   */\n      dup2\n        /* \"#utility.yul\":15583:15603   */\n      sub\n        /* \"#utility.yul\":15578:15580   */\n      0x20\n        /* \"#utility.yul\":15567:15576   */\n      dup4\n        /* \"#utility.yul\":15563:15581   */\n      add\n        /* \"#utility.yul\":15556:15604   */\n      mstore\n        /* \"#utility.yul\":15621:15696   */\n      tag_294\n        /* \"#utility.yul\":15691:15695   */\n      dup2\n        /* \"#utility.yul\":15682:15688   */\n      dup7\n        /* \"#utility.yul\":15621:15696   */\n      tag_132\n      jump\t// in\n    tag_294:\n        /* \"#utility.yul\":15613:15696   */\n      swap1\n      pop\n        /* \"#utility.yul\":15706:15778   */\n      tag_295\n        /* \"#utility.yul\":15774:15776   */\n      0x40\n        /* \"#utility.yul\":15763:15772   */\n      dup4\n        /* \"#utility.yul\":15759:15777   */\n      add\n        /* \"#utility.yul\":15750:15756   */\n      dup6\n        /* \"#utility.yul\":15706:15778   */\n      tag_120\n      jump\t// in\n    tag_295:\n        /* \"#utility.yul\":15788:15860   */\n      tag_296\n        /* \"#utility.yul\":15856:15858   */\n      0x60\n        /* \"#utility.yul\":15845:15854   */\n      dup4\n        /* \"#utility.yul\":15841:15859   */\n      add\n        /* \"#utility.yul\":15832:15838   */\n      dup5\n        /* \"#utility.yul\":15788:15860   */\n      tag_120\n      jump\t// in\n    tag_296:\n        /* \"#utility.yul\":15229:15867   */\n      swap6\n      swap5\n      pop\n      pop\n      pop\n      pop\n      pop\n      jump\t// out\n        /* \"#utility.yul\":15873:16095   */\n    tag_137:\n        /* \"#utility.yul\":16013:16047   */\n      0x596f75206861766520616c72656164792061646465642061732063616e646964\n        /* \"#utility.yul\":16009:16010   */\n      0x00\n        /* \"#utility.yul\":16001:16007   */\n      dup3\n        /* \"#utility.yul\":15997:16011   */\n      add\n        /* \"#utility.yul\":15990:16048   */\n      mstore\n        /* \"#utility.yul\":16082:16087   */\n      0x6174650000000000000000000000000000000000000000000000000000000000\n        /* \"#utility.yul\":16077:16079   */\n      0x20\n        /* \"#utility.yul\":16069:16075   */\n      dup3\n        /* \"#utility.yul\":16065:16080   */\n      add\n        /* \"#utility.yul\":16058:16088   */\n      mstore\n        /* \"#utility.yul\":15873:16095   */\n      pop\n      jump\t// out\n        /* \"#utility.yul\":16101:16467   */\n    tag_138:\n        /* \"#utility.yul\":16243:16246   */\n      0x00\n        /* \"#utility.yul\":16264:16331   */\n      tag_299\n        /* \"#utility.yul\":16328:16330   */\n      0x23\n        /* \"#utility.yul\":16323:16326   */\n      dup4\n        /* \"#utility.yul\":16264:16331   */\n      tag_121\n      jump\t// in\n    tag_299:\n        /* \"#utility.yul\":16257:16331   */\n      swap2\n      pop\n        /* \"#utility.yul\":16340:16433   */\n      tag_300\n        /* \"#utility.yul\":16429:16432   */\n      dup3\n        /* \"#utility.yul\":16340:16433   */\n      tag_137\n      jump\t// in\n    tag_300:\n        /* \"#utility.yul\":16458:16460   */\n      0x40\n        /* \"#utility.yul\":16453:16456   */\n      dup3\n        /* \"#utility.yul\":16449:16461   */\n      add\n        /* \"#utility.yul\":16442:16461   */\n      swap1\n      pop\n        /* \"#utility.yul\":16101:16467   */\n      swap2\n      swap1\n      pop\n      jump\t// out\n        /* \"#utility.yul\":16473:16892   */\n    tag_68:\n        /* \"#utility.yul\":16639:16643   */\n      0x00\n        /* \"#utility.yul\":16677:16679   */\n      0x20\n        /* \"#utility.yul\":16666:16675   */\n      dup3\n        /* \"#utility.yul\":16662:16680   */\n      add\n        /* \"#utility.yul\":16654:16680   */\n      swap1\n      pop\n        /* \"#utility.yul\":16726:16735   */\n      dup2\n        /* \"#utility.yul\":16720:16724   */\n      dup2\n        /* \"#utility.yul\":16716:16736   */\n      sub\n        /* \"#utility.yul\":16712:16713   */\n      0x00\n        /* \"#utility.yul\":16701:16710   */\n      dup4\n        /* \"#utility.yul\":16697:16714   */\n      add\n        /* \"#utility.yul\":16690:16737   */\n      mstore\n        /* \"#utility.yul\":16754:16885   */\n      tag_302\n        /* \"#utility.yul\":16880:16884   */\n      dup2\n        /* \"#utility.yul\":16754:16885   */\n      tag_138\n      jump\t// in\n    tag_302:\n        /* \"#utility.yul\":16746:16885   */\n      swap1\n      pop\n        /* \"#utility.yul\":16473:16892   */\n      swap2\n      swap1\n      pop\n      jump\t// out\n        /* \"#utility.yul\":16898:16991   */\n    tag_139:\n        /* \"#utility.yul\":16935:16941   */\n      0x00\n        /* \"#utility.yul\":16982:16984   */\n      0x20\n        /* \"#utility.yul\":16977:16979   */\n      0x1f\n        /* \"#utility.yul\":16970:16975   */\n      dup4\n        /* \"#utility.yul\":16966:16980   */\n      add\n        /* \"#utility.yul\":16962:16985   */\n      div\n        /* \"#utility.yul\":16952:16985   */\n      swap1\n      pop\n        /* \"#utility.yul\":16898:16991   */\n      swap2\n      swap1\n      pop\n      jump\t// out\n        /* \"#utility.yul\":16997:17104   */\n    tag_140:\n        /* \"#utility.yul\":17041:17049   */\n      0x00\n        /* \"#utility.yul\":17091:17096   */\n      dup3\n        /* \"#utility.yul\":17085:17089   */\n      dup3\n        /* \"#utility.yul\":17081:17097   */\n      shl\n        /* \"#utility.yul\":17060:17097   */\n      swap1\n      pop\n        /* \"#utility.yul\":16997:17104   */\n      swap3\n      swap2\n      pop\n      pop\n      jump\t// out\n        /* \"#utility.yul\":17110:17503   */\n    tag_141:\n        /* \"#utility.yul\":17179:17185   */\n      0x00\n        /* \"#utility.yul\":17229:17230   */\n      0x08\n        /* \"#utility.yul\":17217:17227   */\n      dup4\n        /* \"#utility.yul\":17213:17231   */\n      mul\n        /* \"#utility.yul\":17252:17349   */\n      tag_306\n        /* \"#utility.yul\":17282:17348   */\n      0xffffffffffffffffffffffffffffffffffffffffffffffffffffffffffffffff\n        /* \"#utility.yul\":17271:17280   */\n      dup3\n        /* \"#utility.yul\":17252:17349   */\n      tag_140\n      jump\t// in\n    tag_306:\n        /* \"#utility.yul\":17370:17409   */\n      tag_307\n        /* \"#utility.yul\":17400:17408   */\n      dup7\n        /* \"#utility.yul\":17389:17398   */\n      dup4\n        /* \"#utility.yul\":17370:17409   */\n      tag_140\n      jump\t// in\n    tag_307:\n        /* \"#utility.yul\":17358:17409   */\n      swap6\n      pop\n        /* \"#utility.yul\":17442:17446   */\n      dup1\n        /* \"#utility.yul\":17438:17447   */\n      not\n        /* \"#utility.yul\":17431:17436   */\n      dup5\n        /* \"#utility.yul\":17427:17448   */\n      and\n        /* \"#utility.yul\":17418:17448   */\n      swap4\n      pop\n        /* \"#utility.yul\":17491:17495   */\n      dup1\n        /* \"#utility.yul\":17481:17489   */\n      dup7\n        /* \"#utility.yul\":17477:17496   */\n      and\n        /* \"#utility.yul\":17470:17475   */\n      dup5\n        /* \"#utility.yul\":17467:17497   */\n      or\n        /* \"#utility.yul\":17457:17497   */\n      swap3\n      pop\n        /* \"#utility.yul\":17186:17503   */\n      pop\n      pop\n        /* \"#utility.yul\":17110:17503   */\n      swap4\n      swap3\n      pop\n      pop\n      pop\n      jump\t// out\n        /* \"#utility.yul\":17509:17569   */\n    tag_142:\n        /* \"#utility.yul\":17537:17540   */\n      0x00\n        /* \"#utility.yul\":17558:17563   */\n      dup2\n        /* \"#utility.yul\":17551:17563   */\n      swap1\n      pop\n        /* \"#utility.yul\":17509:17569   */\n      swap2\n      swap1\n      pop\n      jump\t// out\n        /* \"#utility.yul\":17575:17717   */\n    tag_143:\n        /* \"#utility.yul\":17625:17634   */\n      0x00\n        /* \"#utility.yul\":17658:17711   */\n      tag_310\n        /* \"#utility.yul\":17676:17710   */\n      tag_311\n        /* \"#utility.yul\":17685:17709   */\n      tag_312\n        /* \"#utility.yul\":17703:17708   */\n      dup5\n        /* \"#utility.yul\":17685:17709   */\n      tag_101\n      jump\t// in\n    tag_312:\n        /* \"#utility.yul\":17676:17710   */\n      tag_142\n      jump\t// in\n    tag_311:\n        /* \"#utility.yul\":17658:17711   */\n      tag_101\n      jump\t// in\n    tag_310:\n        /* \"#utility.yul\":17645:17711   */\n      swap1\n      pop\n        /* \"#utility.yul\":17575:17717   */\n      swap2\n      swap1\n      pop\n      jump\t// out\n        /* \"#utility.yul\":17723:17798   */\n    tag_144:\n        /* \"#utility.yul\":17766:17769   */\n      0x00\n        /* \"#utility.yul\":17787:17792   */\n      dup2\n        /* \"#utility.yul\":17780:17792   */\n      swap1\n      pop\n        /* \"#utility.yul\":17723:17798   */\n      swap2\n      swap1\n      pop\n      jump\t// out\n        /* \"#utility.yul\":17804:18073   */\n    tag_145:\n        /* \"#utility.yul\":17914:17953   */\n      tag_315\n        /* \"#utility.yul\":17945:17952   */\n      dup4\n        /* \"#utility.yul\":17914:17953   */\n      tag_143\n      jump\t// in\n    tag_315:\n        /* \"#utility.yul\":17975:18066   */\n      tag_316\n        /* \"#utility.yul\":18024:18065   */\n      tag_317\n        /* \"#utility.yul\":18048:18064   */\n      dup3\n        /* \"#utility.yul\":18024:18065   */\n      tag_144\n      jump\t// in\n    tag_317:\n        /* \"#utility.yul\":18016:18022   */\n      dup5\n        /* \"#utility.yul\":18009:18013   */\n      dup5\n        /* \"#utility.yul\":18003:18014   */\n      sload\n        /* \"#utility.yul\":17975:18066   */\n      tag_141\n      jump\t// in\n    tag_316:\n        /* \"#utility.yul\":17969:17973   */\n      dup3\n        /* \"#utility.yul\":17962:18067   */\n      sstore\n        /* \"#utility.yul\":17880:18073   */\n      pop\n        /* \"#utility.yul\":17804:18073   */\n      pop\n      pop\n      pop\n      jump\t// out\n        /* \"#utility.yul\":18079:18152   */\n    tag_146:\n        /* \"#utility.yul\":18124:18127   */\n      0x00\n        /* \"#utility.yul\":18079:18152   */\n      swap1\n      jump\t// out\n        /* \"#utility.yul\":18158:18347   */\n    tag_147:\n        /* \"#utility.yul\":18235:18267   */\n      tag_320\n      tag_146\n      jump\t// in\n    tag_320:\n        /* \"#utility.yul\":18276:18341   */\n      tag_321\n        /* \"#utility.yul\":18334:18340   */\n      dup2\n        /* \"#utility.yul\":18326:18332   */\n      dup5\n        /* \"#utility.yul\":18320:18324   */\n      dup5\n        /* \"#utility.yul\":18276:18341   */\n      tag_145\n      jump\t// in\n    tag_321:\n        /* \"#utility.yul\":18211:18347   */\n      pop\n        /* \"#utility.yul\":18158:18347   */\n      pop\n      pop\n      jump\t// out\n        /* \"#utility.yul\":18353:18539   */\n    tag_148:\n        /* \"#utility.yul\":18413:18533   */\n    tag_323:\n        /* \"#utility.yul\":18430:18433   */\n      dup2\n        /* \"#utility.yul\":18423:18428   */\n      dup2\n        /* \"#utility.yul\":18420:18434   */\n      lt\n        /* \"#utility.yul\":18413:18533   */\n      iszero\n      tag_325\n      jumpi\n        /* \"#utility.yul\":18484:18523   */\n      tag_326\n        /* \"#utility.yul\":18521:18522   */\n      0x00\n        /* \"#utility.yul\":18514:18519   */\n      dup3\n        /* \"#utility.yul\":18484:18523   */\n      tag_147\n      jump\t// in\n    tag_326:\n        /* \"#utility.yul\":18457:18458   */\n      0x01\n        /* \"#utility.yul\":18450:18455   */\n      dup2\n        /* \"#utility.yul\":18446:18459   */\n      add\n        /* \"#utility.yul\":18437:18459   */\n      swap1\n      pop\n        /* \"#utility.yul\":18413:18533   */\n      jump(tag_323)\n    tag_325:\n        /* \"#utility.yul\":18353:18539   */\n      pop\n      pop\n      jump\t// out\n        /* \"#utility.yul\":18545:19088   */\n    tag_149:\n        /* \"#utility.yul\":18646:18648   */\n      0x1f\n        /* \"#utility.yul\":18641:18644   */\n      dup3\n        /* \"#utility.yul\":18638:18649   */\n      gt\n        /* \"#utility.yul\":18635:19081   */\n      iszero\n      tag_328\n      jumpi\n        /* \"#utility.yul\":18680:18718   */\n      tag_329\n        /* \"#utility.yul\":18712:18717   */\n      dup2\n        /* \"#utility.yul\":18680:18718   */\n      tag_131\n      jump\t// in\n    tag_329:\n        /* \"#utility.yul\":18764:18793   */\n      tag_330\n        /* \"#utility.yul\":18782:18792   */\n      dup5\n        /* \"#utility.yul\":18764:18793   */\n      tag_139\n      jump\t// in\n    tag_330:\n        /* \"#utility.yul\":18754:18762   */\n      dup2\n        /* \"#utility.yul\":18750:18794   */\n      add\n        /* \"#utility.yul\":18947:18949   */\n      0x20\n        /* \"#utility.yul\":18935:18945   */\n      dup6\n        /* \"#utility.yul\":18932:18950   */\n      lt\n        /* \"#utility.yul\":18929:18978   */\n      iszero\n      tag_331\n      jumpi\n        /* \"#utility.yul\":18968:18976   */\n      dup2\n        /* \"#utility.yul\":18953:18976   */\n      swap1\n      pop\n        /* \"#utility.yul\":18929:18978   */\n    tag_331:\n        /* \"#utility.yul\":18991:19071   */\n      tag_332\n        /* \"#utility.yul\":19047:19069   */\n      tag_333\n        /* \"#utility.yul\":19065:19068   */\n      dup6\n        /* \"#utility.yul\":19047:19069   */\n      tag_139\n      jump\t// in\n    tag_333:\n        /* \"#utility.yul\":19037:19045   */\n      dup4\n        /* \"#utility.yul\":19033:19070   */\n      add\n        /* \"#utility.yul\":19020:19031   */\n      dup3\n        /* \"#utility.yul\":18991:19071   */\n      tag_148\n      jump\t// in\n    tag_332:\n        /* \"#utility.yul\":18650:19081   */\n      pop\n      pop\n        /* \"#utility.yul\":18635:19081   */\n    tag_328:\n        /* \"#utility.yul\":18545:19088   */\n      pop\n      pop\n      pop\n      jump\t// out\n        /* \"#utility.yul\":19094:19211   */\n    tag_150:\n        /* \"#utility.yul\":19148:19156   */\n      0x00\n        /* \"#utility.yul\":19198:19203   */\n      dup3\n        /* \"#utility.yul\":19192:19196   */\n      dup3\n        /* \"#utility.yul\":19188:19204   */\n      shr\n        /* \"#utility.yul\":19167:19204   */\n      swap1\n      pop\n        /* \"#utility.yul\":19094:19211   */\n      swap3\n      swap2\n      pop\n      pop\n      jump\t// out\n        /* \"#utility.yul\":19217:19386   */\n    tag_151:\n        /* \"#utility.yul\":19261:19267   */\n      0x00\n        /* \"#utility.yul\":19294:19345   */\n      tag_336\n        /* \"#utility.yul\":19342:19343   */\n      0x00\n        /* \"#utility.yul\":19338:19344   */\n      not\n        /* \"#utility.yul\":19330:19335   */\n      dup5\n        /* \"#utility.yul\":19327:19328   */\n      0x08\n        /* \"#utility.yul\":19323:19336   */\n      mul\n        /* \"#utility.yul\":19294:19345   */\n      tag_150\n      jump\t// in\n    tag_336:\n        /* \"#utility.yul\":19290:19346   */\n      not\n        /* \"#utility.yul\":19375:19379   */\n      dup1\n        /* \"#utility.yul\":19369:19373   */\n      dup4\n        /* \"#utility.yul\":19365:19380   */\n      and\n        /* \"#utility.yul\":19355:19380   */\n      swap2\n      pop\n        /* \"#utility.yul\":19268:19386   */\n      pop\n        /* \"#utility.yul\":19217:19386   */\n      swap3\n      swap2\n      pop\n      pop\n      jump\t// out\n        /* \"#utility.yul\":19391:19686   */\n    tag_152:\n        /* \"#utility.yul\":19467:19471   */\n      0x00\n        /* \"#utility.yul\":19613:19642   */\n      tag_338\n        /* \"#utility.yul\":19638:19641   */\n      dup4\n        /* \"#utility.yul\":19632:19636   */\n      dup4\n        /* \"#utility.yul\":19613:19642   */\n      tag_151\n      jump\t// in\n    tag_338:\n        /* \"#utility.yul\":19605:19642   */\n      swap2\n      pop\n        /* \"#utility.yul\":19675:19678   */\n      dup3\n        /* \"#utility.yul\":19672:19673   */\n      0x02\n        /* \"#utility.yul\":19668:19679   */\n      mul\n        /* \"#utility.yul\":19662:19666   */\n      dup3\n        /* \"#utility.yul\":19659:19680   */\n      or\n        /* \"#utility.yul\":19651:19680   */\n      swap1\n      pop\n        /* \"#utility.yul\":19391:19686   */\n      swap3\n      swap2\n      pop\n      pop\n      jump\t// out\n        /* \"#utility.yul\":19691:21086   */\n    tag_70:\n        /* \"#utility.yul\":19808:19845   */\n      tag_340\n        /* \"#utility.yul\":19841:19844   */\n      dup3\n        /* \"#utility.yul\":19808:19845   */\n      tag_115\n      jump\t// in\n    tag_340:\n        /* \"#utility.yul\":19910:19928   */\n      0xffffffffffffffff\n        /* \"#utility.yul\":19902:19908   */\n      dup2\n        /* \"#utility.yul\":19899:19929   */\n      gt\n        /* \"#utility.yul\":19896:19952   */\n      iszero\n      tag_341\n      jumpi\n        /* \"#utility.yul\":19932:19950   */\n      tag_342\n      tag_107\n      jump\t// in\n    tag_342:\n        /* \"#utility.yul\":19896:19952   */\n    tag_341:\n        /* \"#utility.yul\":19976:20014   */\n      tag_343\n        /* \"#utility.yul\":20008:20012   */\n      dup3\n        /* \"#utility.yul\":20002:20013   */\n      sload\n        /* \"#utility.yul\":19976:20014   */\n      tag_78\n      jump\t// in\n    tag_343:\n        /* \"#utility.yul\":20061:20128   */\n      tag_344\n        /* \"#utility.yul\":20121:20127   */\n      dup3\n        /* \"#utility.yul\":20113:20119   */\n      dup3\n        /* \"#utility.yul\":20107:20111   */\n      dup6\n        /* \"#utility.yul\":20061:20128   */\n      tag_149\n      jump\t// in\n    tag_344:\n        /* \"#utility.yul\":20155:20156   */\n      0x00\n        /* \"#utility.yul\":20179:20183   */\n      0x20\n        /* \"#utility.yul\":20166:20183   */\n      swap1\n      pop\n        /* \"#utility.yul\":20211:20213   */\n      0x1f\n        /* \"#utility.yul\":20203:20209   */\n      dup4\n        /* \"#utility.yul\":20200:20214   */\n      gt\n        /* \"#utility.yul\":20228:20229   */\n      0x01\n        /* \"#utility.yul\":20223:20841   */\n      dup2\n      eq\n      tag_346\n      jumpi\n        /* \"#utility.yul\":20885:20886   */\n      0x00\n        /* \"#utility.yul\":20902:20908   */\n      dup5\n        /* \"#utility.yul\":20899:20976   */\n      iszero\n      tag_347\n      jumpi\n        /* \"#utility.yul\":20951:20960   */\n      dup3\n        /* \"#utility.yul\":20946:20949   */\n      dup8\n        /* \"#utility.yul\":20942:20961   */\n      add\n        /* \"#utility.yul\":20936:20962   */\n      mload\n        /* \"#utility.yul\":20927:20962   */\n      swap1\n      pop\n        /* \"#utility.yul\":20899:20976   */\n    tag_347:\n        /* \"#utility.yul\":21002:21069   */\n      tag_348\n        /* \"#utility.yul\":21062:21068   */\n      dup6\n        /* \"#utility.yul\":21055:21060   */\n      dup3\n        /* \"#utility.yul\":21002:21069   */\n      tag_152\n      jump\t// in\n    tag_348:\n        /* \"#utility.yul\":20996:21000   */\n      dup7\n        /* \"#utility.yul\":20989:21070   */\n      sstore\n        /* \"#utility.yul\":20858:21080   */\n      pop\n        /* \"#utility.yul\":20193:21080   */\n      jump(tag_345)\n        /* \"#utility.yul\":20223:20841   */\n    tag_346:\n        /* \"#utility.yul\":20275:20279   */\n      0x1f\n        /* \"#utility.yul\":20271:20280   */\n      not\n        /* \"#utility.yul\":20263:20269   */\n      dup5\n        /* \"#utility.yul\":20259:20281   */\n      and\n        /* \"#utility.yul\":20309:20346   */\n      tag_349\n        /* \"#utility.yul\":20341:20345   */\n      dup7\n        /* \"#utility.yul\":20309:20346   */\n      tag_131\n      jump\t// in\n    tag_349:\n        /* \"#utility.yul\":20368:20369   */\n      0x00\n        /* \"#utility.yul\":20382:20590   */\n    tag_350:\n        /* \"#utility.yul\":20396:20403   */\n      dup3\n        /* \"#utility.yul\":20393:20394   */\n      dup2\n        /* \"#utility.yul\":20390:20404   */\n      lt\n        /* \"#utility.yul\":20382:20590   */\n      iszero\n      tag_352\n      jumpi\n        /* \"#utility.yul\":20475:20484   */\n      dup5\n        /* \"#utility.yul\":20470:20473   */\n      dup10\n        /* \"#utility.yul\":20466:20485   */\n      add\n        /* \"#utility.yul\":20460:20486   */\n      mload\n        /* \"#utility.yul\":20452:20458   */\n      dup3\n        /* \"#utility.yul\":20445:20487   */\n      sstore\n        /* \"#utility.yul\":20526:20527   */\n      0x01\n        /* \"#utility.yul\":20518:20524   */\n      dup3\n        /* \"#utility.yul\":20514:20528   */\n      add\n        /* \"#utility.yul\":20504:20528   */\n      swap2\n      pop\n        /* \"#utility.yul\":20573:20575   */\n      0x20\n        /* \"#utility.yul\":20562:20571   */\n      dup6\n        /* \"#utility.yul\":20558:20576   */\n      add\n        /* \"#utility.yul\":20545:20576   */\n      swap5\n      pop\n        /* \"#utility.yul\":20419:20423   */\n      0x20\n        /* \"#utility.yul\":20416:20417   */\n      dup2\n        /* \"#utility.yul\":20412:20424   */\n      add\n        /* \"#utility.yul\":20407:20424   */\n      swap1\n      pop\n        /* \"#utility.yul\":20382:20590   */\n      jump(tag_350)\n    tag_352:\n        /* \"#utility.yul\":20618:20624   */\n      dup7\n        /* \"#utility.yul\":20609:20616   */\n      dup4\n        /* \"#utility.yul\":20606:20625   */\n      lt\n        /* \"#utility.yul\":20603:20782   */\n      iszero\n      tag_353\n      jumpi\n        /* \"#utility.yul\":20676:20685   */\n      dup5\n        /* \"#utility.yul\":20671:20674   */\n      dup10\n        /* \"#utility.yul\":20667:20686   */\n      add\n        /* \"#utility.yul\":20661:20687   */\n      mload\n        /* \"#utility.yul\":20719:20767   */\n      tag_354\n        /* \"#utility.yul\":20761:20765   */\n      0x1f\n        /* \"#utility.yul\":20753:20759   */\n      dup10\n        /* \"#utility.yul\":20749:20766   */\n      and\n        /* \"#utility.yul\":20738:20747   */\n      dup3\n        /* \"#utility.yul\":20719:20767   */\n      tag_151\n      jump\t// in\n    tag_354:\n        /* \"#utility.yul\":20711:20717   */\n      dup4\n        /* \"#utility.yul\":20704:20768   */\n      sstore\n        /* \"#utility.yul\":20626:20782   */\n      pop\n        /* \"#utility.yul\":20603:20782   */\n    tag_353:\n        /* \"#utility.yul\":20828:20829   */\n      0x01\n        /* \"#utility.yul\":20824:20825   */\n      0x02\n        /* \"#utility.yul\":20816:20822   */\n      dup9\n        /* \"#utility.yul\":20812:20826   */\n      mul\n        /* \"#utility.yul\":20808:20830   */\n      add\n        /* \"#utility.yul\":20802:20806   */\n      dup9\n        /* \"#utility.yul\":20795:20831   */\n      sstore\n        /* \"#utility.yul\":20230:20841   */\n      pop\n      pop\n      pop\n        /* \"#utility.yul\":20193:21080   */\n    tag_345:\n      pop\n        /* \"#utility.yul\":19783:21086   */\n      pop\n      pop\n      pop\n        /* \"#utility.yul\":19691:21086   */\n      pop\n      pop\n      jump\t// out\n        /* \"#utility.yul\":21092:21261   */\n    tag_153:\n        /* \"#utility.yul\":21232:21253   */\n      0x43616e646964617465204e6f7420466f756e6400000000000000000000000000\n        /* \"#utility.yul\":21228:21229   */\n      0x00\n        /* \"#utility.yul\":21220:21226   */\n      dup3\n        /* \"#utility.yul\":21216:21230   */\n      add\n        /* \"#utility.yul\":21209:21254   */\n      mstore\n        /* \"#utility.yul\":21092:21261   */\n      pop\n      jump\t// out\n        /* \"#utility.yul\":21267:21633   */\n    tag_154:\n        /* \"#utility.yul\":21409:21412   */\n      0x00\n        /* \"#utility.yul\":21430:21497   */\n      tag_357\n        /* \"#utility.yul\":21494:21496   */\n      0x13\n        /* \"#utility.yul\":21489:21492   */\n      dup4\n        /* \"#utility.yul\":21430:21497   */\n      tag_121\n      jump\t// in\n    tag_357:\n        /* \"#utility.yul\":21423:21497   */\n      swap2\n      pop\n        /* \"#utility.yul\":21506:21599   */\n      tag_358\n        /* \"#utility.yul\":21595:21598   */\n      dup3\n        /* \"#utility.yul\":21506:21599   */\n      tag_153\n      jump\t// in\n    tag_358:\n        /* \"#utility.yul\":21624:21626   */\n      0x20\n        /* \"#utility.yul\":21619:21622   */\n      dup3\n        /* \"#utility.yul\":21615:21627   */\n      add\n        /* \"#utility.yul\":21608:21627   */\n      swap1\n      pop\n        /* \"#utility.yul\":21267:21633   */\n      swap2\n      swap1\n      pop\n      jump\t// out\n        /* \"#utility.yul\":21639:22058   */\n    tag_76:\n        /* \"#utility.yul\":21805:21809   */\n      0x00\n        /* \"#utility.yul\":21843:21845   */\n      0x20\n        /* \"#utility.yul\":21832:21841   */\n      dup3\n        /* \"#utility.yul\":21828:21846   */\n      add\n        /* \"#utility.yul\":21820:21846   */\n      swap1\n      pop\n        /* \"#utility.yul\":21892:21901   */\n      dup2\n        /* \"#utility.yul\":21886:21890   */\n      dup2\n        /* \"#utility.yul\":21882:21902   */\n      sub\n        /* \"#utility.yul\":21878:21879   */\n      0x00\n        /* \"#utility.yul\":21867:21876   */\n      dup4\n        /* \"#utility.yul\":21863:21880   */\n      add\n        /* \"#utility.yul\":21856:21903   */\n      mstore\n        /* \"#utility.yul\":21920:22051   */\n      tag_360\n        /* \"#utility.yul\":22046:22050   */\n      dup2\n        /* \"#utility.yul\":21920:22051   */\n      tag_154\n      jump\t// in\n    tag_360:\n        /* \"#utility.yul\":21912:22051   */\n      swap1\n      pop\n        /* \"#utility.yul\":21639:22058   */\n      swap2\n      swap1\n      pop\n      jump\t// out\n\n    auxdata: 0xa2646970667358221220b7485d70db312be1737c49042654f8db2f272eb1f9fbfd68cb31f72e6b360e8664736f6c634300081a0033\n}\n",
				"bytecode": {
					"linkReferences": {},
					"object": "608060405234801561000f575f80fd5b5060405161199b38038061199b8339818101604052810190610031919061020e565b816003819055508060049081610047919061046c565b50335f806101000a81548173ffffffffffffffffffffffffffffffffffffffff021916908373ffffffffffffffffffffffffffffffffffffffff160217905550505061053b565b5f604051905090565b5f80fd5b5f80fd5b5f819050919050565b6100b18161009f565b81146100bb575f80fd5b50565b5f815190506100cc816100a8565b92915050565b5f80fd5b5f80fd5b5f601f19601f8301169050919050565b7f4e487b71000000000000000000000000000000000000000000000000000000005f52604160045260245ffd5b610120826100da565b810181811067ffffffffffffffff8211171561013f5761013e6100ea565b5b80604052505050565b5f61015161008e565b905061015d8282610117565b919050565b5f67ffffffffffffffff82111561017c5761017b6100ea565b5b610185826100da565b9050602081019050919050565b8281835e5f83830152505050565b5f6101b26101ad84610162565b610148565b9050828152602081018484840111156101ce576101cd6100d6565b5b6101d9848285610192565b509392505050565b5f82601f8301126101f5576101f46100d2565b5b81516102058482602086016101a0565b91505092915050565b5f806040838503121561022457610223610097565b5b5f610231858286016100be565b925050602083015167ffffffffffffffff8111156102525761025161009b565b5b61025e858286016101e1565b9150509250929050565b5f81519050919050565b7f4e487b71000000000000000000000000000000000000000000000000000000005f52602260045260245ffd5b5f60028204905060018216806102b657607f821691505b6020821081036102c9576102c8610272565b5b50919050565b5f819050815f5260205f209050919050565b5f6020601f8301049050919050565b5f82821b905092915050565b5f6008830261032b7fffffffffffffffffffffffffffffffffffffffffffffffffffffffffffffffff826102f0565b61033586836102f0565b95508019841693508086168417925050509392505050565b5f819050919050565b5f61037061036b6103668461009f565b61034d565b61009f565b9050919050565b5f819050919050565b61038983610356565b61039d61039582610377565b8484546102fc565b825550505050565b5f90565b6103b16103a5565b6103bc818484610380565b505050565b5b818110156103df576103d45f826103a9565b6001810190506103c2565b5050565b601f821115610424576103f5816102cf565b6103fe846102e1565b8101602085101561040d578190505b610421610419856102e1565b8301826103c1565b50505b505050565b5f82821c905092915050565b5f6104445f1984600802610429565b1980831691505092915050565b5f61045c8383610435565b9150826002028217905092915050565b61047582610268565b67ffffffffffffffff81111561048e5761048d6100ea565b5b610498825461029f565b6104a38282856103e3565b5f60209050601f8311600181146104d4575f84156104c2578287015190505b6104cc8582610451565b865550610533565b601f1984166104e2866102cf565b5f5b82811015610509578489015182556001820191506020850194506020810190506104e4565b868310156105265784890151610522601f891682610435565b8355505b6001600288020188555050505b505050505050565b611453806105485f395ff3fe608060405234801561000f575f80fd5b5060043610610060575f3560e01c80630121b93f146100645780630c54b463146100805780631750a3d01461009c57806335b8e820146100b857806359f78468146100e8578063ed836bc3146100f2575b5f80fd5b61007e6004803603810190610079919061094d565b610113565b005b61009a60048036038101906100959190610978565b610341565b005b6100b660048036038101906100b19190610af2565b610466565b005b6100d260048036038101906100cd919061094d565b6105f6565b6040516100df9190610c08565b60405180910390f35b6100f0610719565b005b6100fa610842565b60405161010a9493929190610c7f565b60405180910390f35b600154421015801561012757506002544211155b610166576040517f08c379a000000000000000000000000000000000000000000000000000000000815260040161015d90610d13565b60405180910390fd5b60065f3373ffffffffffffffffffffffffffffffffffffffff1673ffffffffffffffffffffffffffffffffffffffff1681526020019081526020015f205f9054906101000a900460ff16156101f0576040517f08c379a00000000000000000000000000000000000000000000000000000000081526004016101e790610d7b565b60405180910390fd5b5f60055f8381526020019081526020015f205f015403610245576040517f08c379a000000000000000000000000000000000000000000000000000000000815260040161023c90610de3565b60405180910390fd5b600160055f8381526020019081526020015f206002015f8282546102699190610e2e565b92505081905550600160065f3373ffffffffffffffffffffffffffffffffffffffff1673ffffffffffffffffffffffffffffffffffffffff1681526020019081526020015f205f6101000a81548160ff0219169083151502179055503373ffffffffffffffffffffffffffffffffffffffff167f5065d9a3e554fac09a264a633e7f6096ac507b887f948cac1c7ea44ad66821458260055f8581526020019081526020015f2060010160055f8681526020019081526020015f206002015460405161033693929190610f51565b60405180910390a250565b5f8054906101000a900473ffffffffffffffffffffffffffffffffffffffff1673ffffffffffffffffffffffffffffffffffffffff163373ffffffffffffffffffffffffffffffffffffffff16146103ce576040517f08c379a00000000000000000000000000000000000000000000000000000000081526004016103c590610fd7565b60405180910390fd5b808210610410576040517f08c379a000000000000000000000000000000000000000000000000000000000815260040161040790611065565b60405180910390fd5b81600181905550806002819055507f9b1260f8b980e6d24d53093bd6bb9f6ed9991d62063f9202d8714a48c043c508600354600460015460025460405161045a9493929190611083565b60405180910390a15050565b5f8054906101000a900473ffffffffffffffffffffffffffffffffffffffff1673ffffffffffffffffffffffffffffffffffffffff163373ffffffffffffffffffffffffffffffffffffffff16146104f3576040517f08c379a00000000000000000000000000000000000000000000000000000000081526004016104ea90610fd7565b60405180910390fd5b600154421015801561050757506002544211155b610546576040517f08c379a000000000000000000000000000000000000000000000000000000000815260040161053d90610d13565b60405180910390fd5b5f60055f8481526020019081526020015f205f01541461059b576040517f08c379a00000000000000000000000000000000000000000000000000000000081526004016105929061113d565b60405180910390fd5b60405180606001604052808381526020018281526020015f81525060055f8481526020019081526020015f205f820151815f015560208201518160010190816105e491906112e6565b50604082015181600201559050505050565b6105fe6108ea565b5f60055f8481526020019081526020015f205f015403610653576040517f08c379a000000000000000000000000000000000000000000000000000000000815260040161064a906113ff565b60405180910390fd5b60055f8381526020019081526020015f206040518060600160405290815f820154815260200160018201805461068890610e8e565b80601f01602080910402602001604051908101604052809291908181526020018280546106b490610e8e565b80156106ff5780601f106106d6576101008083540402835291602001916106ff565b820191905f5260205f20905b8154815290600101906020018083116106e257829003601f168201915b505050505081526020016002820154815250509050919050565b5f8054906101000a900473ffffffffffffffffffffffffffffffffffffffff1673ffffffffffffffffffffffffffffffffffffffff163373ffffffffffffffffffffffffffffffffffffffff16146107a6576040517f08c379a000000000000000000000000000000000000000000000000000000000815260040161079d90610fd7565b60405180910390fd5b60015442101580156107ba57506002544211155b6107f9576040517f08c379a00000000000000000000000000000000000000000000000000000000081526004016107f090610d13565b60405180910390fd5b426002819055507f768f23cc1edb48955299fa848c47d3fdebf8c6c78b4136045ba193ebad23fb8d600354600460025460405161083893929190610f51565b60405180910390a1565b5f60605f80600354600460015460025482805461085e90610e8e565b80601f016020809104026020016040519081016040528092919081815260200182805461088a90610e8e565b80156108d55780601f106108ac576101008083540402835291602001916108d5565b820191905f5260205f20905b8154815290600101906020018083116108b857829003601f168201915b50505050509250935093509350935090919293565b60405180606001604052805f8152602001606081526020015f81525090565b5f604051905090565b5f80fd5b5f80fd5b5f819050919050565b61092c8161091a565b8114610936575f80fd5b50565b5f8135905061094781610923565b92915050565b5f6020828403121561096257610961610912565b5b5f61096f84828501610939565b91505092915050565b5f806040838503121561098e5761098d610912565b5b5f61099b85828601610939565b92505060206109ac85828601610939565b9150509250929050565b5f80fd5b5f80fd5b5f601f19601f8301169050919050565b7f4e487b71000000000000000000000000000000000000000000000000000000005f52604160045260245ffd5b610a04826109be565b810181811067ffffffffffffffff82111715610a2357610a226109ce565b5b80604052505050565b5f610a35610909565b9050610a4182826109fb565b919050565b5f67ffffffffffffffff821115610a6057610a5f6109ce565b5b610a69826109be565b9050602081019050919050565b828183375f83830152505050565b5f610a96610a9184610a46565b610a2c565b905082815260208101848484011115610ab257610ab16109ba565b5b610abd848285610a76565b509392505050565b5f82601f830112610ad957610ad86109b6565b5b8135610ae9848260208601610a84565b91505092915050565b5f8060408385031215610b0857610b07610912565b5b5f610b1585828601610939565b925050602083013567ffffffffffffffff811115610b3657610b35610916565b5b610b4285828601610ac5565b9150509250929050565b610b558161091a565b82525050565b5f81519050919050565b5f82825260208201905092915050565b8281835e5f83830152505050565b5f610b8d82610b5b565b610b978185610b65565b9350610ba7818560208601610b75565b610bb0816109be565b840191505092915050565b5f606083015f830151610bd05f860182610b4c565b5060208301518482036020860152610be88282610b83565b9150506040830151610bfd6040860182610b4c565b508091505092915050565b5f6020820190508181035f830152610c208184610bbb565b905092915050565b610c318161091a565b82525050565b5f82825260208201905092915050565b5f610c5182610b5b565b610c5b8185610c37565b9350610c6b818560208601610b75565b610c74816109be565b840191505092915050565b5f608082019050610c925f830187610c28565b8181036020830152610ca48186610c47565b9050610cb36040830185610c28565b610cc06060830184610c28565b95945050505050565b7f456c656374696f6e206973206e6f74206f6e676f696e670000000000000000005f82015250565b5f610cfd601783610c37565b9150610d0882610cc9565b602082019050919050565b5f6020820190508181035f830152610d2a81610cf1565b9050919050565b7f596f75206861766520616c726561647920766f746564000000000000000000005f82015250565b5f610d65601683610c37565b9150610d7082610d31565b602082019050919050565b5f6020820190508181035f830152610d9281610d59565b9050919050565b7f43616e646964617465206e6f7420666f756e74000000000000000000000000005f82015250565b5f610dcd601383610c37565b9150610dd882610d99565b602082019050919050565b5f6020820190508181035f830152610dfa81610dc1565b9050919050565b7f4e487b71000000000000000000000000000000000000000000000000000000005f52601160045260245ffd5b5f610e388261091a565b9150610e438361091a565b9250828201905080821115610e5b57610e5a610e01565b5b92915050565b7f4e487b71000000000000000000000000000000000000000000000000000000005f52602260045260245ffd5b5f6002820490506001821680610ea557607f821691505b602082108103610eb857610eb7610e61565b5b50919050565b5f819050815f5260205f209050919050565b5f8154610edc81610e8e565b610ee68186610c37565b9450600182165f8114610f005760018114610f1657610f48565b60ff198316865281151560200286019350610f48565b610f1f85610ebe565b5f5b83811015610f4057815481890152600182019150602081019050610f21565b808801955050505b50505092915050565b5f606082019050610f645f830186610c28565b8181036020830152610f768185610ed0565b9050610f856040830184610c28565b949350505050565b7f596f757220617265206e6f7420746865206f776e6572000000000000000000005f82015250565b5f610fc1601683610c37565b9150610fcc82610f8d565b602082019050919050565b5f6020820190508181035f830152610fee81610fb5565b9050919050565b7f53746172742074696d65206d757374206265206c657373207468616e20656e645f8201527f2074696d65000000000000000000000000000000000000000000000000000000602082015250565b5f61104f602583610c37565b915061105a82610ff5565b604082019050919050565b5f6020820190508181035f83015261107c81611043565b9050919050565b5f6080820190506110965f830187610c28565b81810360208301526110a88186610ed0565b90506110b76040830185610c28565b6110c46060830184610c28565b95945050505050565b7f596f75206861766520616c72656164792061646465642061732063616e6469645f8201527f6174650000000000000000000000000000000000000000000000000000000000602082015250565b5f611127602383610c37565b9150611132826110cd565b604082019050919050565b5f6020820190508181035f8301526111548161111b565b9050919050565b5f6020601f8301049050919050565b5f82821b905092915050565b5f600883026111a57fffffffffffffffffffffffffffffffffffffffffffffffffffffffffffffffff8261116a565b6111af868361116a565b95508019841693508086168417925050509392505050565b5f819050919050565b5f6111ea6111e56111e08461091a565b6111c7565b61091a565b9050919050565b5f819050919050565b611203836111d0565b61121761120f826111f1565b848454611176565b825550505050565b5f90565b61122b61121f565b6112368184846111fa565b505050565b5b818110156112595761124e5f82611223565b60018101905061123c565b5050565b601f82111561129e5761126f81610ebe565b6112788461115b565b81016020851015611287578190505b61129b6112938561115b565b83018261123b565b50505b505050565b5f82821c905092915050565b5f6112be5f19846008026112a3565b1980831691505092915050565b5f6112d683836112af565b9150826002028217905092915050565b6112ef82610b5b565b67ffffffffffffffff811115611308576113076109ce565b5b6113128254610e8e565b61131d82828561125d565b5f60209050601f83116001811461134e575f841561133c578287015190505b61134685826112cb565b8655506113ad565b601f19841661135c86610ebe565b5f5b828110156113835784890151825560018201915060208501945060208101905061135e565b868310156113a0578489015161139c601f8916826112af565b8355505b6001600288020188555050505b505050505050565b7f43616e646964617465204e6f7420466f756e64000000000000000000000000005f82015250565b5f6113e9601383610c37565b91506113f4826113b5565b602082019050919050565b5f6020820190508181035f830152611416816113dd565b905091905056fea2646970667358221220b7485d70db312be1737c49042654f8db2f272eb1f9fbfd68cb31f72e6b360e8664736f6c634300081a0033",
					"opcodes": "PUSH1 0x80 PUSH1 0x40 MSTORE CALLVALUE DUP1 ISZERO PUSH2 0xF JUMPI PUSH0 DUP1 REVERT JUMPDEST POP PUSH1 0x40 MLOAD PUSH2 0x199B CODESIZE SUB DUP1 PUSH2 0x199B DUP4 CODECOPY DUP2 DUP2 ADD PUSH1 0x40 MSTORE DUP2 ADD SWAP1 PUSH2 0x31 SWAP2 SWAP1 PUSH2 0x20E JUMP JUMPDEST DUP2 PUSH1 0x3 DUP2 SWAP1 SSTORE POP DUP1 PUSH1 0x4 SWAP1 DUP2 PUSH2 0x47 SWAP2 SWAP1 PUSH2 0x46C JUMP JUMPDEST POP CALLER PUSH0 DUP1 PUSH2 0x100 EXP DUP2 SLOAD DUP2 PUSH20 0xFFFFFFFFFFFFFFFFFFFFFFFFFFFFFFFFFFFFFFFF MUL NOT AND SWAP1 DUP4 PUSH20 0xFFFFFFFFFFFFFFFFFFFFFFFFFFFFFFFFFFFFFFFF AND MUL OR SWAP1 SSTORE POP POP POP PUSH2 0x53B JUMP JUMPDEST PUSH0 PUSH1 0x40 MLOAD SWAP1 POP SWAP1 JUMP JUMPDEST PUSH0 DUP1 REVERT JUMPDEST PUSH0 DUP1 REVERT JUMPDEST PUSH0 DUP2 SWAP1 POP SWAP2 SWAP1 POP JUMP JUMPDEST PUSH2 0xB1 DUP2 PUSH2 0x9F JUMP JUMPDEST DUP2 EQ PUSH2 0xBB JUMPI PUSH0 DUP1 REVERT JUMPDEST POP JUMP JUMPDEST PUSH0 DUP2 MLOAD SWAP1 POP PUSH2 0xCC DUP2 PUSH2 0xA8 JUMP JUMPDEST SWAP3 SWAP2 POP POP JUMP JUMPDEST PUSH0 DUP1 REVERT JUMPDEST PUSH0 DUP1 REVERT JUMPDEST PUSH0 PUSH1 0x1F NOT PUSH1 0x1F DUP4 ADD AND SWAP1 POP SWAP2 SWAP1 POP JUMP JUMPDEST PUSH32 0x4E487B7100000000000000000000000000000000000000000000000000000000 PUSH0 MSTORE PUSH1 0x41 PUSH1 0x4 MSTORE PUSH1 0x24 PUSH0 REVERT JUMPDEST PUSH2 0x120 DUP3 PUSH2 0xDA JUMP JUMPDEST DUP2 ADD DUP2 DUP2 LT PUSH8 0xFFFFFFFFFFFFFFFF DUP3 GT OR ISZERO PUSH2 0x13F JUMPI PUSH2 0x13E PUSH2 0xEA JUMP JUMPDEST JUMPDEST DUP1 PUSH1 0x40 MSTORE POP POP POP JUMP JUMPDEST PUSH0 PUSH2 0x151 PUSH2 0x8E JUMP JUMPDEST SWAP1 POP PUSH2 0x15D DUP3 DUP3 PUSH2 0x117 JUMP JUMPDEST SWAP2 SWAP1 POP JUMP JUMPDEST PUSH0 PUSH8 0xFFFFFFFFFFFFFFFF DUP3 GT ISZERO PUSH2 0x17C JUMPI PUSH2 0x17B PUSH2 0xEA JUMP JUMPDEST JUMPDEST PUSH2 0x185 DUP3 PUSH2 0xDA JUMP JUMPDEST SWAP1 POP PUSH1 0x20 DUP2 ADD SWAP1 POP SWAP2 SWAP1 POP JUMP JUMPDEST DUP3 DUP2 DUP4 MCOPY PUSH0 DUP4 DUP4 ADD MSTORE POP POP POP JUMP JUMPDEST PUSH0 PUSH2 0x1B2 PUSH2 0x1AD DUP5 PUSH2 0x162 JUMP JUMPDEST PUSH2 0x148 JUMP JUMPDEST SWAP1 POP DUP3 DUP2 MSTORE PUSH1 0x20 DUP2 ADD DUP5 DUP5 DUP5 ADD GT ISZERO PUSH2 0x1CE JUMPI PUSH2 0x1CD PUSH2 0xD6 JUMP JUMPDEST JUMPDEST PUSH2 0x1D9 DUP5 DUP3 DUP6 PUSH2 0x192 JUMP JUMPDEST POP SWAP4 SWAP3 POP POP POP JUMP JUMPDEST PUSH0 DUP3 PUSH1 0x1F DUP4 ADD SLT PUSH2 0x1F5 JUMPI PUSH2 0x1F4 PUSH2 0xD2 JUMP JUMPDEST JUMPDEST DUP2 MLOAD PUSH2 0x205 DUP5 DUP3 PUSH1 0x20 DUP7 ADD PUSH2 0x1A0 JUMP JUMPDEST SWAP2 POP POP SWAP3 SWAP2 POP POP JUMP JUMPDEST PUSH0 DUP1 PUSH1 0x40 DUP4 DUP6 SUB SLT ISZERO PUSH2 0x224 JUMPI PUSH2 0x223 PUSH2 0x97 JUMP JUMPDEST JUMPDEST PUSH0 PUSH2 0x231 DUP6 DUP3 DUP7 ADD PUSH2 0xBE JUMP JUMPDEST SWAP3 POP POP PUSH1 0x20 DUP4 ADD MLOAD PUSH8 0xFFFFFFFFFFFFFFFF DUP2 GT ISZERO PUSH2 0x252 JUMPI PUSH2 0x251 PUSH2 0x9B JUMP JUMPDEST JUMPDEST PUSH2 0x25E DUP6 DUP3 DUP7 ADD PUSH2 0x1E1 JUMP JUMPDEST SWAP2 POP POP SWAP3 POP SWAP3 SWAP1 POP JUMP JUMPDEST PUSH0 DUP2 MLOAD SWAP1 POP SWAP2 SWAP1 POP JUMP JUMPDEST PUSH32 0x4E487B7100000000000000000000000000000000000000000000000000000000 PUSH0 MSTORE PUSH1 0x22 PUSH1 0x4 MSTORE PUSH1 0x24 PUSH0 REVERT JUMPDEST PUSH0 PUSH1 0x2 DUP3 DIV SWAP1 POP PUSH1 0x1 DUP3 AND DUP1 PUSH2 0x2B6 JUMPI PUSH1 0x7F DUP3 AND SWAP2 POP JUMPDEST PUSH1 0x20 DUP3 LT DUP2 SUB PUSH2 0x2C9 JUMPI PUSH2 0x2C8 PUSH2 0x272 JUMP JUMPDEST JUMPDEST POP SWAP2 SWAP1 POP JUMP JUMPDEST PUSH0 DUP2 SWAP1 POP DUP2 PUSH0 MSTORE PUSH1 0x20 PUSH0 KECCAK256 SWAP1 POP SWAP2 SWAP1 POP JUMP JUMPDEST PUSH0 PUSH1 0x20 PUSH1 0x1F DUP4 ADD DIV SWAP1 POP SWAP2 SWAP1 POP JUMP JUMPDEST PUSH0 DUP3 DUP3 SHL SWAP1 POP SWAP3 SWAP2 POP POP JUMP JUMPDEST PUSH0 PUSH1 0x8 DUP4 MUL PUSH2 0x32B PUSH32 0xFFFFFFFFFFFFFFFFFFFFFFFFFFFFFFFFFFFFFFFFFFFFFFFFFFFFFFFFFFFFFFFF DUP3 PUSH2 0x2F0 JUMP JUMPDEST PUSH2 0x335 DUP7 DUP4 PUSH2 0x2F0 JUMP JUMPDEST SWAP6 POP DUP1 NOT DUP5 AND SWAP4 POP DUP1 DUP7 AND DUP5 OR SWAP3 POP POP POP SWAP4 SWAP3 POP POP POP JUMP JUMPDEST PUSH0 DUP2 SWAP1 POP SWAP2 SWAP1 POP JUMP JUMPDEST PUSH0 PUSH2 0x370 PUSH2 0x36B PUSH2 0x366 DUP5 PUSH2 0x9F JUMP JUMPDEST PUSH2 0x34D JUMP JUMPDEST PUSH2 0x9F JUMP JUMPDEST SWAP1 POP SWAP2 SWAP1 POP JUMP JUMPDEST PUSH0 DUP2 SWAP1 POP SWAP2 SWAP1 POP JUMP JUMPDEST PUSH2 0x389 DUP4 PUSH2 0x356 JUMP JUMPDEST PUSH2 0x39D PUSH2 0x395 DUP3 PUSH2 0x377 JUMP JUMPDEST DUP5 DUP5 SLOAD PUSH2 0x2FC JUMP JUMPDEST DUP3 SSTORE POP POP POP POP JUMP JUMPDEST PUSH0 SWAP1 JUMP JUMPDEST PUSH2 0x3B1 PUSH2 0x3A5 JUMP JUMPDEST PUSH2 0x3BC DUP2 DUP5 DUP5 PUSH2 0x380 JUMP JUMPDEST POP POP POP JUMP JUMPDEST JUMPDEST DUP2 DUP2 LT ISZERO PUSH2 0x3DF JUMPI PUSH2 0x3D4 PUSH0 DUP3 PUSH2 0x3A9 JUMP JUMPDEST PUSH1 0x1 DUP2 ADD SWAP1 POP PUSH2 0x3C2 JUMP JUMPDEST POP POP JUMP JUMPDEST PUSH1 0x1F DUP3 GT ISZERO PUSH2 0x424 JUMPI PUSH2 0x3F5 DUP2 PUSH2 0x2CF JUMP JUMPDEST PUSH2 0x3FE DUP5 PUSH2 0x2E1 JUMP JUMPDEST DUP2 ADD PUSH1 0x20 DUP6 LT ISZERO PUSH2 0x40D JUMPI DUP2 SWAP1 POP JUMPDEST PUSH2 0x421 PUSH2 0x419 DUP6 PUSH2 0x2E1 JUMP JUMPDEST DUP4 ADD DUP3 PUSH2 0x3C1 JUMP JUMPDEST POP POP JUMPDEST POP POP POP JUMP JUMPDEST PUSH0 DUP3 DUP3 SHR SWAP1 POP SWAP3 SWAP2 POP POP JUMP JUMPDEST PUSH0 PUSH2 0x444 PUSH0 NOT DUP5 PUSH1 0x8 MUL PUSH2 0x429 JUMP JUMPDEST NOT DUP1 DUP4 AND SWAP2 POP POP SWAP3 SWAP2 POP POP JUMP JUMPDEST PUSH0 PUSH2 0x45C DUP4 DUP4 PUSH2 0x435 JUMP JUMPDEST SWAP2 POP DUP3 PUSH1 0x2 MUL DUP3 OR SWAP1 POP SWAP3 SWAP2 POP POP JUMP JUMPDEST PUSH2 0x475 DUP3 PUSH2 0x268 JUMP JUMPDEST PUSH8 0xFFFFFFFFFFFFFFFF DUP2 GT ISZERO PUSH2 0x48E JUMPI PUSH2 0x48D PUSH2 0xEA JUMP JUMPDEST JUMPDEST PUSH2 0x498 DUP3 SLOAD PUSH2 0x29F JUMP JUMPDEST PUSH2 0x4A3 DUP3 DUP3 DUP6 PUSH2 0x3E3 JUMP JUMPDEST PUSH0 PUSH1 0x20 SWAP1 POP PUSH1 0x1F DUP4 GT PUSH1 0x1 DUP2 EQ PUSH2 0x4D4 JUMPI PUSH0 DUP5 ISZERO PUSH2 0x4C2 JUMPI DUP3 DUP8 ADD MLOAD SWAP1 POP JUMPDEST PUSH2 0x4CC DUP6 DUP3 PUSH2 0x451 JUMP JUMPDEST DUP7 SSTORE POP PUSH2 0x533 JUMP JUMPDEST PUSH1 0x1F NOT DUP5 AND PUSH2 0x4E2 DUP7 PUSH2 0x2CF JUMP JUMPDEST PUSH0 JUMPDEST DUP3 DUP2 LT ISZERO PUSH2 0x509 JUMPI DUP5 DUP10 ADD MLOAD DUP3 SSTORE PUSH1 0x1 DUP3 ADD SWAP2 POP PUSH1 0x20 DUP6 ADD SWAP5 POP PUSH1 0x20 DUP2 ADD SWAP1 POP PUSH2 0x4E4 JUMP JUMPDEST DUP7 DUP4 LT ISZERO PUSH2 0x526 JUMPI DUP5 DUP10 ADD MLOAD PUSH2 0x522 PUSH1 0x1F DUP10 AND DUP3 PUSH2 0x435 JUMP JUMPDEST DUP4 SSTORE POP JUMPDEST PUSH1 0x1 PUSH1 0x2 DUP9 MUL ADD DUP9 SSTORE POP POP POP JUMPDEST POP POP POP POP POP POP JUMP JUMPDEST PUSH2 0x1453 DUP1 PUSH2 0x548 PUSH0 CODECOPY PUSH0 RETURN INVALID PUSH1 0x80 PUSH1 0x40 MSTORE CALLVALUE DUP1 ISZERO PUSH2 0xF JUMPI PUSH0 DUP1 REVERT JUMPDEST POP PUSH1 0x4 CALLDATASIZE LT PUSH2 0x60 JUMPI PUSH0 CALLDATALOAD PUSH1 0xE0 SHR DUP1 PUSH4 0x121B93F EQ PUSH2 0x64 JUMPI DUP1 PUSH4 0xC54B463 EQ PUSH2 0x80 JUMPI DUP1 PUSH4 0x1750A3D0 EQ PUSH2 0x9C JUMPI DUP1 PUSH4 0x35B8E820 EQ PUSH2 0xB8 JUMPI DUP1 PUSH4 0x59F78468 EQ PUSH2 0xE8 JUMPI DUP1 PUSH4 0xED836BC3 EQ PUSH2 0xF2 JUMPI JUMPDEST PUSH0 DUP1 REVERT JUMPDEST PUSH2 0x7E PUSH1 0x4 DUP1 CALLDATASIZE SUB DUP2 ADD SWAP1 PUSH2 0x79 SWAP2 SWAP1 PUSH2 0x94D JUMP JUMPDEST PUSH2 0x113 JUMP JUMPDEST STOP JUMPDEST PUSH2 0x9A PUSH1 0x4 DUP1 CALLDATASIZE SUB DUP2 ADD SWAP1 PUSH2 0x95 SWAP2 SWAP1 PUSH2 0x978 JUMP JUMPDEST PUSH2 0x341 JUMP JUMPDEST STOP JUMPDEST PUSH2 0xB6 PUSH1 0x4 DUP1 CALLDATASIZE SUB DUP2 ADD SWAP1 PUSH2 0xB1 SWAP2 SWAP1 PUSH2 0xAF2 JUMP JUMPDEST PUSH2 0x466 JUMP JUMPDEST STOP JUMPDEST PUSH2 0xD2 PUSH1 0x4 DUP1 CALLDATASIZE SUB DUP2 ADD SWAP1 PUSH2 0xCD SWAP2 SWAP1 PUSH2 0x94D JUMP JUMPDEST PUSH2 0x5F6 JUMP JUMPDEST PUSH1 0x40 MLOAD PUSH2 0xDF SWAP2 SWAP1 PUSH2 0xC08 JUMP JUMPDEST PUSH1 0x40 MLOAD DUP1 SWAP2 SUB SWAP1 RETURN JUMPDEST PUSH2 0xF0 PUSH2 0x719 JUMP JUMPDEST STOP JUMPDEST PUSH2 0xFA PUSH2 0x842 JUMP JUMPDEST PUSH1 0x40 MLOAD PUSH2 0x10A SWAP5 SWAP4 SWAP3 SWAP2 SWAP1 PUSH2 0xC7F JUMP JUMPDEST PUSH1 0x40 MLOAD DUP1 SWAP2 SUB SWAP1 RETURN JUMPDEST PUSH1 0x1 SLOAD TIMESTAMP LT ISZERO DUP1 ISZERO PUSH2 0x127 JUMPI POP PUSH1 0x2 SLOAD TIMESTAMP GT ISZERO JUMPDEST PUSH2 0x166 JUMPI PUSH1 0x40 MLOAD PUSH32 0x8C379A000000000000000000000000000000000000000000000000000000000 DUP2 MSTORE PUSH1 0x4 ADD PUSH2 0x15D SWAP1 PUSH2 0xD13 JUMP JUMPDEST PUSH1 0x40 MLOAD DUP1 SWAP2 SUB SWAP1 REVERT JUMPDEST PUSH1 0x6 PUSH0 CALLER PUSH20 0xFFFFFFFFFFFFFFFFFFFFFFFFFFFFFFFFFFFFFFFF AND PUSH20 0xFFFFFFFFFFFFFFFFFFFFFFFFFFFFFFFFFFFFFFFF AND DUP2 MSTORE PUSH1 0x20 ADD SWAP1 DUP2 MSTORE PUSH1 0x20 ADD PUSH0 KECCAK256 PUSH0 SWAP1 SLOAD SWAP1 PUSH2 0x100 EXP SWAP1 DIV PUSH1 0xFF AND ISZERO PUSH2 0x1F0 JUMPI PUSH1 0x40 MLOAD PUSH32 0x8C379A000000000000000000000000000000000000000000000000000000000 DUP2 MSTORE PUSH1 0x4 ADD PUSH2 0x1E7 SWAP1 PUSH2 0xD7B JUMP JUMPDEST PUSH1 0x40 MLOAD DUP1 SWAP2 SUB SWAP1 REVERT JUMPDEST PUSH0 PUSH1 0x5 PUSH0 DUP4 DUP2 MSTORE PUSH1 0x20 ADD SWAP1 DUP2 MSTORE PUSH1 0x20 ADD PUSH0 KECCAK256 PUSH0 ADD SLOAD SUB PUSH2 0x245 JUMPI PUSH1 0x40 MLOAD PUSH32 0x8C379A000000000000000000000000000000000000000000000000000000000 DUP2 MSTORE PUSH1 0x4 ADD PUSH2 0x23C SWAP1 PUSH2 0xDE3 JUMP JUMPDEST PUSH1 0x40 MLOAD DUP1 SWAP2 SUB SWAP1 REVERT JUMPDEST PUSH1 0x1 PUSH1 0x5 PUSH0 DUP4 DUP2 MSTORE PUSH1 0x20 ADD SWAP1 DUP2 MSTORE PUSH1 0x20 ADD PUSH0 KECCAK256 PUSH1 0x2 ADD PUSH0 DUP3 DUP3 SLOAD PUSH2 0x269 SWAP2 SWAP1 PUSH2 0xE2E JUMP JUMPDEST SWAP3 POP POP DUP2 SWAP1 SSTORE POP PUSH1 0x1 PUSH1 0x6 PUSH0 CALLER PUSH20 0xFFFFFFFFFFFFFFFFFFFFFFFFFFFFFFFFFFFFFFFF AND PUSH20 0xFFFFFFFFFFFFFFFFFFFFFFFFFFFFFFFFFFFFFFFF AND DUP2 MSTORE PUSH1 0x20 ADD SWAP1 DUP2 MSTORE PUSH1 0x20 ADD PUSH0 KECCAK256 PUSH0 PUSH2 0x100 EXP DUP2 SLOAD DUP2 PUSH1 0xFF MUL NOT AND SWAP1 DUP4 ISZERO ISZERO MUL OR SWAP1 SSTORE POP CALLER PUSH20 0xFFFFFFFFFFFFFFFFFFFFFFFFFFFFFFFFFFFFFFFF AND PUSH32 0x5065D9A3E554FAC09A264A633E7F6096AC507B887F948CAC1C7EA44AD6682145 DUP3 PUSH1 0x5 PUSH0 DUP6 DUP2 MSTORE PUSH1 0x20 ADD SWAP1 DUP2 MSTORE PUSH1 0x20 ADD PUSH0 KECCAK256 PUSH1 0x1 ADD PUSH1 0x5 PUSH0 DUP7 DUP2 MSTORE PUSH1 0x20 ADD SWAP1 DUP2 MSTORE PUSH1 0x20 ADD PUSH0 KECCAK256 PUSH1 0x2 ADD SLOAD PUSH1 0x40 MLOAD PUSH2 0x336 SWAP4 SWAP3 SWAP2 SWAP1 PUSH2 0xF51 JUMP JUMPDEST PUSH1 0x40 MLOAD DUP1 SWAP2 SUB SWAP1 LOG2 POP JUMP JUMPDEST PUSH0 DUP1 SLOAD SWAP1 PUSH2 0x100 EXP SWAP1 DIV PUSH20 0xFFFFFFFFFFFFFFFFFFFFFFFFFFFFFFFFFFFFFFFF AND PUSH20 0xFFFFFFFFFFFFFFFFFFFFFFFFFFFFFFFFFFFFFFFF AND CALLER PUSH20 0xFFFFFFFFFFFFFFFFFFFFFFFFFFFFFFFFFFFFFFFF AND EQ PUSH2 0x3CE JUMPI PUSH1 0x40 MLOAD PUSH32 0x8C379A000000000000000000000000000000000000000000000000000000000 DUP2 MSTORE PUSH1 0x4 ADD PUSH2 0x3C5 SWAP1 PUSH2 0xFD7 JUMP JUMPDEST PUSH1 0x40 MLOAD DUP1 SWAP2 SUB SWAP1 REVERT JUMPDEST DUP1 DUP3 LT PUSH2 0x410 JUMPI PUSH1 0x40 MLOAD PUSH32 0x8C379A000000000000000000000000000000000000000000000000000000000 DUP2 MSTORE PUSH1 0x4 ADD PUSH2 0x407 SWAP1 PUSH2 0x1065 JUMP JUMPDEST PUSH1 0x40 MLOAD DUP1 SWAP2 SUB SWAP1 REVERT JUMPDEST DUP2 PUSH1 0x1 DUP2 SWAP1 SSTORE POP DUP1 PUSH1 0x2 DUP2 SWAP1 SSTORE POP PUSH32 0x9B1260F8B980E6D24D53093BD6BB9F6ED9991D62063F9202D8714A48C043C508 PUSH1 0x3 SLOAD PUSH1 0x4 PUSH1 0x1 SLOAD PUSH1 0x2 SLOAD PUSH1 0x40 MLOAD PUSH2 0x45A SWAP5 SWAP4 SWAP3 SWAP2 SWAP1 PUSH2 0x1083 JUMP JUMPDEST PUSH1 0x40 MLOAD DUP1 SWAP2 SUB SWAP1 LOG1 POP POP JUMP JUMPDEST PUSH0 DUP1 SLOAD SWAP1 PUSH2 0x100 EXP SWAP1 DIV PUSH20 0xFFFFFFFFFFFFFFFFFFFFFFFFFFFFFFFFFFFFFFFF AND PUSH20 0xFFFFFFFFFFFFFFFFFFFFFFFFFFFFFFFFFFFFFFFF AND CALLER PUSH20 0xFFFFFFFFFFFFFFFFFFFFFFFFFFFFFFFFFFFFFFFF AND EQ PUSH2 0x4F3 JUMPI PUSH1 0x40 MLOAD PUSH32 0x8C379A000000000000000000000000000000000000000000000000000000000 DUP2 MSTORE PUSH1 0x4 ADD PUSH2 0x4EA SWAP1 PUSH2 0xFD7 JUMP JUMPDEST PUSH1 0x40 MLOAD DUP1 SWAP2 SUB SWAP1 REVERT JUMPDEST PUSH1 0x1 SLOAD TIMESTAMP LT ISZERO DUP1 ISZERO PUSH2 0x507 JUMPI POP PUSH1 0x2 SLOAD TIMESTAMP GT ISZERO JUMPDEST PUSH2 0x546 JUMPI PUSH1 0x40 MLOAD PUSH32 0x8C379A000000000000000000000000000000000000000000000000000000000 DUP2 MSTORE PUSH1 0x4 ADD PUSH2 0x53D SWAP1 PUSH2 0xD13 JUMP JUMPDEST PUSH1 0x40 MLOAD DUP1 SWAP2 SUB SWAP1 REVERT JUMPDEST PUSH0 PUSH1 0x5 PUSH0 DUP5 DUP2 MSTORE PUSH1 0x20 ADD SWAP1 DUP2 MSTORE PUSH1 0x20 ADD PUSH0 KECCAK256 PUSH0 ADD SLOAD EQ PUSH2 0x59B JUMPI PUSH1 0x40 MLOAD PUSH32 0x8C379A000000000000000000000000000000000000000000000000000000000 DUP2 MSTORE PUSH1 0x4 ADD PUSH2 0x592 SWAP1 PUSH2 0x113D JUMP JUMPDEST PUSH1 0x40 MLOAD DUP1 SWAP2 SUB SWAP1 REVERT JUMPDEST PUSH1 0x40 MLOAD DUP1 PUSH1 0x60 ADD PUSH1 0x40 MSTORE DUP1 DUP4 DUP2 MSTORE PUSH1 0x20 ADD DUP3 DUP2 MSTORE PUSH1 0x20 ADD PUSH0 DUP2 MSTORE POP PUSH1 0x5 PUSH0 DUP5 DUP2 MSTORE PUSH1 0x20 ADD SWAP1 DUP2 MSTORE PUSH1 0x20 ADD PUSH0 KECCAK256 PUSH0 DUP3 ADD MLOAD DUP2 PUSH0 ADD SSTORE PUSH1 0x20 DUP3 ADD MLOAD DUP2 PUSH1 0x1 ADD SWAP1 DUP2 PUSH2 0x5E4 SWAP2 SWAP1 PUSH2 0x12E6 JUMP JUMPDEST POP PUSH1 0x40 DUP3 ADD MLOAD DUP2 PUSH1 0x2 ADD SSTORE SWAP1 POP POP POP POP JUMP JUMPDEST PUSH2 0x5FE PUSH2 0x8EA JUMP JUMPDEST PUSH0 PUSH1 0x5 PUSH0 DUP5 DUP2 MSTORE PUSH1 0x20 ADD SWAP1 DUP2 MSTORE PUSH1 0x20 ADD PUSH0 KECCAK256 PUSH0 ADD SLOAD SUB PUSH2 0x653 JUMPI PUSH1 0x40 MLOAD PUSH32 0x8C379A000000000000000000000000000000000000000000000000000000000 DUP2 MSTORE PUSH1 0x4 ADD PUSH2 0x64A SWAP1 PUSH2 0x13FF JUMP JUMPDEST PUSH1 0x40 MLOAD DUP1 SWAP2 SUB SWAP1 REVERT JUMPDEST PUSH1 0x5 PUSH0 DUP4 DUP2 MSTORE PUSH1 0x20 ADD SWAP1 DUP2 MSTORE PUSH1 0x20 ADD PUSH0 KECCAK256 PUSH1 0x40 MLOAD DUP1 PUSH1 0x60 ADD PUSH1 0x40 MSTORE SWAP1 DUP2 PUSH0 DUP3 ADD SLOAD DUP2 MSTORE PUSH1 0x20 ADD PUSH1 0x1 DUP3 ADD DUP1 SLOAD PUSH2 0x688 SWAP1 PUSH2 0xE8E JUMP JUMPDEST DUP1 PUSH1 0x1F ADD PUSH1 0x20 DUP1 SWAP2 DIV MUL PUSH1 0x20 ADD PUSH1 0x40 MLOAD SWAP1 DUP2 ADD PUSH1 0x40 MSTORE DUP1 SWAP3 SWAP2 SWAP1 DUP2 DUP2 MSTORE PUSH1 0x20 ADD DUP3 DUP1 SLOAD PUSH2 0x6B4 SWAP1 PUSH2 0xE8E JUMP JUMPDEST DUP1 ISZERO PUSH2 0x6FF JUMPI DUP1 PUSH1 0x1F LT PUSH2 0x6D6 JUMPI PUSH2 0x100 DUP1 DUP4 SLOAD DIV MUL DUP4 MSTORE SWAP2 PUSH1 0x20 ADD SWAP2 PUSH2 0x6FF JUMP JUMPDEST DUP3 ADD SWAP2 SWAP1 PUSH0 MSTORE PUSH1 0x20 PUSH0 KECCAK256 SWAP1 JUMPDEST DUP2 SLOAD DUP2 MSTORE SWAP1 PUSH1 0x1 ADD SWAP1 PUSH1 0x20 ADD DUP1 DUP4 GT PUSH2 0x6E2 JUMPI DUP3 SWAP1 SUB PUSH1 0x1F AND DUP3 ADD SWAP2 JUMPDEST POP POP POP POP POP DUP2 MSTORE PUSH1 0x20 ADD PUSH1 0x2 DUP3 ADD SLOAD DUP2 MSTORE POP POP SWAP1 POP SWAP2 SWAP1 POP JUMP JUMPDEST PUSH0 DUP1 SLOAD SWAP1 PUSH2 0x100 EXP SWAP1 DIV PUSH20 0xFFFFFFFFFFFFFFFFFFFFFFFFFFFFFFFFFFFFFFFF AND PUSH20 0xFFFFFFFFFFFFFFFFFFFFFFFFFFFFFFFFFFFFFFFF AND CALLER PUSH20 0xFFFFFFFFFFFFFFFFFFFFFFFFFFFFFFFFFFFFFFFF AND EQ PUSH2 0x7A6 JUMPI PUSH1 0x40 MLOAD PUSH32 0x8C379A000000000000000000000000000000000000000000000000000000000 DUP2 MSTORE PUSH1 0x4 ADD PUSH2 0x79D SWAP1 PUSH2 0xFD7 JUMP JUMPDEST PUSH1 0x40 MLOAD DUP1 SWAP2 SUB SWAP1 REVERT JUMPDEST PUSH1 0x1 SLOAD TIMESTAMP LT ISZERO DUP1 ISZERO PUSH2 0x7BA JUMPI POP PUSH1 0x2 SLOAD TIMESTAMP GT ISZERO JUMPDEST PUSH2 0x7F9 JUMPI PUSH1 0x40 MLOAD PUSH32 0x8C379A000000000000000000000000000000000000000000000000000000000 DUP2 MSTORE PUSH1 0x4 ADD PUSH2 0x7F0 SWAP1 PUSH2 0xD13 JUMP JUMPDEST PUSH1 0x40 MLOAD DUP1 SWAP2 SUB SWAP1 REVERT JUMPDEST TIMESTAMP PUSH1 0x2 DUP2 SWAP1 SSTORE POP PUSH32 0x768F23CC1EDB48955299FA848C47D3FDEBF8C6C78B4136045BA193EBAD23FB8D PUSH1 0x3 SLOAD PUSH1 0x4 PUSH1 0x2 SLOAD PUSH1 0x40 MLOAD PUSH2 0x838 SWAP4 SWAP3 SWAP2 SWAP1 PUSH2 0xF51 JUMP JUMPDEST PUSH1 0x40 MLOAD DUP1 SWAP2 SUB SWAP1 LOG1 JUMP JUMPDEST PUSH0 PUSH1 0x60 PUSH0 DUP1 PUSH1 0x3 SLOAD PUSH1 0x4 PUSH1 0x1 SLOAD PUSH1 0x2 SLOAD DUP3 DUP1 SLOAD PUSH2 0x85E SWAP1 PUSH2 0xE8E JUMP JUMPDEST DUP1 PUSH1 0x1F ADD PUSH1 0x20 DUP1 SWAP2 DIV MUL PUSH1 0x20 ADD PUSH1 0x40 MLOAD SWAP1 DUP2 ADD PUSH1 0x40 MSTORE DUP1 SWAP3 SWAP2 SWAP1 DUP2 DUP2 MSTORE PUSH1 0x20 ADD DUP3 DUP1 SLOAD PUSH2 0x88A SWAP1 PUSH2 0xE8E JUMP JUMPDEST DUP1 ISZERO PUSH2 0x8D5 JUMPI DUP1 PUSH1 0x1F LT PUSH2 0x8AC JUMPI PUSH2 0x100 DUP1 DUP4 SLOAD DIV MUL DUP4 MSTORE SWAP2 PUSH1 0x20 ADD SWAP2 PUSH2 0x8D5 JUMP JUMPDEST DUP3 ADD SWAP2 SWAP1 PUSH0 MSTORE PUSH1 0x20 PUSH0 KECCAK256 SWAP1 JUMPDEST DUP2 SLOAD DUP2 MSTORE SWAP1 PUSH1 0x1 ADD SWAP1 PUSH1 0x20 ADD DUP1 DUP4 GT PUSH2 0x8B8 JUMPI DUP3 SWAP1 SUB PUSH1 0x1F AND DUP3 ADD SWAP2 JUMPDEST POP POP POP POP POP SWAP3 POP SWAP4 POP SWAP4 POP SWAP4 POP SWAP4 POP SWAP1 SWAP2 SWAP3 SWAP4 JUMP JUMPDEST PUSH1 0x40 MLOAD DUP1 PUSH1 0x60 ADD PUSH1 0x40 MSTORE DUP1 PUSH0 DUP2 MSTORE PUSH1 0x20 ADD PUSH1 0x60 DUP2 MSTORE PUSH1 0x20 ADD PUSH0 DUP2 MSTORE POP SWAP1 JUMP JUMPDEST PUSH0 PUSH1 0x40 MLOAD SWAP1 POP SWAP1 JUMP JUMPDEST PUSH0 DUP1 REVERT JUMPDEST PUSH0 DUP1 REVERT JUMPDEST PUSH0 DUP2 SWAP1 POP SWAP2 SWAP1 POP JUMP JUMPDEST PUSH2 0x92C DUP2 PUSH2 0x91A JUMP JUMPDEST DUP2 EQ PUSH2 0x936 JUMPI PUSH0 DUP1 REVERT JUMPDEST POP JUMP JUMPDEST PUSH0 DUP2 CALLDATALOAD SWAP1 POP PUSH2 0x947 DUP2 PUSH2 0x923 JUMP JUMPDEST SWAP3 SWAP2 POP POP JUMP JUMPDEST PUSH0 PUSH1 0x20 DUP3 DUP5 SUB SLT ISZERO PUSH2 0x962 JUMPI PUSH2 0x961 PUSH2 0x912 JUMP JUMPDEST JUMPDEST PUSH0 PUSH2 0x96F DUP5 DUP3 DUP6 ADD PUSH2 0x939 JUMP JUMPDEST SWAP2 POP POP SWAP3 SWAP2 POP POP JUMP JUMPDEST PUSH0 DUP1 PUSH1 0x40 DUP4 DUP6 SUB SLT ISZERO PUSH2 0x98E JUMPI PUSH2 0x98D PUSH2 0x912 JUMP JUMPDEST JUMPDEST PUSH0 PUSH2 0x99B DUP6 DUP3 DUP7 ADD PUSH2 0x939 JUMP JUMPDEST SWAP3 POP POP PUSH1 0x20 PUSH2 0x9AC DUP6 DUP3 DUP7 ADD PUSH2 0x939 JUMP JUMPDEST SWAP2 POP POP SWAP3 POP SWAP3 SWAP1 POP JUMP JUMPDEST PUSH0 DUP1 REVERT JUMPDEST PUSH0 DUP1 REVERT JUMPDEST PUSH0 PUSH1 0x1F NOT PUSH1 0x1F DUP4 ADD AND SWAP1 POP SWAP2 SWAP1 POP JUMP JUMPDEST PUSH32 0x4E487B7100000000000000000000000000000000000000000000000000000000 PUSH0 MSTORE PUSH1 0x41 PUSH1 0x4 MSTORE PUSH1 0x24 PUSH0 REVERT JUMPDEST PUSH2 0xA04 DUP3 PUSH2 0x9BE JUMP JUMPDEST DUP2 ADD DUP2 DUP2 LT PUSH8 0xFFFFFFFFFFFFFFFF DUP3 GT OR ISZERO PUSH2 0xA23 JUMPI PUSH2 0xA22 PUSH2 0x9CE JUMP JUMPDEST JUMPDEST DUP1 PUSH1 0x40 MSTORE POP POP POP JUMP JUMPDEST PUSH0 PUSH2 0xA35 PUSH2 0x909 JUMP JUMPDEST SWAP1 POP PUSH2 0xA41 DUP3 DUP3 PUSH2 0x9FB JUMP JUMPDEST SWAP2 SWAP1 POP JUMP JUMPDEST PUSH0 PUSH8 0xFFFFFFFFFFFFFFFF DUP3 GT ISZERO PUSH2 0xA60 JUMPI PUSH2 0xA5F PUSH2 0x9CE JUMP JUMPDEST JUMPDEST PUSH2 0xA69 DUP3 PUSH2 0x9BE JUMP JUMPDEST SWAP1 POP PUSH1 0x20 DUP2 ADD SWAP1 POP SWAP2 SWAP1 POP JUMP JUMPDEST DUP3 DUP2 DUP4 CALLDATACOPY PUSH0 DUP4 DUP4 ADD MSTORE POP POP POP JUMP JUMPDEST PUSH0 PUSH2 0xA96 PUSH2 0xA91 DUP5 PUSH2 0xA46 JUMP JUMPDEST PUSH2 0xA2C JUMP JUMPDEST SWAP1 POP DUP3 DUP2 MSTORE PUSH1 0x20 DUP2 ADD DUP5 DUP5 DUP5 ADD GT ISZERO PUSH2 0xAB2 JUMPI PUSH2 0xAB1 PUSH2 0x9BA JUMP JUMPDEST JUMPDEST PUSH2 0xABD DUP5 DUP3 DUP6 PUSH2 0xA76 JUMP JUMPDEST POP SWAP4 SWAP3 POP POP POP JUMP JUMPDEST PUSH0 DUP3 PUSH1 0x1F DUP4 ADD SLT PUSH2 0xAD9 JUMPI PUSH2 0xAD8 PUSH2 0x9B6 JUMP JUMPDEST JUMPDEST DUP2 CALLDATALOAD PUSH2 0xAE9 DUP5 DUP3 PUSH1 0x20 DUP7 ADD PUSH2 0xA84 JUMP JUMPDEST SWAP2 POP POP SWAP3 SWAP2 POP POP JUMP JUMPDEST PUSH0 DUP1 PUSH1 0x40 DUP4 DUP6 SUB SLT ISZERO PUSH2 0xB08 JUMPI PUSH2 0xB07 PUSH2 0x912 JUMP JUMPDEST JUMPDEST PUSH0 PUSH2 0xB15 DUP6 DUP3 DUP7 ADD PUSH2 0x939 JUMP JUMPDEST SWAP3 POP POP PUSH1 0x20 DUP4 ADD CALLDATALOAD PUSH8 0xFFFFFFFFFFFFFFFF DUP2 GT ISZERO PUSH2 0xB36 JUMPI PUSH2 0xB35 PUSH2 0x916 JUMP JUMPDEST JUMPDEST PUSH2 0xB42 DUP6 DUP3 DUP7 ADD PUSH2 0xAC5 JUMP JUMPDEST SWAP2 POP POP SWAP3 POP SWAP3 SWAP1 POP JUMP JUMPDEST PUSH2 0xB55 DUP2 PUSH2 0x91A JUMP JUMPDEST DUP3 MSTORE POP POP JUMP JUMPDEST PUSH0 DUP2 MLOAD SWAP1 POP SWAP2 SWAP1 POP JUMP JUMPDEST PUSH0 DUP3 DUP3 MSTORE PUSH1 0x20 DUP3 ADD SWAP1 POP SWAP3 SWAP2 POP POP JUMP JUMPDEST DUP3 DUP2 DUP4 MCOPY PUSH0 DUP4 DUP4 ADD MSTORE POP POP POP JUMP JUMPDEST PUSH0 PUSH2 0xB8D DUP3 PUSH2 0xB5B JUMP JUMPDEST PUSH2 0xB97 DUP2 DUP6 PUSH2 0xB65 JUMP JUMPDEST SWAP4 POP PUSH2 0xBA7 DUP2 DUP6 PUSH1 0x20 DUP7 ADD PUSH2 0xB75 JUMP JUMPDEST PUSH2 0xBB0 DUP2 PUSH2 0x9BE JUMP JUMPDEST DUP5 ADD SWAP2 POP POP SWAP3 SWAP2 POP POP JUMP JUMPDEST PUSH0 PUSH1 0x60 DUP4 ADD PUSH0 DUP4 ADD MLOAD PUSH2 0xBD0 PUSH0 DUP7 ADD DUP3 PUSH2 0xB4C JUMP JUMPDEST POP PUSH1 0x20 DUP4 ADD MLOAD DUP5 DUP3 SUB PUSH1 0x20 DUP7 ADD MSTORE PUSH2 0xBE8 DUP3 DUP3 PUSH2 0xB83 JUMP JUMPDEST SWAP2 POP POP PUSH1 0x40 DUP4 ADD MLOAD PUSH2 0xBFD PUSH1 0x40 DUP7 ADD DUP3 PUSH2 0xB4C JUMP JUMPDEST POP DUP1 SWAP2 POP POP SWAP3 SWAP2 POP POP JUMP JUMPDEST PUSH0 PUSH1 0x20 DUP3 ADD SWAP1 POP DUP2 DUP2 SUB PUSH0 DUP4 ADD MSTORE PUSH2 0xC20 DUP2 DUP5 PUSH2 0xBBB JUMP JUMPDEST SWAP1 POP SWAP3 SWAP2 POP POP JUMP JUMPDEST PUSH2 0xC31 DUP2 PUSH2 0x91A JUMP JUMPDEST DUP3 MSTORE POP POP JUMP JUMPDEST PUSH0 DUP3 DUP3 MSTORE PUSH1 0x20 DUP3 ADD SWAP1 POP SWAP3 SWAP2 POP POP JUMP JUMPDEST PUSH0 PUSH2 0xC51 DUP3 PUSH2 0xB5B JUMP JUMPDEST PUSH2 0xC5B DUP2 DUP6 PUSH2 0xC37 JUMP JUMPDEST SWAP4 POP PUSH2 0xC6B DUP2 DUP6 PUSH1 0x20 DUP7 ADD PUSH2 0xB75 JUMP JUMPDEST PUSH2 0xC74 DUP2 PUSH2 0x9BE JUMP JUMPDEST DUP5 ADD SWAP2 POP POP SWAP3 SWAP2 POP POP JUMP JUMPDEST PUSH0 PUSH1 0x80 DUP3 ADD SWAP1 POP PUSH2 0xC92 PUSH0 DUP4 ADD DUP8 PUSH2 0xC28 JUMP JUMPDEST DUP2 DUP2 SUB PUSH1 0x20 DUP4 ADD MSTORE PUSH2 0xCA4 DUP2 DUP7 PUSH2 0xC47 JUMP JUMPDEST SWAP1 POP PUSH2 0xCB3 PUSH1 0x40 DUP4 ADD DUP6 PUSH2 0xC28 JUMP JUMPDEST PUSH2 0xCC0 PUSH1 0x60 DUP4 ADD DUP5 PUSH2 0xC28 JUMP JUMPDEST SWAP6 SWAP5 POP POP POP POP POP JUMP JUMPDEST PUSH32 0x456C656374696F6E206973206E6F74206F6E676F696E67000000000000000000 PUSH0 DUP3 ADD MSTORE POP JUMP JUMPDEST PUSH0 PUSH2 0xCFD PUSH1 0x17 DUP4 PUSH2 0xC37 JUMP JUMPDEST SWAP2 POP PUSH2 0xD08 DUP3 PUSH2 0xCC9 JUMP JUMPDEST PUSH1 0x20 DUP3 ADD SWAP1 POP SWAP2 SWAP1 POP JUMP JUMPDEST PUSH0 PUSH1 0x20 DUP3 ADD SWAP1 POP DUP2 DUP2 SUB PUSH0 DUP4 ADD MSTORE PUSH2 0xD2A DUP2 PUSH2 0xCF1 JUMP JUMPDEST SWAP1 POP SWAP2 SWAP1 POP JUMP JUMPDEST PUSH32 0x596F75206861766520616C726561647920766F74656400000000000000000000 PUSH0 DUP3 ADD MSTORE POP JUMP JUMPDEST PUSH0 PUSH2 0xD65 PUSH1 0x16 DUP4 PUSH2 0xC37 JUMP JUMPDEST SWAP2 POP PUSH2 0xD70 DUP3 PUSH2 0xD31 JUMP JUMPDEST PUSH1 0x20 DUP3 ADD SWAP1 POP SWAP2 SWAP1 POP JUMP JUMPDEST PUSH0 PUSH1 0x20 DUP3 ADD SWAP1 POP DUP2 DUP2 SUB PUSH0 DUP4 ADD MSTORE PUSH2 0xD92 DUP2 PUSH2 0xD59 JUMP JUMPDEST SWAP1 POP SWAP2 SWAP1 POP JUMP JUMPDEST PUSH32 0x43616E646964617465206E6F7420666F756E7400000000000000000000000000 PUSH0 DUP3 ADD MSTORE POP JUMP JUMPDEST PUSH0 PUSH2 0xDCD PUSH1 0x13 DUP4 PUSH2 0xC37 JUMP JUMPDEST SWAP2 POP PUSH2 0xDD8 DUP3 PUSH2 0xD99 JUMP JUMPDEST PUSH1 0x20 DUP3 ADD SWAP1 POP SWAP2 SWAP1 POP JUMP JUMPDEST PUSH0 PUSH1 0x20 DUP3 ADD SWAP1 POP DUP2 DUP2 SUB PUSH0 DUP4 ADD MSTORE PUSH2 0xDFA DUP2 PUSH2 0xDC1 JUMP JUMPDEST SWAP1 POP SWAP2 SWAP1 POP JUMP JUMPDEST PUSH32 0x4E487B7100000000000000000000000000000000000000000000000000000000 PUSH0 MSTORE PUSH1 0x11 PUSH1 0x4 MSTORE PUSH1 0x24 PUSH0 REVERT JUMPDEST PUSH0 PUSH2 0xE38 DUP3 PUSH2 0x91A JUMP JUMPDEST SWAP2 POP PUSH2 0xE43 DUP4 PUSH2 0x91A JUMP JUMPDEST SWAP3 POP DUP3 DUP3 ADD SWAP1 POP DUP1 DUP3 GT ISZERO PUSH2 0xE5B JUMPI PUSH2 0xE5A PUSH2 0xE01 JUMP JUMPDEST JUMPDEST SWAP3 SWAP2 POP POP JUMP JUMPDEST PUSH32 0x4E487B7100000000000000000000000000000000000000000000000000000000 PUSH0 MSTORE PUSH1 0x22 PUSH1 0x4 MSTORE PUSH1 0x24 PUSH0 REVERT JUMPDEST PUSH0 PUSH1 0x2 DUP3 DIV SWAP1 POP PUSH1 0x1 DUP3 AND DUP1 PUSH2 0xEA5 JUMPI PUSH1 0x7F DUP3 AND SWAP2 POP JUMPDEST PUSH1 0x20 DUP3 LT DUP2 SUB PUSH2 0xEB8 JUMPI PUSH2 0xEB7 PUSH2 0xE61 JUMP JUMPDEST JUMPDEST POP SWAP2 SWAP1 POP JUMP JUMPDEST PUSH0 DUP2 SWAP1 POP DUP2 PUSH0 MSTORE PUSH1 0x20 PUSH0 KECCAK256 SWAP1 POP SWAP2 SWAP1 POP JUMP JUMPDEST PUSH0 DUP2 SLOAD PUSH2 0xEDC DUP2 PUSH2 0xE8E JUMP JUMPDEST PUSH2 0xEE6 DUP2 DUP7 PUSH2 0xC37 JUMP JUMPDEST SWAP5 POP PUSH1 0x1 DUP3 AND PUSH0 DUP2 EQ PUSH2 0xF00 JUMPI PUSH1 0x1 DUP2 EQ PUSH2 0xF16 JUMPI PUSH2 0xF48 JUMP JUMPDEST PUSH1 0xFF NOT DUP4 AND DUP7 MSTORE DUP2 ISZERO ISZERO PUSH1 0x20 MUL DUP7 ADD SWAP4 POP PUSH2 0xF48 JUMP JUMPDEST PUSH2 0xF1F DUP6 PUSH2 0xEBE JUMP JUMPDEST PUSH0 JUMPDEST DUP4 DUP2 LT ISZERO PUSH2 0xF40 JUMPI DUP2 SLOAD DUP2 DUP10 ADD MSTORE PUSH1 0x1 DUP3 ADD SWAP2 POP PUSH1 0x20 DUP2 ADD SWAP1 POP PUSH2 0xF21 JUMP JUMPDEST DUP1 DUP9 ADD SWAP6 POP POP POP JUMPDEST POP POP POP SWAP3 SWAP2 POP POP JUMP JUMPDEST PUSH0 PUSH1 0x60 DUP3 ADD SWAP1 POP PUSH2 0xF64 PUSH0 DUP4 ADD DUP7 PUSH2 0xC28 JUMP JUMPDEST DUP2 DUP2 SUB PUSH1 0x20 DUP4 ADD MSTORE PUSH2 0xF76 DUP2 DUP6 PUSH2 0xED0 JUMP JUMPDEST SWAP1 POP PUSH2 0xF85 PUSH1 0x40 DUP4 ADD DUP5 PUSH2 0xC28 JUMP JUMPDEST SWAP5 SWAP4 POP POP POP POP JUMP JUMPDEST PUSH32 0x596F757220617265206E6F7420746865206F776E657200000000000000000000 PUSH0 DUP3 ADD MSTORE POP JUMP JUMPDEST PUSH0 PUSH2 0xFC1 PUSH1 0x16 DUP4 PUSH2 0xC37 JUMP JUMPDEST SWAP2 POP PUSH2 0xFCC DUP3 PUSH2 0xF8D JUMP JUMPDEST PUSH1 0x20 DUP3 ADD SWAP1 POP SWAP2 SWAP1 POP JUMP JUMPDEST PUSH0 PUSH1 0x20 DUP3 ADD SWAP1 POP DUP2 DUP2 SUB PUSH0 DUP4 ADD MSTORE PUSH2 0xFEE DUP2 PUSH2 0xFB5 JUMP JUMPDEST SWAP1 POP SWAP2 SWAP1 POP JUMP JUMPDEST PUSH32 0x53746172742074696D65206D757374206265206C657373207468616E20656E64 PUSH0 DUP3 ADD MSTORE PUSH32 0x2074696D65000000000000000000000000000000000000000000000000000000 PUSH1 0x20 DUP3 ADD MSTORE POP JUMP JUMPDEST PUSH0 PUSH2 0x104F PUSH1 0x25 DUP4 PUSH2 0xC37 JUMP JUMPDEST SWAP2 POP PUSH2 0x105A DUP3 PUSH2 0xFF5 JUMP JUMPDEST PUSH1 0x40 DUP3 ADD SWAP1 POP SWAP2 SWAP1 POP JUMP JUMPDEST PUSH0 PUSH1 0x20 DUP3 ADD SWAP1 POP DUP2 DUP2 SUB PUSH0 DUP4 ADD MSTORE PUSH2 0x107C DUP2 PUSH2 0x1043 JUMP JUMPDEST SWAP1 POP SWAP2 SWAP1 POP JUMP JUMPDEST PUSH0 PUSH1 0x80 DUP3 ADD SWAP1 POP PUSH2 0x1096 PUSH0 DUP4 ADD DUP8 PUSH2 0xC28 JUMP JUMPDEST DUP2 DUP2 SUB PUSH1 0x20 DUP4 ADD MSTORE PUSH2 0x10A8 DUP2 DUP7 PUSH2 0xED0 JUMP JUMPDEST SWAP1 POP PUSH2 0x10B7 PUSH1 0x40 DUP4 ADD DUP6 PUSH2 0xC28 JUMP JUMPDEST PUSH2 0x10C4 PUSH1 0x60 DUP4 ADD DUP5 PUSH2 0xC28 JUMP JUMPDEST SWAP6 SWAP5 POP POP POP POP POP JUMP JUMPDEST PUSH32 0x596F75206861766520616C72656164792061646465642061732063616E646964 PUSH0 DUP3 ADD MSTORE PUSH32 0x6174650000000000000000000000000000000000000000000000000000000000 PUSH1 0x20 DUP3 ADD MSTORE POP JUMP JUMPDEST PUSH0 PUSH2 0x1127 PUSH1 0x23 DUP4 PUSH2 0xC37 JUMP JUMPDEST SWAP2 POP PUSH2 0x1132 DUP3 PUSH2 0x10CD JUMP JUMPDEST PUSH1 0x40 DUP3 ADD SWAP1 POP SWAP2 SWAP1 POP JUMP JUMPDEST PUSH0 PUSH1 0x20 DUP3 ADD SWAP1 POP DUP2 DUP2 SUB PUSH0 DUP4 ADD MSTORE PUSH2 0x1154 DUP2 PUSH2 0x111B JUMP JUMPDEST SWAP1 POP SWAP2 SWAP1 POP JUMP JUMPDEST PUSH0 PUSH1 0x20 PUSH1 0x1F DUP4 ADD DIV SWAP1 POP SWAP2 SWAP1 POP JUMP JUMPDEST PUSH0 DUP3 DUP3 SHL SWAP1 POP SWAP3 SWAP2 POP POP JUMP JUMPDEST PUSH0 PUSH1 0x8 DUP4 MUL PUSH2 0x11A5 PUSH32 0xFFFFFFFFFFFFFFFFFFFFFFFFFFFFFFFFFFFFFFFFFFFFFFFFFFFFFFFFFFFFFFFF DUP3 PUSH2 0x116A JUMP JUMPDEST PUSH2 0x11AF DUP7 DUP4 PUSH2 0x116A JUMP JUMPDEST SWAP6 POP DUP1 NOT DUP5 AND SWAP4 POP DUP1 DUP7 AND DUP5 OR SWAP3 POP POP POP SWAP4 SWAP3 POP POP POP JUMP JUMPDEST PUSH0 DUP2 SWAP1 POP SWAP2 SWAP1 POP JUMP JUMPDEST PUSH0 PUSH2 0x11EA PUSH2 0x11E5 PUSH2 0x11E0 DUP5 PUSH2 0x91A JUMP JUMPDEST PUSH2 0x11C7 JUMP JUMPDEST PUSH2 0x91A JUMP JUMPDEST SWAP1 POP SWAP2 SWAP1 POP JUMP JUMPDEST PUSH0 DUP2 SWAP1 POP SWAP2 SWAP1 POP JUMP JUMPDEST PUSH2 0x1203 DUP4 PUSH2 0x11D0 JUMP JUMPDEST PUSH2 0x1217 PUSH2 0x120F DUP3 PUSH2 0x11F1 JUMP JUMPDEST DUP5 DUP5 SLOAD PUSH2 0x1176 JUMP JUMPDEST DUP3 SSTORE POP POP POP POP JUMP JUMPDEST PUSH0 SWAP1 JUMP JUMPDEST PUSH2 0x122B PUSH2 0x121F JUMP JUMPDEST PUSH2 0x1236 DUP2 DUP5 DUP5 PUSH2 0x11FA JUMP JUMPDEST POP POP POP JUMP JUMPDEST JUMPDEST DUP2 DUP2 LT ISZERO PUSH2 0x1259 JUMPI PUSH2 0x124E PUSH0 DUP3 PUSH2 0x1223 JUMP JUMPDEST PUSH1 0x1 DUP2 ADD SWAP1 POP PUSH2 0x123C JUMP JUMPDEST POP POP JUMP JUMPDEST PUSH1 0x1F DUP3 GT ISZERO PUSH2 0x129E JUMPI PUSH2 0x126F DUP2 PUSH2 0xEBE JUMP JUMPDEST PUSH2 0x1278 DUP5 PUSH2 0x115B JUMP JUMPDEST DUP2 ADD PUSH1 0x20 DUP6 LT ISZERO PUSH2 0x1287 JUMPI DUP2 SWAP1 POP JUMPDEST PUSH2 0x129B PUSH2 0x1293 DUP6 PUSH2 0x115B JUMP JUMPDEST DUP4 ADD DUP3 PUSH2 0x123B JUMP JUMPDEST POP POP JUMPDEST POP POP POP JUMP JUMPDEST PUSH0 DUP3 DUP3 SHR SWAP1 POP SWAP3 SWAP2 POP POP JUMP JUMPDEST PUSH0 PUSH2 0x12BE PUSH0 NOT DUP5 PUSH1 0x8 MUL PUSH2 0x12A3 JUMP JUMPDEST NOT DUP1 DUP4 AND SWAP2 POP POP SWAP3 SWAP2 POP POP JUMP JUMPDEST PUSH0 PUSH2 0x12D6 DUP4 DUP4 PUSH2 0x12AF JUMP JUMPDEST SWAP2 POP DUP3 PUSH1 0x2 MUL DUP3 OR SWAP1 POP SWAP3 SWAP2 POP POP JUMP JUMPDEST PUSH2 0x12EF DUP3 PUSH2 0xB5B JUMP JUMPDEST PUSH8 0xFFFFFFFFFFFFFFFF DUP2 GT ISZERO PUSH2 0x1308 JUMPI PUSH2 0x1307 PUSH2 0x9CE JUMP JUMPDEST JUMPDEST PUSH2 0x1312 DUP3 SLOAD PUSH2 0xE8E JUMP JUMPDEST PUSH2 0x131D DUP3 DUP3 DUP6 PUSH2 0x125D JUMP JUMPDEST PUSH0 PUSH1 0x20 SWAP1 POP PUSH1 0x1F DUP4 GT PUSH1 0x1 DUP2 EQ PUSH2 0x134E JUMPI PUSH0 DUP5 ISZERO PUSH2 0x133C JUMPI DUP3 DUP8 ADD MLOAD SWAP1 POP JUMPDEST PUSH2 0x1346 DUP6 DUP3 PUSH2 0x12CB JUMP JUMPDEST DUP7 SSTORE POP PUSH2 0x13AD JUMP JUMPDEST PUSH1 0x1F NOT DUP5 AND PUSH2 0x135C DUP7 PUSH2 0xEBE JUMP JUMPDEST PUSH0 JUMPDEST DUP3 DUP2 LT ISZERO PUSH2 0x1383 JUMPI DUP5 DUP10 ADD MLOAD DUP3 SSTORE PUSH1 0x1 DUP3 ADD SWAP2 POP PUSH1 0x20 DUP6 ADD SWAP5 POP PUSH1 0x20 DUP2 ADD SWAP1 POP PUSH2 0x135E JUMP JUMPDEST DUP7 DUP4 LT ISZERO PUSH2 0x13A0 JUMPI DUP5 DUP10 ADD MLOAD PUSH2 0x139C PUSH1 0x1F DUP10 AND DUP3 PUSH2 0x12AF JUMP JUMPDEST DUP4 SSTORE POP JUMPDEST PUSH1 0x1 PUSH1 0x2 DUP9 MUL ADD DUP9 SSTORE POP POP POP JUMPDEST POP POP POP POP POP POP JUMP JUMPDEST PUSH32 0x43616E646964617465204E6F7420466F756E6400000000000000000000000000 PUSH0 DUP3 ADD MSTORE POP JUMP JUMPDEST PUSH0 PUSH2 0x13E9 PUSH1 0x13 DUP4 PUSH2 0xC37 JUMP JUMPDEST SWAP2 POP PUSH2 0x13F4 DUP3 PUSH2 0x13B5 JUMP JUMPDEST PUSH1 0x20 DUP3 ADD SWAP1 POP SWAP2 SWAP1 POP JUMP JUMPDEST PUSH0 PUSH1 0x20 DUP3 ADD SWAP1 POP DUP2 DUP2 SUB PUSH0 DUP4 ADD MSTORE PUSH2 0x1416 DUP2 PUSH2 0x13DD JUMP JUMPDEST SWAP1 POP SWAP2 SWAP1 POP JUMP INVALID LOG2 PUSH5 0x6970667358 0x22 SLT KECCAK256 0xB7 BASEFEE TSTORE PUSH17 0xDB312BE1737C49042654F8DB2F272EB1F9 0xFB REVERT PUSH9 0xCB31F72E6B360E8664 PUSH20 0x6F6C634300081A00330000000000000000000000 "
				},
				"gasEstimates": {
					"creation": {
						"codeDepositCost": "1040600",
						"executionCost": "infinite",
						"totalCost": "infinite"
					},
					"external": {
						"addCandidate(uint256,string)": "infinite",
						"endElection()": "infinite",
						"getCandidate(uint256)": "infinite",
						"getElectionDetails()": "infinite",
						"startElection(uint256,uint256)": "infinite",
						"vote(uint256)": "infinite"
					}
				},
				"methodIdentifiers": {
					"addCandidate(uint256,string)": "1750a3d0",
					"endElection()": "59f78468",
					"getCandidate(uint256)": "35b8e820",
					"getElectionDetails()": "ed836bc3",
					"startElection(uint256,uint256)": "0c54b463",
					"vote(uint256)": "0121b93f"
				}
			},
			"storageLayout": {
				"storage": [
					{
						"astId": 10,
						"contract": "VotingSystem/VotingSystem.sol:DecentralizedVotingSystem",
						"label": "owner",
						"offset": 0,
						"slot": "0",
						"type": "t_address"
					},
					{
						"astId": 12,
						"contract": "VotingSystem/VotingSystem.sol:DecentralizedVotingSystem",
						"label": "startTime",
						"offset": 0,
						"slot": "1",
						"type": "t_uint256"
					},
					{
						"astId": 14,
						"contract": "VotingSystem/VotingSystem.sol:DecentralizedVotingSystem",
						"label": "endTime",
						"offset": 0,
						"slot": "2",
						"type": "t_uint256"
					},
					{
						"astId": 16,
						"contract": "VotingSystem/VotingSystem.sol:DecentralizedVotingSystem",
						"label": "electionId",
						"offset": 0,
						"slot": "3",
						"type": "t_uint256"
					},
					{
						"astId": 18,
						"contract": "VotingSystem/VotingSystem.sol:DecentralizedVotingSystem",
						"label": "electionName",
						"offset": 0,
						"slot": "4",
						"type": "t_string_storage"
					},
					{
						"astId": 23,
						"contract": "VotingSystem/VotingSystem.sol:DecentralizedVotingSystem",
						"label": "candidates",
						"offset": 0,
						"slot": "5",
						"type": "t_mapping(t_uint256,t_struct(Candidate)8_storage)"
					},
					{
						"astId": 27,
						"contract": "VotingSystem/VotingSystem.sol:DecentralizedVotingSystem",
						"label": "hasVoted",
						"offset": 0,
						"slot": "6",
						"type": "t_mapping(t_address,t_bool)"
					}
				],
				"types": {
					"t_address": {
						"encoding": "inplace",
						"label": "address",
						"numberOfBytes": "20"
					},
					"t_bool": {
						"encoding": "inplace",
						"label": "bool",
						"numberOfBytes": "1"
					},
					"t_mapping(t_address,t_bool)": {
						"encoding": "mapping",
						"key": "t_address",
						"label": "mapping(address => bool)",
						"numberOfBytes": "32",
						"value": "t_bool"
					},
					"t_mapping(t_uint256,t_struct(Candidate)8_storage)": {
						"encoding": "mapping",
						"key": "t_uint256",
						"label": "mapping(uint256 => struct DecentralizedVotingSystem.Candidate)",
						"numberOfBytes": "32",
						"value": "t_struct(Candidate)8_storage"
					},
					"t_string_storage": {
						"encoding": "bytes",
						"label": "string",
						"numberOfBytes": "32"
					},
					"t_struct(Candidate)8_storage": {
						"encoding": "inplace",
						"label": "struct DecentralizedVotingSystem.Candidate",
						"members": [
							{
								"astId": 3,
								"contract": "VotingSystem/VotingSystem.sol:DecentralizedVotingSystem",
								"label": "Id",
								"offset": 0,
								"slot": "0",
								"type": "t_uint256"
							},
							{
								"astId": 5,
								"contract": "VotingSystem/VotingSystem.sol:DecentralizedVotingSystem",
								"label": "name",
								"offset": 0,
								"slot": "1",
								"type": "t_string_storage"
							},
							{
								"astId": 7,
								"contract": "VotingSystem/VotingSystem.sol:DecentralizedVotingSystem",
								"label": "voteCount",
								"offset": 0,
								"slot": "2",
								"type": "t_uint256"
							}
						],
						"numberOfBytes": "96"
					},
					"t_uint256": {
						"encoding": "inplace",
						"label": "uint256",
						"numberOfBytes": "32"
					}
				}
			},
			"userdoc": {
				"kind": "user",
				"methods": {},
				"version": 1
			}
		}
	}
}