{
	"data": {
		"bytecode": {
			"linkReferences": {},
			"object": "6080604052348015600e575f80fd5b50610be38061001c5f395ff3fe608060405234801561000f575f80fd5b5060043610610034575f3560e01c8063642f9163146100385780636bed43901461006a575b5f80fd5b610052600480360381019061004d91906103a8565b610086565b60405161006193929190610509565b60405180910390f35b610084600480360381019061007f919061073c565b6101f2565b005b60605f60605f805f8681526020019081526020015f205f0180546100a990610805565b9050116100eb576040517f08c379a00000000000000000000000000000000000000000000000000000000081526004016100e29061087f565b60405180910390fd5b5f805f8681526020019081526020015f209050805f0181600101548260020182805461011690610805565b80601f016020809104026020016040519081016040528092919081815260200182805461014290610805565b801561018d5780601f106101645761010080835404028352916020019161018d565b820191905f5260205f20905b81548152906001019060200180831161017057829003601f168201915b50505050509250808054806020026020016040519081016040528092919081815260200182805480156101dd57602002820191905f5260205f20905b8154815260200190600101908083116101c9575b50505050509050935093509350509193909250565b835f805f8381526020019081526020015f205f01805461021190610805565b905014610253576040517f08c379a000000000000000000000000000000000000000000000000000000000815260040161024a906108e7565b60405180910390fd5b6040518060600160405280858152602001848152602001838152505f808781526020019081526020015f205f820151815f0190816102919190610aa2565b506020820151816001015560408201518160020190805190602001906102b89291906102fe565b509050507fb72ee84ef937eaea5b974fd7578aeb8437a4d8cd7a7062d03255206e0155b3548484876040516102ef93929190610b71565b60405180910390a15050505050565b828054828255905f5260205f20908101928215610338579160200282015b8281111561033757825182559160200191906001019061031c565b5b5090506103459190610349565b5090565b5b80821115610360575f815f90555060010161034a565b5090565b5f604051905090565b5f80fd5b5f80fd5b5f819050919050565b61038781610375565b8114610391575f80fd5b50565b5f813590506103a28161037e565b92915050565b5f602082840312156103bd576103bc61036d565b5b5f6103ca84828501610394565b91505092915050565b5f81519050919050565b5f82825260208201905092915050565b8281835e5f83830152505050565b5f601f19601f8301169050919050565b5f610415826103d3565b61041f81856103dd565b935061042f8185602086016103ed565b610438816103fb565b840191505092915050565b61044c81610375565b82525050565b5f81519050919050565b5f82825260208201905092915050565b5f819050602082019050919050565b61048481610375565b82525050565b5f610495838361047b565b60208301905092915050565b5f602082019050919050565b5f6104b782610452565b6104c1818561045c565b93506104cc8361046c565b805f5b838110156104fc5781516104e3888261048a565b97506104ee836104a1565b9250506001810190506104cf565b5085935050505092915050565b5f6060820190508181035f830152610521818661040b565b90506105306020830185610443565b818103604083015261054281846104ad565b9050949350505050565b5f80fd5b5f80fd5b7f4e487b71000000000000000000000000000000000000000000000000000000005f52604160045260245ffd5b61058a826103fb565b810181811067ffffffffffffffff821117156105a9576105a8610554565b5b80604052505050565b5f6105bb610364565b90506105c78282610581565b919050565b5f67ffffffffffffffff8211156105e6576105e5610554565b5b6105ef826103fb565b9050602081019050919050565b828183375f83830152505050565b5f61061c610617846105cc565b6105b2565b90508281526020810184848401111561063857610637610550565b5b6106438482856105fc565b509392505050565b5f82601f83011261065f5761065e61054c565b5b813561066f84826020860161060a565b91505092915050565b5f67ffffffffffffffff82111561069257610691610554565b5b602082029050602081019050919050565b5f80fd5b5f6106b96106b484610678565b6105b2565b905080838252602082019050602084028301858111156106dc576106db6106a3565b5b835b8181101561070557806106f18882610394565b8452602084019350506020810190506106de565b5050509392505050565b5f82601f8301126107235761072261054c565b5b81356107338482602086016106a7565b91505092915050565b5f805f80608085870312156107545761075361036d565b5b5f61076187828801610394565b945050602085013567ffffffffffffffff81111561078257610781610371565b5b61078e8782880161064b565b935050604061079f87828801610394565b925050606085013567ffffffffffffffff8111156107c0576107bf610371565b5b6107cc8782880161070f565b91505092959194509250565b7f4e487b71000000000000000000000000000000000000000000000000000000005f52602260045260245ffd5b5f600282049050600182168061081c57607f821691505b60208210810361082f5761082e6107d8565b5b50919050565b7f53747564656e74206e6f7420666f756e642100000000000000000000000000005f82015250565b5f6108696012836103dd565b915061087482610835565b602082019050919050565b5f6020820190508181035f8301526108968161085d565b9050919050565b7f546869732053747564656e7420697320616c72656164792065786974730000005f82015250565b5f6108d1601d836103dd565b91506108dc8261089d565b602082019050919050565b5f6020820190508181035f8301526108fe816108c5565b9050919050565b5f819050815f5260205f209050919050565b5f6020601f8301049050919050565b5f82821b905092915050565b5f600883026109617fffffffffffffffffffffffffffffffffffffffffffffffffffffffffffffffff82610926565b61096b8683610926565b95508019841693508086168417925050509392505050565b5f819050919050565b5f6109a66109a161099c84610375565b610983565b610375565b9050919050565b5f819050919050565b6109bf8361098c565b6109d36109cb826109ad565b848454610932565b825550505050565b5f90565b6109e76109db565b6109f28184846109b6565b505050565b5b81811015610a1557610a0a5f826109df565b6001810190506109f8565b5050565b601f821115610a5a57610a2b81610905565b610a3484610917565b81016020851015610a43578190505b610a57610a4f85610917565b8301826109f7565b50505b505050565b5f82821c905092915050565b5f610a7a5f1984600802610a5f565b1980831691505092915050565b5f610a928383610a6b565b9150826002028217905092915050565b610aab826103d3565b67ffffffffffffffff811115610ac457610ac3610554565b5b610ace8254610805565b610ad9828285610a19565b5f60209050601f831160018114610b0a575f8415610af8578287015190505b610b028582610a87565b865550610b69565b601f198416610b1886610905565b5f5b82811015610b3f57848901518255600182019150602085019450602081019050610b1a565b86831015610b5c5784890151610b58601f891682610a6b565b8355505b6001600288020188555050505b505050505050565b5f6060820190508181035f830152610b89818661040b565b9050610b986020830185610443565b610ba56040830184610443565b94935050505056fea2646970667358221220158b36ce2faa7b31b767c548aad0ff611fcdf0eb17860b1f0bc465b31b3260a264736f6c634300081a0033",
			"opcodes": "PUSH1 0x80 PUSH1 0x40 MSTORE CALLVALUE DUP1 ISZERO PUSH1 0xE JUMPI PUSH0 DUP1 REVERT JUMPDEST POP PUSH2 0xBE3 DUP1 PUSH2 0x1C PUSH0 CODECOPY PUSH0 RETURN INVALID PUSH1 0x80 PUSH1 0x40 MSTORE CALLVALUE DUP1 ISZERO PUSH2 0xF JUMPI PUSH0 DUP1 REVERT JUMPDEST POP PUSH1 0x4 CALLDATASIZE LT PUSH2 0x34 JUMPI PUSH0 CALLDATALOAD PUSH1 0xE0 SHR DUP1 PUSH4 0x642F9163 EQ PUSH2 0x38 JUMPI DUP1 PUSH4 0x6BED4390 EQ PUSH2 0x6A JUMPI JUMPDEST PUSH0 DUP1 REVERT JUMPDEST PUSH2 0x52 PUSH1 0x4 DUP1 CALLDATASIZE SUB DUP2 ADD SWAP1 PUSH2 0x4D SWAP2 SWAP1 PUSH2 0x3A8 JUMP JUMPDEST PUSH2 0x86 JUMP JUMPDEST PUSH1 0x40 MLOAD PUSH2 0x61 SWAP4 SWAP3 SWAP2 SWAP1 PUSH2 0x509 JUMP JUMPDEST PUSH1 0x40 MLOAD DUP1 SWAP2 SUB SWAP1 RETURN JUMPDEST PUSH2 0x84 PUSH1 0x4 DUP1 CALLDATASIZE SUB DUP2 ADD SWAP1 PUSH2 0x7F SWAP2 SWAP1 PUSH2 0x73C JUMP JUMPDEST PUSH2 0x1F2 JUMP JUMPDEST STOP JUMPDEST PUSH1 0x60 PUSH0 PUSH1 0x60 PUSH0 DUP1 PUSH0 DUP7 DUP2 MSTORE PUSH1 0x20 ADD SWAP1 DUP2 MSTORE PUSH1 0x20 ADD PUSH0 KECCAK256 PUSH0 ADD DUP1 SLOAD PUSH2 0xA9 SWAP1 PUSH2 0x805 JUMP JUMPDEST SWAP1 POP GT PUSH2 0xEB JUMPI PUSH1 0x40 MLOAD PUSH32 0x8C379A000000000000000000000000000000000000000000000000000000000 DUP2 MSTORE PUSH1 0x4 ADD PUSH2 0xE2 SWAP1 PUSH2 0x87F JUMP JUMPDEST PUSH1 0x40 MLOAD DUP1 SWAP2 SUB SWAP1 REVERT JUMPDEST PUSH0 DUP1 PUSH0 DUP7 DUP2 MSTORE PUSH1 0x20 ADD SWAP1 DUP2 MSTORE PUSH1 0x20 ADD PUSH0 KECCAK256 SWAP1 POP DUP1 PUSH0 ADD DUP2 PUSH1 0x1 ADD SLOAD DUP3 PUSH1 0x2 ADD DUP3 DUP1 SLOAD PUSH2 0x116 SWAP1 PUSH2 0x805 JUMP JUMPDEST DUP1 PUSH1 0x1F ADD PUSH1 0x20 DUP1 SWAP2 DIV MUL PUSH1 0x20 ADD PUSH1 0x40 MLOAD SWAP1 DUP2 ADD PUSH1 0x40 MSTORE DUP1 SWAP3 SWAP2 SWAP1 DUP2 DUP2 MSTORE PUSH1 0x20 ADD DUP3 DUP1 SLOAD PUSH2 0x142 SWAP1 PUSH2 0x805 JUMP JUMPDEST DUP1 ISZERO PUSH2 0x18D JUMPI DUP1 PUSH1 0x1F LT PUSH2 0x164 JUMPI PUSH2 0x100 DUP1 DUP4 SLOAD DIV MUL DUP4 MSTORE SWAP2 PUSH1 0x20 ADD SWAP2 PUSH2 0x18D JUMP JUMPDEST DUP3 ADD SWAP2 SWAP1 PUSH0 MSTORE PUSH1 0x20 PUSH0 KECCAK256 SWAP1 JUMPDEST DUP2 SLOAD DUP2 MSTORE SWAP1 PUSH1 0x1 ADD SWAP1 PUSH1 0x20 ADD DUP1 DUP4 GT PUSH2 0x170 JUMPI DUP3 SWAP1 SUB PUSH1 0x1F AND DUP3 ADD SWAP2 JUMPDEST POP POP POP POP POP SWAP3 POP DUP1 DUP1 SLOAD DUP1 PUSH1 0x20 MUL PUSH1 0x20 ADD PUSH1 0x40 MLOAD SWAP1 DUP2 ADD PUSH1 0x40 MSTORE DUP1 SWAP3 SWAP2 SWAP1 DUP2 DUP2 MSTORE PUSH1 0x20 ADD DUP3 DUP1 SLOAD DUP1 ISZERO PUSH2 0x1DD JUMPI PUSH1 0x20 MUL DUP3 ADD SWAP2 SWAP1 PUSH0 MSTORE PUSH1 0x20 PUSH0 KECCAK256 SWAP1 JUMPDEST DUP2 SLOAD DUP2 MSTORE PUSH1 0x20 ADD SWAP1 PUSH1 0x1 ADD SWAP1 DUP1 DUP4 GT PUSH2 0x1C9 JUMPI JUMPDEST POP POP POP POP POP SWAP1 POP SWAP4 POP SWAP4 POP SWAP4 POP POP SWAP2 SWAP4 SWAP1 SWAP3 POP JUMP JUMPDEST DUP4 PUSH0 DUP1 PUSH0 DUP4 DUP2 MSTORE PUSH1 0x20 ADD SWAP1 DUP2 MSTORE PUSH1 0x20 ADD PUSH0 KECCAK256 PUSH0 ADD DUP1 SLOAD PUSH2 0x211 SWAP1 PUSH2 0x805 JUMP JUMPDEST SWAP1 POP EQ PUSH2 0x253 JUMPI PUSH1 0x40 MLOAD PUSH32 0x8C379A000000000000000000000000000000000000000000000000000000000 DUP2 MSTORE PUSH1 0x4 ADD PUSH2 0x24A SWAP1 PUSH2 0x8E7 JUMP JUMPDEST PUSH1 0x40 MLOAD DUP1 SWAP2 SUB SWAP1 REVERT JUMPDEST PUSH1 0x40 MLOAD DUP1 PUSH1 0x60 ADD PUSH1 0x40 MSTORE DUP1 DUP6 DUP2 MSTORE PUSH1 0x20 ADD DUP5 DUP2 MSTORE PUSH1 0x20 ADD DUP4 DUP2 MSTORE POP PUSH0 DUP1 DUP8 DUP2 MSTORE PUSH1 0x20 ADD SWAP1 DUP2 MSTORE PUSH1 0x20 ADD PUSH0 KECCAK256 PUSH0 DUP3 ADD MLOAD DUP2 PUSH0 ADD SWAP1 DUP2 PUSH2 0x291 SWAP2 SWAP1 PUSH2 0xAA2 JUMP JUMPDEST POP PUSH1 0x20 DUP3 ADD MLOAD DUP2 PUSH1 0x1 ADD SSTORE PUSH1 0x40 DUP3 ADD MLOAD DUP2 PUSH1 0x2 ADD SWAP1 DUP1 MLOAD SWAP1 PUSH1 0x20 ADD SWAP1 PUSH2 0x2B8 SWAP3 SWAP2 SWAP1 PUSH2 0x2FE JUMP JUMPDEST POP SWAP1 POP POP PUSH32 0xB72EE84EF937EAEA5B974FD7578AEB8437A4D8CD7A7062D03255206E0155B354 DUP5 DUP5 DUP8 PUSH1 0x40 MLOAD PUSH2 0x2EF SWAP4 SWAP3 SWAP2 SWAP1 PUSH2 0xB71 JUMP JUMPDEST PUSH1 0x40 MLOAD DUP1 SWAP2 SUB SWAP1 LOG1 POP POP POP POP POP JUMP JUMPDEST DUP3 DUP1 SLOAD DUP3 DUP3 SSTORE SWAP1 PUSH0 MSTORE PUSH1 0x20 PUSH0 KECCAK256 SWAP1 DUP2 ADD SWAP3 DUP3 ISZERO PUSH2 0x338 JUMPI SWAP2 PUSH1 0x20 MUL DUP3 ADD JUMPDEST DUP3 DUP2 GT ISZERO PUSH2 0x337 JUMPI DUP3 MLOAD DUP3 SSTORE SWAP2 PUSH1 0x20 ADD SWAP2 SWAP1 PUSH1 0x1 ADD SWAP1 PUSH2 0x31C JUMP JUMPDEST JUMPDEST POP SWAP1 POP PUSH2 0x345 SWAP2 SWAP1 PUSH2 0x349 JUMP JUMPDEST POP SWAP1 JUMP JUMPDEST JUMPDEST DUP1 DUP3 GT ISZERO PUSH2 0x360 JUMPI PUSH0 DUP2 PUSH0 SWAP1 SSTORE POP PUSH1 0x1 ADD PUSH2 0x34A JUMP JUMPDEST POP SWAP1 JUMP JUMPDEST PUSH0 PUSH1 0x40 MLOAD SWAP1 POP SWAP1 JUMP JUMPDEST PUSH0 DUP1 REVERT JUMPDEST PUSH0 DUP1 REVERT JUMPDEST PUSH0 DUP2 SWAP1 POP SWAP2 SWAP1 POP JUMP JUMPDEST PUSH2 0x387 DUP2 PUSH2 0x375 JUMP JUMPDEST DUP2 EQ PUSH2 0x391 JUMPI PUSH0 DUP1 REVERT JUMPDEST POP JUMP JUMPDEST PUSH0 DUP2 CALLDATALOAD SWAP1 POP PUSH2 0x3A2 DUP2 PUSH2 0x37E JUMP JUMPDEST SWAP3 SWAP2 POP POP JUMP JUMPDEST PUSH0 PUSH1 0x20 DUP3 DUP5 SUB SLT ISZERO PUSH2 0x3BD JUMPI PUSH2 0x3BC PUSH2 0x36D JUMP JUMPDEST JUMPDEST PUSH0 PUSH2 0x3CA DUP5 DUP3 DUP6 ADD PUSH2 0x394 JUMP JUMPDEST SWAP2 POP POP SWAP3 SWAP2 POP POP JUMP JUMPDEST PUSH0 DUP2 MLOAD SWAP1 POP SWAP2 SWAP1 POP JUMP JUMPDEST PUSH0 DUP3 DUP3 MSTORE PUSH1 0x20 DUP3 ADD SWAP1 POP SWAP3 SWAP2 POP POP JUMP JUMPDEST DUP3 DUP2 DUP4 MCOPY PUSH0 DUP4 DUP4 ADD MSTORE POP POP POP JUMP JUMPDEST PUSH0 PUSH1 0x1F NOT PUSH1 0x1F DUP4 ADD AND SWAP1 POP SWAP2 SWAP1 POP JUMP JUMPDEST PUSH0 PUSH2 0x415 DUP3 PUSH2 0x3D3 JUMP JUMPDEST PUSH2 0x41F DUP2 DUP6 PUSH2 0x3DD JUMP JUMPDEST SWAP4 POP PUSH2 0x42F DUP2 DUP6 PUSH1 0x20 DUP7 ADD PUSH2 0x3ED JUMP JUMPDEST PUSH2 0x438 DUP2 PUSH2 0x3FB JUMP JUMPDEST DUP5 ADD SWAP2 POP POP SWAP3 SWAP2 POP POP JUMP JUMPDEST PUSH2 0x44C DUP2 PUSH2 0x375 JUMP JUMPDEST DUP3 MSTORE POP POP JUMP JUMPDEST PUSH0 DUP2 MLOAD SWAP1 POP SWAP2 SWAP1 POP JUMP JUMPDEST PUSH0 DUP3 DUP3 MSTORE PUSH1 0x20 DUP3 ADD SWAP1 POP SWAP3 SWAP2 POP POP JUMP JUMPDEST PUSH0 DUP2 SWAP1 POP PUSH1 0x20 DUP3 ADD SWAP1 POP SWAP2 SWAP1 POP JUMP JUMPDEST PUSH2 0x484 DUP2 PUSH2 0x375 JUMP JUMPDEST DUP3 MSTORE POP POP JUMP JUMPDEST PUSH0 PUSH2 0x495 DUP4 DUP4 PUSH2 0x47B JUMP JUMPDEST PUSH1 0x20 DUP4 ADD SWAP1 POP SWAP3 SWAP2 POP POP JUMP JUMPDEST PUSH0 PUSH1 0x20 DUP3 ADD SWAP1 POP SWAP2 SWAP1 POP JUMP JUMPDEST PUSH0 PUSH2 0x4B7 DUP3 PUSH2 0x452 JUMP JUMPDEST PUSH2 0x4C1 DUP2 DUP6 PUSH2 0x45C JUMP JUMPDEST SWAP4 POP PUSH2 0x4CC DUP4 PUSH2 0x46C JUMP JUMPDEST DUP1 PUSH0 JUMPDEST DUP4 DUP2 LT ISZERO PUSH2 0x4FC JUMPI DUP2 MLOAD PUSH2 0x4E3 DUP9 DUP3 PUSH2 0x48A JUMP JUMPDEST SWAP8 POP PUSH2 0x4EE DUP4 PUSH2 0x4A1 JUMP JUMPDEST SWAP3 POP POP PUSH1 0x1 DUP2 ADD SWAP1 POP PUSH2 0x4CF JUMP JUMPDEST POP DUP6 SWAP4 POP POP POP POP SWAP3 SWAP2 POP POP JUMP JUMPDEST PUSH0 PUSH1 0x60 DUP3 ADD SWAP1 POP DUP2 DUP2 SUB PUSH0 DUP4 ADD MSTORE PUSH2 0x521 DUP2 DUP7 PUSH2 0x40B JUMP JUMPDEST SWAP1 POP PUSH2 0x530 PUSH1 0x20 DUP4 ADD DUP6 PUSH2 0x443 JUMP JUMPDEST DUP2 DUP2 SUB PUSH1 0x40 DUP4 ADD MSTORE PUSH2 0x542 DUP2 DUP5 PUSH2 0x4AD JUMP JUMPDEST SWAP1 POP SWAP5 SWAP4 POP POP POP POP JUMP JUMPDEST PUSH0 DUP1 REVERT JUMPDEST PUSH0 DUP1 REVERT JUMPDEST PUSH32 0x4E487B7100000000000000000000000000000000000000000000000000000000 PUSH0 MSTORE PUSH1 0x41 PUSH1 0x4 MSTORE PUSH1 0x24 PUSH0 REVERT JUMPDEST PUSH2 0x58A DUP3 PUSH2 0x3FB JUMP JUMPDEST DUP2 ADD DUP2 DUP2 LT PUSH8 0xFFFFFFFFFFFFFFFF DUP3 GT OR ISZERO PUSH2 0x5A9 JUMPI PUSH2 0x5A8 PUSH2 0x554 JUMP JUMPDEST JUMPDEST DUP1 PUSH1 0x40 MSTORE POP POP POP JUMP JUMPDEST PUSH0 PUSH2 0x5BB PUSH2 0x364 JUMP JUMPDEST SWAP1 POP PUSH2 0x5C7 DUP3 DUP3 PUSH2 0x581 JUMP JUMPDEST SWAP2 SWAP1 POP JUMP JUMPDEST PUSH0 PUSH8 0xFFFFFFFFFFFFFFFF DUP3 GT ISZERO PUSH2 0x5E6 JUMPI PUSH2 0x5E5 PUSH2 0x554 JUMP JUMPDEST JUMPDEST PUSH2 0x5EF DUP3 PUSH2 0x3FB JUMP JUMPDEST SWAP1 POP PUSH1 0x20 DUP2 ADD SWAP1 POP SWAP2 SWAP1 POP JUMP JUMPDEST DUP3 DUP2 DUP4 CALLDATACOPY PUSH0 DUP4 DUP4 ADD MSTORE POP POP POP JUMP JUMPDEST PUSH0 PUSH2 0x61C PUSH2 0x617 DUP5 PUSH2 0x5CC JUMP JUMPDEST PUSH2 0x5B2 JUMP JUMPDEST SWAP1 POP DUP3 DUP2 MSTORE PUSH1 0x20 DUP2 ADD DUP5 DUP5 DUP5 ADD GT ISZERO PUSH2 0x638 JUMPI PUSH2 0x637 PUSH2 0x550 JUMP JUMPDEST JUMPDEST PUSH2 0x643 DUP5 DUP3 DUP6 PUSH2 0x5FC JUMP JUMPDEST POP SWAP4 SWAP3 POP POP POP JUMP JUMPDEST PUSH0 DUP3 PUSH1 0x1F DUP4 ADD SLT PUSH2 0x65F JUMPI PUSH2 0x65E PUSH2 0x54C JUMP JUMPDEST JUMPDEST DUP2 CALLDATALOAD PUSH2 0x66F DUP5 DUP3 PUSH1 0x20 DUP7 ADD PUSH2 0x60A JUMP JUMPDEST SWAP2 POP POP SWAP3 SWAP2 POP POP JUMP JUMPDEST PUSH0 PUSH8 0xFFFFFFFFFFFFFFFF DUP3 GT ISZERO PUSH2 0x692 JUMPI PUSH2 0x691 PUSH2 0x554 JUMP JUMPDEST JUMPDEST PUSH1 0x20 DUP3 MUL SWAP1 POP PUSH1 0x20 DUP2 ADD SWAP1 POP SWAP2 SWAP1 POP JUMP JUMPDEST PUSH0 DUP1 REVERT JUMPDEST PUSH0 PUSH2 0x6B9 PUSH2 0x6B4 DUP5 PUSH2 0x678 JUMP JUMPDEST PUSH2 0x5B2 JUMP JUMPDEST SWAP1 POP DUP1 DUP4 DUP3 MSTORE PUSH1 0x20 DUP3 ADD SWAP1 POP PUSH1 0x20 DUP5 MUL DUP4 ADD DUP6 DUP2 GT ISZERO PUSH2 0x6DC JUMPI PUSH2 0x6DB PUSH2 0x6A3 JUMP JUMPDEST JUMPDEST DUP4 JUMPDEST DUP2 DUP2 LT ISZERO PUSH2 0x705 JUMPI DUP1 PUSH2 0x6F1 DUP9 DUP3 PUSH2 0x394 JUMP JUMPDEST DUP5 MSTORE PUSH1 0x20 DUP5 ADD SWAP4 POP POP PUSH1 0x20 DUP2 ADD SWAP1 POP PUSH2 0x6DE JUMP JUMPDEST POP POP POP SWAP4 SWAP3 POP POP POP JUMP JUMPDEST PUSH0 DUP3 PUSH1 0x1F DUP4 ADD SLT PUSH2 0x723 JUMPI PUSH2 0x722 PUSH2 0x54C JUMP JUMPDEST JUMPDEST DUP2 CALLDATALOAD PUSH2 0x733 DUP5 DUP3 PUSH1 0x20 DUP7 ADD PUSH2 0x6A7 JUMP JUMPDEST SWAP2 POP POP SWAP3 SWAP2 POP POP JUMP JUMPDEST PUSH0 DUP1 PUSH0 DUP1 PUSH1 0x80 DUP6 DUP8 SUB SLT ISZERO PUSH2 0x754 JUMPI PUSH2 0x753 PUSH2 0x36D JUMP JUMPDEST JUMPDEST PUSH0 PUSH2 0x761 DUP8 DUP3 DUP9 ADD PUSH2 0x394 JUMP JUMPDEST SWAP5 POP POP PUSH1 0x20 DUP6 ADD CALLDATALOAD PUSH8 0xFFFFFFFFFFFFFFFF DUP2 GT ISZERO PUSH2 0x782 JUMPI PUSH2 0x781 PUSH2 0x371 JUMP JUMPDEST JUMPDEST PUSH2 0x78E DUP8 DUP3 DUP9 ADD PUSH2 0x64B JUMP JUMPDEST SWAP4 POP POP PUSH1 0x40 PUSH2 0x79F DUP8 DUP3 DUP9 ADD PUSH2 0x394 JUMP JUMPDEST SWAP3 POP POP PUSH1 0x60 DUP6 ADD CALLDATALOAD PUSH8 0xFFFFFFFFFFFFFFFF DUP2 GT ISZERO PUSH2 0x7C0 JUMPI PUSH2 0x7BF PUSH2 0x371 JUMP JUMPDEST JUMPDEST PUSH2 0x7CC DUP8 DUP3 DUP9 ADD PUSH2 0x70F JUMP JUMPDEST SWAP2 POP POP SWAP3 SWAP6 SWAP2 SWAP5 POP SWAP3 POP JUMP JUMPDEST PUSH32 0x4E487B7100000000000000000000000000000000000000000000000000000000 PUSH0 MSTORE PUSH1 0x22 PUSH1 0x4 MSTORE PUSH1 0x24 PUSH0 REVERT JUMPDEST PUSH0 PUSH1 0x2 DUP3 DIV SWAP1 POP PUSH1 0x1 DUP3 AND DUP1 PUSH2 0x81C JUMPI PUSH1 0x7F DUP3 AND SWAP2 POP JUMPDEST PUSH1 0x20 DUP3 LT DUP2 SUB PUSH2 0x82F JUMPI PUSH2 0x82E PUSH2 0x7D8 JUMP JUMPDEST JUMPDEST POP SWAP2 SWAP1 POP JUMP JUMPDEST PUSH32 0x53747564656E74206E6F7420666F756E64210000000000000000000000000000 PUSH0 DUP3 ADD MSTORE POP JUMP JUMPDEST PUSH0 PUSH2 0x869 PUSH1 0x12 DUP4 PUSH2 0x3DD JUMP JUMPDEST SWAP2 POP PUSH2 0x874 DUP3 PUSH2 0x835 JUMP JUMPDEST PUSH1 0x20 DUP3 ADD SWAP1 POP SWAP2 SWAP1 POP JUMP JUMPDEST PUSH0 PUSH1 0x20 DUP3 ADD SWAP1 POP DUP2 DUP2 SUB PUSH0 DUP4 ADD MSTORE PUSH2 0x896 DUP2 PUSH2 0x85D JUMP JUMPDEST SWAP1 POP SWAP2 SWAP1 POP JUMP JUMPDEST PUSH32 0x546869732053747564656E7420697320616C7265616479206578697473000000 PUSH0 DUP3 ADD MSTORE POP JUMP JUMPDEST PUSH0 PUSH2 0x8D1 PUSH1 0x1D DUP4 PUSH2 0x3DD JUMP JUMPDEST SWAP2 POP PUSH2 0x8DC DUP3 PUSH2 0x89D JUMP JUMPDEST PUSH1 0x20 DUP3 ADD SWAP1 POP SWAP2 SWAP1 POP JUMP JUMPDEST PUSH0 PUSH1 0x20 DUP3 ADD SWAP1 POP DUP2 DUP2 SUB PUSH0 DUP4 ADD MSTORE PUSH2 0x8FE DUP2 PUSH2 0x8C5 JUMP JUMPDEST SWAP1 POP SWAP2 SWAP1 POP JUMP JUMPDEST PUSH0 DUP2 SWAP1 POP DUP2 PUSH0 MSTORE PUSH1 0x20 PUSH0 KECCAK256 SWAP1 POP SWAP2 SWAP1 POP JUMP JUMPDEST PUSH0 PUSH1 0x20 PUSH1 0x1F DUP4 ADD DIV SWAP1 POP SWAP2 SWAP1 POP JUMP JUMPDEST PUSH0 DUP3 DUP3 SHL SWAP1 POP SWAP3 SWAP2 POP POP JUMP JUMPDEST PUSH0 PUSH1 0x8 DUP4 MUL PUSH2 0x961 PUSH32 0xFFFFFFFFFFFFFFFFFFFFFFFFFFFFFFFFFFFFFFFFFFFFFFFFFFFFFFFFFFFFFFFF DUP3 PUSH2 0x926 JUMP JUMPDEST PUSH2 0x96B DUP7 DUP4 PUSH2 0x926 JUMP JUMPDEST SWAP6 POP DUP1 NOT DUP5 AND SWAP4 POP DUP1 DUP7 AND DUP5 OR SWAP3 POP POP POP SWAP4 SWAP3 POP POP POP JUMP JUMPDEST PUSH0 DUP2 SWAP1 POP SWAP2 SWAP1 POP JUMP JUMPDEST PUSH0 PUSH2 0x9A6 PUSH2 0x9A1 PUSH2 0x99C DUP5 PUSH2 0x375 JUMP JUMPDEST PUSH2 0x983 JUMP JUMPDEST PUSH2 0x375 JUMP JUMPDEST SWAP1 POP SWAP2 SWAP1 POP JUMP JUMPDEST PUSH0 DUP2 SWAP1 POP SWAP2 SWAP1 POP JUMP JUMPDEST PUSH2 0x9BF DUP4 PUSH2 0x98C JUMP JUMPDEST PUSH2 0x9D3 PUSH2 0x9CB DUP3 PUSH2 0x9AD JUMP JUMPDEST DUP5 DUP5 SLOAD PUSH2 0x932 JUMP JUMPDEST DUP3 SSTORE POP POP POP POP JUMP JUMPDEST PUSH0 SWAP1 JUMP JUMPDEST PUSH2 0x9E7 PUSH2 0x9DB JUMP JUMPDEST PUSH2 0x9F2 DUP2 DUP5 DUP5 PUSH2 0x9B6 JUMP JUMPDEST POP POP POP JUMP JUMPDEST JUMPDEST DUP2 DUP2 LT ISZERO PUSH2 0xA15 JUMPI PUSH2 0xA0A PUSH0 DUP3 PUSH2 0x9DF JUMP JUMPDEST PUSH1 0x1 DUP2 ADD SWAP1 POP PUSH2 0x9F8 JUMP JUMPDEST POP POP JUMP JUMPDEST PUSH1 0x1F DUP3 GT ISZERO PUSH2 0xA5A JUMPI PUSH2 0xA2B DUP2 PUSH2 0x905 JUMP JUMPDEST PUSH2 0xA34 DUP5 PUSH2 0x917 JUMP JUMPDEST DUP2 ADD PUSH1 0x20 DUP6 LT ISZERO PUSH2 0xA43 JUMPI DUP2 SWAP1 POP JUMPDEST PUSH2 0xA57 PUSH2 0xA4F DUP6 PUSH2 0x917 JUMP JUMPDEST DUP4 ADD DUP3 PUSH2 0x9F7 JUMP JUMPDEST POP POP JUMPDEST POP POP POP JUMP JUMPDEST PUSH0 DUP3 DUP3 SHR SWAP1 POP SWAP3 SWAP2 POP POP JUMP JUMPDEST PUSH0 PUSH2 0xA7A PUSH0 NOT DUP5 PUSH1 0x8 MUL PUSH2 0xA5F JUMP JUMPDEST NOT DUP1 DUP4 AND SWAP2 POP POP SWAP3 SWAP2 POP POP JUMP JUMPDEST PUSH0 PUSH2 0xA92 DUP4 DUP4 PUSH2 0xA6B JUMP JUMPDEST SWAP2 POP DUP3 PUSH1 0x2 MUL DUP3 OR SWAP1 POP SWAP3 SWAP2 POP POP JUMP JUMPDEST PUSH2 0xAAB DUP3 PUSH2 0x3D3 JUMP JUMPDEST PUSH8 0xFFFFFFFFFFFFFFFF DUP2 GT ISZERO PUSH2 0xAC4 JUMPI PUSH2 0xAC3 PUSH2 0x554 JUMP JUMPDEST JUMPDEST PUSH2 0xACE DUP3 SLOAD PUSH2 0x805 JUMP JUMPDEST PUSH2 0xAD9 DUP3 DUP3 DUP6 PUSH2 0xA19 JUMP JUMPDEST PUSH0 PUSH1 0x20 SWAP1 POP PUSH1 0x1F DUP4 GT PUSH1 0x1 DUP2 EQ PUSH2 0xB0A JUMPI PUSH0 DUP5 ISZERO PUSH2 0xAF8 JUMPI DUP3 DUP8 ADD MLOAD SWAP1 POP JUMPDEST PUSH2 0xB02 DUP6 DUP3 PUSH2 0xA87 JUMP JUMPDEST DUP7 SSTORE POP PUSH2 0xB69 JUMP JUMPDEST PUSH1 0x1F NOT DUP5 AND PUSH2 0xB18 DUP7 PUSH2 0x905 JUMP JUMPDEST PUSH0 JUMPDEST DUP3 DUP2 LT ISZERO PUSH2 0xB3F JUMPI DUP5 DUP10 ADD MLOAD DUP3 SSTORE PUSH1 0x1 DUP3 ADD SWAP2 POP PUSH1 0x20 DUP6 ADD SWAP5 POP PUSH1 0x20 DUP2 ADD SWAP1 POP PUSH2 0xB1A JUMP JUMPDEST DUP7 DUP4 LT ISZERO PUSH2 0xB5C JUMPI DUP5 DUP10 ADD MLOAD PUSH2 0xB58 PUSH1 0x1F DUP10 AND DUP3 PUSH2 0xA6B JUMP JUMPDEST DUP4 SSTORE POP JUMPDEST PUSH1 0x1 PUSH1 0x2 DUP9 MUL ADD DUP9 SSTORE POP POP POP JUMPDEST POP POP POP POP POP POP JUMP JUMPDEST PUSH0 PUSH1 0x60 DUP3 ADD SWAP1 POP DUP2 DUP2 SUB PUSH0 DUP4 ADD MSTORE PUSH2 0xB89 DUP2 DUP7 PUSH2 0x40B JUMP JUMPDEST SWAP1 POP PUSH2 0xB98 PUSH1 0x20 DUP4 ADD DUP6 PUSH2 0x443 JUMP JUMPDEST PUSH2 0xBA5 PUSH1 0x40 DUP4 ADD DUP5 PUSH2 0x443 JUMP JUMPDEST SWAP5 SWAP4 POP POP POP POP JUMP INVALID LOG2 PUSH5 0x6970667358 0x22 SLT KECCAK256 ISZERO DUP12 CALLDATASIZE 0xCE 0x2F 0xAA PUSH28 0x31B767C548AAD0FF611FCDF0EB17860B1F0BC465B31B3260A264736F PUSH13 0x634300081A0033000000000000 "
		},
		"gasEstimates": {
			"creation": {
				"codeDepositCost": "608600",
				"executionCost": "643",
				"totalCost": "609243"
			},
			"external": {
				"addStudent(uint256,string,uint256,uint256[])": "infinite",
				"getStudent(uint256)": "infinite"
			}
		},
		"methodIdentifiers": {
			"addStudent(uint256,string,uint256,uint256[])": "6bed4390",
			"getStudent(uint256)": "642f9163"
		}
	},
	"abi": [
		{
			"anonymous": false,
			"inputs": [
				{
					"indexed": false,
					"internalType": "string",
					"name": "name",
					"type": "string"
				},
				{
					"indexed": false,
					"internalType": "uint256",
					"name": "age",
					"type": "uint256"
				},
				{
					"indexed": false,
					"internalType": "uint256",
					"name": "id",
					"type": "uint256"
				}
			],
			"name": "StudentAdded",
			"type": "event"
		},
		{
			"inputs": [
				{
					"internalType": "uint256",
					"name": "id",
					"type": "uint256"
				},
				{
					"internalType": "string",
					"name": "name",
					"type": "string"
				},
				{
					"internalType": "uint256",
					"name": "age",
					"type": "uint256"
				},
				{
					"internalType": "uint256[]",
					"name": "grades",
					"type": "uint256[]"
				}
			],
			"name": "addStudent",
			"outputs": [],
			"stateMutability": "nonpayable",
			"type": "function"
		},
		{
			"inputs": [
				{
					"internalType": "uint256",
					"name": "id",
					"type": "uint256"
				}
			],
			"name": "getStudent",
			"outputs": [
				{
					"internalType": "string",
					"name": "name",
					"type": "string"
				},
				{
					"internalType": "uint256",
					"name": "age",
					"type": "uint256"
				},
				{
					"internalType": "uint256[]",
					"name": "grades",
					"type": "uint256[]"
				}
			],
			"stateMutability": "view",
			"type": "function"
		}
	]
}