{
	"TodoList/TodoList.sol": {
		"TodoList": {
			"abi": [
				{
					"anonymous": false,
					"inputs": [
						{
							"indexed": true,
							"internalType": "uint256",
							"name": "id",
							"type": "uint256"
						},
						{
							"indexed": false,
							"internalType": "string",
							"name": "description",
							"type": "string"
						}
					],
					"name": "taskComplete",
					"type": "event"
				},
				{
					"inputs": [],
					"name": "CountTask",
					"outputs": [
						{
							"internalType": "uint256",
							"name": "",
							"type": "uint256"
						}
					],
					"stateMutability": "view",
					"type": "function"
				},
				{
					"inputs": [
						{
							"internalType": "string",
							"name": "_description",
							"type": "string"
						}
					],
					"name": "addTask",
					"outputs": [],
					"stateMutability": "nonpayable",
					"type": "function"
				},
				{
					"inputs": [
						{
							"internalType": "uint256",
							"name": "_id",
							"type": "uint256"
						}
					],
					"name": "completeTask",
					"outputs": [],
					"stateMutability": "nonpayable",
					"type": "function"
				},
				{
					"inputs": [
						{
							"internalType": "uint256",
							"name": "_id",
							"type": "uint256"
						}
					],
					"name": "getDetails",
					"outputs": [
						{
							"internalType": "string",
							"name": "",
							"type": "string"
						},
						{
							"internalType": "bool",
							"name": "",
							"type": "bool"
						}
					],
					"stateMutability": "view",
					"type": "function"
				}
			],
			"devdoc": {
				"kind": "dev",
				"methods": {},
				"version": 1
			},
			"evm": {
				"assembly": "    /* \"TodoList/TodoList.sol\":58:1176  contract TodoList {... */\n  mstore(0x40, 0x80)\n  callvalue\n  dup1\n  iszero\n  tag_1\n  jumpi\n  0x00\n  dup1\n  revert\ntag_1:\n  pop\n  dataSize(sub_0)\n  dup1\n  dataOffset(sub_0)\n  0x00\n  codecopy\n  0x00\n  return\nstop\n\nsub_0: assembly {\n        /* \"TodoList/TodoList.sol\":58:1176  contract TodoList {... */\n      mstore(0x40, 0x80)\n      callvalue\n      dup1\n      iszero\n      tag_1\n      jumpi\n      0x00\n      dup1\n      revert\n    tag_1:\n      pop\n      jumpi(tag_2, lt(calldatasize, 0x04))\n      shr(0xe0, calldataload(0x00))\n      dup1\n      0x54c6ef27\n      eq\n      tag_3\n      jumpi\n      dup1\n      0x67238562\n      eq\n      tag_4\n      jumpi\n      dup1\n      0xb93a89f7\n      eq\n      tag_5\n      jumpi\n      dup1\n      0xe1e29558\n      eq\n      tag_6\n      jumpi\n    tag_2:\n      0x00\n      dup1\n      revert\n        /* \"TodoList/TodoList.sol\":836:922  function CountTask() public view returns (uint256) {... */\n    tag_3:\n      tag_7\n      tag_8\n      jump\t// in\n    tag_7:\n      mload(0x40)\n      tag_9\n      swap2\n      swap1\n      tag_10\n      jump\t// in\n    tag_9:\n      mload(0x40)\n      dup1\n      swap2\n      sub\n      swap1\n      return\n        /* \"TodoList/TodoList.sol\":571:676  function addTask(string memory _description) public {... */\n    tag_4:\n      tag_11\n      0x04\n      dup1\n      calldatasize\n      sub\n      dup2\n      add\n      swap1\n      tag_12\n      swap2\n      swap1\n      tag_13\n      jump\t// in\n    tag_12:\n      tag_14\n      jump\t// in\n    tag_11:\n      stop\n        /* \"TodoList/TodoList.sol\":957:1174  function getDetails(uint256 _id) public view returns (string memory, bool) {... */\n    tag_5:\n      tag_15\n      0x04\n      dup1\n      calldatasize\n      sub\n      dup2\n      add\n      swap1\n      tag_16\n      swap2\n      swap1\n      tag_17\n      jump\t// in\n    tag_16:\n      tag_18\n      jump\t// in\n    tag_15:\n      mload(0x40)\n      tag_19\n      swap3\n      swap2\n      swap1\n      tag_20\n      jump\t// in\n    tag_19:\n      mload(0x40)\n      dup1\n      swap2\n      sub\n      swap1\n      return\n        /* \"TodoList/TodoList.sol\":706:796  function completeTask(uint256 _id) public {... */\n    tag_6:\n      tag_21\n      0x04\n      dup1\n      calldatasize\n      sub\n      dup2\n      add\n      swap1\n      tag_22\n      swap2\n      swap1\n      tag_17\n      jump\t// in\n    tag_22:\n      tag_23\n      jump\t// in\n    tag_21:\n      stop\n        /* \"TodoList/TodoList.sol\":836:922  function CountTask() public view returns (uint256) {... */\n    tag_8:\n        /* \"TodoList/TodoList.sol\":878:885  uint256 */\n      0x00\n        /* \"TodoList/TodoList.sol\":904:908  task */\n      dup1\n        /* \"TodoList/TodoList.sol\":904:915  task.length */\n      dup1\n      sload\n      swap1\n      pop\n        /* \"TodoList/TodoList.sol\":897:915  return task.length */\n      swap1\n      pop\n        /* \"TodoList/TodoList.sol\":836:922  function CountTask() public view returns (uint256) {... */\n      swap1\n      jump\t// out\n        /* \"TodoList/TodoList.sol\":571:676  function addTask(string memory _description) public {... */\n    tag_14:\n        /* \"TodoList/TodoList.sol\":633:637  task */\n      0x00\n        /* \"TodoList/TodoList.sol\":643:668  Task(_description, false) */\n      mload(0x40)\n      dup1\n      0x40\n      add\n      0x40\n      mstore\n      dup1\n        /* \"TodoList/TodoList.sol\":648:660  _description */\n      dup4\n        /* \"TodoList/TodoList.sol\":643:668  Task(_description, false) */\n      dup2\n      mstore\n      0x20\n      add\n        /* \"TodoList/TodoList.sol\":662:667  false */\n      0x00\n        /* \"TodoList/TodoList.sol\":643:668  Task(_description, false) */\n      iszero\n      iszero\n      dup2\n      mstore\n      pop\n        /* \"TodoList/TodoList.sol\":633:669  task.push(Task(_description, false)) */\n      swap1\n      dup1\n      0x01\n      dup2\n      sload\n      add\n      dup1\n      dup3\n      sstore\n      dup1\n      swap2\n      pop\n      pop\n      0x01\n      swap1\n      sub\n      swap1\n      0x00\n      mstore\n      keccak256(0x00, 0x20)\n      swap1\n      0x02\n      mul\n      add\n      0x00\n      swap1\n      swap2\n      swap1\n      swap2\n      swap1\n      swap2\n      pop\n      0x00\n      dup3\n      add\n      mload\n      dup2\n      0x00\n      add\n      swap1\n      dup2\n      tag_27\n      swap2\n      swap1\n      tag_28\n      jump\t// in\n    tag_27:\n      pop\n      0x20\n      dup3\n      add\n      mload\n      dup2\n      0x01\n      add\n      exp(0x0100, 0x00)\n      dup2\n      sload\n      dup2\n      0xff\n      mul\n      not\n      and\n      swap1\n      dup4\n      iszero\n      iszero\n      mul\n      or\n      swap1\n      sstore\n      pop\n      pop\n      pop\n        /* \"TodoList/TodoList.sol\":571:676  function addTask(string memory _description) public {... */\n      pop\n      jump\t// out\n        /* \"TodoList/TodoList.sol\":957:1174  function getDetails(uint256 _id) public view returns (string memory, bool) {... */\n    tag_18:\n        /* \"TodoList/TodoList.sol\":1011:1024  string memory */\n      0x60\n        /* \"TodoList/TodoList.sol\":1026:1030  bool */\n      0x00\n        /* \"TodoList/TodoList.sol\":1060:1064  task */\n      dup1\n        /* \"TodoList/TodoList.sol\":1060:1071  task.length */\n      dup1\n      sload\n      swap1\n      pop\n        /* \"TodoList/TodoList.sol\":1056:1057  1 */\n      0x01\n        /* \"TodoList/TodoList.sol\":1050:1053  _id */\n      dup5\n        /* \"TodoList/TodoList.sol\":1050:1057  _id - 1 */\n      tag_30\n      swap2\n      swap1\n      tag_31\n      jump\t// in\n    tag_30:\n        /* \"TodoList/TodoList.sol\":1050:1071  _id - 1 < task.length */\n      lt\n        /* \"TodoList/TodoList.sol\":1042:1097  require(_id - 1 < task.length, \"task is not available\") */\n      tag_32\n      jumpi\n      mload(0x40)\n      0x08c379a000000000000000000000000000000000000000000000000000000000\n      dup2\n      mstore\n      0x04\n      add\n      tag_33\n      swap1\n      tag_34\n      jump\t// in\n    tag_33:\n      mload(0x40)\n      dup1\n      swap2\n      sub\n      swap1\n      revert\n    tag_32:\n        /* \"TodoList/TodoList.sol\":1115:1119  task */\n      0x00\n        /* \"TodoList/TodoList.sol\":1126:1127  1 */\n      0x01\n        /* \"TodoList/TodoList.sol\":1120:1123  _id */\n      dup5\n        /* \"TodoList/TodoList.sol\":1120:1127  _id - 1 */\n      tag_35\n      swap2\n      swap1\n      tag_31\n      jump\t// in\n    tag_35:\n        /* \"TodoList/TodoList.sol\":1115:1128  task[_id - 1] */\n      dup2\n      sload\n      dup2\n      lt\n      tag_36\n      jumpi\n      tag_37\n      tag_38\n      jump\t// in\n    tag_37:\n    tag_36:\n      swap1\n      0x00\n      mstore\n      keccak256(0x00, 0x20)\n      swap1\n      0x02\n      mul\n      add\n        /* \"TodoList/TodoList.sol\":1115:1140  task[_id - 1].description */\n      0x00\n      add\n        /* \"TodoList/TodoList.sol\":1142:1146  task */\n      0x00\n        /* \"TodoList/TodoList.sol\":1153:1154  1 */\n      0x01\n        /* \"TodoList/TodoList.sol\":1147:1150  _id */\n      dup6\n        /* \"TodoList/TodoList.sol\":1147:1154  _id - 1 */\n      tag_40\n      swap2\n      swap1\n      tag_31\n      jump\t// in\n    tag_40:\n        /* \"TodoList/TodoList.sol\":1142:1155  task[_id - 1] */\n      dup2\n      sload\n      dup2\n      lt\n      tag_41\n      jumpi\n      tag_42\n      tag_38\n      jump\t// in\n    tag_42:\n    tag_41:\n      swap1\n      0x00\n      mstore\n      keccak256(0x00, 0x20)\n      swap1\n      0x02\n      mul\n      add\n        /* \"TodoList/TodoList.sol\":1142:1166  task[_id - 1].isComplete */\n      0x01\n      add\n      0x00\n      swap1\n      sload\n      swap1\n      0x0100\n      exp\n      swap1\n      div\n      0xff\n      and\n        /* \"TodoList/TodoList.sol\":1107:1167  return (task[_id - 1].description, task[_id - 1].isComplete) */\n      dup2\n      dup1\n      sload\n      tag_44\n      swap1\n      tag_45\n      jump\t// in\n    tag_44:\n      dup1\n      0x1f\n      add\n      0x20\n      dup1\n      swap2\n      div\n      mul\n      0x20\n      add\n      mload(0x40)\n      swap1\n      dup2\n      add\n      0x40\n      mstore\n      dup1\n      swap3\n      swap2\n      swap1\n      dup2\n      dup2\n      mstore\n      0x20\n      add\n      dup3\n      dup1\n      sload\n      tag_46\n      swap1\n      tag_45\n      jump\t// in\n    tag_46:\n      dup1\n      iszero\n      tag_47\n      jumpi\n      dup1\n      0x1f\n      lt\n      tag_48\n      jumpi\n      0x0100\n      dup1\n      dup4\n      sload\n      div\n      mul\n      dup4\n      mstore\n      swap2\n      0x20\n      add\n      swap2\n      jump(tag_47)\n    tag_48:\n      dup3\n      add\n      swap2\n      swap1\n      0x00\n      mstore\n      keccak256(0x00, 0x20)\n      swap1\n    tag_49:\n      dup2\n      sload\n      dup2\n      mstore\n      swap1\n      0x01\n      add\n      swap1\n      0x20\n      add\n      dup1\n      dup4\n      gt\n      tag_49\n      jumpi\n      dup3\n      swap1\n      sub\n      0x1f\n      and\n      dup3\n      add\n      swap2\n    tag_47:\n      pop\n      pop\n      pop\n      pop\n      pop\n      swap2\n      pop\n      swap2\n      pop\n      swap2\n      pop\n        /* \"TodoList/TodoList.sol\":957:1174  function getDetails(uint256 _id) public view returns (string memory, bool) {... */\n      swap2\n      pop\n      swap2\n      jump\t// out\n        /* \"TodoList/TodoList.sol\":706:796  function completeTask(uint256 _id) public {... */\n    tag_23:\n        /* \"TodoList/TodoList.sol\":785:789  true */\n      0x01\n        /* \"TodoList/TodoList.sol\":758:762  task */\n      0x00\n        /* \"TodoList/TodoList.sol\":769:770  1 */\n      0x01\n        /* \"TodoList/TodoList.sol\":763:766  _id */\n      dup4\n        /* \"TodoList/TodoList.sol\":763:770  _id - 1 */\n      tag_51\n      swap2\n      swap1\n      tag_31\n      jump\t// in\n    tag_51:\n        /* \"TodoList/TodoList.sol\":758:771  task[_id - 1] */\n      dup2\n      sload\n      dup2\n      lt\n      tag_52\n      jumpi\n      tag_53\n      tag_38\n      jump\t// in\n    tag_53:\n    tag_52:\n      swap1\n      0x00\n      mstore\n      keccak256(0x00, 0x20)\n      swap1\n      0x02\n      mul\n      add\n        /* \"TodoList/TodoList.sol\":758:782  task[_id - 1].isComplete */\n      0x01\n      add\n      0x00\n        /* \"TodoList/TodoList.sol\":758:789  task[_id - 1].isComplete = true */\n      0x0100\n      exp\n      dup2\n      sload\n      dup2\n      0xff\n      mul\n      not\n      and\n      swap1\n      dup4\n      iszero\n      iszero\n      mul\n      or\n      swap1\n      sstore\n      pop\n        /* \"TodoList/TodoList.sol\":706:796  function completeTask(uint256 _id) public {... */\n      pop\n      jump\t// out\n        /* \"#utility.yul\":7:84   */\n    tag_55:\n        /* \"#utility.yul\":44:51   */\n      0x00\n        /* \"#utility.yul\":73:78   */\n      dup2\n        /* \"#utility.yul\":62:78   */\n      swap1\n      pop\n        /* \"#utility.yul\":7:84   */\n      swap2\n      swap1\n      pop\n      jump\t// out\n        /* \"#utility.yul\":90:208   */\n    tag_56:\n        /* \"#utility.yul\":177:201   */\n      tag_100\n        /* \"#utility.yul\":195:200   */\n      dup2\n        /* \"#utility.yul\":177:201   */\n      tag_55\n      jump\t// in\n    tag_100:\n        /* \"#utility.yul\":172:175   */\n      dup3\n        /* \"#utility.yul\":165:202   */\n      mstore\n        /* \"#utility.yul\":90:208   */\n      pop\n      pop\n      jump\t// out\n        /* \"#utility.yul\":214:436   */\n    tag_10:\n        /* \"#utility.yul\":307:311   */\n      0x00\n        /* \"#utility.yul\":345:347   */\n      0x20\n        /* \"#utility.yul\":334:343   */\n      dup3\n        /* \"#utility.yul\":330:348   */\n      add\n        /* \"#utility.yul\":322:348   */\n      swap1\n      pop\n        /* \"#utility.yul\":358:429   */\n      tag_102\n        /* \"#utility.yul\":426:427   */\n      0x00\n        /* \"#utility.yul\":415:424   */\n      dup4\n        /* \"#utility.yul\":411:428   */\n      add\n        /* \"#utility.yul\":402:408   */\n      dup5\n        /* \"#utility.yul\":358:429   */\n      tag_56\n      jump\t// in\n    tag_102:\n        /* \"#utility.yul\":214:436   */\n      swap3\n      swap2\n      pop\n      pop\n      jump\t// out\n        /* \"#utility.yul\":442:517   */\n    tag_57:\n        /* \"#utility.yul\":475:481   */\n      0x00\n        /* \"#utility.yul\":508:510   */\n      0x40\n        /* \"#utility.yul\":502:511   */\n      mload\n        /* \"#utility.yul\":492:511   */\n      swap1\n      pop\n        /* \"#utility.yul\":442:517   */\n      swap1\n      jump\t// out\n        /* \"#utility.yul\":523:640   */\n    tag_58:\n        /* \"#utility.yul\":632:633   */\n      0x00\n        /* \"#utility.yul\":629:630   */\n      dup1\n        /* \"#utility.yul\":622:634   */\n      revert\n        /* \"#utility.yul\":646:763   */\n    tag_59:\n        /* \"#utility.yul\":755:756   */\n      0x00\n        /* \"#utility.yul\":752:753   */\n      dup1\n        /* \"#utility.yul\":745:757   */\n      revert\n        /* \"#utility.yul\":769:886   */\n    tag_60:\n        /* \"#utility.yul\":878:879   */\n      0x00\n        /* \"#utility.yul\":875:876   */\n      dup1\n        /* \"#utility.yul\":868:880   */\n      revert\n        /* \"#utility.yul\":892:1009   */\n    tag_61:\n        /* \"#utility.yul\":1001:1002   */\n      0x00\n        /* \"#utility.yul\":998:999   */\n      dup1\n        /* \"#utility.yul\":991:1003   */\n      revert\n        /* \"#utility.yul\":1015:1117   */\n    tag_62:\n        /* \"#utility.yul\":1056:1062   */\n      0x00\n        /* \"#utility.yul\":1107:1109   */\n      0x1f\n        /* \"#utility.yul\":1103:1110   */\n      not\n        /* \"#utility.yul\":1098:1100   */\n      0x1f\n        /* \"#utility.yul\":1091:1096   */\n      dup4\n        /* \"#utility.yul\":1087:1101   */\n      add\n        /* \"#utility.yul\":1083:1111   */\n      and\n        /* \"#utility.yul\":1073:1111   */\n      swap1\n      pop\n        /* \"#utility.yul\":1015:1117   */\n      swap2\n      swap1\n      pop\n      jump\t// out\n        /* \"#utility.yul\":1123:1303   */\n    tag_63:\n        /* \"#utility.yul\":1171:1248   */\n      0x4e487b7100000000000000000000000000000000000000000000000000000000\n        /* \"#utility.yul\":1168:1169   */\n      0x00\n        /* \"#utility.yul\":1161:1249   */\n      mstore\n        /* \"#utility.yul\":1268:1272   */\n      0x41\n        /* \"#utility.yul\":1265:1266   */\n      0x04\n        /* \"#utility.yul\":1258:1273   */\n      mstore\n        /* \"#utility.yul\":1292:1296   */\n      0x24\n        /* \"#utility.yul\":1289:1290   */\n      0x00\n        /* \"#utility.yul\":1282:1297   */\n      revert\n        /* \"#utility.yul\":1309:1590   */\n    tag_64:\n        /* \"#utility.yul\":1392:1419   */\n      tag_111\n        /* \"#utility.yul\":1414:1418   */\n      dup3\n        /* \"#utility.yul\":1392:1419   */\n      tag_62\n      jump\t// in\n    tag_111:\n        /* \"#utility.yul\":1384:1390   */\n      dup2\n        /* \"#utility.yul\":1380:1420   */\n      add\n        /* \"#utility.yul\":1522:1528   */\n      dup2\n        /* \"#utility.yul\":1510:1520   */\n      dup2\n        /* \"#utility.yul\":1507:1529   */\n      lt\n        /* \"#utility.yul\":1486:1504   */\n      0xffffffffffffffff\n        /* \"#utility.yul\":1474:1484   */\n      dup3\n        /* \"#utility.yul\":1471:1505   */\n      gt\n        /* \"#utility.yul\":1468:1530   */\n      or\n        /* \"#utility.yul\":1465:1553   */\n      iszero\n      tag_112\n      jumpi\n        /* \"#utility.yul\":1533:1551   */\n      tag_113\n      tag_63\n      jump\t// in\n    tag_113:\n        /* \"#utility.yul\":1465:1553   */\n    tag_112:\n        /* \"#utility.yul\":1573:1583   */\n      dup1\n        /* \"#utility.yul\":1569:1571   */\n      0x40\n        /* \"#utility.yul\":1562:1584   */\n      mstore\n        /* \"#utility.yul\":1352:1590   */\n      pop\n        /* \"#utility.yul\":1309:1590   */\n      pop\n      pop\n      jump\t// out\n        /* \"#utility.yul\":1596:1725   */\n    tag_65:\n        /* \"#utility.yul\":1630:1636   */\n      0x00\n        /* \"#utility.yul\":1657:1677   */\n      tag_115\n      tag_57\n      jump\t// in\n    tag_115:\n        /* \"#utility.yul\":1647:1677   */\n      swap1\n      pop\n        /* \"#utility.yul\":1686:1719   */\n      tag_116\n        /* \"#utility.yul\":1714:1718   */\n      dup3\n        /* \"#utility.yul\":1706:1712   */\n      dup3\n        /* \"#utility.yul\":1686:1719   */\n      tag_64\n      jump\t// in\n    tag_116:\n        /* \"#utility.yul\":1596:1725   */\n      swap2\n      swap1\n      pop\n      jump\t// out\n        /* \"#utility.yul\":1731:2039   */\n    tag_66:\n        /* \"#utility.yul\":1793:1797   */\n      0x00\n        /* \"#utility.yul\":1883:1901   */\n      0xffffffffffffffff\n        /* \"#utility.yul\":1875:1881   */\n      dup3\n        /* \"#utility.yul\":1872:1902   */\n      gt\n        /* \"#utility.yul\":1869:1925   */\n      iszero\n      tag_118\n      jumpi\n        /* \"#utility.yul\":1905:1923   */\n      tag_119\n      tag_63\n      jump\t// in\n    tag_119:\n        /* \"#utility.yul\":1869:1925   */\n    tag_118:\n        /* \"#utility.yul\":1943:1972   */\n      tag_120\n        /* \"#utility.yul\":1965:1971   */\n      dup3\n        /* \"#utility.yul\":1943:1972   */\n      tag_62\n      jump\t// in\n    tag_120:\n        /* \"#utility.yul\":1935:1972   */\n      swap1\n      pop\n        /* \"#utility.yul\":2027:2031   */\n      0x20\n        /* \"#utility.yul\":2021:2025   */\n      dup2\n        /* \"#utility.yul\":2017:2032   */\n      add\n        /* \"#utility.yul\":2009:2032   */\n      swap1\n      pop\n        /* \"#utility.yul\":1731:2039   */\n      swap2\n      swap1\n      pop\n      jump\t// out\n        /* \"#utility.yul\":2045:2193   */\n    tag_67:\n        /* \"#utility.yul\":2143:2149   */\n      dup3\n        /* \"#utility.yul\":2138:2141   */\n      dup2\n        /* \"#utility.yul\":2133:2136   */\n      dup4\n        /* \"#utility.yul\":2120:2150   */\n      calldatacopy\n        /* \"#utility.yul\":2184:2185   */\n      0x00\n        /* \"#utility.yul\":2175:2181   */\n      dup4\n        /* \"#utility.yul\":2170:2173   */\n      dup4\n        /* \"#utility.yul\":2166:2182   */\n      add\n        /* \"#utility.yul\":2159:2186   */\n      mstore\n        /* \"#utility.yul\":2045:2193   */\n      pop\n      pop\n      pop\n      jump\t// out\n        /* \"#utility.yul\":2199:2624   */\n    tag_68:\n        /* \"#utility.yul\":2277:2282   */\n      0x00\n        /* \"#utility.yul\":2302:2368   */\n      tag_123\n        /* \"#utility.yul\":2318:2367   */\n      tag_124\n        /* \"#utility.yul\":2360:2366   */\n      dup5\n        /* \"#utility.yul\":2318:2367   */\n      tag_66\n      jump\t// in\n    tag_124:\n        /* \"#utility.yul\":2302:2368   */\n      tag_65\n      jump\t// in\n    tag_123:\n        /* \"#utility.yul\":2293:2368   */\n      swap1\n      pop\n        /* \"#utility.yul\":2391:2397   */\n      dup3\n        /* \"#utility.yul\":2384:2389   */\n      dup2\n        /* \"#utility.yul\":2377:2398   */\n      mstore\n        /* \"#utility.yul\":2429:2433   */\n      0x20\n        /* \"#utility.yul\":2422:2427   */\n      dup2\n        /* \"#utility.yul\":2418:2434   */\n      add\n        /* \"#utility.yul\":2467:2470   */\n      dup5\n        /* \"#utility.yul\":2458:2464   */\n      dup5\n        /* \"#utility.yul\":2453:2456   */\n      dup5\n        /* \"#utility.yul\":2449:2465   */\n      add\n        /* \"#utility.yul\":2446:2471   */\n      gt\n        /* \"#utility.yul\":2443:2555   */\n      iszero\n      tag_125\n      jumpi\n        /* \"#utility.yul\":2474:2553   */\n      tag_126\n      tag_61\n      jump\t// in\n    tag_126:\n        /* \"#utility.yul\":2443:2555   */\n    tag_125:\n        /* \"#utility.yul\":2564:2618   */\n      tag_127\n        /* \"#utility.yul\":2611:2617   */\n      dup5\n        /* \"#utility.yul\":2606:2609   */\n      dup3\n        /* \"#utility.yul\":2601:2604   */\n      dup6\n        /* \"#utility.yul\":2564:2618   */\n      tag_67\n      jump\t// in\n    tag_127:\n        /* \"#utility.yul\":2283:2624   */\n      pop\n        /* \"#utility.yul\":2199:2624   */\n      swap4\n      swap3\n      pop\n      pop\n      pop\n      jump\t// out\n        /* \"#utility.yul\":2644:2984   */\n    tag_69:\n        /* \"#utility.yul\":2700:2705   */\n      0x00\n        /* \"#utility.yul\":2749:2752   */\n      dup3\n        /* \"#utility.yul\":2742:2746   */\n      0x1f\n        /* \"#utility.yul\":2734:2740   */\n      dup4\n        /* \"#utility.yul\":2730:2747   */\n      add\n        /* \"#utility.yul\":2726:2753   */\n      slt\n        /* \"#utility.yul\":2716:2838   */\n      tag_129\n      jumpi\n        /* \"#utility.yul\":2757:2836   */\n      tag_130\n      tag_60\n      jump\t// in\n    tag_130:\n        /* \"#utility.yul\":2716:2838   */\n    tag_129:\n        /* \"#utility.yul\":2874:2880   */\n      dup2\n        /* \"#utility.yul\":2861:2881   */\n      calldataload\n        /* \"#utility.yul\":2899:2978   */\n      tag_131\n        /* \"#utility.yul\":2974:2977   */\n      dup5\n        /* \"#utility.yul\":2966:2972   */\n      dup3\n        /* \"#utility.yul\":2959:2963   */\n      0x20\n        /* \"#utility.yul\":2951:2957   */\n      dup7\n        /* \"#utility.yul\":2947:2964   */\n      add\n        /* \"#utility.yul\":2899:2978   */\n      tag_68\n      jump\t// in\n    tag_131:\n        /* \"#utility.yul\":2890:2978   */\n      swap2\n      pop\n        /* \"#utility.yul\":2706:2984   */\n      pop\n        /* \"#utility.yul\":2644:2984   */\n      swap3\n      swap2\n      pop\n      pop\n      jump\t// out\n        /* \"#utility.yul\":2990:3499   */\n    tag_13:\n        /* \"#utility.yul\":3059:3065   */\n      0x00\n        /* \"#utility.yul\":3108:3110   */\n      0x20\n        /* \"#utility.yul\":3096:3105   */\n      dup3\n        /* \"#utility.yul\":3087:3094   */\n      dup5\n        /* \"#utility.yul\":3083:3106   */\n      sub\n        /* \"#utility.yul\":3079:3111   */\n      slt\n        /* \"#utility.yul\":3076:3195   */\n      iszero\n      tag_133\n      jumpi\n        /* \"#utility.yul\":3114:3193   */\n      tag_134\n      tag_58\n      jump\t// in\n    tag_134:\n        /* \"#utility.yul\":3076:3195   */\n    tag_133:\n        /* \"#utility.yul\":3262:3263   */\n      0x00\n        /* \"#utility.yul\":3251:3260   */\n      dup3\n        /* \"#utility.yul\":3247:3264   */\n      add\n        /* \"#utility.yul\":3234:3265   */\n      calldataload\n        /* \"#utility.yul\":3292:3310   */\n      0xffffffffffffffff\n        /* \"#utility.yul\":3284:3290   */\n      dup2\n        /* \"#utility.yul\":3281:3311   */\n      gt\n        /* \"#utility.yul\":3278:3395   */\n      iszero\n      tag_135\n      jumpi\n        /* \"#utility.yul\":3314:3393   */\n      tag_136\n      tag_59\n      jump\t// in\n    tag_136:\n        /* \"#utility.yul\":3278:3395   */\n    tag_135:\n        /* \"#utility.yul\":3419:3482   */\n      tag_137\n        /* \"#utility.yul\":3474:3481   */\n      dup5\n        /* \"#utility.yul\":3465:3471   */\n      dup3\n        /* \"#utility.yul\":3454:3463   */\n      dup6\n        /* \"#utility.yul\":3450:3472   */\n      add\n        /* \"#utility.yul\":3419:3482   */\n      tag_69\n      jump\t// in\n    tag_137:\n        /* \"#utility.yul\":3409:3482   */\n      swap2\n      pop\n        /* \"#utility.yul\":3205:3492   */\n      pop\n        /* \"#utility.yul\":2990:3499   */\n      swap3\n      swap2\n      pop\n      pop\n      jump\t// out\n        /* \"#utility.yul\":3505:3627   */\n    tag_70:\n        /* \"#utility.yul\":3578:3602   */\n      tag_139\n        /* \"#utility.yul\":3596:3601   */\n      dup2\n        /* \"#utility.yul\":3578:3602   */\n      tag_55\n      jump\t// in\n    tag_139:\n        /* \"#utility.yul\":3571:3576   */\n      dup2\n        /* \"#utility.yul\":3568:3603   */\n      eq\n        /* \"#utility.yul\":3558:3621   */\n      tag_140\n      jumpi\n        /* \"#utility.yul\":3617:3618   */\n      0x00\n        /* \"#utility.yul\":3614:3615   */\n      dup1\n        /* \"#utility.yul\":3607:3619   */\n      revert\n        /* \"#utility.yul\":3558:3621   */\n    tag_140:\n        /* \"#utility.yul\":3505:3627   */\n      pop\n      jump\t// out\n        /* \"#utility.yul\":3633:3772   */\n    tag_71:\n        /* \"#utility.yul\":3679:3684   */\n      0x00\n        /* \"#utility.yul\":3717:3723   */\n      dup2\n        /* \"#utility.yul\":3704:3724   */\n      calldataload\n        /* \"#utility.yul\":3695:3724   */\n      swap1\n      pop\n        /* \"#utility.yul\":3733:3766   */\n      tag_142\n        /* \"#utility.yul\":3760:3765   */\n      dup2\n        /* \"#utility.yul\":3733:3766   */\n      tag_70\n      jump\t// in\n    tag_142:\n        /* \"#utility.yul\":3633:3772   */\n      swap3\n      swap2\n      pop\n      pop\n      jump\t// out\n        /* \"#utility.yul\":3778:4107   */\n    tag_17:\n        /* \"#utility.yul\":3837:3843   */\n      0x00\n        /* \"#utility.yul\":3886:3888   */\n      0x20\n        /* \"#utility.yul\":3874:3883   */\n      dup3\n        /* \"#utility.yul\":3865:3872   */\n      dup5\n        /* \"#utility.yul\":3861:3884   */\n      sub\n        /* \"#utility.yul\":3857:3889   */\n      slt\n        /* \"#utility.yul\":3854:3973   */\n      iszero\n      tag_144\n      jumpi\n        /* \"#utility.yul\":3892:3971   */\n      tag_145\n      tag_58\n      jump\t// in\n    tag_145:\n        /* \"#utility.yul\":3854:3973   */\n    tag_144:\n        /* \"#utility.yul\":4012:4013   */\n      0x00\n        /* \"#utility.yul\":4037:4090   */\n      tag_146\n        /* \"#utility.yul\":4082:4089   */\n      dup5\n        /* \"#utility.yul\":4073:4079   */\n      dup3\n        /* \"#utility.yul\":4062:4071   */\n      dup6\n        /* \"#utility.yul\":4058:4080   */\n      add\n        /* \"#utility.yul\":4037:4090   */\n      tag_71\n      jump\t// in\n    tag_146:\n        /* \"#utility.yul\":4027:4090   */\n      swap2\n      pop\n        /* \"#utility.yul\":3983:4100   */\n      pop\n        /* \"#utility.yul\":3778:4107   */\n      swap3\n      swap2\n      pop\n      pop\n      jump\t// out\n        /* \"#utility.yul\":4113:4212   */\n    tag_72:\n        /* \"#utility.yul\":4165:4171   */\n      0x00\n        /* \"#utility.yul\":4199:4204   */\n      dup2\n        /* \"#utility.yul\":4193:4205   */\n      mload\n        /* \"#utility.yul\":4183:4205   */\n      swap1\n      pop\n        /* \"#utility.yul\":4113:4212   */\n      swap2\n      swap1\n      pop\n      jump\t// out\n        /* \"#utility.yul\":4218:4387   */\n    tag_73:\n        /* \"#utility.yul\":4302:4313   */\n      0x00\n        /* \"#utility.yul\":4336:4342   */\n      dup3\n        /* \"#utility.yul\":4331:4334   */\n      dup3\n        /* \"#utility.yul\":4324:4343   */\n      mstore\n        /* \"#utility.yul\":4376:4380   */\n      0x20\n        /* \"#utility.yul\":4371:4374   */\n      dup3\n        /* \"#utility.yul\":4367:4381   */\n      add\n        /* \"#utility.yul\":4352:4381   */\n      swap1\n      pop\n        /* \"#utility.yul\":4218:4387   */\n      swap3\n      swap2\n      pop\n      pop\n      jump\t// out\n        /* \"#utility.yul\":4393:4532   */\n    tag_74:\n        /* \"#utility.yul\":4482:4488   */\n      dup3\n        /* \"#utility.yul\":4477:4480   */\n      dup2\n        /* \"#utility.yul\":4472:4475   */\n      dup4\n        /* \"#utility.yul\":4466:4489   */\n      mcopy\n        /* \"#utility.yul\":4523:4524   */\n      0x00\n        /* \"#utility.yul\":4514:4520   */\n      dup4\n        /* \"#utility.yul\":4509:4512   */\n      dup4\n        /* \"#utility.yul\":4505:4521   */\n      add\n        /* \"#utility.yul\":4498:4525   */\n      mstore\n        /* \"#utility.yul\":4393:4532   */\n      pop\n      pop\n      pop\n      jump\t// out\n        /* \"#utility.yul\":4538:4915   */\n    tag_75:\n        /* \"#utility.yul\":4626:4629   */\n      0x00\n        /* \"#utility.yul\":4654:4693   */\n      tag_151\n        /* \"#utility.yul\":4687:4692   */\n      dup3\n        /* \"#utility.yul\":4654:4693   */\n      tag_72\n      jump\t// in\n    tag_151:\n        /* \"#utility.yul\":4709:4780   */\n      tag_152\n        /* \"#utility.yul\":4773:4779   */\n      dup2\n        /* \"#utility.yul\":4768:4771   */\n      dup6\n        /* \"#utility.yul\":4709:4780   */\n      tag_73\n      jump\t// in\n    tag_152:\n        /* \"#utility.yul\":4702:4780   */\n      swap4\n      pop\n        /* \"#utility.yul\":4789:4854   */\n      tag_153\n        /* \"#utility.yul\":4847:4853   */\n      dup2\n        /* \"#utility.yul\":4842:4845   */\n      dup6\n        /* \"#utility.yul\":4835:4839   */\n      0x20\n        /* \"#utility.yul\":4828:4833   */\n      dup7\n        /* \"#utility.yul\":4824:4840   */\n      add\n        /* \"#utility.yul\":4789:4854   */\n      tag_74\n      jump\t// in\n    tag_153:\n        /* \"#utility.yul\":4879:4908   */\n      tag_154\n        /* \"#utility.yul\":4901:4907   */\n      dup2\n        /* \"#utility.yul\":4879:4908   */\n      tag_62\n      jump\t// in\n    tag_154:\n        /* \"#utility.yul\":4874:4877   */\n      dup5\n        /* \"#utility.yul\":4870:4909   */\n      add\n        /* \"#utility.yul\":4863:4909   */\n      swap2\n      pop\n        /* \"#utility.yul\":4630:4915   */\n      pop\n        /* \"#utility.yul\":4538:4915   */\n      swap3\n      swap2\n      pop\n      pop\n      jump\t// out\n        /* \"#utility.yul\":4921:5011   */\n    tag_76:\n        /* \"#utility.yul\":4955:4962   */\n      0x00\n        /* \"#utility.yul\":4998:5003   */\n      dup2\n        /* \"#utility.yul\":4991:5004   */\n      iszero\n        /* \"#utility.yul\":4984:5005   */\n      iszero\n        /* \"#utility.yul\":4973:5005   */\n      swap1\n      pop\n        /* \"#utility.yul\":4921:5011   */\n      swap2\n      swap1\n      pop\n      jump\t// out\n        /* \"#utility.yul\":5017:5126   */\n    tag_77:\n        /* \"#utility.yul\":5098:5119   */\n      tag_157\n        /* \"#utility.yul\":5113:5118   */\n      dup2\n        /* \"#utility.yul\":5098:5119   */\n      tag_76\n      jump\t// in\n    tag_157:\n        /* \"#utility.yul\":5093:5096   */\n      dup3\n        /* \"#utility.yul\":5086:5120   */\n      mstore\n        /* \"#utility.yul\":5017:5126   */\n      pop\n      pop\n      jump\t// out\n        /* \"#utility.yul\":5132:5543   */\n    tag_20:\n        /* \"#utility.yul\":5267:5271   */\n      0x00\n        /* \"#utility.yul\":5305:5307   */\n      0x40\n        /* \"#utility.yul\":5294:5303   */\n      dup3\n        /* \"#utility.yul\":5290:5308   */\n      add\n        /* \"#utility.yul\":5282:5308   */\n      swap1\n      pop\n        /* \"#utility.yul\":5354:5363   */\n      dup2\n        /* \"#utility.yul\":5348:5352   */\n      dup2\n        /* \"#utility.yul\":5344:5364   */\n      sub\n        /* \"#utility.yul\":5340:5341   */\n      0x00\n        /* \"#utility.yul\":5329:5338   */\n      dup4\n        /* \"#utility.yul\":5325:5342   */\n      add\n        /* \"#utility.yul\":5318:5365   */\n      mstore\n        /* \"#utility.yul\":5382:5460   */\n      tag_159\n        /* \"#utility.yul\":5455:5459   */\n      dup2\n        /* \"#utility.yul\":5446:5452   */\n      dup6\n        /* \"#utility.yul\":5382:5460   */\n      tag_75\n      jump\t// in\n    tag_159:\n        /* \"#utility.yul\":5374:5460   */\n      swap1\n      pop\n        /* \"#utility.yul\":5470:5536   */\n      tag_160\n        /* \"#utility.yul\":5532:5534   */\n      0x20\n        /* \"#utility.yul\":5521:5530   */\n      dup4\n        /* \"#utility.yul\":5517:5535   */\n      add\n        /* \"#utility.yul\":5508:5514   */\n      dup5\n        /* \"#utility.yul\":5470:5536   */\n      tag_77\n      jump\t// in\n    tag_160:\n        /* \"#utility.yul\":5132:5543   */\n      swap4\n      swap3\n      pop\n      pop\n      pop\n      jump\t// out\n        /* \"#utility.yul\":5549:5729   */\n    tag_78:\n        /* \"#utility.yul\":5597:5674   */\n      0x4e487b7100000000000000000000000000000000000000000000000000000000\n        /* \"#utility.yul\":5594:5595   */\n      0x00\n        /* \"#utility.yul\":5587:5675   */\n      mstore\n        /* \"#utility.yul\":5694:5698   */\n      0x22\n        /* \"#utility.yul\":5691:5692   */\n      0x04\n        /* \"#utility.yul\":5684:5699   */\n      mstore\n        /* \"#utility.yul\":5718:5722   */\n      0x24\n        /* \"#utility.yul\":5715:5716   */\n      0x00\n        /* \"#utility.yul\":5708:5723   */\n      revert\n        /* \"#utility.yul\":5735:6055   */\n    tag_45:\n        /* \"#utility.yul\":5779:5785   */\n      0x00\n        /* \"#utility.yul\":5816:5817   */\n      0x02\n        /* \"#utility.yul\":5810:5814   */\n      dup3\n        /* \"#utility.yul\":5806:5818   */\n      div\n        /* \"#utility.yul\":5796:5818   */\n      swap1\n      pop\n        /* \"#utility.yul\":5863:5864   */\n      0x01\n        /* \"#utility.yul\":5857:5861   */\n      dup3\n        /* \"#utility.yul\":5853:5865   */\n      and\n        /* \"#utility.yul\":5884:5902   */\n      dup1\n        /* \"#utility.yul\":5874:5955   */\n      tag_163\n      jumpi\n        /* \"#utility.yul\":5940:5944   */\n      0x7f\n        /* \"#utility.yul\":5932:5938   */\n      dup3\n        /* \"#utility.yul\":5928:5945   */\n      and\n        /* \"#utility.yul\":5918:5945   */\n      swap2\n      pop\n        /* \"#utility.yul\":5874:5955   */\n    tag_163:\n        /* \"#utility.yul\":6002:6004   */\n      0x20\n        /* \"#utility.yul\":5994:6000   */\n      dup3\n        /* \"#utility.yul\":5991:6005   */\n      lt\n        /* \"#utility.yul\":5971:5989   */\n      dup2\n        /* \"#utility.yul\":5968:6006   */\n      sub\n        /* \"#utility.yul\":5965:6049   */\n      tag_164\n      jumpi\n        /* \"#utility.yul\":6021:6039   */\n      tag_165\n      tag_78\n      jump\t// in\n    tag_165:\n        /* \"#utility.yul\":5965:6049   */\n    tag_164:\n        /* \"#utility.yul\":5786:6055   */\n      pop\n        /* \"#utility.yul\":5735:6055   */\n      swap2\n      swap1\n      pop\n      jump\t// out\n        /* \"#utility.yul\":6061:6202   */\n    tag_79:\n        /* \"#utility.yul\":6110:6114   */\n      0x00\n        /* \"#utility.yul\":6133:6136   */\n      dup2\n        /* \"#utility.yul\":6125:6136   */\n      swap1\n      pop\n        /* \"#utility.yul\":6156:6159   */\n      dup2\n        /* \"#utility.yul\":6153:6154   */\n      0x00\n        /* \"#utility.yul\":6146:6160   */\n      mstore\n        /* \"#utility.yul\":6190:6194   */\n      0x20\n        /* \"#utility.yul\":6187:6188   */\n      0x00\n        /* \"#utility.yul\":6177:6195   */\n      keccak256\n        /* \"#utility.yul\":6169:6195   */\n      swap1\n      pop\n        /* \"#utility.yul\":6061:6202   */\n      swap2\n      swap1\n      pop\n      jump\t// out\n        /* \"#utility.yul\":6208:6301   */\n    tag_80:\n        /* \"#utility.yul\":6245:6251   */\n      0x00\n        /* \"#utility.yul\":6292:6294   */\n      0x20\n        /* \"#utility.yul\":6287:6289   */\n      0x1f\n        /* \"#utility.yul\":6280:6285   */\n      dup4\n        /* \"#utility.yul\":6276:6290   */\n      add\n        /* \"#utility.yul\":6272:6295   */\n      div\n        /* \"#utility.yul\":6262:6295   */\n      swap1\n      pop\n        /* \"#utility.yul\":6208:6301   */\n      swap2\n      swap1\n      pop\n      jump\t// out\n        /* \"#utility.yul\":6307:6414   */\n    tag_81:\n        /* \"#utility.yul\":6351:6359   */\n      0x00\n        /* \"#utility.yul\":6401:6406   */\n      dup3\n        /* \"#utility.yul\":6395:6399   */\n      dup3\n        /* \"#utility.yul\":6391:6407   */\n      shl\n        /* \"#utility.yul\":6370:6407   */\n      swap1\n      pop\n        /* \"#utility.yul\":6307:6414   */\n      swap3\n      swap2\n      pop\n      pop\n      jump\t// out\n        /* \"#utility.yul\":6420:6813   */\n    tag_82:\n        /* \"#utility.yul\":6489:6495   */\n      0x00\n        /* \"#utility.yul\":6539:6540   */\n      0x08\n        /* \"#utility.yul\":6527:6537   */\n      dup4\n        /* \"#utility.yul\":6523:6541   */\n      mul\n        /* \"#utility.yul\":6562:6659   */\n      tag_170\n        /* \"#utility.yul\":6592:6658   */\n      0xffffffffffffffffffffffffffffffffffffffffffffffffffffffffffffffff\n        /* \"#utility.yul\":6581:6590   */\n      dup3\n        /* \"#utility.yul\":6562:6659   */\n      tag_81\n      jump\t// in\n    tag_170:\n        /* \"#utility.yul\":6680:6719   */\n      tag_171\n        /* \"#utility.yul\":6710:6718   */\n      dup7\n        /* \"#utility.yul\":6699:6708   */\n      dup4\n        /* \"#utility.yul\":6680:6719   */\n      tag_81\n      jump\t// in\n    tag_171:\n        /* \"#utility.yul\":6668:6719   */\n      swap6\n      pop\n        /* \"#utility.yul\":6752:6756   */\n      dup1\n        /* \"#utility.yul\":6748:6757   */\n      not\n        /* \"#utility.yul\":6741:6746   */\n      dup5\n        /* \"#utility.yul\":6737:6758   */\n      and\n        /* \"#utility.yul\":6728:6758   */\n      swap4\n      pop\n        /* \"#utility.yul\":6801:6805   */\n      dup1\n        /* \"#utility.yul\":6791:6799   */\n      dup7\n        /* \"#utility.yul\":6787:6806   */\n      and\n        /* \"#utility.yul\":6780:6785   */\n      dup5\n        /* \"#utility.yul\":6777:6807   */\n      or\n        /* \"#utility.yul\":6767:6807   */\n      swap3\n      pop\n        /* \"#utility.yul\":6496:6813   */\n      pop\n      pop\n        /* \"#utility.yul\":6420:6813   */\n      swap4\n      swap3\n      pop\n      pop\n      pop\n      jump\t// out\n        /* \"#utility.yul\":6819:6879   */\n    tag_83:\n        /* \"#utility.yul\":6847:6850   */\n      0x00\n        /* \"#utility.yul\":6868:6873   */\n      dup2\n        /* \"#utility.yul\":6861:6873   */\n      swap1\n      pop\n        /* \"#utility.yul\":6819:6879   */\n      swap2\n      swap1\n      pop\n      jump\t// out\n        /* \"#utility.yul\":6885:7027   */\n    tag_84:\n        /* \"#utility.yul\":6935:6944   */\n      0x00\n        /* \"#utility.yul\":6968:7021   */\n      tag_174\n        /* \"#utility.yul\":6986:7020   */\n      tag_175\n        /* \"#utility.yul\":6995:7019   */\n      tag_176\n        /* \"#utility.yul\":7013:7018   */\n      dup5\n        /* \"#utility.yul\":6995:7019   */\n      tag_55\n      jump\t// in\n    tag_176:\n        /* \"#utility.yul\":6986:7020   */\n      tag_83\n      jump\t// in\n    tag_175:\n        /* \"#utility.yul\":6968:7021   */\n      tag_55\n      jump\t// in\n    tag_174:\n        /* \"#utility.yul\":6955:7021   */\n      swap1\n      pop\n        /* \"#utility.yul\":6885:7027   */\n      swap2\n      swap1\n      pop\n      jump\t// out\n        /* \"#utility.yul\":7033:7108   */\n    tag_85:\n        /* \"#utility.yul\":7076:7079   */\n      0x00\n        /* \"#utility.yul\":7097:7102   */\n      dup2\n        /* \"#utility.yul\":7090:7102   */\n      swap1\n      pop\n        /* \"#utility.yul\":7033:7108   */\n      swap2\n      swap1\n      pop\n      jump\t// out\n        /* \"#utility.yul\":7114:7383   */\n    tag_86:\n        /* \"#utility.yul\":7224:7263   */\n      tag_179\n        /* \"#utility.yul\":7255:7262   */\n      dup4\n        /* \"#utility.yul\":7224:7263   */\n      tag_84\n      jump\t// in\n    tag_179:\n        /* \"#utility.yul\":7285:7376   */\n      tag_180\n        /* \"#utility.yul\":7334:7375   */\n      tag_181\n        /* \"#utility.yul\":7358:7374   */\n      dup3\n        /* \"#utility.yul\":7334:7375   */\n      tag_85\n      jump\t// in\n    tag_181:\n        /* \"#utility.yul\":7326:7332   */\n      dup5\n        /* \"#utility.yul\":7319:7323   */\n      dup5\n        /* \"#utility.yul\":7313:7324   */\n      sload\n        /* \"#utility.yul\":7285:7376   */\n      tag_82\n      jump\t// in\n    tag_180:\n        /* \"#utility.yul\":7279:7283   */\n      dup3\n        /* \"#utility.yul\":7272:7377   */\n      sstore\n        /* \"#utility.yul\":7190:7383   */\n      pop\n        /* \"#utility.yul\":7114:7383   */\n      pop\n      pop\n      pop\n      jump\t// out\n        /* \"#utility.yul\":7389:7462   */\n    tag_87:\n        /* \"#utility.yul\":7434:7437   */\n      0x00\n        /* \"#utility.yul\":7389:7462   */\n      swap1\n      jump\t// out\n        /* \"#utility.yul\":7468:7657   */\n    tag_88:\n        /* \"#utility.yul\":7545:7577   */\n      tag_184\n      tag_87\n      jump\t// in\n    tag_184:\n        /* \"#utility.yul\":7586:7651   */\n      tag_185\n        /* \"#utility.yul\":7644:7650   */\n      dup2\n        /* \"#utility.yul\":7636:7642   */\n      dup5\n        /* \"#utility.yul\":7630:7634   */\n      dup5\n        /* \"#utility.yul\":7586:7651   */\n      tag_86\n      jump\t// in\n    tag_185:\n        /* \"#utility.yul\":7521:7657   */\n      pop\n        /* \"#utility.yul\":7468:7657   */\n      pop\n      pop\n      jump\t// out\n        /* \"#utility.yul\":7663:7849   */\n    tag_89:\n        /* \"#utility.yul\":7723:7843   */\n    tag_187:\n        /* \"#utility.yul\":7740:7743   */\n      dup2\n        /* \"#utility.yul\":7733:7738   */\n      dup2\n        /* \"#utility.yul\":7730:7744   */\n      lt\n        /* \"#utility.yul\":7723:7843   */\n      iszero\n      tag_189\n      jumpi\n        /* \"#utility.yul\":7794:7833   */\n      tag_190\n        /* \"#utility.yul\":7831:7832   */\n      0x00\n        /* \"#utility.yul\":7824:7829   */\n      dup3\n        /* \"#utility.yul\":7794:7833   */\n      tag_88\n      jump\t// in\n    tag_190:\n        /* \"#utility.yul\":7767:7768   */\n      0x01\n        /* \"#utility.yul\":7760:7765   */\n      dup2\n        /* \"#utility.yul\":7756:7769   */\n      add\n        /* \"#utility.yul\":7747:7769   */\n      swap1\n      pop\n        /* \"#utility.yul\":7723:7843   */\n      jump(tag_187)\n    tag_189:\n        /* \"#utility.yul\":7663:7849   */\n      pop\n      pop\n      jump\t// out\n        /* \"#utility.yul\":7855:8398   */\n    tag_90:\n        /* \"#utility.yul\":7956:7958   */\n      0x1f\n        /* \"#utility.yul\":7951:7954   */\n      dup3\n        /* \"#utility.yul\":7948:7959   */\n      gt\n        /* \"#utility.yul\":7945:8391   */\n      iszero\n      tag_192\n      jumpi\n        /* \"#utility.yul\":7990:8028   */\n      tag_193\n        /* \"#utility.yul\":8022:8027   */\n      dup2\n        /* \"#utility.yul\":7990:8028   */\n      tag_79\n      jump\t// in\n    tag_193:\n        /* \"#utility.yul\":8074:8103   */\n      tag_194\n        /* \"#utility.yul\":8092:8102   */\n      dup5\n        /* \"#utility.yul\":8074:8103   */\n      tag_80\n      jump\t// in\n    tag_194:\n        /* \"#utility.yul\":8064:8072   */\n      dup2\n        /* \"#utility.yul\":8060:8104   */\n      add\n        /* \"#utility.yul\":8257:8259   */\n      0x20\n        /* \"#utility.yul\":8245:8255   */\n      dup6\n        /* \"#utility.yul\":8242:8260   */\n      lt\n        /* \"#utility.yul\":8239:8288   */\n      iszero\n      tag_195\n      jumpi\n        /* \"#utility.yul\":8278:8286   */\n      dup2\n        /* \"#utility.yul\":8263:8286   */\n      swap1\n      pop\n        /* \"#utility.yul\":8239:8288   */\n    tag_195:\n        /* \"#utility.yul\":8301:8381   */\n      tag_196\n        /* \"#utility.yul\":8357:8379   */\n      tag_197\n        /* \"#utility.yul\":8375:8378   */\n      dup6\n        /* \"#utility.yul\":8357:8379   */\n      tag_80\n      jump\t// in\n    tag_197:\n        /* \"#utility.yul\":8347:8355   */\n      dup4\n        /* \"#utility.yul\":8343:8380   */\n      add\n        /* \"#utility.yul\":8330:8341   */\n      dup3\n        /* \"#utility.yul\":8301:8381   */\n      tag_89\n      jump\t// in\n    tag_196:\n        /* \"#utility.yul\":7960:8391   */\n      pop\n      pop\n        /* \"#utility.yul\":7945:8391   */\n    tag_192:\n        /* \"#utility.yul\":7855:8398   */\n      pop\n      pop\n      pop\n      jump\t// out\n        /* \"#utility.yul\":8404:8521   */\n    tag_91:\n        /* \"#utility.yul\":8458:8466   */\n      0x00\n        /* \"#utility.yul\":8508:8513   */\n      dup3\n        /* \"#utility.yul\":8502:8506   */\n      dup3\n        /* \"#utility.yul\":8498:8514   */\n      shr\n        /* \"#utility.yul\":8477:8514   */\n      swap1\n      pop\n        /* \"#utility.yul\":8404:8521   */\n      swap3\n      swap2\n      pop\n      pop\n      jump\t// out\n        /* \"#utility.yul\":8527:8696   */\n    tag_92:\n        /* \"#utility.yul\":8571:8577   */\n      0x00\n        /* \"#utility.yul\":8604:8655   */\n      tag_200\n        /* \"#utility.yul\":8652:8653   */\n      0x00\n        /* \"#utility.yul\":8648:8654   */\n      not\n        /* \"#utility.yul\":8640:8645   */\n      dup5\n        /* \"#utility.yul\":8637:8638   */\n      0x08\n        /* \"#utility.yul\":8633:8646   */\n      mul\n        /* \"#utility.yul\":8604:8655   */\n      tag_91\n      jump\t// in\n    tag_200:\n        /* \"#utility.yul\":8600:8656   */\n      not\n        /* \"#utility.yul\":8685:8689   */\n      dup1\n        /* \"#utility.yul\":8679:8683   */\n      dup4\n        /* \"#utility.yul\":8675:8690   */\n      and\n        /* \"#utility.yul\":8665:8690   */\n      swap2\n      pop\n        /* \"#utility.yul\":8578:8696   */\n      pop\n        /* \"#utility.yul\":8527:8696   */\n      swap3\n      swap2\n      pop\n      pop\n      jump\t// out\n        /* \"#utility.yul\":8701:8996   */\n    tag_93:\n        /* \"#utility.yul\":8777:8781   */\n      0x00\n        /* \"#utility.yul\":8923:8952   */\n      tag_202\n        /* \"#utility.yul\":8948:8951   */\n      dup4\n        /* \"#utility.yul\":8942:8946   */\n      dup4\n        /* \"#utility.yul\":8923:8952   */\n      tag_92\n      jump\t// in\n    tag_202:\n        /* \"#utility.yul\":8915:8952   */\n      swap2\n      pop\n        /* \"#utility.yul\":8985:8988   */\n      dup3\n        /* \"#utility.yul\":8982:8983   */\n      0x02\n        /* \"#utility.yul\":8978:8989   */\n      mul\n        /* \"#utility.yul\":8972:8976   */\n      dup3\n        /* \"#utility.yul\":8969:8990   */\n      or\n        /* \"#utility.yul\":8961:8990   */\n      swap1\n      pop\n        /* \"#utility.yul\":8701:8996   */\n      swap3\n      swap2\n      pop\n      pop\n      jump\t// out\n        /* \"#utility.yul\":9001:10396   */\n    tag_28:\n        /* \"#utility.yul\":9118:9155   */\n      tag_204\n        /* \"#utility.yul\":9151:9154   */\n      dup3\n        /* \"#utility.yul\":9118:9155   */\n      tag_72\n      jump\t// in\n    tag_204:\n        /* \"#utility.yul\":9220:9238   */\n      0xffffffffffffffff\n        /* \"#utility.yul\":9212:9218   */\n      dup2\n        /* \"#utility.yul\":9209:9239   */\n      gt\n        /* \"#utility.yul\":9206:9262   */\n      iszero\n      tag_205\n      jumpi\n        /* \"#utility.yul\":9242:9260   */\n      tag_206\n      tag_63\n      jump\t// in\n    tag_206:\n        /* \"#utility.yul\":9206:9262   */\n    tag_205:\n        /* \"#utility.yul\":9286:9324   */\n      tag_207\n        /* \"#utility.yul\":9318:9322   */\n      dup3\n        /* \"#utility.yul\":9312:9323   */\n      sload\n        /* \"#utility.yul\":9286:9324   */\n      tag_45\n      jump\t// in\n    tag_207:\n        /* \"#utility.yul\":9371:9438   */\n      tag_208\n        /* \"#utility.yul\":9431:9437   */\n      dup3\n        /* \"#utility.yul\":9423:9429   */\n      dup3\n        /* \"#utility.yul\":9417:9421   */\n      dup6\n        /* \"#utility.yul\":9371:9438   */\n      tag_90\n      jump\t// in\n    tag_208:\n        /* \"#utility.yul\":9465:9466   */\n      0x00\n        /* \"#utility.yul\":9489:9493   */\n      0x20\n        /* \"#utility.yul\":9476:9493   */\n      swap1\n      pop\n        /* \"#utility.yul\":9521:9523   */\n      0x1f\n        /* \"#utility.yul\":9513:9519   */\n      dup4\n        /* \"#utility.yul\":9510:9524   */\n      gt\n        /* \"#utility.yul\":9538:9539   */\n      0x01\n        /* \"#utility.yul\":9533:10151   */\n      dup2\n      eq\n      tag_210\n      jumpi\n        /* \"#utility.yul\":10195:10196   */\n      0x00\n        /* \"#utility.yul\":10212:10218   */\n      dup5\n        /* \"#utility.yul\":10209:10286   */\n      iszero\n      tag_211\n      jumpi\n        /* \"#utility.yul\":10261:10270   */\n      dup3\n        /* \"#utility.yul\":10256:10259   */\n      dup8\n        /* \"#utility.yul\":10252:10271   */\n      add\n        /* \"#utility.yul\":10246:10272   */\n      mload\n        /* \"#utility.yul\":10237:10272   */\n      swap1\n      pop\n        /* \"#utility.yul\":10209:10286   */\n    tag_211:\n        /* \"#utility.yul\":10312:10379   */\n      tag_212\n        /* \"#utility.yul\":10372:10378   */\n      dup6\n        /* \"#utility.yul\":10365:10370   */\n      dup3\n        /* \"#utility.yul\":10312:10379   */\n      tag_93\n      jump\t// in\n    tag_212:\n        /* \"#utility.yul\":10306:10310   */\n      dup7\n        /* \"#utility.yul\":10299:10380   */\n      sstore\n        /* \"#utility.yul\":10168:10390   */\n      pop\n        /* \"#utility.yul\":9503:10390   */\n      jump(tag_209)\n        /* \"#utility.yul\":9533:10151   */\n    tag_210:\n        /* \"#utility.yul\":9585:9589   */\n      0x1f\n        /* \"#utility.yul\":9581:9590   */\n      not\n        /* \"#utility.yul\":9573:9579   */\n      dup5\n        /* \"#utility.yul\":9569:9591   */\n      and\n        /* \"#utility.yul\":9619:9656   */\n      tag_213\n        /* \"#utility.yul\":9651:9655   */\n      dup7\n        /* \"#utility.yul\":9619:9656   */\n      tag_79\n      jump\t// in\n    tag_213:\n        /* \"#utility.yul\":9678:9679   */\n      0x00\n        /* \"#utility.yul\":9692:9900   */\n    tag_214:\n        /* \"#utility.yul\":9706:9713   */\n      dup3\n        /* \"#utility.yul\":9703:9704   */\n      dup2\n        /* \"#utility.yul\":9700:9714   */\n      lt\n        /* \"#utility.yul\":9692:9900   */\n      iszero\n      tag_216\n      jumpi\n        /* \"#utility.yul\":9785:9794   */\n      dup5\n        /* \"#utility.yul\":9780:9783   */\n      dup10\n        /* \"#utility.yul\":9776:9795   */\n      add\n        /* \"#utility.yul\":9770:9796   */\n      mload\n        /* \"#utility.yul\":9762:9768   */\n      dup3\n        /* \"#utility.yul\":9755:9797   */\n      sstore\n        /* \"#utility.yul\":9836:9837   */\n      0x01\n        /* \"#utility.yul\":9828:9834   */\n      dup3\n        /* \"#utility.yul\":9824:9838   */\n      add\n        /* \"#utility.yul\":9814:9838   */\n      swap2\n      pop\n        /* \"#utility.yul\":9883:9885   */\n      0x20\n        /* \"#utility.yul\":9872:9881   */\n      dup6\n        /* \"#utility.yul\":9868:9886   */\n      add\n        /* \"#utility.yul\":9855:9886   */\n      swap5\n      pop\n        /* \"#utility.yul\":9729:9733   */\n      0x20\n        /* \"#utility.yul\":9726:9727   */\n      dup2\n        /* \"#utility.yul\":9722:9734   */\n      add\n        /* \"#utility.yul\":9717:9734   */\n      swap1\n      pop\n        /* \"#utility.yul\":9692:9900   */\n      jump(tag_214)\n    tag_216:\n        /* \"#utility.yul\":9928:9934   */\n      dup7\n        /* \"#utility.yul\":9919:9926   */\n      dup4\n        /* \"#utility.yul\":9916:9935   */\n      lt\n        /* \"#utility.yul\":9913:10092   */\n      iszero\n      tag_217\n      jumpi\n        /* \"#utility.yul\":9986:9995   */\n      dup5\n        /* \"#utility.yul\":9981:9984   */\n      dup10\n        /* \"#utility.yul\":9977:9996   */\n      add\n        /* \"#utility.yul\":9971:9997   */\n      mload\n        /* \"#utility.yul\":10029:10077   */\n      tag_218\n        /* \"#utility.yul\":10071:10075   */\n      0x1f\n        /* \"#utility.yul\":10063:10069   */\n      dup10\n        /* \"#utility.yul\":10059:10076   */\n      and\n        /* \"#utility.yul\":10048:10057   */\n      dup3\n        /* \"#utility.yul\":10029:10077   */\n      tag_92\n      jump\t// in\n    tag_218:\n        /* \"#utility.yul\":10021:10027   */\n      dup4\n        /* \"#utility.yul\":10014:10078   */\n      sstore\n        /* \"#utility.yul\":9936:10092   */\n      pop\n        /* \"#utility.yul\":9913:10092   */\n    tag_217:\n        /* \"#utility.yul\":10138:10139   */\n      0x01\n        /* \"#utility.yul\":10134:10135   */\n      0x02\n        /* \"#utility.yul\":10126:10132   */\n      dup9\n        /* \"#utility.yul\":10122:10136   */\n      mul\n        /* \"#utility.yul\":10118:10140   */\n      add\n        /* \"#utility.yul\":10112:10116   */\n      dup9\n        /* \"#utility.yul\":10105:10141   */\n      sstore\n        /* \"#utility.yul\":9540:10151   */\n      pop\n      pop\n      pop\n        /* \"#utility.yul\":9503:10390   */\n    tag_209:\n      pop\n        /* \"#utility.yul\":9093:10396   */\n      pop\n      pop\n      pop\n        /* \"#utility.yul\":9001:10396   */\n      pop\n      pop\n      jump\t// out\n        /* \"#utility.yul\":10402:10582   */\n    tag_94:\n        /* \"#utility.yul\":10450:10527   */\n      0x4e487b7100000000000000000000000000000000000000000000000000000000\n        /* \"#utility.yul\":10447:10448   */\n      0x00\n        /* \"#utility.yul\":10440:10528   */\n      mstore\n        /* \"#utility.yul\":10547:10551   */\n      0x11\n        /* \"#utility.yul\":10544:10545   */\n      0x04\n        /* \"#utility.yul\":10537:10552   */\n      mstore\n        /* \"#utility.yul\":10571:10575   */\n      0x24\n        /* \"#utility.yul\":10568:10569   */\n      0x00\n        /* \"#utility.yul\":10561:10576   */\n      revert\n        /* \"#utility.yul\":10588:10782   */\n    tag_31:\n        /* \"#utility.yul\":10628:10632   */\n      0x00\n        /* \"#utility.yul\":10648:10668   */\n      tag_221\n        /* \"#utility.yul\":10666:10667   */\n      dup3\n        /* \"#utility.yul\":10648:10668   */\n      tag_55\n      jump\t// in\n    tag_221:\n        /* \"#utility.yul\":10643:10668   */\n      swap2\n      pop\n        /* \"#utility.yul\":10682:10702   */\n      tag_222\n        /* \"#utility.yul\":10700:10701   */\n      dup4\n        /* \"#utility.yul\":10682:10702   */\n      tag_55\n      jump\t// in\n    tag_222:\n        /* \"#utility.yul\":10677:10702   */\n      swap3\n      pop\n        /* \"#utility.yul\":10726:10727   */\n      dup3\n        /* \"#utility.yul\":10723:10724   */\n      dup3\n        /* \"#utility.yul\":10719:10728   */\n      sub\n        /* \"#utility.yul\":10711:10728   */\n      swap1\n      pop\n        /* \"#utility.yul\":10750:10751   */\n      dup2\n        /* \"#utility.yul\":10744:10748   */\n      dup2\n        /* \"#utility.yul\":10741:10752   */\n      gt\n        /* \"#utility.yul\":10738:10775   */\n      iszero\n      tag_223\n      jumpi\n        /* \"#utility.yul\":10755:10773   */\n      tag_224\n      tag_94\n      jump\t// in\n    tag_224:\n        /* \"#utility.yul\":10738:10775   */\n    tag_223:\n        /* \"#utility.yul\":10588:10782   */\n      swap3\n      swap2\n      pop\n      pop\n      jump\t// out\n        /* \"#utility.yul\":10788:10959   */\n    tag_95:\n        /* \"#utility.yul\":10928:10951   */\n      0x7461736b206973206e6f7420617661696c61626c650000000000000000000000\n        /* \"#utility.yul\":10924:10925   */\n      0x00\n        /* \"#utility.yul\":10916:10922   */\n      dup3\n        /* \"#utility.yul\":10912:10926   */\n      add\n        /* \"#utility.yul\":10905:10952   */\n      mstore\n        /* \"#utility.yul\":10788:10959   */\n      pop\n      jump\t// out\n        /* \"#utility.yul\":10965:11331   */\n    tag_96:\n        /* \"#utility.yul\":11107:11110   */\n      0x00\n        /* \"#utility.yul\":11128:11195   */\n      tag_227\n        /* \"#utility.yul\":11192:11194   */\n      0x15\n        /* \"#utility.yul\":11187:11190   */\n      dup4\n        /* \"#utility.yul\":11128:11195   */\n      tag_73\n      jump\t// in\n    tag_227:\n        /* \"#utility.yul\":11121:11195   */\n      swap2\n      pop\n        /* \"#utility.yul\":11204:11297   */\n      tag_228\n        /* \"#utility.yul\":11293:11296   */\n      dup3\n        /* \"#utility.yul\":11204:11297   */\n      tag_95\n      jump\t// in\n    tag_228:\n        /* \"#utility.yul\":11322:11324   */\n      0x20\n        /* \"#utility.yul\":11317:11320   */\n      dup3\n        /* \"#utility.yul\":11313:11325   */\n      add\n        /* \"#utility.yul\":11306:11325   */\n      swap1\n      pop\n        /* \"#utility.yul\":10965:11331   */\n      swap2\n      swap1\n      pop\n      jump\t// out\n        /* \"#utility.yul\":11337:11756   */\n    tag_34:\n        /* \"#utility.yul\":11503:11507   */\n      0x00\n        /* \"#utility.yul\":11541:11543   */\n      0x20\n        /* \"#utility.yul\":11530:11539   */\n      dup3\n        /* \"#utility.yul\":11526:11544   */\n      add\n        /* \"#utility.yul\":11518:11544   */\n      swap1\n      pop\n        /* \"#utility.yul\":11590:11599   */\n      dup2\n        /* \"#utility.yul\":11584:11588   */\n      dup2\n        /* \"#utility.yul\":11580:11600   */\n      sub\n        /* \"#utility.yul\":11576:11577   */\n      0x00\n        /* \"#utility.yul\":11565:11574   */\n      dup4\n        /* \"#utility.yul\":11561:11578   */\n      add\n        /* \"#utility.yul\":11554:11601   */\n      mstore\n        /* \"#utility.yul\":11618:11749   */\n      tag_230\n        /* \"#utility.yul\":11744:11748   */\n      dup2\n        /* \"#utility.yul\":11618:11749   */\n      tag_96\n      jump\t// in\n    tag_230:\n        /* \"#utility.yul\":11610:11749   */\n      swap1\n      pop\n        /* \"#utility.yul\":11337:11756   */\n      swap2\n      swap1\n      pop\n      jump\t// out\n        /* \"#utility.yul\":11762:11942   */\n    tag_38:\n        /* \"#utility.yul\":11810:11887   */\n      0x4e487b7100000000000000000000000000000000000000000000000000000000\n        /* \"#utility.yul\":11807:11808   */\n      0x00\n        /* \"#utility.yul\":11800:11888   */\n      mstore\n        /* \"#utility.yul\":11907:11911   */\n      0x32\n        /* \"#utility.yul\":11904:11905   */\n      0x04\n        /* \"#utility.yul\":11897:11912   */\n      mstore\n        /* \"#utility.yul\":11931:11935   */\n      0x24\n        /* \"#utility.yul\":11928:11929   */\n      0x00\n        /* \"#utility.yul\":11921:11936   */\n      revert\n\n    auxdata: 0xa2646970667358221220ce6a66be6e22244603656f805c102f1784b1f63e43897d67804bdcd85211ae9c64736f6c634300081a0033\n}\n",
				"bytecode": {
					"linkReferences": {},
					"object": "6080604052348015600e575f80fd5b506109a58061001c5f395ff3fe608060405234801561000f575f80fd5b506004361061004a575f3560e01c806354c6ef271461004e578063672385621461006c578063b93a89f714610088578063e1e29558146100b9575b5f80fd5b6100566100d5565b6040516100639190610307565b60405180910390f35b6100866004803603810190610081919061046d565b6100e0565b005b6100a2600480360381019061009d91906104de565b610156565b6040516100b0929190610583565b60405180910390f35b6100d360048036038101906100ce91906104de565b6102a6565b005b5f8080549050905090565b5f60405180604001604052808381526020015f1515815250908060018154018082558091505060019003905f5260205f2090600202015f909190919091505f820151815f01908161013191906107ab565b506020820151816001015f6101000a81548160ff021916908315150217905550505050565b60605f808054905060018461016b91906108a7565b106101ab576040517f08c379a00000000000000000000000000000000000000000000000000000000081526004016101a290610924565b60405180910390fd5b5f6001846101b991906108a7565b815481106101ca576101c9610942565b5b905f5260205f2090600202015f015f6001856101e691906108a7565b815481106101f7576101f6610942565b5b905f5260205f2090600202016001015f9054906101000a900460ff1681805461021f906105de565b80601f016020809104026020016040519081016040528092919081815260200182805461024b906105de565b80156102965780601f1061026d57610100808354040283529160200191610296565b820191905f5260205f20905b81548152906001019060200180831161027957829003601f168201915b5050505050915091509150915091565b60015f6001836102b691906108a7565b815481106102c7576102c6610942565b5b905f5260205f2090600202016001015f6101000a81548160ff02191690831515021790555050565b5f819050919050565b610301816102ef565b82525050565b5f60208201905061031a5f8301846102f8565b92915050565b5f604051905090565b5f80fd5b5f80fd5b5f80fd5b5f80fd5b5f601f19601f8301169050919050565b7f4e487b71000000000000000000000000000000000000000000000000000000005f52604160045260245ffd5b61037f82610339565b810181811067ffffffffffffffff8211171561039e5761039d610349565b5b80604052505050565b5f6103b0610320565b90506103bc8282610376565b919050565b5f67ffffffffffffffff8211156103db576103da610349565b5b6103e482610339565b9050602081019050919050565b828183375f83830152505050565b5f61041161040c846103c1565b6103a7565b90508281526020810184848401111561042d5761042c610335565b5b6104388482856103f1565b509392505050565b5f82601f83011261045457610453610331565b5b81356104648482602086016103ff565b91505092915050565b5f6020828403121561048257610481610329565b5b5f82013567ffffffffffffffff81111561049f5761049e61032d565b5b6104ab84828501610440565b91505092915050565b6104bd816102ef565b81146104c7575f80fd5b50565b5f813590506104d8816104b4565b92915050565b5f602082840312156104f3576104f2610329565b5b5f610500848285016104ca565b91505092915050565b5f81519050919050565b5f82825260208201905092915050565b8281835e5f83830152505050565b5f61053b82610509565b6105458185610513565b9350610555818560208601610523565b61055e81610339565b840191505092915050565b5f8115159050919050565b61057d81610569565b82525050565b5f6040820190508181035f83015261059b8185610531565b90506105aa6020830184610574565b9392505050565b7f4e487b71000000000000000000000000000000000000000000000000000000005f52602260045260245ffd5b5f60028204905060018216806105f557607f821691505b602082108103610608576106076105b1565b5b50919050565b5f819050815f5260205f209050919050565b5f6020601f8301049050919050565b5f82821b905092915050565b5f6008830261066a7fffffffffffffffffffffffffffffffffffffffffffffffffffffffffffffffff8261062f565b610674868361062f565b95508019841693508086168417925050509392505050565b5f819050919050565b5f6106af6106aa6106a5846102ef565b61068c565b6102ef565b9050919050565b5f819050919050565b6106c883610695565b6106dc6106d4826106b6565b84845461063b565b825550505050565b5f90565b6106f06106e4565b6106fb8184846106bf565b505050565b5b8181101561071e576107135f826106e8565b600181019050610701565b5050565b601f821115610763576107348161060e565b61073d84610620565b8101602085101561074c578190505b61076061075885610620565b830182610700565b50505b505050565b5f82821c905092915050565b5f6107835f1984600802610768565b1980831691505092915050565b5f61079b8383610774565b9150826002028217905092915050565b6107b482610509565b67ffffffffffffffff8111156107cd576107cc610349565b5b6107d782546105de565b6107e2828285610722565b5f60209050601f831160018114610813575f8415610801578287015190505b61080b8582610790565b865550610872565b601f1984166108218661060e565b5f5b8281101561084857848901518255600182019150602085019450602081019050610823565b868310156108655784890151610861601f891682610774565b8355505b6001600288020188555050505b505050505050565b7f4e487b71000000000000000000000000000000000000000000000000000000005f52601160045260245ffd5b5f6108b1826102ef565b91506108bc836102ef565b92508282039050818111156108d4576108d361087a565b5b92915050565b7f7461736b206973206e6f7420617661696c61626c6500000000000000000000005f82015250565b5f61090e601583610513565b9150610919826108da565b602082019050919050565b5f6020820190508181035f83015261093b81610902565b9050919050565b7f4e487b71000000000000000000000000000000000000000000000000000000005f52603260045260245ffdfea2646970667358221220ce6a66be6e22244603656f805c102f1784b1f63e43897d67804bdcd85211ae9c64736f6c634300081a0033",
					"opcodes": "PUSH1 0x80 PUSH1 0x40 MSTORE CALLVALUE DUP1 ISZERO PUSH1 0xE JUMPI PUSH0 DUP1 REVERT JUMPDEST POP PUSH2 0x9A5 DUP1 PUSH2 0x1C PUSH0 CODECOPY PUSH0 RETURN INVALID PUSH1 0x80 PUSH1 0x40 MSTORE CALLVALUE DUP1 ISZERO PUSH2 0xF JUMPI PUSH0 DUP1 REVERT JUMPDEST POP PUSH1 0x4 CALLDATASIZE LT PUSH2 0x4A JUMPI PUSH0 CALLDATALOAD PUSH1 0xE0 SHR DUP1 PUSH4 0x54C6EF27 EQ PUSH2 0x4E JUMPI DUP1 PUSH4 0x67238562 EQ PUSH2 0x6C JUMPI DUP1 PUSH4 0xB93A89F7 EQ PUSH2 0x88 JUMPI DUP1 PUSH4 0xE1E29558 EQ PUSH2 0xB9 JUMPI JUMPDEST PUSH0 DUP1 REVERT JUMPDEST PUSH2 0x56 PUSH2 0xD5 JUMP JUMPDEST PUSH1 0x40 MLOAD PUSH2 0x63 SWAP2 SWAP1 PUSH2 0x307 JUMP JUMPDEST PUSH1 0x40 MLOAD DUP1 SWAP2 SUB SWAP1 RETURN JUMPDEST PUSH2 0x86 PUSH1 0x4 DUP1 CALLDATASIZE SUB DUP2 ADD SWAP1 PUSH2 0x81 SWAP2 SWAP1 PUSH2 0x46D JUMP JUMPDEST PUSH2 0xE0 JUMP JUMPDEST STOP JUMPDEST PUSH2 0xA2 PUSH1 0x4 DUP1 CALLDATASIZE SUB DUP2 ADD SWAP1 PUSH2 0x9D SWAP2 SWAP1 PUSH2 0x4DE JUMP JUMPDEST PUSH2 0x156 JUMP JUMPDEST PUSH1 0x40 MLOAD PUSH2 0xB0 SWAP3 SWAP2 SWAP1 PUSH2 0x583 JUMP JUMPDEST PUSH1 0x40 MLOAD DUP1 SWAP2 SUB SWAP1 RETURN JUMPDEST PUSH2 0xD3 PUSH1 0x4 DUP1 CALLDATASIZE SUB DUP2 ADD SWAP1 PUSH2 0xCE SWAP2 SWAP1 PUSH2 0x4DE JUMP JUMPDEST PUSH2 0x2A6 JUMP JUMPDEST STOP JUMPDEST PUSH0 DUP1 DUP1 SLOAD SWAP1 POP SWAP1 POP SWAP1 JUMP JUMPDEST PUSH0 PUSH1 0x40 MLOAD DUP1 PUSH1 0x40 ADD PUSH1 0x40 MSTORE DUP1 DUP4 DUP2 MSTORE PUSH1 0x20 ADD PUSH0 ISZERO ISZERO DUP2 MSTORE POP SWAP1 DUP1 PUSH1 0x1 DUP2 SLOAD ADD DUP1 DUP3 SSTORE DUP1 SWAP2 POP POP PUSH1 0x1 SWAP1 SUB SWAP1 PUSH0 MSTORE PUSH1 0x20 PUSH0 KECCAK256 SWAP1 PUSH1 0x2 MUL ADD PUSH0 SWAP1 SWAP2 SWAP1 SWAP2 SWAP1 SWAP2 POP PUSH0 DUP3 ADD MLOAD DUP2 PUSH0 ADD SWAP1 DUP2 PUSH2 0x131 SWAP2 SWAP1 PUSH2 0x7AB JUMP JUMPDEST POP PUSH1 0x20 DUP3 ADD MLOAD DUP2 PUSH1 0x1 ADD PUSH0 PUSH2 0x100 EXP DUP2 SLOAD DUP2 PUSH1 0xFF MUL NOT AND SWAP1 DUP4 ISZERO ISZERO MUL OR SWAP1 SSTORE POP POP POP POP JUMP JUMPDEST PUSH1 0x60 PUSH0 DUP1 DUP1 SLOAD SWAP1 POP PUSH1 0x1 DUP5 PUSH2 0x16B SWAP2 SWAP1 PUSH2 0x8A7 JUMP JUMPDEST LT PUSH2 0x1AB JUMPI PUSH1 0x40 MLOAD PUSH32 0x8C379A000000000000000000000000000000000000000000000000000000000 DUP2 MSTORE PUSH1 0x4 ADD PUSH2 0x1A2 SWAP1 PUSH2 0x924 JUMP JUMPDEST PUSH1 0x40 MLOAD DUP1 SWAP2 SUB SWAP1 REVERT JUMPDEST PUSH0 PUSH1 0x1 DUP5 PUSH2 0x1B9 SWAP2 SWAP1 PUSH2 0x8A7 JUMP JUMPDEST DUP2 SLOAD DUP2 LT PUSH2 0x1CA JUMPI PUSH2 0x1C9 PUSH2 0x942 JUMP JUMPDEST JUMPDEST SWAP1 PUSH0 MSTORE PUSH1 0x20 PUSH0 KECCAK256 SWAP1 PUSH1 0x2 MUL ADD PUSH0 ADD PUSH0 PUSH1 0x1 DUP6 PUSH2 0x1E6 SWAP2 SWAP1 PUSH2 0x8A7 JUMP JUMPDEST DUP2 SLOAD DUP2 LT PUSH2 0x1F7 JUMPI PUSH2 0x1F6 PUSH2 0x942 JUMP JUMPDEST JUMPDEST SWAP1 PUSH0 MSTORE PUSH1 0x20 PUSH0 KECCAK256 SWAP1 PUSH1 0x2 MUL ADD PUSH1 0x1 ADD PUSH0 SWAP1 SLOAD SWAP1 PUSH2 0x100 EXP SWAP1 DIV PUSH1 0xFF AND DUP2 DUP1 SLOAD PUSH2 0x21F SWAP1 PUSH2 0x5DE JUMP JUMPDEST DUP1 PUSH1 0x1F ADD PUSH1 0x20 DUP1 SWAP2 DIV MUL PUSH1 0x20 ADD PUSH1 0x40 MLOAD SWAP1 DUP2 ADD PUSH1 0x40 MSTORE DUP1 SWAP3 SWAP2 SWAP1 DUP2 DUP2 MSTORE PUSH1 0x20 ADD DUP3 DUP1 SLOAD PUSH2 0x24B SWAP1 PUSH2 0x5DE JUMP JUMPDEST DUP1 ISZERO PUSH2 0x296 JUMPI DUP1 PUSH1 0x1F LT PUSH2 0x26D JUMPI PUSH2 0x100 DUP1 DUP4 SLOAD DIV MUL DUP4 MSTORE SWAP2 PUSH1 0x20 ADD SWAP2 PUSH2 0x296 JUMP JUMPDEST DUP3 ADD SWAP2 SWAP1 PUSH0 MSTORE PUSH1 0x20 PUSH0 KECCAK256 SWAP1 JUMPDEST DUP2 SLOAD DUP2 MSTORE SWAP1 PUSH1 0x1 ADD SWAP1 PUSH1 0x20 ADD DUP1 DUP4 GT PUSH2 0x279 JUMPI DUP3 SWAP1 SUB PUSH1 0x1F AND DUP3 ADD SWAP2 JUMPDEST POP POP POP POP POP SWAP2 POP SWAP2 POP SWAP2 POP SWAP2 POP SWAP2 JUMP JUMPDEST PUSH1 0x1 PUSH0 PUSH1 0x1 DUP4 PUSH2 0x2B6 SWAP2 SWAP1 PUSH2 0x8A7 JUMP JUMPDEST DUP2 SLOAD DUP2 LT PUSH2 0x2C7 JUMPI PUSH2 0x2C6 PUSH2 0x942 JUMP JUMPDEST JUMPDEST SWAP1 PUSH0 MSTORE PUSH1 0x20 PUSH0 KECCAK256 SWAP1 PUSH1 0x2 MUL ADD PUSH1 0x1 ADD PUSH0 PUSH2 0x100 EXP DUP2 SLOAD DUP2 PUSH1 0xFF MUL NOT AND SWAP1 DUP4 ISZERO ISZERO MUL OR SWAP1 SSTORE POP POP JUMP JUMPDEST PUSH0 DUP2 SWAP1 POP SWAP2 SWAP1 POP JUMP JUMPDEST PUSH2 0x301 DUP2 PUSH2 0x2EF JUMP JUMPDEST DUP3 MSTORE POP POP JUMP JUMPDEST PUSH0 PUSH1 0x20 DUP3 ADD SWAP1 POP PUSH2 0x31A PUSH0 DUP4 ADD DUP5 PUSH2 0x2F8 JUMP JUMPDEST SWAP3 SWAP2 POP POP JUMP JUMPDEST PUSH0 PUSH1 0x40 MLOAD SWAP1 POP SWAP1 JUMP JUMPDEST PUSH0 DUP1 REVERT JUMPDEST PUSH0 DUP1 REVERT JUMPDEST PUSH0 DUP1 REVERT JUMPDEST PUSH0 DUP1 REVERT JUMPDEST PUSH0 PUSH1 0x1F NOT PUSH1 0x1F DUP4 ADD AND SWAP1 POP SWAP2 SWAP1 POP JUMP JUMPDEST PUSH32 0x4E487B7100000000000000000000000000000000000000000000000000000000 PUSH0 MSTORE PUSH1 0x41 PUSH1 0x4 MSTORE PUSH1 0x24 PUSH0 REVERT JUMPDEST PUSH2 0x37F DUP3 PUSH2 0x339 JUMP JUMPDEST DUP2 ADD DUP2 DUP2 LT PUSH8 0xFFFFFFFFFFFFFFFF DUP3 GT OR ISZERO PUSH2 0x39E JUMPI PUSH2 0x39D PUSH2 0x349 JUMP JUMPDEST JUMPDEST DUP1 PUSH1 0x40 MSTORE POP POP POP JUMP JUMPDEST PUSH0 PUSH2 0x3B0 PUSH2 0x320 JUMP JUMPDEST SWAP1 POP PUSH2 0x3BC DUP3 DUP3 PUSH2 0x376 JUMP JUMPDEST SWAP2 SWAP1 POP JUMP JUMPDEST PUSH0 PUSH8 0xFFFFFFFFFFFFFFFF DUP3 GT ISZERO PUSH2 0x3DB JUMPI PUSH2 0x3DA PUSH2 0x349 JUMP JUMPDEST JUMPDEST PUSH2 0x3E4 DUP3 PUSH2 0x339 JUMP JUMPDEST SWAP1 POP PUSH1 0x20 DUP2 ADD SWAP1 POP SWAP2 SWAP1 POP JUMP JUMPDEST DUP3 DUP2 DUP4 CALLDATACOPY PUSH0 DUP4 DUP4 ADD MSTORE POP POP POP JUMP JUMPDEST PUSH0 PUSH2 0x411 PUSH2 0x40C DUP5 PUSH2 0x3C1 JUMP JUMPDEST PUSH2 0x3A7 JUMP JUMPDEST SWAP1 POP DUP3 DUP2 MSTORE PUSH1 0x20 DUP2 ADD DUP5 DUP5 DUP5 ADD GT ISZERO PUSH2 0x42D JUMPI PUSH2 0x42C PUSH2 0x335 JUMP JUMPDEST JUMPDEST PUSH2 0x438 DUP5 DUP3 DUP6 PUSH2 0x3F1 JUMP JUMPDEST POP SWAP4 SWAP3 POP POP POP JUMP JUMPDEST PUSH0 DUP3 PUSH1 0x1F DUP4 ADD SLT PUSH2 0x454 JUMPI PUSH2 0x453 PUSH2 0x331 JUMP JUMPDEST JUMPDEST DUP2 CALLDATALOAD PUSH2 0x464 DUP5 DUP3 PUSH1 0x20 DUP7 ADD PUSH2 0x3FF JUMP JUMPDEST SWAP2 POP POP SWAP3 SWAP2 POP POP JUMP JUMPDEST PUSH0 PUSH1 0x20 DUP3 DUP5 SUB SLT ISZERO PUSH2 0x482 JUMPI PUSH2 0x481 PUSH2 0x329 JUMP JUMPDEST JUMPDEST PUSH0 DUP3 ADD CALLDATALOAD PUSH8 0xFFFFFFFFFFFFFFFF DUP2 GT ISZERO PUSH2 0x49F JUMPI PUSH2 0x49E PUSH2 0x32D JUMP JUMPDEST JUMPDEST PUSH2 0x4AB DUP5 DUP3 DUP6 ADD PUSH2 0x440 JUMP JUMPDEST SWAP2 POP POP SWAP3 SWAP2 POP POP JUMP JUMPDEST PUSH2 0x4BD DUP2 PUSH2 0x2EF JUMP JUMPDEST DUP2 EQ PUSH2 0x4C7 JUMPI PUSH0 DUP1 REVERT JUMPDEST POP JUMP JUMPDEST PUSH0 DUP2 CALLDATALOAD SWAP1 POP PUSH2 0x4D8 DUP2 PUSH2 0x4B4 JUMP JUMPDEST SWAP3 SWAP2 POP POP JUMP JUMPDEST PUSH0 PUSH1 0x20 DUP3 DUP5 SUB SLT ISZERO PUSH2 0x4F3 JUMPI PUSH2 0x4F2 PUSH2 0x329 JUMP JUMPDEST JUMPDEST PUSH0 PUSH2 0x500 DUP5 DUP3 DUP6 ADD PUSH2 0x4CA JUMP JUMPDEST SWAP2 POP POP SWAP3 SWAP2 POP POP JUMP JUMPDEST PUSH0 DUP2 MLOAD SWAP1 POP SWAP2 SWAP1 POP JUMP JUMPDEST PUSH0 DUP3 DUP3 MSTORE PUSH1 0x20 DUP3 ADD SWAP1 POP SWAP3 SWAP2 POP POP JUMP JUMPDEST DUP3 DUP2 DUP4 MCOPY PUSH0 DUP4 DUP4 ADD MSTORE POP POP POP JUMP JUMPDEST PUSH0 PUSH2 0x53B DUP3 PUSH2 0x509 JUMP JUMPDEST PUSH2 0x545 DUP2 DUP6 PUSH2 0x513 JUMP JUMPDEST SWAP4 POP PUSH2 0x555 DUP2 DUP6 PUSH1 0x20 DUP7 ADD PUSH2 0x523 JUMP JUMPDEST PUSH2 0x55E DUP2 PUSH2 0x339 JUMP JUMPDEST DUP5 ADD SWAP2 POP POP SWAP3 SWAP2 POP POP JUMP JUMPDEST PUSH0 DUP2 ISZERO ISZERO SWAP1 POP SWAP2 SWAP1 POP JUMP JUMPDEST PUSH2 0x57D DUP2 PUSH2 0x569 JUMP JUMPDEST DUP3 MSTORE POP POP JUMP JUMPDEST PUSH0 PUSH1 0x40 DUP3 ADD SWAP1 POP DUP2 DUP2 SUB PUSH0 DUP4 ADD MSTORE PUSH2 0x59B DUP2 DUP6 PUSH2 0x531 JUMP JUMPDEST SWAP1 POP PUSH2 0x5AA PUSH1 0x20 DUP4 ADD DUP5 PUSH2 0x574 JUMP JUMPDEST SWAP4 SWAP3 POP POP POP JUMP JUMPDEST PUSH32 0x4E487B7100000000000000000000000000000000000000000000000000000000 PUSH0 MSTORE PUSH1 0x22 PUSH1 0x4 MSTORE PUSH1 0x24 PUSH0 REVERT JUMPDEST PUSH0 PUSH1 0x2 DUP3 DIV SWAP1 POP PUSH1 0x1 DUP3 AND DUP1 PUSH2 0x5F5 JUMPI PUSH1 0x7F DUP3 AND SWAP2 POP JUMPDEST PUSH1 0x20 DUP3 LT DUP2 SUB PUSH2 0x608 JUMPI PUSH2 0x607 PUSH2 0x5B1 JUMP JUMPDEST JUMPDEST POP SWAP2 SWAP1 POP JUMP JUMPDEST PUSH0 DUP2 SWAP1 POP DUP2 PUSH0 MSTORE PUSH1 0x20 PUSH0 KECCAK256 SWAP1 POP SWAP2 SWAP1 POP JUMP JUMPDEST PUSH0 PUSH1 0x20 PUSH1 0x1F DUP4 ADD DIV SWAP1 POP SWAP2 SWAP1 POP JUMP JUMPDEST PUSH0 DUP3 DUP3 SHL SWAP1 POP SWAP3 SWAP2 POP POP JUMP JUMPDEST PUSH0 PUSH1 0x8 DUP4 MUL PUSH2 0x66A PUSH32 0xFFFFFFFFFFFFFFFFFFFFFFFFFFFFFFFFFFFFFFFFFFFFFFFFFFFFFFFFFFFFFFFF DUP3 PUSH2 0x62F JUMP JUMPDEST PUSH2 0x674 DUP7 DUP4 PUSH2 0x62F JUMP JUMPDEST SWAP6 POP DUP1 NOT DUP5 AND SWAP4 POP DUP1 DUP7 AND DUP5 OR SWAP3 POP POP POP SWAP4 SWAP3 POP POP POP JUMP JUMPDEST PUSH0 DUP2 SWAP1 POP SWAP2 SWAP1 POP JUMP JUMPDEST PUSH0 PUSH2 0x6AF PUSH2 0x6AA PUSH2 0x6A5 DUP5 PUSH2 0x2EF JUMP JUMPDEST PUSH2 0x68C JUMP JUMPDEST PUSH2 0x2EF JUMP JUMPDEST SWAP1 POP SWAP2 SWAP1 POP JUMP JUMPDEST PUSH0 DUP2 SWAP1 POP SWAP2 SWAP1 POP JUMP JUMPDEST PUSH2 0x6C8 DUP4 PUSH2 0x695 JUMP JUMPDEST PUSH2 0x6DC PUSH2 0x6D4 DUP3 PUSH2 0x6B6 JUMP JUMPDEST DUP5 DUP5 SLOAD PUSH2 0x63B JUMP JUMPDEST DUP3 SSTORE POP POP POP POP JUMP JUMPDEST PUSH0 SWAP1 JUMP JUMPDEST PUSH2 0x6F0 PUSH2 0x6E4 JUMP JUMPDEST PUSH2 0x6FB DUP2 DUP5 DUP5 PUSH2 0x6BF JUMP JUMPDEST POP POP POP JUMP JUMPDEST JUMPDEST DUP2 DUP2 LT ISZERO PUSH2 0x71E JUMPI PUSH2 0x713 PUSH0 DUP3 PUSH2 0x6E8 JUMP JUMPDEST PUSH1 0x1 DUP2 ADD SWAP1 POP PUSH2 0x701 JUMP JUMPDEST POP POP JUMP JUMPDEST PUSH1 0x1F DUP3 GT ISZERO PUSH2 0x763 JUMPI PUSH2 0x734 DUP2 PUSH2 0x60E JUMP JUMPDEST PUSH2 0x73D DUP5 PUSH2 0x620 JUMP JUMPDEST DUP2 ADD PUSH1 0x20 DUP6 LT ISZERO PUSH2 0x74C JUMPI DUP2 SWAP1 POP JUMPDEST PUSH2 0x760 PUSH2 0x758 DUP6 PUSH2 0x620 JUMP JUMPDEST DUP4 ADD DUP3 PUSH2 0x700 JUMP JUMPDEST POP POP JUMPDEST POP POP POP JUMP JUMPDEST PUSH0 DUP3 DUP3 SHR SWAP1 POP SWAP3 SWAP2 POP POP JUMP JUMPDEST PUSH0 PUSH2 0x783 PUSH0 NOT DUP5 PUSH1 0x8 MUL PUSH2 0x768 JUMP JUMPDEST NOT DUP1 DUP4 AND SWAP2 POP POP SWAP3 SWAP2 POP POP JUMP JUMPDEST PUSH0 PUSH2 0x79B DUP4 DUP4 PUSH2 0x774 JUMP JUMPDEST SWAP2 POP DUP3 PUSH1 0x2 MUL DUP3 OR SWAP1 POP SWAP3 SWAP2 POP POP JUMP JUMPDEST PUSH2 0x7B4 DUP3 PUSH2 0x509 JUMP JUMPDEST PUSH8 0xFFFFFFFFFFFFFFFF DUP2 GT ISZERO PUSH2 0x7CD JUMPI PUSH2 0x7CC PUSH2 0x349 JUMP JUMPDEST JUMPDEST PUSH2 0x7D7 DUP3 SLOAD PUSH2 0x5DE JUMP JUMPDEST PUSH2 0x7E2 DUP3 DUP3 DUP6 PUSH2 0x722 JUMP JUMPDEST PUSH0 PUSH1 0x20 SWAP1 POP PUSH1 0x1F DUP4 GT PUSH1 0x1 DUP2 EQ PUSH2 0x813 JUMPI PUSH0 DUP5 ISZERO PUSH2 0x801 JUMPI DUP3 DUP8 ADD MLOAD SWAP1 POP JUMPDEST PUSH2 0x80B DUP6 DUP3 PUSH2 0x790 JUMP JUMPDEST DUP7 SSTORE POP PUSH2 0x872 JUMP JUMPDEST PUSH1 0x1F NOT DUP5 AND PUSH2 0x821 DUP7 PUSH2 0x60E JUMP JUMPDEST PUSH0 JUMPDEST DUP3 DUP2 LT ISZERO PUSH2 0x848 JUMPI DUP5 DUP10 ADD MLOAD DUP3 SSTORE PUSH1 0x1 DUP3 ADD SWAP2 POP PUSH1 0x20 DUP6 ADD SWAP5 POP PUSH1 0x20 DUP2 ADD SWAP1 POP PUSH2 0x823 JUMP JUMPDEST DUP7 DUP4 LT ISZERO PUSH2 0x865 JUMPI DUP5 DUP10 ADD MLOAD PUSH2 0x861 PUSH1 0x1F DUP10 AND DUP3 PUSH2 0x774 JUMP JUMPDEST DUP4 SSTORE POP JUMPDEST PUSH1 0x1 PUSH1 0x2 DUP9 MUL ADD DUP9 SSTORE POP POP POP JUMPDEST POP POP POP POP POP POP JUMP JUMPDEST PUSH32 0x4E487B7100000000000000000000000000000000000000000000000000000000 PUSH0 MSTORE PUSH1 0x11 PUSH1 0x4 MSTORE PUSH1 0x24 PUSH0 REVERT JUMPDEST PUSH0 PUSH2 0x8B1 DUP3 PUSH2 0x2EF JUMP JUMPDEST SWAP2 POP PUSH2 0x8BC DUP4 PUSH2 0x2EF JUMP JUMPDEST SWAP3 POP DUP3 DUP3 SUB SWAP1 POP DUP2 DUP2 GT ISZERO PUSH2 0x8D4 JUMPI PUSH2 0x8D3 PUSH2 0x87A JUMP JUMPDEST JUMPDEST SWAP3 SWAP2 POP POP JUMP JUMPDEST PUSH32 0x7461736B206973206E6F7420617661696C61626C650000000000000000000000 PUSH0 DUP3 ADD MSTORE POP JUMP JUMPDEST PUSH0 PUSH2 0x90E PUSH1 0x15 DUP4 PUSH2 0x513 JUMP JUMPDEST SWAP2 POP PUSH2 0x919 DUP3 PUSH2 0x8DA JUMP JUMPDEST PUSH1 0x20 DUP3 ADD SWAP1 POP SWAP2 SWAP1 POP JUMP JUMPDEST PUSH0 PUSH1 0x20 DUP3 ADD SWAP1 POP DUP2 DUP2 SUB PUSH0 DUP4 ADD MSTORE PUSH2 0x93B DUP2 PUSH2 0x902 JUMP JUMPDEST SWAP1 POP SWAP2 SWAP1 POP JUMP JUMPDEST PUSH32 0x4E487B7100000000000000000000000000000000000000000000000000000000 PUSH0 MSTORE PUSH1 0x32 PUSH1 0x4 MSTORE PUSH1 0x24 PUSH0 REVERT INVALID LOG2 PUSH5 0x6970667358 0x22 SLT KECCAK256 0xCE PUSH11 0x66BE6E22244603656F805C LT 0x2F OR DUP5 0xB1 0xF6 RETURNDATACOPY NUMBER DUP10 PUSH30 0x67804BDCD85211AE9C64736F6C634300081A003300000000000000000000 "
				},
				"gasEstimates": {
					"creation": {
						"codeDepositCost": "493800",
						"executionCost": "528",
						"totalCost": "494328"
					},
					"external": {
						"CountTask()": "2418",
						"addTask(string)": "infinite",
						"completeTask(uint256)": "infinite",
						"getDetails(uint256)": "infinite"
					}
				},
				"methodIdentifiers": {
					"CountTask()": "54c6ef27",
					"addTask(string)": "67238562",
					"completeTask(uint256)": "e1e29558",
					"getDetails(uint256)": "b93a89f7"
				}
			},
			"storageLayout": {
				"storage": [
					{
						"astId": 10,
						"contract": "TodoList/TodoList.sol:TodoList",
						"label": "task",
						"offset": 0,
						"slot": "0",
						"type": "t_array(t_struct(Task)6_storage)dyn_storage"
					}
				],
				"types": {
					"t_array(t_struct(Task)6_storage)dyn_storage": {
						"base": "t_struct(Task)6_storage",
						"encoding": "dynamic_array",
						"label": "struct TodoList.Task[]",
						"numberOfBytes": "32"
					},
					"t_bool": {
						"encoding": "inplace",
						"label": "bool",
						"numberOfBytes": "1"
					},
					"t_string_storage": {
						"encoding": "bytes",
						"label": "string",
						"numberOfBytes": "32"
					},
					"t_struct(Task)6_storage": {
						"encoding": "inplace",
						"label": "struct TodoList.Task",
						"members": [
							{
								"astId": 3,
								"contract": "TodoList/TodoList.sol:TodoList",
								"label": "description",
								"offset": 0,
								"slot": "0",
								"type": "t_string_storage"
							},
							{
								"astId": 5,
								"contract": "TodoList/TodoList.sol:TodoList",
								"label": "isComplete",
								"offset": 0,
								"slot": "1",
								"type": "t_bool"
							}
						],
						"numberOfBytes": "64"
					}
				}
			},
			"userdoc": {
				"kind": "user",
				"methods": {},
				"version": 1
			}
		}
	}
}