{
	"ProductInventory/ProductInventory.sol": {
		"ProductIndevtory": {
			"abi": [
				{
					"anonymous": false,
					"inputs": [
						{
							"indexed": false,
							"internalType": "uint256",
							"name": "id",
							"type": "uint256"
						},
						{
							"indexed": false,
							"internalType": "string",
							"name": "name",
							"type": "string"
						},
						{
							"indexed": false,
							"internalType": "uint256",
							"name": "quantity",
							"type": "uint256"
						},
						{
							"indexed": false,
							"internalType": "uint256",
							"name": "price",
							"type": "uint256"
						}
					],
					"name": "addedProduct",
					"type": "event"
				},
				{
					"inputs": [
						{
							"internalType": "uint256",
							"name": "id",
							"type": "uint256"
						},
						{
							"internalType": "string",
							"name": "name",
							"type": "string"
						},
						{
							"internalType": "uint256",
							"name": "quantity",
							"type": "uint256"
						},
						{
							"internalType": "uint256",
							"name": "price",
							"type": "uint256"
						}
					],
					"name": "addProduct",
					"outputs": [],
					"stateMutability": "nonpayable",
					"type": "function"
				},
				{
					"inputs": [
						{
							"internalType": "uint256",
							"name": "id",
							"type": "uint256"
						}
					],
					"name": "getProduct",
					"outputs": [
						{
							"internalType": "string",
							"name": "name",
							"type": "string"
						},
						{
							"internalType": "uint256",
							"name": "quantity",
							"type": "uint256"
						},
						{
							"internalType": "uint256",
							"name": "price",
							"type": "uint256"
						}
					],
					"stateMutability": "view",
					"type": "function"
				},
				{
					"inputs": [
						{
							"internalType": "uint256",
							"name": "id",
							"type": "uint256"
						},
						{
							"internalType": "uint256",
							"name": "newQuantity",
							"type": "uint256"
						}
					],
					"name": "updateStok",
					"outputs": [],
					"stateMutability": "nonpayable",
					"type": "function"
				}
			],
			"devdoc": {
				"kind": "dev",
				"methods": {},
				"version": 1
			},
			"evm": {
				"assembly": "    /* \"ProductInventory/ProductInventory.sol\":58:1327  contract ProductIndevtory {... */\n  mstore(0x40, 0x80)\n  callvalue\n  dup1\n  iszero\n  tag_1\n  jumpi\n  0x00\n  dup1\n  revert\ntag_1:\n  pop\n  dataSize(sub_0)\n  dup1\n  dataOffset(sub_0)\n  0x00\n  codecopy\n  0x00\n  return\nstop\n\nsub_0: assembly {\n        /* \"ProductInventory/ProductInventory.sol\":58:1327  contract ProductIndevtory {... */\n      mstore(0x40, 0x80)\n      callvalue\n      dup1\n      iszero\n      tag_1\n      jumpi\n      0x00\n      dup1\n      revert\n    tag_1:\n      pop\n      jumpi(tag_2, lt(calldatasize, 0x04))\n      shr(0xe0, calldataload(0x00))\n      dup1\n      0x5d017127\n      eq\n      tag_3\n      jumpi\n      dup1\n      0xb9db15b4\n      eq\n      tag_4\n      jumpi\n      dup1\n      0xc27ed2a2\n      eq\n      tag_5\n      jumpi\n    tag_2:\n      0x00\n      dup1\n      revert\n        /* \"ProductInventory/ProductInventory.sol\":854:966  function updateStok(uint256 id, uint256 newQuantity) public {... */\n    tag_3:\n      tag_6\n      0x04\n      dup1\n      calldatasize\n      sub\n      dup2\n      add\n      swap1\n      tag_7\n      swap2\n      swap1\n      tag_8\n      jump\t// in\n    tag_7:\n      tag_9\n      jump\t// in\n    tag_6:\n      stop\n        /* \"ProductInventory/ProductInventory.sol\":972:1325  function getProduct(uint256 id)... */\n    tag_4:\n      tag_10\n      0x04\n      dup1\n      calldatasize\n      sub\n      dup2\n      add\n      swap1\n      tag_11\n      swap2\n      swap1\n      tag_12\n      jump\t// in\n    tag_11:\n      tag_13\n      jump\t// in\n    tag_10:\n      mload(0x40)\n      tag_14\n      swap4\n      swap3\n      swap2\n      swap1\n      tag_15\n      jump\t// in\n    tag_14:\n      mload(0x40)\n      dup1\n      swap2\n      sub\n      swap1\n      return\n        /* \"ProductInventory/ProductInventory.sol\":545:848  function addProduct(... */\n    tag_5:\n      tag_16\n      0x04\n      dup1\n      calldatasize\n      sub\n      dup2\n      add\n      swap1\n      tag_17\n      swap2\n      swap1\n      tag_18\n      jump\t// in\n    tag_17:\n      tag_19\n      jump\t// in\n    tag_16:\n      stop\n        /* \"ProductInventory/ProductInventory.sol\":854:966  function updateStok(uint256 id, uint256 newQuantity) public {... */\n    tag_9:\n        /* \"ProductInventory/ProductInventory.sol\":948:959  newQuantity */\n      dup1\n        /* \"ProductInventory/ProductInventory.sol\":924:931  details */\n      0x00\n        /* \"ProductInventory/ProductInventory.sol\":924:935  details[id] */\n      dup1\n        /* \"ProductInventory/ProductInventory.sol\":932:934  id */\n      dup5\n        /* \"ProductInventory/ProductInventory.sol\":924:935  details[id] */\n      dup2\n      mstore\n      0x20\n      add\n      swap1\n      dup2\n      mstore\n      0x20\n      add\n      0x00\n      keccak256\n        /* \"ProductInventory/ProductInventory.sol\":924:944  details[id].quantity */\n      0x01\n      add\n      0x00\n        /* \"ProductInventory/ProductInventory.sol\":924:959  details[id].quantity += newQuantity */\n      dup3\n      dup3\n      sload\n      tag_21\n      swap2\n      swap1\n      tag_22\n      jump\t// in\n    tag_21:\n      swap3\n      pop\n      pop\n      dup2\n      swap1\n      sstore\n      pop\n        /* \"ProductInventory/ProductInventory.sol\":854:966  function updateStok(uint256 id, uint256 newQuantity) public {... */\n      pop\n      pop\n      jump\t// out\n        /* \"ProductInventory/ProductInventory.sol\":972:1325  function getProduct(uint256 id)... */\n    tag_13:\n        /* \"ProductInventory/ProductInventory.sol\":1062:1080  string memory name */\n      0x60\n        /* \"ProductInventory/ProductInventory.sol\":1094:1110  uint256 quantity */\n      0x00\n        /* \"ProductInventory/ProductInventory.sol\":1124:1137  uint256 price */\n      dup1\n        /* \"ProductInventory/ProductInventory.sol\":1170:1177  details */\n      0x00\n        /* \"ProductInventory/ProductInventory.sol\":1170:1181  details[id] */\n      dup1\n        /* \"ProductInventory/ProductInventory.sol\":1178:1180  id */\n      dup6\n        /* \"ProductInventory/ProductInventory.sol\":1170:1181  details[id] */\n      dup2\n      mstore\n      0x20\n      add\n      swap1\n      dup2\n      mstore\n      0x20\n      add\n      0x00\n      keccak256\n        /* \"ProductInventory/ProductInventory.sol\":1170:1186  details[id].exit */\n      0x03\n      add\n      0x00\n      swap1\n      sload\n      swap1\n      0x0100\n      exp\n      swap1\n      div\n      0xff\n      and\n        /* \"ProductInventory/ProductInventory.sol\":1162:1220  require(details[id].exit, \"This product is not available\") */\n      tag_24\n      jumpi\n      mload(0x40)\n      0x08c379a000000000000000000000000000000000000000000000000000000000\n      dup2\n      mstore\n      0x04\n      add\n      tag_25\n      swap1\n      tag_26\n      jump\t// in\n    tag_25:\n      mload(0x40)\n      dup1\n      swap2\n      sub\n      swap1\n      revert\n    tag_24:\n        /* \"ProductInventory/ProductInventory.sol\":1230:1255  ProductDetails storage pr */\n      0x00\n        /* \"ProductInventory/ProductInventory.sol\":1258:1265  details */\n      dup1\n        /* \"ProductInventory/ProductInventory.sol\":1258:1269  details[id] */\n      0x00\n        /* \"ProductInventory/ProductInventory.sol\":1266:1268  id */\n      dup7\n        /* \"ProductInventory/ProductInventory.sol\":1258:1269  details[id] */\n      dup2\n      mstore\n      0x20\n      add\n      swap1\n      dup2\n      mstore\n      0x20\n      add\n      0x00\n      keccak256\n        /* \"ProductInventory/ProductInventory.sol\":1230:1269  ProductDetails storage pr = details[id] */\n      swap1\n      pop\n        /* \"ProductInventory/ProductInventory.sol\":1287:1289  pr */\n      dup1\n        /* \"ProductInventory/ProductInventory.sol\":1287:1294  pr.name */\n      0x00\n      add\n        /* \"ProductInventory/ProductInventory.sol\":1296:1298  pr */\n      dup2\n        /* \"ProductInventory/ProductInventory.sol\":1296:1307  pr.quantity */\n      0x01\n      add\n      sload\n        /* \"ProductInventory/ProductInventory.sol\":1309:1311  pr */\n      dup3\n        /* \"ProductInventory/ProductInventory.sol\":1309:1317  pr.price */\n      0x02\n      add\n      sload\n        /* \"ProductInventory/ProductInventory.sol\":1279:1318  return (pr.name, pr.quantity, pr.price) */\n      dup3\n      dup1\n      sload\n      tag_27\n      swap1\n      tag_28\n      jump\t// in\n    tag_27:\n      dup1\n      0x1f\n      add\n      0x20\n      dup1\n      swap2\n      div\n      mul\n      0x20\n      add\n      mload(0x40)\n      swap1\n      dup2\n      add\n      0x40\n      mstore\n      dup1\n      swap3\n      swap2\n      swap1\n      dup2\n      dup2\n      mstore\n      0x20\n      add\n      dup3\n      dup1\n      sload\n      tag_29\n      swap1\n      tag_28\n      jump\t// in\n    tag_29:\n      dup1\n      iszero\n      tag_30\n      jumpi\n      dup1\n      0x1f\n      lt\n      tag_31\n      jumpi\n      0x0100\n      dup1\n      dup4\n      sload\n      div\n      mul\n      dup4\n      mstore\n      swap2\n      0x20\n      add\n      swap2\n      jump(tag_30)\n    tag_31:\n      dup3\n      add\n      swap2\n      swap1\n      0x00\n      mstore\n      keccak256(0x00, 0x20)\n      swap1\n    tag_32:\n      dup2\n      sload\n      dup2\n      mstore\n      swap1\n      0x01\n      add\n      swap1\n      0x20\n      add\n      dup1\n      dup4\n      gt\n      tag_32\n      jumpi\n      dup3\n      swap1\n      sub\n      0x1f\n      and\n      dup3\n      add\n      swap2\n    tag_30:\n      pop\n      pop\n      pop\n      pop\n      pop\n      swap3\n      pop\n      swap4\n      pop\n      swap4\n      pop\n      swap4\n      pop\n      pop\n        /* \"ProductInventory/ProductInventory.sol\":972:1325  function getProduct(uint256 id)... */\n      swap2\n      swap4\n      swap1\n      swap3\n      pop\n      jump\t// out\n        /* \"ProductInventory/ProductInventory.sol\":545:848  function addProduct(... */\n    tag_19:\n        /* \"ProductInventory/ProductInventory.sol\":687:689  id */\n      dup4\n        /* \"ProductInventory/ProductInventory.sol\":350:357  details */\n      0x00\n        /* \"ProductInventory/ProductInventory.sol\":350:361  details[id] */\n      dup1\n        /* \"ProductInventory/ProductInventory.sol\":358:360  id */\n      dup3\n        /* \"ProductInventory/ProductInventory.sol\":350:361  details[id] */\n      dup2\n      mstore\n      0x20\n      add\n      swap1\n      dup2\n      mstore\n      0x20\n      add\n      0x00\n      keccak256\n        /* \"ProductInventory/ProductInventory.sol\":350:366  details[id].exit */\n      0x03\n      add\n      0x00\n      swap1\n      sload\n      swap1\n      0x0100\n      exp\n      swap1\n      div\n      0xff\n      and\n        /* \"ProductInventory/ProductInventory.sol\":349:366  !details[id].exit */\n      iszero\n        /* \"ProductInventory/ProductInventory.sol\":341:400  require(!details[id].exit, \"This product is already added\") */\n      tag_34\n      jumpi\n      mload(0x40)\n      0x08c379a000000000000000000000000000000000000000000000000000000000\n      dup2\n      mstore\n      0x04\n      add\n      tag_35\n      swap1\n      tag_36\n      jump\t// in\n    tag_35:\n      mload(0x40)\n      dup1\n      swap2\n      sub\n      swap1\n      revert\n    tag_34:\n        /* \"ProductInventory/ProductInventory.sol\":715:758  ProductDetails(name, quantity, price, true) */\n      mload(0x40)\n      dup1\n      0x80\n      add\n      0x40\n      mstore\n      dup1\n        /* \"ProductInventory/ProductInventory.sol\":730:734  name */\n      dup6\n        /* \"ProductInventory/ProductInventory.sol\":715:758  ProductDetails(name, quantity, price, true) */\n      dup2\n      mstore\n      0x20\n      add\n        /* \"ProductInventory/ProductInventory.sol\":736:744  quantity */\n      dup5\n        /* \"ProductInventory/ProductInventory.sol\":715:758  ProductDetails(name, quantity, price, true) */\n      dup2\n      mstore\n      0x20\n      add\n        /* \"ProductInventory/ProductInventory.sol\":746:751  price */\n      dup4\n        /* \"ProductInventory/ProductInventory.sol\":715:758  ProductDetails(name, quantity, price, true) */\n      dup2\n      mstore\n      0x20\n      add\n        /* \"ProductInventory/ProductInventory.sol\":753:757  true */\n      0x01\n        /* \"ProductInventory/ProductInventory.sol\":715:758  ProductDetails(name, quantity, price, true) */\n      iszero\n      iszero\n      dup2\n      mstore\n      pop\n        /* \"ProductInventory/ProductInventory.sol\":701:708  details */\n      0x00\n        /* \"ProductInventory/ProductInventory.sol\":701:712  details[id] */\n      dup1\n        /* \"ProductInventory/ProductInventory.sol\":709:711  id */\n      dup8\n        /* \"ProductInventory/ProductInventory.sol\":701:712  details[id] */\n      dup2\n      mstore\n      0x20\n      add\n      swap1\n      dup2\n      mstore\n      0x20\n      add\n      0x00\n      keccak256\n        /* \"ProductInventory/ProductInventory.sol\":701:758  details[id] = ProductDetails(name, quantity, price, true) */\n      0x00\n      dup3\n      add\n      mload\n      dup2\n      0x00\n      add\n      swap1\n      dup2\n      tag_38\n      swap2\n      swap1\n      tag_39\n      jump\t// in\n    tag_38:\n      pop\n      0x20\n      dup3\n      add\n      mload\n      dup2\n      0x01\n      add\n      sstore\n      0x40\n      dup3\n      add\n      mload\n      dup2\n      0x02\n      add\n      sstore\n      0x60\n      dup3\n      add\n      mload\n      dup2\n      0x03\n      add\n      exp(0x0100, 0x00)\n      dup2\n      sload\n      dup2\n      0xff\n      mul\n      not\n      and\n      swap1\n      dup4\n      iszero\n      iszero\n      mul\n      or\n      swap1\n      sstore\n      pop\n      swap1\n      pop\n      pop\n        /* \"ProductInventory/ProductInventory.sol\":768:778  productsID */\n      0x01\n        /* \"ProductInventory/ProductInventory.sol\":784:786  id */\n      dup6\n        /* \"ProductInventory/ProductInventory.sol\":768:787  productsID.push(id) */\n      swap1\n      dup1\n      0x01\n      dup2\n      sload\n      add\n      dup1\n      dup3\n      sstore\n      dup1\n      swap2\n      pop\n      pop\n      0x01\n      swap1\n      sub\n      swap1\n      0x00\n      mstore\n      keccak256(0x00, 0x20)\n      add\n      0x00\n      swap1\n      swap2\n      swap1\n      swap2\n      swap1\n      swap2\n      pop\n      sstore\n        /* \"ProductInventory/ProductInventory.sol\":802:841  addedProduct(id, name, quantity, price) */\n      0x265cc0f1c660c2149472f3494547e39e75a2d42b950a72e34d310f5950e12427\n        /* \"ProductInventory/ProductInventory.sol\":815:817  id */\n      dup6\n        /* \"ProductInventory/ProductInventory.sol\":819:823  name */\n      dup6\n        /* \"ProductInventory/ProductInventory.sol\":825:833  quantity */\n      dup6\n        /* \"ProductInventory/ProductInventory.sol\":835:840  price */\n      dup6\n        /* \"ProductInventory/ProductInventory.sol\":802:841  addedProduct(id, name, quantity, price) */\n      mload(0x40)\n      tag_41\n      swap5\n      swap4\n      swap3\n      swap2\n      swap1\n      tag_42\n      jump\t// in\n    tag_41:\n      mload(0x40)\n      dup1\n      swap2\n      sub\n      swap1\n      log1\n        /* \"ProductInventory/ProductInventory.sol\":545:848  function addProduct(... */\n      pop\n      pop\n      pop\n      pop\n      pop\n      jump\t// out\n        /* \"#utility.yul\":7:82   */\n    tag_43:\n        /* \"#utility.yul\":40:46   */\n      0x00\n        /* \"#utility.yul\":73:75   */\n      0x40\n        /* \"#utility.yul\":67:76   */\n      mload\n        /* \"#utility.yul\":57:76   */\n      swap1\n      pop\n        /* \"#utility.yul\":7:82   */\n      swap1\n      jump\t// out\n        /* \"#utility.yul\":88:205   */\n    tag_44:\n        /* \"#utility.yul\":197:198   */\n      0x00\n        /* \"#utility.yul\":194:195   */\n      dup1\n        /* \"#utility.yul\":187:199   */\n      revert\n        /* \"#utility.yul\":211:328   */\n    tag_45:\n        /* \"#utility.yul\":320:321   */\n      0x00\n        /* \"#utility.yul\":317:318   */\n      dup1\n        /* \"#utility.yul\":310:322   */\n      revert\n        /* \"#utility.yul\":334:411   */\n    tag_46:\n        /* \"#utility.yul\":371:378   */\n      0x00\n        /* \"#utility.yul\":400:405   */\n      dup2\n        /* \"#utility.yul\":389:405   */\n      swap1\n      pop\n        /* \"#utility.yul\":334:411   */\n      swap2\n      swap1\n      pop\n      jump\t// out\n        /* \"#utility.yul\":417:539   */\n    tag_47:\n        /* \"#utility.yul\":490:514   */\n      tag_91\n        /* \"#utility.yul\":508:513   */\n      dup2\n        /* \"#utility.yul\":490:514   */\n      tag_46\n      jump\t// in\n    tag_91:\n        /* \"#utility.yul\":483:488   */\n      dup2\n        /* \"#utility.yul\":480:515   */\n      eq\n        /* \"#utility.yul\":470:533   */\n      tag_92\n      jumpi\n        /* \"#utility.yul\":529:530   */\n      0x00\n        /* \"#utility.yul\":526:527   */\n      dup1\n        /* \"#utility.yul\":519:531   */\n      revert\n        /* \"#utility.yul\":470:533   */\n    tag_92:\n        /* \"#utility.yul\":417:539   */\n      pop\n      jump\t// out\n        /* \"#utility.yul\":545:684   */\n    tag_48:\n        /* \"#utility.yul\":591:596   */\n      0x00\n        /* \"#utility.yul\":629:635   */\n      dup2\n        /* \"#utility.yul\":616:636   */\n      calldataload\n        /* \"#utility.yul\":607:636   */\n      swap1\n      pop\n        /* \"#utility.yul\":645:678   */\n      tag_94\n        /* \"#utility.yul\":672:677   */\n      dup2\n        /* \"#utility.yul\":645:678   */\n      tag_47\n      jump\t// in\n    tag_94:\n        /* \"#utility.yul\":545:684   */\n      swap3\n      swap2\n      pop\n      pop\n      jump\t// out\n        /* \"#utility.yul\":690:1164   */\n    tag_8:\n        /* \"#utility.yul\":758:764   */\n      0x00\n        /* \"#utility.yul\":766:772   */\n      dup1\n        /* \"#utility.yul\":815:817   */\n      0x40\n        /* \"#utility.yul\":803:812   */\n      dup4\n        /* \"#utility.yul\":794:801   */\n      dup6\n        /* \"#utility.yul\":790:813   */\n      sub\n        /* \"#utility.yul\":786:818   */\n      slt\n        /* \"#utility.yul\":783:902   */\n      iszero\n      tag_96\n      jumpi\n        /* \"#utility.yul\":821:900   */\n      tag_97\n      tag_44\n      jump\t// in\n    tag_97:\n        /* \"#utility.yul\":783:902   */\n    tag_96:\n        /* \"#utility.yul\":941:942   */\n      0x00\n        /* \"#utility.yul\":966:1019   */\n      tag_98\n        /* \"#utility.yul\":1011:1018   */\n      dup6\n        /* \"#utility.yul\":1002:1008   */\n      dup3\n        /* \"#utility.yul\":991:1000   */\n      dup7\n        /* \"#utility.yul\":987:1009   */\n      add\n        /* \"#utility.yul\":966:1019   */\n      tag_48\n      jump\t// in\n    tag_98:\n        /* \"#utility.yul\":956:1019   */\n      swap3\n      pop\n        /* \"#utility.yul\":912:1029   */\n      pop\n        /* \"#utility.yul\":1068:1070   */\n      0x20\n        /* \"#utility.yul\":1094:1147   */\n      tag_99\n        /* \"#utility.yul\":1139:1146   */\n      dup6\n        /* \"#utility.yul\":1130:1136   */\n      dup3\n        /* \"#utility.yul\":1119:1128   */\n      dup7\n        /* \"#utility.yul\":1115:1137   */\n      add\n        /* \"#utility.yul\":1094:1147   */\n      tag_48\n      jump\t// in\n    tag_99:\n        /* \"#utility.yul\":1084:1147   */\n      swap2\n      pop\n        /* \"#utility.yul\":1039:1157   */\n      pop\n        /* \"#utility.yul\":690:1164   */\n      swap3\n      pop\n      swap3\n      swap1\n      pop\n      jump\t// out\n        /* \"#utility.yul\":1170:1499   */\n    tag_12:\n        /* \"#utility.yul\":1229:1235   */\n      0x00\n        /* \"#utility.yul\":1278:1280   */\n      0x20\n        /* \"#utility.yul\":1266:1275   */\n      dup3\n        /* \"#utility.yul\":1257:1264   */\n      dup5\n        /* \"#utility.yul\":1253:1276   */\n      sub\n        /* \"#utility.yul\":1249:1281   */\n      slt\n        /* \"#utility.yul\":1246:1365   */\n      iszero\n      tag_101\n      jumpi\n        /* \"#utility.yul\":1284:1363   */\n      tag_102\n      tag_44\n      jump\t// in\n    tag_102:\n        /* \"#utility.yul\":1246:1365   */\n    tag_101:\n        /* \"#utility.yul\":1404:1405   */\n      0x00\n        /* \"#utility.yul\":1429:1482   */\n      tag_103\n        /* \"#utility.yul\":1474:1481   */\n      dup5\n        /* \"#utility.yul\":1465:1471   */\n      dup3\n        /* \"#utility.yul\":1454:1463   */\n      dup6\n        /* \"#utility.yul\":1450:1472   */\n      add\n        /* \"#utility.yul\":1429:1482   */\n      tag_48\n      jump\t// in\n    tag_103:\n        /* \"#utility.yul\":1419:1482   */\n      swap2\n      pop\n        /* \"#utility.yul\":1375:1492   */\n      pop\n        /* \"#utility.yul\":1170:1499   */\n      swap3\n      swap2\n      pop\n      pop\n      jump\t// out\n        /* \"#utility.yul\":1505:1604   */\n    tag_49:\n        /* \"#utility.yul\":1557:1563   */\n      0x00\n        /* \"#utility.yul\":1591:1596   */\n      dup2\n        /* \"#utility.yul\":1585:1597   */\n      mload\n        /* \"#utility.yul\":1575:1597   */\n      swap1\n      pop\n        /* \"#utility.yul\":1505:1604   */\n      swap2\n      swap1\n      pop\n      jump\t// out\n        /* \"#utility.yul\":1610:1779   */\n    tag_50:\n        /* \"#utility.yul\":1694:1705   */\n      0x00\n        /* \"#utility.yul\":1728:1734   */\n      dup3\n        /* \"#utility.yul\":1723:1726   */\n      dup3\n        /* \"#utility.yul\":1716:1735   */\n      mstore\n        /* \"#utility.yul\":1768:1772   */\n      0x20\n        /* \"#utility.yul\":1763:1766   */\n      dup3\n        /* \"#utility.yul\":1759:1773   */\n      add\n        /* \"#utility.yul\":1744:1773   */\n      swap1\n      pop\n        /* \"#utility.yul\":1610:1779   */\n      swap3\n      swap2\n      pop\n      pop\n      jump\t// out\n        /* \"#utility.yul\":1785:1924   */\n    tag_51:\n        /* \"#utility.yul\":1874:1880   */\n      dup3\n        /* \"#utility.yul\":1869:1872   */\n      dup2\n        /* \"#utility.yul\":1864:1867   */\n      dup4\n        /* \"#utility.yul\":1858:1881   */\n      mcopy\n        /* \"#utility.yul\":1915:1916   */\n      0x00\n        /* \"#utility.yul\":1906:1912   */\n      dup4\n        /* \"#utility.yul\":1901:1904   */\n      dup4\n        /* \"#utility.yul\":1897:1913   */\n      add\n        /* \"#utility.yul\":1890:1917   */\n      mstore\n        /* \"#utility.yul\":1785:1924   */\n      pop\n      pop\n      pop\n      jump\t// out\n        /* \"#utility.yul\":1930:2032   */\n    tag_52:\n        /* \"#utility.yul\":1971:1977   */\n      0x00\n        /* \"#utility.yul\":2022:2024   */\n      0x1f\n        /* \"#utility.yul\":2018:2025   */\n      not\n        /* \"#utility.yul\":2013:2015   */\n      0x1f\n        /* \"#utility.yul\":2006:2011   */\n      dup4\n        /* \"#utility.yul\":2002:2016   */\n      add\n        /* \"#utility.yul\":1998:2026   */\n      and\n        /* \"#utility.yul\":1988:2026   */\n      swap1\n      pop\n        /* \"#utility.yul\":1930:2032   */\n      swap2\n      swap1\n      pop\n      jump\t// out\n        /* \"#utility.yul\":2038:2415   */\n    tag_53:\n        /* \"#utility.yul\":2126:2129   */\n      0x00\n        /* \"#utility.yul\":2154:2193   */\n      tag_109\n        /* \"#utility.yul\":2187:2192   */\n      dup3\n        /* \"#utility.yul\":2154:2193   */\n      tag_49\n      jump\t// in\n    tag_109:\n        /* \"#utility.yul\":2209:2280   */\n      tag_110\n        /* \"#utility.yul\":2273:2279   */\n      dup2\n        /* \"#utility.yul\":2268:2271   */\n      dup6\n        /* \"#utility.yul\":2209:2280   */\n      tag_50\n      jump\t// in\n    tag_110:\n        /* \"#utility.yul\":2202:2280   */\n      swap4\n      pop\n        /* \"#utility.yul\":2289:2354   */\n      tag_111\n        /* \"#utility.yul\":2347:2353   */\n      dup2\n        /* \"#utility.yul\":2342:2345   */\n      dup6\n        /* \"#utility.yul\":2335:2339   */\n      0x20\n        /* \"#utility.yul\":2328:2333   */\n      dup7\n        /* \"#utility.yul\":2324:2340   */\n      add\n        /* \"#utility.yul\":2289:2354   */\n      tag_51\n      jump\t// in\n    tag_111:\n        /* \"#utility.yul\":2379:2408   */\n      tag_112\n        /* \"#utility.yul\":2401:2407   */\n      dup2\n        /* \"#utility.yul\":2379:2408   */\n      tag_52\n      jump\t// in\n    tag_112:\n        /* \"#utility.yul\":2374:2377   */\n      dup5\n        /* \"#utility.yul\":2370:2409   */\n      add\n        /* \"#utility.yul\":2363:2409   */\n      swap2\n      pop\n        /* \"#utility.yul\":2130:2415   */\n      pop\n        /* \"#utility.yul\":2038:2415   */\n      swap3\n      swap2\n      pop\n      pop\n      jump\t// out\n        /* \"#utility.yul\":2421:2539   */\n    tag_54:\n        /* \"#utility.yul\":2508:2532   */\n      tag_114\n        /* \"#utility.yul\":2526:2531   */\n      dup2\n        /* \"#utility.yul\":2508:2532   */\n      tag_46\n      jump\t// in\n    tag_114:\n        /* \"#utility.yul\":2503:2506   */\n      dup3\n        /* \"#utility.yul\":2496:2533   */\n      mstore\n        /* \"#utility.yul\":2421:2539   */\n      pop\n      pop\n      jump\t// out\n        /* \"#utility.yul\":2545:3078   */\n    tag_15:\n        /* \"#utility.yul\":2714:2718   */\n      0x00\n        /* \"#utility.yul\":2752:2754   */\n      0x60\n        /* \"#utility.yul\":2741:2750   */\n      dup3\n        /* \"#utility.yul\":2737:2755   */\n      add\n        /* \"#utility.yul\":2729:2755   */\n      swap1\n      pop\n        /* \"#utility.yul\":2801:2810   */\n      dup2\n        /* \"#utility.yul\":2795:2799   */\n      dup2\n        /* \"#utility.yul\":2791:2811   */\n      sub\n        /* \"#utility.yul\":2787:2788   */\n      0x00\n        /* \"#utility.yul\":2776:2785   */\n      dup4\n        /* \"#utility.yul\":2772:2789   */\n      add\n        /* \"#utility.yul\":2765:2812   */\n      mstore\n        /* \"#utility.yul\":2829:2907   */\n      tag_116\n        /* \"#utility.yul\":2902:2906   */\n      dup2\n        /* \"#utility.yul\":2893:2899   */\n      dup7\n        /* \"#utility.yul\":2829:2907   */\n      tag_53\n      jump\t// in\n    tag_116:\n        /* \"#utility.yul\":2821:2907   */\n      swap1\n      pop\n        /* \"#utility.yul\":2917:2989   */\n      tag_117\n        /* \"#utility.yul\":2985:2987   */\n      0x20\n        /* \"#utility.yul\":2974:2983   */\n      dup4\n        /* \"#utility.yul\":2970:2988   */\n      add\n        /* \"#utility.yul\":2961:2967   */\n      dup6\n        /* \"#utility.yul\":2917:2989   */\n      tag_54\n      jump\t// in\n    tag_117:\n        /* \"#utility.yul\":2999:3071   */\n      tag_118\n        /* \"#utility.yul\":3067:3069   */\n      0x40\n        /* \"#utility.yul\":3056:3065   */\n      dup4\n        /* \"#utility.yul\":3052:3070   */\n      add\n        /* \"#utility.yul\":3043:3049   */\n      dup5\n        /* \"#utility.yul\":2999:3071   */\n      tag_54\n      jump\t// in\n    tag_118:\n        /* \"#utility.yul\":2545:3078   */\n      swap5\n      swap4\n      pop\n      pop\n      pop\n      pop\n      jump\t// out\n        /* \"#utility.yul\":3084:3201   */\n    tag_55:\n        /* \"#utility.yul\":3193:3194   */\n      0x00\n        /* \"#utility.yul\":3190:3191   */\n      dup1\n        /* \"#utility.yul\":3183:3195   */\n      revert\n        /* \"#utility.yul\":3207:3324   */\n    tag_56:\n        /* \"#utility.yul\":3316:3317   */\n      0x00\n        /* \"#utility.yul\":3313:3314   */\n      dup1\n        /* \"#utility.yul\":3306:3318   */\n      revert\n        /* \"#utility.yul\":3330:3510   */\n    tag_57:\n        /* \"#utility.yul\":3378:3455   */\n      0x4e487b7100000000000000000000000000000000000000000000000000000000\n        /* \"#utility.yul\":3375:3376   */\n      0x00\n        /* \"#utility.yul\":3368:3456   */\n      mstore\n        /* \"#utility.yul\":3475:3479   */\n      0x41\n        /* \"#utility.yul\":3472:3473   */\n      0x04\n        /* \"#utility.yul\":3465:3480   */\n      mstore\n        /* \"#utility.yul\":3499:3503   */\n      0x24\n        /* \"#utility.yul\":3496:3497   */\n      0x00\n        /* \"#utility.yul\":3489:3504   */\n      revert\n        /* \"#utility.yul\":3516:3797   */\n    tag_58:\n        /* \"#utility.yul\":3599:3626   */\n      tag_123\n        /* \"#utility.yul\":3621:3625   */\n      dup3\n        /* \"#utility.yul\":3599:3626   */\n      tag_52\n      jump\t// in\n    tag_123:\n        /* \"#utility.yul\":3591:3597   */\n      dup2\n        /* \"#utility.yul\":3587:3627   */\n      add\n        /* \"#utility.yul\":3729:3735   */\n      dup2\n        /* \"#utility.yul\":3717:3727   */\n      dup2\n        /* \"#utility.yul\":3714:3736   */\n      lt\n        /* \"#utility.yul\":3693:3711   */\n      0xffffffffffffffff\n        /* \"#utility.yul\":3681:3691   */\n      dup3\n        /* \"#utility.yul\":3678:3712   */\n      gt\n        /* \"#utility.yul\":3675:3737   */\n      or\n        /* \"#utility.yul\":3672:3760   */\n      iszero\n      tag_124\n      jumpi\n        /* \"#utility.yul\":3740:3758   */\n      tag_125\n      tag_57\n      jump\t// in\n    tag_125:\n        /* \"#utility.yul\":3672:3760   */\n    tag_124:\n        /* \"#utility.yul\":3780:3790   */\n      dup1\n        /* \"#utility.yul\":3776:3778   */\n      0x40\n        /* \"#utility.yul\":3769:3791   */\n      mstore\n        /* \"#utility.yul\":3559:3797   */\n      pop\n        /* \"#utility.yul\":3516:3797   */\n      pop\n      pop\n      jump\t// out\n        /* \"#utility.yul\":3803:3932   */\n    tag_59:\n        /* \"#utility.yul\":3837:3843   */\n      0x00\n        /* \"#utility.yul\":3864:3884   */\n      tag_127\n      tag_43\n      jump\t// in\n    tag_127:\n        /* \"#utility.yul\":3854:3884   */\n      swap1\n      pop\n        /* \"#utility.yul\":3893:3926   */\n      tag_128\n        /* \"#utility.yul\":3921:3925   */\n      dup3\n        /* \"#utility.yul\":3913:3919   */\n      dup3\n        /* \"#utility.yul\":3893:3926   */\n      tag_58\n      jump\t// in\n    tag_128:\n        /* \"#utility.yul\":3803:3932   */\n      swap2\n      swap1\n      pop\n      jump\t// out\n        /* \"#utility.yul\":3938:4246   */\n    tag_60:\n        /* \"#utility.yul\":4000:4004   */\n      0x00\n        /* \"#utility.yul\":4090:4108   */\n      0xffffffffffffffff\n        /* \"#utility.yul\":4082:4088   */\n      dup3\n        /* \"#utility.yul\":4079:4109   */\n      gt\n        /* \"#utility.yul\":4076:4132   */\n      iszero\n      tag_130\n      jumpi\n        /* \"#utility.yul\":4112:4130   */\n      tag_131\n      tag_57\n      jump\t// in\n    tag_131:\n        /* \"#utility.yul\":4076:4132   */\n    tag_130:\n        /* \"#utility.yul\":4150:4179   */\n      tag_132\n        /* \"#utility.yul\":4172:4178   */\n      dup3\n        /* \"#utility.yul\":4150:4179   */\n      tag_52\n      jump\t// in\n    tag_132:\n        /* \"#utility.yul\":4142:4179   */\n      swap1\n      pop\n        /* \"#utility.yul\":4234:4238   */\n      0x20\n        /* \"#utility.yul\":4228:4232   */\n      dup2\n        /* \"#utility.yul\":4224:4239   */\n      add\n        /* \"#utility.yul\":4216:4239   */\n      swap1\n      pop\n        /* \"#utility.yul\":3938:4246   */\n      swap2\n      swap1\n      pop\n      jump\t// out\n        /* \"#utility.yul\":4252:4400   */\n    tag_61:\n        /* \"#utility.yul\":4350:4356   */\n      dup3\n        /* \"#utility.yul\":4345:4348   */\n      dup2\n        /* \"#utility.yul\":4340:4343   */\n      dup4\n        /* \"#utility.yul\":4327:4357   */\n      calldatacopy\n        /* \"#utility.yul\":4391:4392   */\n      0x00\n        /* \"#utility.yul\":4382:4388   */\n      dup4\n        /* \"#utility.yul\":4377:4380   */\n      dup4\n        /* \"#utility.yul\":4373:4389   */\n      add\n        /* \"#utility.yul\":4366:4393   */\n      mstore\n        /* \"#utility.yul\":4252:4400   */\n      pop\n      pop\n      pop\n      jump\t// out\n        /* \"#utility.yul\":4406:4831   */\n    tag_62:\n        /* \"#utility.yul\":4484:4489   */\n      0x00\n        /* \"#utility.yul\":4509:4575   */\n      tag_135\n        /* \"#utility.yul\":4525:4574   */\n      tag_136\n        /* \"#utility.yul\":4567:4573   */\n      dup5\n        /* \"#utility.yul\":4525:4574   */\n      tag_60\n      jump\t// in\n    tag_136:\n        /* \"#utility.yul\":4509:4575   */\n      tag_59\n      jump\t// in\n    tag_135:\n        /* \"#utility.yul\":4500:4575   */\n      swap1\n      pop\n        /* \"#utility.yul\":4598:4604   */\n      dup3\n        /* \"#utility.yul\":4591:4596   */\n      dup2\n        /* \"#utility.yul\":4584:4605   */\n      mstore\n        /* \"#utility.yul\":4636:4640   */\n      0x20\n        /* \"#utility.yul\":4629:4634   */\n      dup2\n        /* \"#utility.yul\":4625:4641   */\n      add\n        /* \"#utility.yul\":4674:4677   */\n      dup5\n        /* \"#utility.yul\":4665:4671   */\n      dup5\n        /* \"#utility.yul\":4660:4663   */\n      dup5\n        /* \"#utility.yul\":4656:4672   */\n      add\n        /* \"#utility.yul\":4653:4678   */\n      gt\n        /* \"#utility.yul\":4650:4762   */\n      iszero\n      tag_137\n      jumpi\n        /* \"#utility.yul\":4681:4760   */\n      tag_138\n      tag_56\n      jump\t// in\n    tag_138:\n        /* \"#utility.yul\":4650:4762   */\n    tag_137:\n        /* \"#utility.yul\":4771:4825   */\n      tag_139\n        /* \"#utility.yul\":4818:4824   */\n      dup5\n        /* \"#utility.yul\":4813:4816   */\n      dup3\n        /* \"#utility.yul\":4808:4811   */\n      dup6\n        /* \"#utility.yul\":4771:4825   */\n      tag_61\n      jump\t// in\n    tag_139:\n        /* \"#utility.yul\":4490:4831   */\n      pop\n        /* \"#utility.yul\":4406:4831   */\n      swap4\n      swap3\n      pop\n      pop\n      pop\n      jump\t// out\n        /* \"#utility.yul\":4851:5191   */\n    tag_63:\n        /* \"#utility.yul\":4907:4912   */\n      0x00\n        /* \"#utility.yul\":4956:4959   */\n      dup3\n        /* \"#utility.yul\":4949:4953   */\n      0x1f\n        /* \"#utility.yul\":4941:4947   */\n      dup4\n        /* \"#utility.yul\":4937:4954   */\n      add\n        /* \"#utility.yul\":4933:4960   */\n      slt\n        /* \"#utility.yul\":4923:5045   */\n      tag_141\n      jumpi\n        /* \"#utility.yul\":4964:5043   */\n      tag_142\n      tag_55\n      jump\t// in\n    tag_142:\n        /* \"#utility.yul\":4923:5045   */\n    tag_141:\n        /* \"#utility.yul\":5081:5087   */\n      dup2\n        /* \"#utility.yul\":5068:5088   */\n      calldataload\n        /* \"#utility.yul\":5106:5185   */\n      tag_143\n        /* \"#utility.yul\":5181:5184   */\n      dup5\n        /* \"#utility.yul\":5173:5179   */\n      dup3\n        /* \"#utility.yul\":5166:5170   */\n      0x20\n        /* \"#utility.yul\":5158:5164   */\n      dup7\n        /* \"#utility.yul\":5154:5171   */\n      add\n        /* \"#utility.yul\":5106:5185   */\n      tag_62\n      jump\t// in\n    tag_143:\n        /* \"#utility.yul\":5097:5185   */\n      swap2\n      pop\n        /* \"#utility.yul\":4913:5191   */\n      pop\n        /* \"#utility.yul\":4851:5191   */\n      swap3\n      swap2\n      pop\n      pop\n      jump\t// out\n        /* \"#utility.yul\":5197:6142   */\n    tag_18:\n        /* \"#utility.yul\":5293:5299   */\n      0x00\n        /* \"#utility.yul\":5301:5307   */\n      dup1\n        /* \"#utility.yul\":5309:5315   */\n      0x00\n        /* \"#utility.yul\":5317:5323   */\n      dup1\n        /* \"#utility.yul\":5366:5369   */\n      0x80\n        /* \"#utility.yul\":5354:5363   */\n      dup6\n        /* \"#utility.yul\":5345:5352   */\n      dup8\n        /* \"#utility.yul\":5341:5364   */\n      sub\n        /* \"#utility.yul\":5337:5370   */\n      slt\n        /* \"#utility.yul\":5334:5454   */\n      iszero\n      tag_145\n      jumpi\n        /* \"#utility.yul\":5373:5452   */\n      tag_146\n      tag_44\n      jump\t// in\n    tag_146:\n        /* \"#utility.yul\":5334:5454   */\n    tag_145:\n        /* \"#utility.yul\":5493:5494   */\n      0x00\n        /* \"#utility.yul\":5518:5571   */\n      tag_147\n        /* \"#utility.yul\":5563:5570   */\n      dup8\n        /* \"#utility.yul\":5554:5560   */\n      dup3\n        /* \"#utility.yul\":5543:5552   */\n      dup9\n        /* \"#utility.yul\":5539:5561   */\n      add\n        /* \"#utility.yul\":5518:5571   */\n      tag_48\n      jump\t// in\n    tag_147:\n        /* \"#utility.yul\":5508:5571   */\n      swap5\n      pop\n        /* \"#utility.yul\":5464:5581   */\n      pop\n        /* \"#utility.yul\":5648:5650   */\n      0x20\n        /* \"#utility.yul\":5637:5646   */\n      dup6\n        /* \"#utility.yul\":5633:5651   */\n      add\n        /* \"#utility.yul\":5620:5652   */\n      calldataload\n        /* \"#utility.yul\":5679:5697   */\n      0xffffffffffffffff\n        /* \"#utility.yul\":5671:5677   */\n      dup2\n        /* \"#utility.yul\":5668:5698   */\n      gt\n        /* \"#utility.yul\":5665:5782   */\n      iszero\n      tag_148\n      jumpi\n        /* \"#utility.yul\":5701:5780   */\n      tag_149\n      tag_45\n      jump\t// in\n    tag_149:\n        /* \"#utility.yul\":5665:5782   */\n    tag_148:\n        /* \"#utility.yul\":5806:5869   */\n      tag_150\n        /* \"#utility.yul\":5861:5868   */\n      dup8\n        /* \"#utility.yul\":5852:5858   */\n      dup3\n        /* \"#utility.yul\":5841:5850   */\n      dup9\n        /* \"#utility.yul\":5837:5859   */\n      add\n        /* \"#utility.yul\":5806:5869   */\n      tag_63\n      jump\t// in\n    tag_150:\n        /* \"#utility.yul\":5796:5869   */\n      swap4\n      pop\n        /* \"#utility.yul\":5591:5879   */\n      pop\n        /* \"#utility.yul\":5918:5920   */\n      0x40\n        /* \"#utility.yul\":5944:5997   */\n      tag_151\n        /* \"#utility.yul\":5989:5996   */\n      dup8\n        /* \"#utility.yul\":5980:5986   */\n      dup3\n        /* \"#utility.yul\":5969:5978   */\n      dup9\n        /* \"#utility.yul\":5965:5987   */\n      add\n        /* \"#utility.yul\":5944:5997   */\n      tag_48\n      jump\t// in\n    tag_151:\n        /* \"#utility.yul\":5934:5997   */\n      swap3\n      pop\n        /* \"#utility.yul\":5889:6007   */\n      pop\n        /* \"#utility.yul\":6046:6048   */\n      0x60\n        /* \"#utility.yul\":6072:6125   */\n      tag_152\n        /* \"#utility.yul\":6117:6124   */\n      dup8\n        /* \"#utility.yul\":6108:6114   */\n      dup3\n        /* \"#utility.yul\":6097:6106   */\n      dup9\n        /* \"#utility.yul\":6093:6115   */\n      add\n        /* \"#utility.yul\":6072:6125   */\n      tag_48\n      jump\t// in\n    tag_152:\n        /* \"#utility.yul\":6062:6125   */\n      swap2\n      pop\n        /* \"#utility.yul\":6017:6135   */\n      pop\n        /* \"#utility.yul\":5197:6142   */\n      swap3\n      swap6\n      swap2\n      swap5\n      pop\n      swap3\n      pop\n      jump\t// out\n        /* \"#utility.yul\":6148:6328   */\n    tag_64:\n        /* \"#utility.yul\":6196:6273   */\n      0x4e487b7100000000000000000000000000000000000000000000000000000000\n        /* \"#utility.yul\":6193:6194   */\n      0x00\n        /* \"#utility.yul\":6186:6274   */\n      mstore\n        /* \"#utility.yul\":6293:6297   */\n      0x11\n        /* \"#utility.yul\":6290:6291   */\n      0x04\n        /* \"#utility.yul\":6283:6298   */\n      mstore\n        /* \"#utility.yul\":6317:6321   */\n      0x24\n        /* \"#utility.yul\":6314:6315   */\n      0x00\n        /* \"#utility.yul\":6307:6322   */\n      revert\n        /* \"#utility.yul\":6334:6525   */\n    tag_22:\n        /* \"#utility.yul\":6374:6377   */\n      0x00\n        /* \"#utility.yul\":6393:6413   */\n      tag_155\n        /* \"#utility.yul\":6411:6412   */\n      dup3\n        /* \"#utility.yul\":6393:6413   */\n      tag_46\n      jump\t// in\n    tag_155:\n        /* \"#utility.yul\":6388:6413   */\n      swap2\n      pop\n        /* \"#utility.yul\":6427:6447   */\n      tag_156\n        /* \"#utility.yul\":6445:6446   */\n      dup4\n        /* \"#utility.yul\":6427:6447   */\n      tag_46\n      jump\t// in\n    tag_156:\n        /* \"#utility.yul\":6422:6447   */\n      swap3\n      pop\n        /* \"#utility.yul\":6470:6471   */\n      dup3\n        /* \"#utility.yul\":6467:6468   */\n      dup3\n        /* \"#utility.yul\":6463:6472   */\n      add\n        /* \"#utility.yul\":6456:6472   */\n      swap1\n      pop\n        /* \"#utility.yul\":6491:6494   */\n      dup1\n        /* \"#utility.yul\":6488:6489   */\n      dup3\n        /* \"#utility.yul\":6485:6495   */\n      gt\n        /* \"#utility.yul\":6482:6518   */\n      iszero\n      tag_157\n      jumpi\n        /* \"#utility.yul\":6498:6516   */\n      tag_158\n      tag_64\n      jump\t// in\n    tag_158:\n        /* \"#utility.yul\":6482:6518   */\n    tag_157:\n        /* \"#utility.yul\":6334:6525   */\n      swap3\n      swap2\n      pop\n      pop\n      jump\t// out\n        /* \"#utility.yul\":6531:6710   */\n    tag_65:\n        /* \"#utility.yul\":6671:6702   */\n      0x546869732070726f64756374206973206e6f7420617661696c61626c65000000\n        /* \"#utility.yul\":6667:6668   */\n      0x00\n        /* \"#utility.yul\":6659:6665   */\n      dup3\n        /* \"#utility.yul\":6655:6669   */\n      add\n        /* \"#utility.yul\":6648:6703   */\n      mstore\n        /* \"#utility.yul\":6531:6710   */\n      pop\n      jump\t// out\n        /* \"#utility.yul\":6716:7082   */\n    tag_66:\n        /* \"#utility.yul\":6858:6861   */\n      0x00\n        /* \"#utility.yul\":6879:6946   */\n      tag_161\n        /* \"#utility.yul\":6943:6945   */\n      0x1d\n        /* \"#utility.yul\":6938:6941   */\n      dup4\n        /* \"#utility.yul\":6879:6946   */\n      tag_50\n      jump\t// in\n    tag_161:\n        /* \"#utility.yul\":6872:6946   */\n      swap2\n      pop\n        /* \"#utility.yul\":6955:7048   */\n      tag_162\n        /* \"#utility.yul\":7044:7047   */\n      dup3\n        /* \"#utility.yul\":6955:7048   */\n      tag_65\n      jump\t// in\n    tag_162:\n        /* \"#utility.yul\":7073:7075   */\n      0x20\n        /* \"#utility.yul\":7068:7071   */\n      dup3\n        /* \"#utility.yul\":7064:7076   */\n      add\n        /* \"#utility.yul\":7057:7076   */\n      swap1\n      pop\n        /* \"#utility.yul\":6716:7082   */\n      swap2\n      swap1\n      pop\n      jump\t// out\n        /* \"#utility.yul\":7088:7507   */\n    tag_26:\n        /* \"#utility.yul\":7254:7258   */\n      0x00\n        /* \"#utility.yul\":7292:7294   */\n      0x20\n        /* \"#utility.yul\":7281:7290   */\n      dup3\n        /* \"#utility.yul\":7277:7295   */\n      add\n        /* \"#utility.yul\":7269:7295   */\n      swap1\n      pop\n        /* \"#utility.yul\":7341:7350   */\n      dup2\n        /* \"#utility.yul\":7335:7339   */\n      dup2\n        /* \"#utility.yul\":7331:7351   */\n      sub\n        /* \"#utility.yul\":7327:7328   */\n      0x00\n        /* \"#utility.yul\":7316:7325   */\n      dup4\n        /* \"#utility.yul\":7312:7329   */\n      add\n        /* \"#utility.yul\":7305:7352   */\n      mstore\n        /* \"#utility.yul\":7369:7500   */\n      tag_164\n        /* \"#utility.yul\":7495:7499   */\n      dup2\n        /* \"#utility.yul\":7369:7500   */\n      tag_66\n      jump\t// in\n    tag_164:\n        /* \"#utility.yul\":7361:7500   */\n      swap1\n      pop\n        /* \"#utility.yul\":7088:7507   */\n      swap2\n      swap1\n      pop\n      jump\t// out\n        /* \"#utility.yul\":7513:7693   */\n    tag_67:\n        /* \"#utility.yul\":7561:7638   */\n      0x4e487b7100000000000000000000000000000000000000000000000000000000\n        /* \"#utility.yul\":7558:7559   */\n      0x00\n        /* \"#utility.yul\":7551:7639   */\n      mstore\n        /* \"#utility.yul\":7658:7662   */\n      0x22\n        /* \"#utility.yul\":7655:7656   */\n      0x04\n        /* \"#utility.yul\":7648:7663   */\n      mstore\n        /* \"#utility.yul\":7682:7686   */\n      0x24\n        /* \"#utility.yul\":7679:7680   */\n      0x00\n        /* \"#utility.yul\":7672:7687   */\n      revert\n        /* \"#utility.yul\":7699:8019   */\n    tag_28:\n        /* \"#utility.yul\":7743:7749   */\n      0x00\n        /* \"#utility.yul\":7780:7781   */\n      0x02\n        /* \"#utility.yul\":7774:7778   */\n      dup3\n        /* \"#utility.yul\":7770:7782   */\n      div\n        /* \"#utility.yul\":7760:7782   */\n      swap1\n      pop\n        /* \"#utility.yul\":7827:7828   */\n      0x01\n        /* \"#utility.yul\":7821:7825   */\n      dup3\n        /* \"#utility.yul\":7817:7829   */\n      and\n        /* \"#utility.yul\":7848:7866   */\n      dup1\n        /* \"#utility.yul\":7838:7919   */\n      tag_167\n      jumpi\n        /* \"#utility.yul\":7904:7908   */\n      0x7f\n        /* \"#utility.yul\":7896:7902   */\n      dup3\n        /* \"#utility.yul\":7892:7909   */\n      and\n        /* \"#utility.yul\":7882:7909   */\n      swap2\n      pop\n        /* \"#utility.yul\":7838:7919   */\n    tag_167:\n        /* \"#utility.yul\":7966:7968   */\n      0x20\n        /* \"#utility.yul\":7958:7964   */\n      dup3\n        /* \"#utility.yul\":7955:7969   */\n      lt\n        /* \"#utility.yul\":7935:7953   */\n      dup2\n        /* \"#utility.yul\":7932:7970   */\n      sub\n        /* \"#utility.yul\":7929:8013   */\n      tag_168\n      jumpi\n        /* \"#utility.yul\":7985:8003   */\n      tag_169\n      tag_67\n      jump\t// in\n    tag_169:\n        /* \"#utility.yul\":7929:8013   */\n    tag_168:\n        /* \"#utility.yul\":7750:8019   */\n      pop\n        /* \"#utility.yul\":7699:8019   */\n      swap2\n      swap1\n      pop\n      jump\t// out\n        /* \"#utility.yul\":8025:8204   */\n    tag_68:\n        /* \"#utility.yul\":8165:8196   */\n      0x546869732070726f6475637420697320616c7265616479206164646564000000\n        /* \"#utility.yul\":8161:8162   */\n      0x00\n        /* \"#utility.yul\":8153:8159   */\n      dup3\n        /* \"#utility.yul\":8149:8163   */\n      add\n        /* \"#utility.yul\":8142:8197   */\n      mstore\n        /* \"#utility.yul\":8025:8204   */\n      pop\n      jump\t// out\n        /* \"#utility.yul\":8210:8576   */\n    tag_69:\n        /* \"#utility.yul\":8352:8355   */\n      0x00\n        /* \"#utility.yul\":8373:8440   */\n      tag_172\n        /* \"#utility.yul\":8437:8439   */\n      0x1d\n        /* \"#utility.yul\":8432:8435   */\n      dup4\n        /* \"#utility.yul\":8373:8440   */\n      tag_50\n      jump\t// in\n    tag_172:\n        /* \"#utility.yul\":8366:8440   */\n      swap2\n      pop\n        /* \"#utility.yul\":8449:8542   */\n      tag_173\n        /* \"#utility.yul\":8538:8541   */\n      dup3\n        /* \"#utility.yul\":8449:8542   */\n      tag_68\n      jump\t// in\n    tag_173:\n        /* \"#utility.yul\":8567:8569   */\n      0x20\n        /* \"#utility.yul\":8562:8565   */\n      dup3\n        /* \"#utility.yul\":8558:8570   */\n      add\n        /* \"#utility.yul\":8551:8570   */\n      swap1\n      pop\n        /* \"#utility.yul\":8210:8576   */\n      swap2\n      swap1\n      pop\n      jump\t// out\n        /* \"#utility.yul\":8582:9001   */\n    tag_36:\n        /* \"#utility.yul\":8748:8752   */\n      0x00\n        /* \"#utility.yul\":8786:8788   */\n      0x20\n        /* \"#utility.yul\":8775:8784   */\n      dup3\n        /* \"#utility.yul\":8771:8789   */\n      add\n        /* \"#utility.yul\":8763:8789   */\n      swap1\n      pop\n        /* \"#utility.yul\":8835:8844   */\n      dup2\n        /* \"#utility.yul\":8829:8833   */\n      dup2\n        /* \"#utility.yul\":8825:8845   */\n      sub\n        /* \"#utility.yul\":8821:8822   */\n      0x00\n        /* \"#utility.yul\":8810:8819   */\n      dup4\n        /* \"#utility.yul\":8806:8823   */\n      add\n        /* \"#utility.yul\":8799:8846   */\n      mstore\n        /* \"#utility.yul\":8863:8994   */\n      tag_175\n        /* \"#utility.yul\":8989:8993   */\n      dup2\n        /* \"#utility.yul\":8863:8994   */\n      tag_69\n      jump\t// in\n    tag_175:\n        /* \"#utility.yul\":8855:8994   */\n      swap1\n      pop\n        /* \"#utility.yul\":8582:9001   */\n      swap2\n      swap1\n      pop\n      jump\t// out\n        /* \"#utility.yul\":9007:9148   */\n    tag_70:\n        /* \"#utility.yul\":9056:9060   */\n      0x00\n        /* \"#utility.yul\":9079:9082   */\n      dup2\n        /* \"#utility.yul\":9071:9082   */\n      swap1\n      pop\n        /* \"#utility.yul\":9102:9105   */\n      dup2\n        /* \"#utility.yul\":9099:9100   */\n      0x00\n        /* \"#utility.yul\":9092:9106   */\n      mstore\n        /* \"#utility.yul\":9136:9140   */\n      0x20\n        /* \"#utility.yul\":9133:9134   */\n      0x00\n        /* \"#utility.yul\":9123:9141   */\n      keccak256\n        /* \"#utility.yul\":9115:9141   */\n      swap1\n      pop\n        /* \"#utility.yul\":9007:9148   */\n      swap2\n      swap1\n      pop\n      jump\t// out\n        /* \"#utility.yul\":9154:9247   */\n    tag_71:\n        /* \"#utility.yul\":9191:9197   */\n      0x00\n        /* \"#utility.yul\":9238:9240   */\n      0x20\n        /* \"#utility.yul\":9233:9235   */\n      0x1f\n        /* \"#utility.yul\":9226:9231   */\n      dup4\n        /* \"#utility.yul\":9222:9236   */\n      add\n        /* \"#utility.yul\":9218:9241   */\n      div\n        /* \"#utility.yul\":9208:9241   */\n      swap1\n      pop\n        /* \"#utility.yul\":9154:9247   */\n      swap2\n      swap1\n      pop\n      jump\t// out\n        /* \"#utility.yul\":9253:9360   */\n    tag_72:\n        /* \"#utility.yul\":9297:9305   */\n      0x00\n        /* \"#utility.yul\":9347:9352   */\n      dup3\n        /* \"#utility.yul\":9341:9345   */\n      dup3\n        /* \"#utility.yul\":9337:9353   */\n      shl\n        /* \"#utility.yul\":9316:9353   */\n      swap1\n      pop\n        /* \"#utility.yul\":9253:9360   */\n      swap3\n      swap2\n      pop\n      pop\n      jump\t// out\n        /* \"#utility.yul\":9366:9759   */\n    tag_73:\n        /* \"#utility.yul\":9435:9441   */\n      0x00\n        /* \"#utility.yul\":9485:9486   */\n      0x08\n        /* \"#utility.yul\":9473:9483   */\n      dup4\n        /* \"#utility.yul\":9469:9487   */\n      mul\n        /* \"#utility.yul\":9508:9605   */\n      tag_180\n        /* \"#utility.yul\":9538:9604   */\n      0xffffffffffffffffffffffffffffffffffffffffffffffffffffffffffffffff\n        /* \"#utility.yul\":9527:9536   */\n      dup3\n        /* \"#utility.yul\":9508:9605   */\n      tag_72\n      jump\t// in\n    tag_180:\n        /* \"#utility.yul\":9626:9665   */\n      tag_181\n        /* \"#utility.yul\":9656:9664   */\n      dup7\n        /* \"#utility.yul\":9645:9654   */\n      dup4\n        /* \"#utility.yul\":9626:9665   */\n      tag_72\n      jump\t// in\n    tag_181:\n        /* \"#utility.yul\":9614:9665   */\n      swap6\n      pop\n        /* \"#utility.yul\":9698:9702   */\n      dup1\n        /* \"#utility.yul\":9694:9703   */\n      not\n        /* \"#utility.yul\":9687:9692   */\n      dup5\n        /* \"#utility.yul\":9683:9704   */\n      and\n        /* \"#utility.yul\":9674:9704   */\n      swap4\n      pop\n        /* \"#utility.yul\":9747:9751   */\n      dup1\n        /* \"#utility.yul\":9737:9745   */\n      dup7\n        /* \"#utility.yul\":9733:9752   */\n      and\n        /* \"#utility.yul\":9726:9731   */\n      dup5\n        /* \"#utility.yul\":9723:9753   */\n      or\n        /* \"#utility.yul\":9713:9753   */\n      swap3\n      pop\n        /* \"#utility.yul\":9442:9759   */\n      pop\n      pop\n        /* \"#utility.yul\":9366:9759   */\n      swap4\n      swap3\n      pop\n      pop\n      pop\n      jump\t// out\n        /* \"#utility.yul\":9765:9825   */\n    tag_74:\n        /* \"#utility.yul\":9793:9796   */\n      0x00\n        /* \"#utility.yul\":9814:9819   */\n      dup2\n        /* \"#utility.yul\":9807:9819   */\n      swap1\n      pop\n        /* \"#utility.yul\":9765:9825   */\n      swap2\n      swap1\n      pop\n      jump\t// out\n        /* \"#utility.yul\":9831:9973   */\n    tag_75:\n        /* \"#utility.yul\":9881:9890   */\n      0x00\n        /* \"#utility.yul\":9914:9967   */\n      tag_184\n        /* \"#utility.yul\":9932:9966   */\n      tag_185\n        /* \"#utility.yul\":9941:9965   */\n      tag_186\n        /* \"#utility.yul\":9959:9964   */\n      dup5\n        /* \"#utility.yul\":9941:9965   */\n      tag_46\n      jump\t// in\n    tag_186:\n        /* \"#utility.yul\":9932:9966   */\n      tag_74\n      jump\t// in\n    tag_185:\n        /* \"#utility.yul\":9914:9967   */\n      tag_46\n      jump\t// in\n    tag_184:\n        /* \"#utility.yul\":9901:9967   */\n      swap1\n      pop\n        /* \"#utility.yul\":9831:9973   */\n      swap2\n      swap1\n      pop\n      jump\t// out\n        /* \"#utility.yul\":9979:10054   */\n    tag_76:\n        /* \"#utility.yul\":10022:10025   */\n      0x00\n        /* \"#utility.yul\":10043:10048   */\n      dup2\n        /* \"#utility.yul\":10036:10048   */\n      swap1\n      pop\n        /* \"#utility.yul\":9979:10054   */\n      swap2\n      swap1\n      pop\n      jump\t// out\n        /* \"#utility.yul\":10060:10329   */\n    tag_77:\n        /* \"#utility.yul\":10170:10209   */\n      tag_189\n        /* \"#utility.yul\":10201:10208   */\n      dup4\n        /* \"#utility.yul\":10170:10209   */\n      tag_75\n      jump\t// in\n    tag_189:\n        /* \"#utility.yul\":10231:10322   */\n      tag_190\n        /* \"#utility.yul\":10280:10321   */\n      tag_191\n        /* \"#utility.yul\":10304:10320   */\n      dup3\n        /* \"#utility.yul\":10280:10321   */\n      tag_76\n      jump\t// in\n    tag_191:\n        /* \"#utility.yul\":10272:10278   */\n      dup5\n        /* \"#utility.yul\":10265:10269   */\n      dup5\n        /* \"#utility.yul\":10259:10270   */\n      sload\n        /* \"#utility.yul\":10231:10322   */\n      tag_73\n      jump\t// in\n    tag_190:\n        /* \"#utility.yul\":10225:10229   */\n      dup3\n        /* \"#utility.yul\":10218:10323   */\n      sstore\n        /* \"#utility.yul\":10136:10329   */\n      pop\n        /* \"#utility.yul\":10060:10329   */\n      pop\n      pop\n      pop\n      jump\t// out\n        /* \"#utility.yul\":10335:10408   */\n    tag_78:\n        /* \"#utility.yul\":10380:10383   */\n      0x00\n        /* \"#utility.yul\":10335:10408   */\n      swap1\n      jump\t// out\n        /* \"#utility.yul\":10414:10603   */\n    tag_79:\n        /* \"#utility.yul\":10491:10523   */\n      tag_194\n      tag_78\n      jump\t// in\n    tag_194:\n        /* \"#utility.yul\":10532:10597   */\n      tag_195\n        /* \"#utility.yul\":10590:10596   */\n      dup2\n        /* \"#utility.yul\":10582:10588   */\n      dup5\n        /* \"#utility.yul\":10576:10580   */\n      dup5\n        /* \"#utility.yul\":10532:10597   */\n      tag_77\n      jump\t// in\n    tag_195:\n        /* \"#utility.yul\":10467:10603   */\n      pop\n        /* \"#utility.yul\":10414:10603   */\n      pop\n      pop\n      jump\t// out\n        /* \"#utility.yul\":10609:10795   */\n    tag_80:\n        /* \"#utility.yul\":10669:10789   */\n    tag_197:\n        /* \"#utility.yul\":10686:10689   */\n      dup2\n        /* \"#utility.yul\":10679:10684   */\n      dup2\n        /* \"#utility.yul\":10676:10690   */\n      lt\n        /* \"#utility.yul\":10669:10789   */\n      iszero\n      tag_199\n      jumpi\n        /* \"#utility.yul\":10740:10779   */\n      tag_200\n        /* \"#utility.yul\":10777:10778   */\n      0x00\n        /* \"#utility.yul\":10770:10775   */\n      dup3\n        /* \"#utility.yul\":10740:10779   */\n      tag_79\n      jump\t// in\n    tag_200:\n        /* \"#utility.yul\":10713:10714   */\n      0x01\n        /* \"#utility.yul\":10706:10711   */\n      dup2\n        /* \"#utility.yul\":10702:10715   */\n      add\n        /* \"#utility.yul\":10693:10715   */\n      swap1\n      pop\n        /* \"#utility.yul\":10669:10789   */\n      jump(tag_197)\n    tag_199:\n        /* \"#utility.yul\":10609:10795   */\n      pop\n      pop\n      jump\t// out\n        /* \"#utility.yul\":10801:11344   */\n    tag_81:\n        /* \"#utility.yul\":10902:10904   */\n      0x1f\n        /* \"#utility.yul\":10897:10900   */\n      dup3\n        /* \"#utility.yul\":10894:10905   */\n      gt\n        /* \"#utility.yul\":10891:11337   */\n      iszero\n      tag_202\n      jumpi\n        /* \"#utility.yul\":10936:10974   */\n      tag_203\n        /* \"#utility.yul\":10968:10973   */\n      dup2\n        /* \"#utility.yul\":10936:10974   */\n      tag_70\n      jump\t// in\n    tag_203:\n        /* \"#utility.yul\":11020:11049   */\n      tag_204\n        /* \"#utility.yul\":11038:11048   */\n      dup5\n        /* \"#utility.yul\":11020:11049   */\n      tag_71\n      jump\t// in\n    tag_204:\n        /* \"#utility.yul\":11010:11018   */\n      dup2\n        /* \"#utility.yul\":11006:11050   */\n      add\n        /* \"#utility.yul\":11203:11205   */\n      0x20\n        /* \"#utility.yul\":11191:11201   */\n      dup6\n        /* \"#utility.yul\":11188:11206   */\n      lt\n        /* \"#utility.yul\":11185:11234   */\n      iszero\n      tag_205\n      jumpi\n        /* \"#utility.yul\":11224:11232   */\n      dup2\n        /* \"#utility.yul\":11209:11232   */\n      swap1\n      pop\n        /* \"#utility.yul\":11185:11234   */\n    tag_205:\n        /* \"#utility.yul\":11247:11327   */\n      tag_206\n        /* \"#utility.yul\":11303:11325   */\n      tag_207\n        /* \"#utility.yul\":11321:11324   */\n      dup6\n        /* \"#utility.yul\":11303:11325   */\n      tag_71\n      jump\t// in\n    tag_207:\n        /* \"#utility.yul\":11293:11301   */\n      dup4\n        /* \"#utility.yul\":11289:11326   */\n      add\n        /* \"#utility.yul\":11276:11287   */\n      dup3\n        /* \"#utility.yul\":11247:11327   */\n      tag_80\n      jump\t// in\n    tag_206:\n        /* \"#utility.yul\":10906:11337   */\n      pop\n      pop\n        /* \"#utility.yul\":10891:11337   */\n    tag_202:\n        /* \"#utility.yul\":10801:11344   */\n      pop\n      pop\n      pop\n      jump\t// out\n        /* \"#utility.yul\":11350:11467   */\n    tag_82:\n        /* \"#utility.yul\":11404:11412   */\n      0x00\n        /* \"#utility.yul\":11454:11459   */\n      dup3\n        /* \"#utility.yul\":11448:11452   */\n      dup3\n        /* \"#utility.yul\":11444:11460   */\n      shr\n        /* \"#utility.yul\":11423:11460   */\n      swap1\n      pop\n        /* \"#utility.yul\":11350:11467   */\n      swap3\n      swap2\n      pop\n      pop\n      jump\t// out\n        /* \"#utility.yul\":11473:11642   */\n    tag_83:\n        /* \"#utility.yul\":11517:11523   */\n      0x00\n        /* \"#utility.yul\":11550:11601   */\n      tag_210\n        /* \"#utility.yul\":11598:11599   */\n      0x00\n        /* \"#utility.yul\":11594:11600   */\n      not\n        /* \"#utility.yul\":11586:11591   */\n      dup5\n        /* \"#utility.yul\":11583:11584   */\n      0x08\n        /* \"#utility.yul\":11579:11592   */\n      mul\n        /* \"#utility.yul\":11550:11601   */\n      tag_82\n      jump\t// in\n    tag_210:\n        /* \"#utility.yul\":11546:11602   */\n      not\n        /* \"#utility.yul\":11631:11635   */\n      dup1\n        /* \"#utility.yul\":11625:11629   */\n      dup4\n        /* \"#utility.yul\":11621:11636   */\n      and\n        /* \"#utility.yul\":11611:11636   */\n      swap2\n      pop\n        /* \"#utility.yul\":11524:11642   */\n      pop\n        /* \"#utility.yul\":11473:11642   */\n      swap3\n      swap2\n      pop\n      pop\n      jump\t// out\n        /* \"#utility.yul\":11647:11942   */\n    tag_84:\n        /* \"#utility.yul\":11723:11727   */\n      0x00\n        /* \"#utility.yul\":11869:11898   */\n      tag_212\n        /* \"#utility.yul\":11894:11897   */\n      dup4\n        /* \"#utility.yul\":11888:11892   */\n      dup4\n        /* \"#utility.yul\":11869:11898   */\n      tag_83\n      jump\t// in\n    tag_212:\n        /* \"#utility.yul\":11861:11898   */\n      swap2\n      pop\n        /* \"#utility.yul\":11931:11934   */\n      dup3\n        /* \"#utility.yul\":11928:11929   */\n      0x02\n        /* \"#utility.yul\":11924:11935   */\n      mul\n        /* \"#utility.yul\":11918:11922   */\n      dup3\n        /* \"#utility.yul\":11915:11936   */\n      or\n        /* \"#utility.yul\":11907:11936   */\n      swap1\n      pop\n        /* \"#utility.yul\":11647:11942   */\n      swap3\n      swap2\n      pop\n      pop\n      jump\t// out\n        /* \"#utility.yul\":11947:13342   */\n    tag_39:\n        /* \"#utility.yul\":12064:12101   */\n      tag_214\n        /* \"#utility.yul\":12097:12100   */\n      dup3\n        /* \"#utility.yul\":12064:12101   */\n      tag_49\n      jump\t// in\n    tag_214:\n        /* \"#utility.yul\":12166:12184   */\n      0xffffffffffffffff\n        /* \"#utility.yul\":12158:12164   */\n      dup2\n        /* \"#utility.yul\":12155:12185   */\n      gt\n        /* \"#utility.yul\":12152:12208   */\n      iszero\n      tag_215\n      jumpi\n        /* \"#utility.yul\":12188:12206   */\n      tag_216\n      tag_57\n      jump\t// in\n    tag_216:\n        /* \"#utility.yul\":12152:12208   */\n    tag_215:\n        /* \"#utility.yul\":12232:12270   */\n      tag_217\n        /* \"#utility.yul\":12264:12268   */\n      dup3\n        /* \"#utility.yul\":12258:12269   */\n      sload\n        /* \"#utility.yul\":12232:12270   */\n      tag_28\n      jump\t// in\n    tag_217:\n        /* \"#utility.yul\":12317:12384   */\n      tag_218\n        /* \"#utility.yul\":12377:12383   */\n      dup3\n        /* \"#utility.yul\":12369:12375   */\n      dup3\n        /* \"#utility.yul\":12363:12367   */\n      dup6\n        /* \"#utility.yul\":12317:12384   */\n      tag_81\n      jump\t// in\n    tag_218:\n        /* \"#utility.yul\":12411:12412   */\n      0x00\n        /* \"#utility.yul\":12435:12439   */\n      0x20\n        /* \"#utility.yul\":12422:12439   */\n      swap1\n      pop\n        /* \"#utility.yul\":12467:12469   */\n      0x1f\n        /* \"#utility.yul\":12459:12465   */\n      dup4\n        /* \"#utility.yul\":12456:12470   */\n      gt\n        /* \"#utility.yul\":12484:12485   */\n      0x01\n        /* \"#utility.yul\":12479:13097   */\n      dup2\n      eq\n      tag_220\n      jumpi\n        /* \"#utility.yul\":13141:13142   */\n      0x00\n        /* \"#utility.yul\":13158:13164   */\n      dup5\n        /* \"#utility.yul\":13155:13232   */\n      iszero\n      tag_221\n      jumpi\n        /* \"#utility.yul\":13207:13216   */\n      dup3\n        /* \"#utility.yul\":13202:13205   */\n      dup8\n        /* \"#utility.yul\":13198:13217   */\n      add\n        /* \"#utility.yul\":13192:13218   */\n      mload\n        /* \"#utility.yul\":13183:13218   */\n      swap1\n      pop\n        /* \"#utility.yul\":13155:13232   */\n    tag_221:\n        /* \"#utility.yul\":13258:13325   */\n      tag_222\n        /* \"#utility.yul\":13318:13324   */\n      dup6\n        /* \"#utility.yul\":13311:13316   */\n      dup3\n        /* \"#utility.yul\":13258:13325   */\n      tag_84\n      jump\t// in\n    tag_222:\n        /* \"#utility.yul\":13252:13256   */\n      dup7\n        /* \"#utility.yul\":13245:13326   */\n      sstore\n        /* \"#utility.yul\":13114:13336   */\n      pop\n        /* \"#utility.yul\":12449:13336   */\n      jump(tag_219)\n        /* \"#utility.yul\":12479:13097   */\n    tag_220:\n        /* \"#utility.yul\":12531:12535   */\n      0x1f\n        /* \"#utility.yul\":12527:12536   */\n      not\n        /* \"#utility.yul\":12519:12525   */\n      dup5\n        /* \"#utility.yul\":12515:12537   */\n      and\n        /* \"#utility.yul\":12565:12602   */\n      tag_223\n        /* \"#utility.yul\":12597:12601   */\n      dup7\n        /* \"#utility.yul\":12565:12602   */\n      tag_70\n      jump\t// in\n    tag_223:\n        /* \"#utility.yul\":12624:12625   */\n      0x00\n        /* \"#utility.yul\":12638:12846   */\n    tag_224:\n        /* \"#utility.yul\":12652:12659   */\n      dup3\n        /* \"#utility.yul\":12649:12650   */\n      dup2\n        /* \"#utility.yul\":12646:12660   */\n      lt\n        /* \"#utility.yul\":12638:12846   */\n      iszero\n      tag_226\n      jumpi\n        /* \"#utility.yul\":12731:12740   */\n      dup5\n        /* \"#utility.yul\":12726:12729   */\n      dup10\n        /* \"#utility.yul\":12722:12741   */\n      add\n        /* \"#utility.yul\":12716:12742   */\n      mload\n        /* \"#utility.yul\":12708:12714   */\n      dup3\n        /* \"#utility.yul\":12701:12743   */\n      sstore\n        /* \"#utility.yul\":12782:12783   */\n      0x01\n        /* \"#utility.yul\":12774:12780   */\n      dup3\n        /* \"#utility.yul\":12770:12784   */\n      add\n        /* \"#utility.yul\":12760:12784   */\n      swap2\n      pop\n        /* \"#utility.yul\":12829:12831   */\n      0x20\n        /* \"#utility.yul\":12818:12827   */\n      dup6\n        /* \"#utility.yul\":12814:12832   */\n      add\n        /* \"#utility.yul\":12801:12832   */\n      swap5\n      pop\n        /* \"#utility.yul\":12675:12679   */\n      0x20\n        /* \"#utility.yul\":12672:12673   */\n      dup2\n        /* \"#utility.yul\":12668:12680   */\n      add\n        /* \"#utility.yul\":12663:12680   */\n      swap1\n      pop\n        /* \"#utility.yul\":12638:12846   */\n      jump(tag_224)\n    tag_226:\n        /* \"#utility.yul\":12874:12880   */\n      dup7\n        /* \"#utility.yul\":12865:12872   */\n      dup4\n        /* \"#utility.yul\":12862:12881   */\n      lt\n        /* \"#utility.yul\":12859:13038   */\n      iszero\n      tag_227\n      jumpi\n        /* \"#utility.yul\":12932:12941   */\n      dup5\n        /* \"#utility.yul\":12927:12930   */\n      dup10\n        /* \"#utility.yul\":12923:12942   */\n      add\n        /* \"#utility.yul\":12917:12943   */\n      mload\n        /* \"#utility.yul\":12975:13023   */\n      tag_228\n        /* \"#utility.yul\":13017:13021   */\n      0x1f\n        /* \"#utility.yul\":13009:13015   */\n      dup10\n        /* \"#utility.yul\":13005:13022   */\n      and\n        /* \"#utility.yul\":12994:13003   */\n      dup3\n        /* \"#utility.yul\":12975:13023   */\n      tag_83\n      jump\t// in\n    tag_228:\n        /* \"#utility.yul\":12967:12973   */\n      dup4\n        /* \"#utility.yul\":12960:13024   */\n      sstore\n        /* \"#utility.yul\":12882:13038   */\n      pop\n        /* \"#utility.yul\":12859:13038   */\n    tag_227:\n        /* \"#utility.yul\":13084:13085   */\n      0x01\n        /* \"#utility.yul\":13080:13081   */\n      0x02\n        /* \"#utility.yul\":13072:13078   */\n      dup9\n        /* \"#utility.yul\":13068:13082   */\n      mul\n        /* \"#utility.yul\":13064:13086   */\n      add\n        /* \"#utility.yul\":13058:13062   */\n      dup9\n        /* \"#utility.yul\":13051:13087   */\n      sstore\n        /* \"#utility.yul\":12486:13097   */\n      pop\n      pop\n      pop\n        /* \"#utility.yul\":12449:13336   */\n    tag_219:\n      pop\n        /* \"#utility.yul\":12039:13342   */\n      pop\n      pop\n      pop\n        /* \"#utility.yul\":11947:13342   */\n      pop\n      pop\n      jump\t// out\n        /* \"#utility.yul\":13348:13992   */\n    tag_42:\n        /* \"#utility.yul\":13545:13549   */\n      0x00\n        /* \"#utility.yul\":13583:13586   */\n      0x80\n        /* \"#utility.yul\":13572:13581   */\n      dup3\n        /* \"#utility.yul\":13568:13587   */\n      add\n        /* \"#utility.yul\":13560:13587   */\n      swap1\n      pop\n        /* \"#utility.yul\":13597:13668   */\n      tag_230\n        /* \"#utility.yul\":13665:13666   */\n      0x00\n        /* \"#utility.yul\":13654:13663   */\n      dup4\n        /* \"#utility.yul\":13650:13667   */\n      add\n        /* \"#utility.yul\":13641:13647   */\n      dup8\n        /* \"#utility.yul\":13597:13668   */\n      tag_54\n      jump\t// in\n    tag_230:\n        /* \"#utility.yul\":13715:13724   */\n      dup2\n        /* \"#utility.yul\":13709:13713   */\n      dup2\n        /* \"#utility.yul\":13705:13725   */\n      sub\n        /* \"#utility.yul\":13700:13702   */\n      0x20\n        /* \"#utility.yul\":13689:13698   */\n      dup4\n        /* \"#utility.yul\":13685:13703   */\n      add\n        /* \"#utility.yul\":13678:13726   */\n      mstore\n        /* \"#utility.yul\":13743:13821   */\n      tag_231\n        /* \"#utility.yul\":13816:13820   */\n      dup2\n        /* \"#utility.yul\":13807:13813   */\n      dup7\n        /* \"#utility.yul\":13743:13821   */\n      tag_53\n      jump\t// in\n    tag_231:\n        /* \"#utility.yul\":13735:13821   */\n      swap1\n      pop\n        /* \"#utility.yul\":13831:13903   */\n      tag_232\n        /* \"#utility.yul\":13899:13901   */\n      0x40\n        /* \"#utility.yul\":13888:13897   */\n      dup4\n        /* \"#utility.yul\":13884:13902   */\n      add\n        /* \"#utility.yul\":13875:13881   */\n      dup6\n        /* \"#utility.yul\":13831:13903   */\n      tag_54\n      jump\t// in\n    tag_232:\n        /* \"#utility.yul\":13913:13985   */\n      tag_233\n        /* \"#utility.yul\":13981:13983   */\n      0x60\n        /* \"#utility.yul\":13970:13979   */\n      dup4\n        /* \"#utility.yul\":13966:13984   */\n      add\n        /* \"#utility.yul\":13957:13963   */\n      dup5\n        /* \"#utility.yul\":13913:13985   */\n      tag_54\n      jump\t// in\n    tag_233:\n        /* \"#utility.yul\":13348:13992   */\n      swap6\n      swap5\n      pop\n      pop\n      pop\n      pop\n      pop\n      jump\t// out\n\n    auxdata: 0xa2646970667358221220b5e810cfd858a016dede756c154b4fda491665e23d9af2782754cd72ee9f9caf64736f6c634300081a0033\n}\n",
				"bytecode": {
					"linkReferences": {},
					"object": "6080604052348015600e575f80fd5b50610acb8061001c5f395ff3fe608060405234801561000f575f80fd5b506004361061003f575f3560e01c80635d01712714610043578063b9db15b41461005f578063c27ed2a214610091575b5f80fd5b61005d60048036038101906100589190610382565b6100ad565b005b610079600480360381019061007491906103c0565b6100da565b6040516100889392919061046a565b60405180910390f35b6100ab60048036038101906100a691906105d2565b6101f5565b005b805f808481526020019081526020015f206001015f8282546100cf919061067f565b925050819055505050565b60605f805f808581526020019081526020015f206003015f9054906101000a900460ff1661013d576040517f08c379a0000000000000000000000000000000000000000000000000000000008152600401610134906106fc565b60405180910390fd5b5f805f8681526020019081526020015f209050805f018160010154826002015482805461016990610747565b80601f016020809104026020016040519081016040528092919081815260200182805461019590610747565b80156101e05780601f106101b7576101008083540402835291602001916101e0565b820191905f5260205f20905b8154815290600101906020018083116101c357829003601f168201915b50505050509250935093509350509193909250565b835f808281526020019081526020015f206003015f9054906101000a900460ff1615610256576040517f08c379a000000000000000000000000000000000000000000000000000000000815260040161024d906107c1565b60405180910390fd5b6040518060800160405280858152602001848152602001838152602001600115158152505f808781526020019081526020015f205f820151815f01908161029d919061097c565b5060208201518160010155604082015181600201556060820151816003015f6101000a81548160ff021916908315150217905550905050600185908060018154018082558091505060019003905f5260205f20015f90919091909150557f265cc0f1c660c2149472f3494547e39e75a2d42b950a72e34d310f5950e124278585858560405161032f9493929190610a4b565b60405180910390a15050505050565b5f604051905090565b5f80fd5b5f80fd5b5f819050919050565b6103618161034f565b811461036b575f80fd5b50565b5f8135905061037c81610358565b92915050565b5f806040838503121561039857610397610347565b5b5f6103a58582860161036e565b92505060206103b68582860161036e565b9150509250929050565b5f602082840312156103d5576103d4610347565b5b5f6103e28482850161036e565b91505092915050565b5f81519050919050565b5f82825260208201905092915050565b8281835e5f83830152505050565b5f601f19601f8301169050919050565b5f61042d826103eb565b61043781856103f5565b9350610447818560208601610405565b61045081610413565b840191505092915050565b6104648161034f565b82525050565b5f6060820190508181035f8301526104828186610423565b9050610491602083018561045b565b61049e604083018461045b565b949350505050565b5f80fd5b5f80fd5b7f4e487b71000000000000000000000000000000000000000000000000000000005f52604160045260245ffd5b6104e482610413565b810181811067ffffffffffffffff82111715610503576105026104ae565b5b80604052505050565b5f61051561033e565b905061052182826104db565b919050565b5f67ffffffffffffffff8211156105405761053f6104ae565b5b61054982610413565b9050602081019050919050565b828183375f83830152505050565b5f61057661057184610526565b61050c565b905082815260208101848484011115610592576105916104aa565b5b61059d848285610556565b509392505050565b5f82601f8301126105b9576105b86104a6565b5b81356105c9848260208601610564565b91505092915050565b5f805f80608085870312156105ea576105e9610347565b5b5f6105f78782880161036e565b945050602085013567ffffffffffffffff8111156106185761061761034b565b5b610624878288016105a5565b93505060406106358782880161036e565b92505060606106468782880161036e565b91505092959194509250565b7f4e487b71000000000000000000000000000000000000000000000000000000005f52601160045260245ffd5b5f6106898261034f565b91506106948361034f565b92508282019050808211156106ac576106ab610652565b5b92915050565b7f546869732070726f64756374206973206e6f7420617661696c61626c650000005f82015250565b5f6106e6601d836103f5565b91506106f1826106b2565b602082019050919050565b5f6020820190508181035f830152610713816106da565b9050919050565b7f4e487b71000000000000000000000000000000000000000000000000000000005f52602260045260245ffd5b5f600282049050600182168061075e57607f821691505b6020821081036107715761077061071a565b5b50919050565b7f546869732070726f6475637420697320616c72656164792061646465640000005f82015250565b5f6107ab601d836103f5565b91506107b682610777565b602082019050919050565b5f6020820190508181035f8301526107d88161079f565b9050919050565b5f819050815f5260205f209050919050565b5f6020601f8301049050919050565b5f82821b905092915050565b5f6008830261083b7fffffffffffffffffffffffffffffffffffffffffffffffffffffffffffffffff82610800565b6108458683610800565b95508019841693508086168417925050509392505050565b5f819050919050565b5f61088061087b6108768461034f565b61085d565b61034f565b9050919050565b5f819050919050565b61089983610866565b6108ad6108a582610887565b84845461080c565b825550505050565b5f90565b6108c16108b5565b6108cc818484610890565b505050565b5b818110156108ef576108e45f826108b9565b6001810190506108d2565b5050565b601f82111561093457610905816107df565b61090e846107f1565b8101602085101561091d578190505b610931610929856107f1565b8301826108d1565b50505b505050565b5f82821c905092915050565b5f6109545f1984600802610939565b1980831691505092915050565b5f61096c8383610945565b9150826002028217905092915050565b610985826103eb565b67ffffffffffffffff81111561099e5761099d6104ae565b5b6109a88254610747565b6109b38282856108f3565b5f60209050601f8311600181146109e4575f84156109d2578287015190505b6109dc8582610961565b865550610a43565b601f1984166109f2866107df565b5f5b82811015610a19578489015182556001820191506020850194506020810190506109f4565b86831015610a365784890151610a32601f891682610945565b8355505b6001600288020188555050505b505050505050565b5f608082019050610a5e5f83018761045b565b8181036020830152610a708186610423565b9050610a7f604083018561045b565b610a8c606083018461045b565b9594505050505056fea2646970667358221220b5e810cfd858a016dede756c154b4fda491665e23d9af2782754cd72ee9f9caf64736f6c634300081a0033",
					"opcodes": "PUSH1 0x80 PUSH1 0x40 MSTORE CALLVALUE DUP1 ISZERO PUSH1 0xE JUMPI PUSH0 DUP1 REVERT JUMPDEST POP PUSH2 0xACB DUP1 PUSH2 0x1C PUSH0 CODECOPY PUSH0 RETURN INVALID PUSH1 0x80 PUSH1 0x40 MSTORE CALLVALUE DUP1 ISZERO PUSH2 0xF JUMPI PUSH0 DUP1 REVERT JUMPDEST POP PUSH1 0x4 CALLDATASIZE LT PUSH2 0x3F JUMPI PUSH0 CALLDATALOAD PUSH1 0xE0 SHR DUP1 PUSH4 0x5D017127 EQ PUSH2 0x43 JUMPI DUP1 PUSH4 0xB9DB15B4 EQ PUSH2 0x5F JUMPI DUP1 PUSH4 0xC27ED2A2 EQ PUSH2 0x91 JUMPI JUMPDEST PUSH0 DUP1 REVERT JUMPDEST PUSH2 0x5D PUSH1 0x4 DUP1 CALLDATASIZE SUB DUP2 ADD SWAP1 PUSH2 0x58 SWAP2 SWAP1 PUSH2 0x382 JUMP JUMPDEST PUSH2 0xAD JUMP JUMPDEST STOP JUMPDEST PUSH2 0x79 PUSH1 0x4 DUP1 CALLDATASIZE SUB DUP2 ADD SWAP1 PUSH2 0x74 SWAP2 SWAP1 PUSH2 0x3C0 JUMP JUMPDEST PUSH2 0xDA JUMP JUMPDEST PUSH1 0x40 MLOAD PUSH2 0x88 SWAP4 SWAP3 SWAP2 SWAP1 PUSH2 0x46A JUMP JUMPDEST PUSH1 0x40 MLOAD DUP1 SWAP2 SUB SWAP1 RETURN JUMPDEST PUSH2 0xAB PUSH1 0x4 DUP1 CALLDATASIZE SUB DUP2 ADD SWAP1 PUSH2 0xA6 SWAP2 SWAP1 PUSH2 0x5D2 JUMP JUMPDEST PUSH2 0x1F5 JUMP JUMPDEST STOP JUMPDEST DUP1 PUSH0 DUP1 DUP5 DUP2 MSTORE PUSH1 0x20 ADD SWAP1 DUP2 MSTORE PUSH1 0x20 ADD PUSH0 KECCAK256 PUSH1 0x1 ADD PUSH0 DUP3 DUP3 SLOAD PUSH2 0xCF SWAP2 SWAP1 PUSH2 0x67F JUMP JUMPDEST SWAP3 POP POP DUP2 SWAP1 SSTORE POP POP POP JUMP JUMPDEST PUSH1 0x60 PUSH0 DUP1 PUSH0 DUP1 DUP6 DUP2 MSTORE PUSH1 0x20 ADD SWAP1 DUP2 MSTORE PUSH1 0x20 ADD PUSH0 KECCAK256 PUSH1 0x3 ADD PUSH0 SWAP1 SLOAD SWAP1 PUSH2 0x100 EXP SWAP1 DIV PUSH1 0xFF AND PUSH2 0x13D JUMPI PUSH1 0x40 MLOAD PUSH32 0x8C379A000000000000000000000000000000000000000000000000000000000 DUP2 MSTORE PUSH1 0x4 ADD PUSH2 0x134 SWAP1 PUSH2 0x6FC JUMP JUMPDEST PUSH1 0x40 MLOAD DUP1 SWAP2 SUB SWAP1 REVERT JUMPDEST PUSH0 DUP1 PUSH0 DUP7 DUP2 MSTORE PUSH1 0x20 ADD SWAP1 DUP2 MSTORE PUSH1 0x20 ADD PUSH0 KECCAK256 SWAP1 POP DUP1 PUSH0 ADD DUP2 PUSH1 0x1 ADD SLOAD DUP3 PUSH1 0x2 ADD SLOAD DUP3 DUP1 SLOAD PUSH2 0x169 SWAP1 PUSH2 0x747 JUMP JUMPDEST DUP1 PUSH1 0x1F ADD PUSH1 0x20 DUP1 SWAP2 DIV MUL PUSH1 0x20 ADD PUSH1 0x40 MLOAD SWAP1 DUP2 ADD PUSH1 0x40 MSTORE DUP1 SWAP3 SWAP2 SWAP1 DUP2 DUP2 MSTORE PUSH1 0x20 ADD DUP3 DUP1 SLOAD PUSH2 0x195 SWAP1 PUSH2 0x747 JUMP JUMPDEST DUP1 ISZERO PUSH2 0x1E0 JUMPI DUP1 PUSH1 0x1F LT PUSH2 0x1B7 JUMPI PUSH2 0x100 DUP1 DUP4 SLOAD DIV MUL DUP4 MSTORE SWAP2 PUSH1 0x20 ADD SWAP2 PUSH2 0x1E0 JUMP JUMPDEST DUP3 ADD SWAP2 SWAP1 PUSH0 MSTORE PUSH1 0x20 PUSH0 KECCAK256 SWAP1 JUMPDEST DUP2 SLOAD DUP2 MSTORE SWAP1 PUSH1 0x1 ADD SWAP1 PUSH1 0x20 ADD DUP1 DUP4 GT PUSH2 0x1C3 JUMPI DUP3 SWAP1 SUB PUSH1 0x1F AND DUP3 ADD SWAP2 JUMPDEST POP POP POP POP POP SWAP3 POP SWAP4 POP SWAP4 POP SWAP4 POP POP SWAP2 SWAP4 SWAP1 SWAP3 POP JUMP JUMPDEST DUP4 PUSH0 DUP1 DUP3 DUP2 MSTORE PUSH1 0x20 ADD SWAP1 DUP2 MSTORE PUSH1 0x20 ADD PUSH0 KECCAK256 PUSH1 0x3 ADD PUSH0 SWAP1 SLOAD SWAP1 PUSH2 0x100 EXP SWAP1 DIV PUSH1 0xFF AND ISZERO PUSH2 0x256 JUMPI PUSH1 0x40 MLOAD PUSH32 0x8C379A000000000000000000000000000000000000000000000000000000000 DUP2 MSTORE PUSH1 0x4 ADD PUSH2 0x24D SWAP1 PUSH2 0x7C1 JUMP JUMPDEST PUSH1 0x40 MLOAD DUP1 SWAP2 SUB SWAP1 REVERT JUMPDEST PUSH1 0x40 MLOAD DUP1 PUSH1 0x80 ADD PUSH1 0x40 MSTORE DUP1 DUP6 DUP2 MSTORE PUSH1 0x20 ADD DUP5 DUP2 MSTORE PUSH1 0x20 ADD DUP4 DUP2 MSTORE PUSH1 0x20 ADD PUSH1 0x1 ISZERO ISZERO DUP2 MSTORE POP PUSH0 DUP1 DUP8 DUP2 MSTORE PUSH1 0x20 ADD SWAP1 DUP2 MSTORE PUSH1 0x20 ADD PUSH0 KECCAK256 PUSH0 DUP3 ADD MLOAD DUP2 PUSH0 ADD SWAP1 DUP2 PUSH2 0x29D SWAP2 SWAP1 PUSH2 0x97C JUMP JUMPDEST POP PUSH1 0x20 DUP3 ADD MLOAD DUP2 PUSH1 0x1 ADD SSTORE PUSH1 0x40 DUP3 ADD MLOAD DUP2 PUSH1 0x2 ADD SSTORE PUSH1 0x60 DUP3 ADD MLOAD DUP2 PUSH1 0x3 ADD PUSH0 PUSH2 0x100 EXP DUP2 SLOAD DUP2 PUSH1 0xFF MUL NOT AND SWAP1 DUP4 ISZERO ISZERO MUL OR SWAP1 SSTORE POP SWAP1 POP POP PUSH1 0x1 DUP6 SWAP1 DUP1 PUSH1 0x1 DUP2 SLOAD ADD DUP1 DUP3 SSTORE DUP1 SWAP2 POP POP PUSH1 0x1 SWAP1 SUB SWAP1 PUSH0 MSTORE PUSH1 0x20 PUSH0 KECCAK256 ADD PUSH0 SWAP1 SWAP2 SWAP1 SWAP2 SWAP1 SWAP2 POP SSTORE PUSH32 0x265CC0F1C660C2149472F3494547E39E75A2D42B950A72E34D310F5950E12427 DUP6 DUP6 DUP6 DUP6 PUSH1 0x40 MLOAD PUSH2 0x32F SWAP5 SWAP4 SWAP3 SWAP2 SWAP1 PUSH2 0xA4B JUMP JUMPDEST PUSH1 0x40 MLOAD DUP1 SWAP2 SUB SWAP1 LOG1 POP POP POP POP POP JUMP JUMPDEST PUSH0 PUSH1 0x40 MLOAD SWAP1 POP SWAP1 JUMP JUMPDEST PUSH0 DUP1 REVERT JUMPDEST PUSH0 DUP1 REVERT JUMPDEST PUSH0 DUP2 SWAP1 POP SWAP2 SWAP1 POP JUMP JUMPDEST PUSH2 0x361 DUP2 PUSH2 0x34F JUMP JUMPDEST DUP2 EQ PUSH2 0x36B JUMPI PUSH0 DUP1 REVERT JUMPDEST POP JUMP JUMPDEST PUSH0 DUP2 CALLDATALOAD SWAP1 POP PUSH2 0x37C DUP2 PUSH2 0x358 JUMP JUMPDEST SWAP3 SWAP2 POP POP JUMP JUMPDEST PUSH0 DUP1 PUSH1 0x40 DUP4 DUP6 SUB SLT ISZERO PUSH2 0x398 JUMPI PUSH2 0x397 PUSH2 0x347 JUMP JUMPDEST JUMPDEST PUSH0 PUSH2 0x3A5 DUP6 DUP3 DUP7 ADD PUSH2 0x36E JUMP JUMPDEST SWAP3 POP POP PUSH1 0x20 PUSH2 0x3B6 DUP6 DUP3 DUP7 ADD PUSH2 0x36E JUMP JUMPDEST SWAP2 POP POP SWAP3 POP SWAP3 SWAP1 POP JUMP JUMPDEST PUSH0 PUSH1 0x20 DUP3 DUP5 SUB SLT ISZERO PUSH2 0x3D5 JUMPI PUSH2 0x3D4 PUSH2 0x347 JUMP JUMPDEST JUMPDEST PUSH0 PUSH2 0x3E2 DUP5 DUP3 DUP6 ADD PUSH2 0x36E JUMP JUMPDEST SWAP2 POP POP SWAP3 SWAP2 POP POP JUMP JUMPDEST PUSH0 DUP2 MLOAD SWAP1 POP SWAP2 SWAP1 POP JUMP JUMPDEST PUSH0 DUP3 DUP3 MSTORE PUSH1 0x20 DUP3 ADD SWAP1 POP SWAP3 SWAP2 POP POP JUMP JUMPDEST DUP3 DUP2 DUP4 MCOPY PUSH0 DUP4 DUP4 ADD MSTORE POP POP POP JUMP JUMPDEST PUSH0 PUSH1 0x1F NOT PUSH1 0x1F DUP4 ADD AND SWAP1 POP SWAP2 SWAP1 POP JUMP JUMPDEST PUSH0 PUSH2 0x42D DUP3 PUSH2 0x3EB JUMP JUMPDEST PUSH2 0x437 DUP2 DUP6 PUSH2 0x3F5 JUMP JUMPDEST SWAP4 POP PUSH2 0x447 DUP2 DUP6 PUSH1 0x20 DUP7 ADD PUSH2 0x405 JUMP JUMPDEST PUSH2 0x450 DUP2 PUSH2 0x413 JUMP JUMPDEST DUP5 ADD SWAP2 POP POP SWAP3 SWAP2 POP POP JUMP JUMPDEST PUSH2 0x464 DUP2 PUSH2 0x34F JUMP JUMPDEST DUP3 MSTORE POP POP JUMP JUMPDEST PUSH0 PUSH1 0x60 DUP3 ADD SWAP1 POP DUP2 DUP2 SUB PUSH0 DUP4 ADD MSTORE PUSH2 0x482 DUP2 DUP7 PUSH2 0x423 JUMP JUMPDEST SWAP1 POP PUSH2 0x491 PUSH1 0x20 DUP4 ADD DUP6 PUSH2 0x45B JUMP JUMPDEST PUSH2 0x49E PUSH1 0x40 DUP4 ADD DUP5 PUSH2 0x45B JUMP JUMPDEST SWAP5 SWAP4 POP POP POP POP JUMP JUMPDEST PUSH0 DUP1 REVERT JUMPDEST PUSH0 DUP1 REVERT JUMPDEST PUSH32 0x4E487B7100000000000000000000000000000000000000000000000000000000 PUSH0 MSTORE PUSH1 0x41 PUSH1 0x4 MSTORE PUSH1 0x24 PUSH0 REVERT JUMPDEST PUSH2 0x4E4 DUP3 PUSH2 0x413 JUMP JUMPDEST DUP2 ADD DUP2 DUP2 LT PUSH8 0xFFFFFFFFFFFFFFFF DUP3 GT OR ISZERO PUSH2 0x503 JUMPI PUSH2 0x502 PUSH2 0x4AE JUMP JUMPDEST JUMPDEST DUP1 PUSH1 0x40 MSTORE POP POP POP JUMP JUMPDEST PUSH0 PUSH2 0x515 PUSH2 0x33E JUMP JUMPDEST SWAP1 POP PUSH2 0x521 DUP3 DUP3 PUSH2 0x4DB JUMP JUMPDEST SWAP2 SWAP1 POP JUMP JUMPDEST PUSH0 PUSH8 0xFFFFFFFFFFFFFFFF DUP3 GT ISZERO PUSH2 0x540 JUMPI PUSH2 0x53F PUSH2 0x4AE JUMP JUMPDEST JUMPDEST PUSH2 0x549 DUP3 PUSH2 0x413 JUMP JUMPDEST SWAP1 POP PUSH1 0x20 DUP2 ADD SWAP1 POP SWAP2 SWAP1 POP JUMP JUMPDEST DUP3 DUP2 DUP4 CALLDATACOPY PUSH0 DUP4 DUP4 ADD MSTORE POP POP POP JUMP JUMPDEST PUSH0 PUSH2 0x576 PUSH2 0x571 DUP5 PUSH2 0x526 JUMP JUMPDEST PUSH2 0x50C JUMP JUMPDEST SWAP1 POP DUP3 DUP2 MSTORE PUSH1 0x20 DUP2 ADD DUP5 DUP5 DUP5 ADD GT ISZERO PUSH2 0x592 JUMPI PUSH2 0x591 PUSH2 0x4AA JUMP JUMPDEST JUMPDEST PUSH2 0x59D DUP5 DUP3 DUP6 PUSH2 0x556 JUMP JUMPDEST POP SWAP4 SWAP3 POP POP POP JUMP JUMPDEST PUSH0 DUP3 PUSH1 0x1F DUP4 ADD SLT PUSH2 0x5B9 JUMPI PUSH2 0x5B8 PUSH2 0x4A6 JUMP JUMPDEST JUMPDEST DUP2 CALLDATALOAD PUSH2 0x5C9 DUP5 DUP3 PUSH1 0x20 DUP7 ADD PUSH2 0x564 JUMP JUMPDEST SWAP2 POP POP SWAP3 SWAP2 POP POP JUMP JUMPDEST PUSH0 DUP1 PUSH0 DUP1 PUSH1 0x80 DUP6 DUP8 SUB SLT ISZERO PUSH2 0x5EA JUMPI PUSH2 0x5E9 PUSH2 0x347 JUMP JUMPDEST JUMPDEST PUSH0 PUSH2 0x5F7 DUP8 DUP3 DUP9 ADD PUSH2 0x36E JUMP JUMPDEST SWAP5 POP POP PUSH1 0x20 DUP6 ADD CALLDATALOAD PUSH8 0xFFFFFFFFFFFFFFFF DUP2 GT ISZERO PUSH2 0x618 JUMPI PUSH2 0x617 PUSH2 0x34B JUMP JUMPDEST JUMPDEST PUSH2 0x624 DUP8 DUP3 DUP9 ADD PUSH2 0x5A5 JUMP JUMPDEST SWAP4 POP POP PUSH1 0x40 PUSH2 0x635 DUP8 DUP3 DUP9 ADD PUSH2 0x36E JUMP JUMPDEST SWAP3 POP POP PUSH1 0x60 PUSH2 0x646 DUP8 DUP3 DUP9 ADD PUSH2 0x36E JUMP JUMPDEST SWAP2 POP POP SWAP3 SWAP6 SWAP2 SWAP5 POP SWAP3 POP JUMP JUMPDEST PUSH32 0x4E487B7100000000000000000000000000000000000000000000000000000000 PUSH0 MSTORE PUSH1 0x11 PUSH1 0x4 MSTORE PUSH1 0x24 PUSH0 REVERT JUMPDEST PUSH0 PUSH2 0x689 DUP3 PUSH2 0x34F JUMP JUMPDEST SWAP2 POP PUSH2 0x694 DUP4 PUSH2 0x34F JUMP JUMPDEST SWAP3 POP DUP3 DUP3 ADD SWAP1 POP DUP1 DUP3 GT ISZERO PUSH2 0x6AC JUMPI PUSH2 0x6AB PUSH2 0x652 JUMP JUMPDEST JUMPDEST SWAP3 SWAP2 POP POP JUMP JUMPDEST PUSH32 0x546869732070726F64756374206973206E6F7420617661696C61626C65000000 PUSH0 DUP3 ADD MSTORE POP JUMP JUMPDEST PUSH0 PUSH2 0x6E6 PUSH1 0x1D DUP4 PUSH2 0x3F5 JUMP JUMPDEST SWAP2 POP PUSH2 0x6F1 DUP3 PUSH2 0x6B2 JUMP JUMPDEST PUSH1 0x20 DUP3 ADD SWAP1 POP SWAP2 SWAP1 POP JUMP JUMPDEST PUSH0 PUSH1 0x20 DUP3 ADD SWAP1 POP DUP2 DUP2 SUB PUSH0 DUP4 ADD MSTORE PUSH2 0x713 DUP2 PUSH2 0x6DA JUMP JUMPDEST SWAP1 POP SWAP2 SWAP1 POP JUMP JUMPDEST PUSH32 0x4E487B7100000000000000000000000000000000000000000000000000000000 PUSH0 MSTORE PUSH1 0x22 PUSH1 0x4 MSTORE PUSH1 0x24 PUSH0 REVERT JUMPDEST PUSH0 PUSH1 0x2 DUP3 DIV SWAP1 POP PUSH1 0x1 DUP3 AND DUP1 PUSH2 0x75E JUMPI PUSH1 0x7F DUP3 AND SWAP2 POP JUMPDEST PUSH1 0x20 DUP3 LT DUP2 SUB PUSH2 0x771 JUMPI PUSH2 0x770 PUSH2 0x71A JUMP JUMPDEST JUMPDEST POP SWAP2 SWAP1 POP JUMP JUMPDEST PUSH32 0x546869732070726F6475637420697320616C7265616479206164646564000000 PUSH0 DUP3 ADD MSTORE POP JUMP JUMPDEST PUSH0 PUSH2 0x7AB PUSH1 0x1D DUP4 PUSH2 0x3F5 JUMP JUMPDEST SWAP2 POP PUSH2 0x7B6 DUP3 PUSH2 0x777 JUMP JUMPDEST PUSH1 0x20 DUP3 ADD SWAP1 POP SWAP2 SWAP1 POP JUMP JUMPDEST PUSH0 PUSH1 0x20 DUP3 ADD SWAP1 POP DUP2 DUP2 SUB PUSH0 DUP4 ADD MSTORE PUSH2 0x7D8 DUP2 PUSH2 0x79F JUMP JUMPDEST SWAP1 POP SWAP2 SWAP1 POP JUMP JUMPDEST PUSH0 DUP2 SWAP1 POP DUP2 PUSH0 MSTORE PUSH1 0x20 PUSH0 KECCAK256 SWAP1 POP SWAP2 SWAP1 POP JUMP JUMPDEST PUSH0 PUSH1 0x20 PUSH1 0x1F DUP4 ADD DIV SWAP1 POP SWAP2 SWAP1 POP JUMP JUMPDEST PUSH0 DUP3 DUP3 SHL SWAP1 POP SWAP3 SWAP2 POP POP JUMP JUMPDEST PUSH0 PUSH1 0x8 DUP4 MUL PUSH2 0x83B PUSH32 0xFFFFFFFFFFFFFFFFFFFFFFFFFFFFFFFFFFFFFFFFFFFFFFFFFFFFFFFFFFFFFFFF DUP3 PUSH2 0x800 JUMP JUMPDEST PUSH2 0x845 DUP7 DUP4 PUSH2 0x800 JUMP JUMPDEST SWAP6 POP DUP1 NOT DUP5 AND SWAP4 POP DUP1 DUP7 AND DUP5 OR SWAP3 POP POP POP SWAP4 SWAP3 POP POP POP JUMP JUMPDEST PUSH0 DUP2 SWAP1 POP SWAP2 SWAP1 POP JUMP JUMPDEST PUSH0 PUSH2 0x880 PUSH2 0x87B PUSH2 0x876 DUP5 PUSH2 0x34F JUMP JUMPDEST PUSH2 0x85D JUMP JUMPDEST PUSH2 0x34F JUMP JUMPDEST SWAP1 POP SWAP2 SWAP1 POP JUMP JUMPDEST PUSH0 DUP2 SWAP1 POP SWAP2 SWAP1 POP JUMP JUMPDEST PUSH2 0x899 DUP4 PUSH2 0x866 JUMP JUMPDEST PUSH2 0x8AD PUSH2 0x8A5 DUP3 PUSH2 0x887 JUMP JUMPDEST DUP5 DUP5 SLOAD PUSH2 0x80C JUMP JUMPDEST DUP3 SSTORE POP POP POP POP JUMP JUMPDEST PUSH0 SWAP1 JUMP JUMPDEST PUSH2 0x8C1 PUSH2 0x8B5 JUMP JUMPDEST PUSH2 0x8CC DUP2 DUP5 DUP5 PUSH2 0x890 JUMP JUMPDEST POP POP POP JUMP JUMPDEST JUMPDEST DUP2 DUP2 LT ISZERO PUSH2 0x8EF JUMPI PUSH2 0x8E4 PUSH0 DUP3 PUSH2 0x8B9 JUMP JUMPDEST PUSH1 0x1 DUP2 ADD SWAP1 POP PUSH2 0x8D2 JUMP JUMPDEST POP POP JUMP JUMPDEST PUSH1 0x1F DUP3 GT ISZERO PUSH2 0x934 JUMPI PUSH2 0x905 DUP2 PUSH2 0x7DF JUMP JUMPDEST PUSH2 0x90E DUP5 PUSH2 0x7F1 JUMP JUMPDEST DUP2 ADD PUSH1 0x20 DUP6 LT ISZERO PUSH2 0x91D JUMPI DUP2 SWAP1 POP JUMPDEST PUSH2 0x931 PUSH2 0x929 DUP6 PUSH2 0x7F1 JUMP JUMPDEST DUP4 ADD DUP3 PUSH2 0x8D1 JUMP JUMPDEST POP POP JUMPDEST POP POP POP JUMP JUMPDEST PUSH0 DUP3 DUP3 SHR SWAP1 POP SWAP3 SWAP2 POP POP JUMP JUMPDEST PUSH0 PUSH2 0x954 PUSH0 NOT DUP5 PUSH1 0x8 MUL PUSH2 0x939 JUMP JUMPDEST NOT DUP1 DUP4 AND SWAP2 POP POP SWAP3 SWAP2 POP POP JUMP JUMPDEST PUSH0 PUSH2 0x96C DUP4 DUP4 PUSH2 0x945 JUMP JUMPDEST SWAP2 POP DUP3 PUSH1 0x2 MUL DUP3 OR SWAP1 POP SWAP3 SWAP2 POP POP JUMP JUMPDEST PUSH2 0x985 DUP3 PUSH2 0x3EB JUMP JUMPDEST PUSH8 0xFFFFFFFFFFFFFFFF DUP2 GT ISZERO PUSH2 0x99E JUMPI PUSH2 0x99D PUSH2 0x4AE JUMP JUMPDEST JUMPDEST PUSH2 0x9A8 DUP3 SLOAD PUSH2 0x747 JUMP JUMPDEST PUSH2 0x9B3 DUP3 DUP3 DUP6 PUSH2 0x8F3 JUMP JUMPDEST PUSH0 PUSH1 0x20 SWAP1 POP PUSH1 0x1F DUP4 GT PUSH1 0x1 DUP2 EQ PUSH2 0x9E4 JUMPI PUSH0 DUP5 ISZERO PUSH2 0x9D2 JUMPI DUP3 DUP8 ADD MLOAD SWAP1 POP JUMPDEST PUSH2 0x9DC DUP6 DUP3 PUSH2 0x961 JUMP JUMPDEST DUP7 SSTORE POP PUSH2 0xA43 JUMP JUMPDEST PUSH1 0x1F NOT DUP5 AND PUSH2 0x9F2 DUP7 PUSH2 0x7DF JUMP JUMPDEST PUSH0 JUMPDEST DUP3 DUP2 LT ISZERO PUSH2 0xA19 JUMPI DUP5 DUP10 ADD MLOAD DUP3 SSTORE PUSH1 0x1 DUP3 ADD SWAP2 POP PUSH1 0x20 DUP6 ADD SWAP5 POP PUSH1 0x20 DUP2 ADD SWAP1 POP PUSH2 0x9F4 JUMP JUMPDEST DUP7 DUP4 LT ISZERO PUSH2 0xA36 JUMPI DUP5 DUP10 ADD MLOAD PUSH2 0xA32 PUSH1 0x1F DUP10 AND DUP3 PUSH2 0x945 JUMP JUMPDEST DUP4 SSTORE POP JUMPDEST PUSH1 0x1 PUSH1 0x2 DUP9 MUL ADD DUP9 SSTORE POP POP POP JUMPDEST POP POP POP POP POP POP JUMP JUMPDEST PUSH0 PUSH1 0x80 DUP3 ADD SWAP1 POP PUSH2 0xA5E PUSH0 DUP4 ADD DUP8 PUSH2 0x45B JUMP JUMPDEST DUP2 DUP2 SUB PUSH1 0x20 DUP4 ADD MSTORE PUSH2 0xA70 DUP2 DUP7 PUSH2 0x423 JUMP JUMPDEST SWAP1 POP PUSH2 0xA7F PUSH1 0x40 DUP4 ADD DUP6 PUSH2 0x45B JUMP JUMPDEST PUSH2 0xA8C PUSH1 0x60 DUP4 ADD DUP5 PUSH2 0x45B JUMP JUMPDEST SWAP6 SWAP5 POP POP POP POP POP JUMP INVALID LOG2 PUSH5 0x6970667358 0x22 SLT KECCAK256 0xB5 0xE8 LT 0xCF 0xD8 PC LOG0 AND 0xDE 0xDE PUSH22 0x6C154B4FDA491665E23D9AF2782754CD72EE9F9CAF64 PUSH20 0x6F6C634300081A00330000000000000000000000 "
				},
				"gasEstimates": {
					"creation": {
						"codeDepositCost": "552600",
						"executionCost": "585",
						"totalCost": "553185"
					},
					"external": {
						"addProduct(uint256,string,uint256,uint256)": "infinite",
						"getProduct(uint256)": "infinite",
						"updateStok(uint256,uint256)": "infinite"
					}
				},
				"methodIdentifiers": {
					"addProduct(uint256,string,uint256,uint256)": "c27ed2a2",
					"getProduct(uint256)": "b9db15b4",
					"updateStok(uint256,uint256)": "5d017127"
				}
			},
			"storageLayout": {
				"storage": [
					{
						"astId": 15,
						"contract": "ProductInventory/ProductInventory.sol:ProductIndevtory",
						"label": "details",
						"offset": 0,
						"slot": "0",
						"type": "t_mapping(t_uint256,t_struct(ProductDetails)10_storage)"
					},
					{
						"astId": 18,
						"contract": "ProductInventory/ProductInventory.sol:ProductIndevtory",
						"label": "productsID",
						"offset": 0,
						"slot": "1",
						"type": "t_array(t_uint256)dyn_storage"
					}
				],
				"types": {
					"t_array(t_uint256)dyn_storage": {
						"base": "t_uint256",
						"encoding": "dynamic_array",
						"label": "uint256[]",
						"numberOfBytes": "32"
					},
					"t_bool": {
						"encoding": "inplace",
						"label": "bool",
						"numberOfBytes": "1"
					},
					"t_mapping(t_uint256,t_struct(ProductDetails)10_storage)": {
						"encoding": "mapping",
						"key": "t_uint256",
						"label": "mapping(uint256 => struct ProductIndevtory.ProductDetails)",
						"numberOfBytes": "32",
						"value": "t_struct(ProductDetails)10_storage"
					},
					"t_string_storage": {
						"encoding": "bytes",
						"label": "string",
						"numberOfBytes": "32"
					},
					"t_struct(ProductDetails)10_storage": {
						"encoding": "inplace",
						"label": "struct ProductIndevtory.ProductDetails",
						"members": [
							{
								"astId": 3,
								"contract": "ProductInventory/ProductInventory.sol:ProductIndevtory",
								"label": "name",
								"offset": 0,
								"slot": "0",
								"type": "t_string_storage"
							},
							{
								"astId": 5,
								"contract": "ProductInventory/ProductInventory.sol:ProductIndevtory",
								"label": "quantity",
								"offset": 0,
								"slot": "1",
								"type": "t_uint256"
							},
							{
								"astId": 7,
								"contract": "ProductInventory/ProductInventory.sol:ProductIndevtory",
								"label": "price",
								"offset": 0,
								"slot": "2",
								"type": "t_uint256"
							},
							{
								"astId": 9,
								"contract": "ProductInventory/ProductInventory.sol:ProductIndevtory",
								"label": "exit",
								"offset": 0,
								"slot": "3",
								"type": "t_bool"
							}
						],
						"numberOfBytes": "128"
					},
					"t_uint256": {
						"encoding": "inplace",
						"label": "uint256",
						"numberOfBytes": "32"
					}
				}
			},
			"userdoc": {
				"kind": "user",
				"methods": {},
				"version": 1
			}
		}
	}
}