{
	"Struct/Struc.sol": {
		"StoreEmployee": {
			"abi": [
				{
					"inputs": [
						{
							"internalType": "uint256",
							"name": "",
							"type": "uint256"
						}
					],
					"name": "EmployeeRecords",
					"outputs": [
						{
							"internalType": "string",
							"name": "name",
							"type": "string"
						},
						{
							"internalType": "uint256",
							"name": "age",
							"type": "uint256"
						},
						{
							"internalType": "uint256",
							"name": "salary",
							"type": "uint256"
						}
					],
					"stateMutability": "view",
					"type": "function"
				},
				{
					"inputs": [
						{
							"internalType": "string",
							"name": "name",
							"type": "string"
						},
						{
							"internalType": "uint256",
							"name": "age",
							"type": "uint256"
						},
						{
							"internalType": "uint256",
							"name": "salary",
							"type": "uint256"
						}
					],
					"name": "addEmployee",
					"outputs": [],
					"stateMutability": "nonpayable",
					"type": "function"
				},
				{
					"inputs": [
						{
							"internalType": "uint256",
							"name": "index",
							"type": "uint256"
						}
					],
					"name": "retriveEmployee",
					"outputs": [
						{
							"internalType": "string",
							"name": "",
							"type": "string"
						},
						{
							"internalType": "uint256",
							"name": "",
							"type": "uint256"
						},
						{
							"internalType": "uint256",
							"name": "",
							"type": "uint256"
						}
					],
					"stateMutability": "view",
					"type": "function"
				}
			],
			"devdoc": {
				"kind": "dev",
				"methods": {},
				"version": 1
			},
			"evm": {
				"assembly": "    /* \"Struct/Struc.sol\":60:574  contract StoreEmployee{... */\n  mstore(0x40, 0x80)\n  callvalue\n  dup1\n  iszero\n  tag_1\n  jumpi\n  0x00\n  dup1\n  revert\ntag_1:\n  pop\n  dataSize(sub_0)\n  dup1\n  dataOffset(sub_0)\n  0x00\n  codecopy\n  0x00\n  return\nstop\n\nsub_0: assembly {\n        /* \"Struct/Struc.sol\":60:574  contract StoreEmployee{... */\n      mstore(0x40, 0x80)\n      callvalue\n      dup1\n      iszero\n      tag_1\n      jumpi\n      0x00\n      dup1\n      revert\n    tag_1:\n      pop\n      jumpi(tag_2, lt(calldatasize, 0x04))\n      shr(0xe0, calldataload(0x00))\n      dup1\n      0x4ef75e0d\n      eq\n      tag_3\n      jumpi\n      dup1\n      0x53c16cda\n      eq\n      tag_4\n      jumpi\n      dup1\n      0xb30bab6c\n      eq\n      tag_5\n      jumpi\n    tag_2:\n      0x00\n      dup1\n      revert\n        /* \"Struct/Struc.sol\":227:364  function addEmployee(string memory name, uint age, uint salary) public {... */\n    tag_3:\n      tag_6\n      0x04\n      dup1\n      calldatasize\n      sub\n      dup2\n      add\n      swap1\n      tag_7\n      swap2\n      swap1\n      tag_8\n      jump\t// in\n    tag_7:\n      tag_9\n      jump\t// in\n    tag_6:\n      stop\n        /* \"Struct/Struc.sol\":372:569  function retriveEmployee(uint index) public view returns(string memory, uint , uint){... */\n    tag_4:\n      tag_10\n      0x04\n      dup1\n      calldatasize\n      sub\n      dup2\n      add\n      swap1\n      tag_11\n      swap2\n      swap1\n      tag_12\n      jump\t// in\n    tag_11:\n      tag_13\n      jump\t// in\n    tag_10:\n      mload(0x40)\n      tag_14\n      swap4\n      swap3\n      swap2\n      swap1\n      tag_15\n      jump\t// in\n    tag_14:\n      mload(0x40)\n      dup1\n      swap2\n      sub\n      swap1\n      return\n        /* \"Struct/Struc.sol\":185:218  employee[] public EmployeeRecords */\n    tag_5:\n      tag_16\n      0x04\n      dup1\n      calldatasize\n      sub\n      dup2\n      add\n      swap1\n      tag_17\n      swap2\n      swap1\n      tag_12\n      jump\t// in\n    tag_17:\n      tag_18\n      jump\t// in\n    tag_16:\n      mload(0x40)\n      tag_19\n      swap4\n      swap3\n      swap2\n      swap1\n      tag_15\n      jump\t// in\n    tag_19:\n      mload(0x40)\n      dup1\n      swap2\n      sub\n      swap1\n      return\n        /* \"Struct/Struc.sol\":227:364  function addEmployee(string memory name, uint age, uint salary) public {... */\n    tag_9:\n        /* \"Struct/Struc.sol\":309:324  EmployeeRecords */\n      0x00\n        /* \"Struct/Struc.sol\":330:355  employee(name,age,salary) */\n      mload(0x40)\n      dup1\n      0x60\n      add\n      0x40\n      mstore\n      dup1\n        /* \"Struct/Struc.sol\":339:343  name */\n      dup6\n        /* \"Struct/Struc.sol\":330:355  employee(name,age,salary) */\n      dup2\n      mstore\n      0x20\n      add\n        /* \"Struct/Struc.sol\":344:347  age */\n      dup5\n        /* \"Struct/Struc.sol\":330:355  employee(name,age,salary) */\n      dup2\n      mstore\n      0x20\n      add\n        /* \"Struct/Struc.sol\":348:354  salary */\n      dup4\n        /* \"Struct/Struc.sol\":330:355  employee(name,age,salary) */\n      dup2\n      mstore\n      pop\n        /* \"Struct/Struc.sol\":309:356  EmployeeRecords.push(employee(name,age,salary)) */\n      swap1\n      dup1\n      0x01\n      dup2\n      sload\n      add\n      dup1\n      dup3\n      sstore\n      dup1\n      swap2\n      pop\n      pop\n      0x01\n      swap1\n      sub\n      swap1\n      0x00\n      mstore\n      keccak256(0x00, 0x20)\n      swap1\n      0x03\n      mul\n      add\n      0x00\n      swap1\n      swap2\n      swap1\n      swap2\n      swap1\n      swap2\n      pop\n      0x00\n      dup3\n      add\n      mload\n      dup2\n      0x00\n      add\n      swap1\n      dup2\n      tag_22\n      swap2\n      swap1\n      tag_23\n      jump\t// in\n    tag_22:\n      pop\n      0x20\n      dup3\n      add\n      mload\n      dup2\n      0x01\n      add\n      sstore\n      0x40\n      dup3\n      add\n      mload\n      dup2\n      0x02\n      add\n      sstore\n      pop\n      pop\n        /* \"Struct/Struc.sol\":227:364  function addEmployee(string memory name, uint age, uint salary) public {... */\n      pop\n      pop\n      pop\n      jump\t// out\n        /* \"Struct/Struc.sol\":372:569  function retriveEmployee(uint index) public view returns(string memory, uint , uint){... */\n    tag_13:\n        /* \"Struct/Struc.sol\":429:442  string memory */\n      0x60\n        /* \"Struct/Struc.sol\":444:448  uint */\n      0x00\n        /* \"Struct/Struc.sol\":451:455  uint */\n      dup1\n        /* \"Struct/Struc.sol\":475:490  EmployeeRecords */\n      0x00\n        /* \"Struct/Struc.sol\":491:496  index */\n      dup5\n        /* \"Struct/Struc.sol\":475:497  EmployeeRecords[index] */\n      dup2\n      sload\n      dup2\n      lt\n      tag_25\n      jumpi\n      tag_26\n      tag_27\n      jump\t// in\n    tag_26:\n    tag_25:\n      swap1\n      0x00\n      mstore\n      keccak256(0x00, 0x20)\n      swap1\n      0x03\n      mul\n      add\n        /* \"Struct/Struc.sol\":475:502  EmployeeRecords[index].name */\n      0x00\n      add\n        /* \"Struct/Struc.sol\":503:518  EmployeeRecords */\n      0x00\n        /* \"Struct/Struc.sol\":519:524  index */\n      dup6\n        /* \"Struct/Struc.sol\":503:525  EmployeeRecords[index] */\n      dup2\n      sload\n      dup2\n      lt\n      tag_29\n      jumpi\n      tag_30\n      tag_27\n      jump\t// in\n    tag_30:\n    tag_29:\n      swap1\n      0x00\n      mstore\n      keccak256(0x00, 0x20)\n      swap1\n      0x03\n      mul\n      add\n        /* \"Struct/Struc.sol\":503:529  EmployeeRecords[index].age */\n      0x01\n      add\n      sload\n        /* \"Struct/Struc.sol\":531:546  EmployeeRecords */\n      0x00\n        /* \"Struct/Struc.sol\":547:552  index */\n      dup7\n        /* \"Struct/Struc.sol\":531:553  EmployeeRecords[index] */\n      dup2\n      sload\n      dup2\n      lt\n      tag_32\n      jumpi\n      tag_33\n      tag_27\n      jump\t// in\n    tag_33:\n    tag_32:\n      swap1\n      0x00\n      mstore\n      keccak256(0x00, 0x20)\n      swap1\n      0x03\n      mul\n      add\n        /* \"Struct/Struc.sol\":531:560  EmployeeRecords[index].salary */\n      0x02\n      add\n      sload\n        /* \"Struct/Struc.sol\":467:561  return (EmployeeRecords[index].name,EmployeeRecords[index].age, EmployeeRecords[index].salary) */\n      dup3\n      dup1\n      sload\n      tag_35\n      swap1\n      tag_36\n      jump\t// in\n    tag_35:\n      dup1\n      0x1f\n      add\n      0x20\n      dup1\n      swap2\n      div\n      mul\n      0x20\n      add\n      mload(0x40)\n      swap1\n      dup2\n      add\n      0x40\n      mstore\n      dup1\n      swap3\n      swap2\n      swap1\n      dup2\n      dup2\n      mstore\n      0x20\n      add\n      dup3\n      dup1\n      sload\n      tag_37\n      swap1\n      tag_36\n      jump\t// in\n    tag_37:\n      dup1\n      iszero\n      tag_38\n      jumpi\n      dup1\n      0x1f\n      lt\n      tag_39\n      jumpi\n      0x0100\n      dup1\n      dup4\n      sload\n      div\n      mul\n      dup4\n      mstore\n      swap2\n      0x20\n      add\n      swap2\n      jump(tag_38)\n    tag_39:\n      dup3\n      add\n      swap2\n      swap1\n      0x00\n      mstore\n      keccak256(0x00, 0x20)\n      swap1\n    tag_40:\n      dup2\n      sload\n      dup2\n      mstore\n      swap1\n      0x01\n      add\n      swap1\n      0x20\n      add\n      dup1\n      dup4\n      gt\n      tag_40\n      jumpi\n      dup3\n      swap1\n      sub\n      0x1f\n      and\n      dup3\n      add\n      swap2\n    tag_38:\n      pop\n      pop\n      pop\n      pop\n      pop\n      swap3\n      pop\n      swap3\n      pop\n      swap3\n      pop\n      swap3\n      pop\n        /* \"Struct/Struc.sol\":372:569  function retriveEmployee(uint index) public view returns(string memory, uint , uint){... */\n      swap2\n      swap4\n      swap1\n      swap3\n      pop\n      jump\t// out\n        /* \"Struct/Struc.sol\":185:218  employee[] public EmployeeRecords */\n    tag_18:\n      0x00\n      dup2\n      dup2\n      sload\n      dup2\n      lt\n      tag_41\n      jumpi\n      0x00\n      dup1\n      revert\n    tag_41:\n      swap1\n      0x00\n      mstore\n      keccak256(0x00, 0x20)\n      swap1\n      0x03\n      mul\n      add\n      0x00\n      swap2\n      pop\n      swap1\n      pop\n      dup1\n      0x00\n      add\n      dup1\n      sload\n      tag_43\n      swap1\n      tag_36\n      jump\t// in\n    tag_43:\n      dup1\n      0x1f\n      add\n      0x20\n      dup1\n      swap2\n      div\n      mul\n      0x20\n      add\n      mload(0x40)\n      swap1\n      dup2\n      add\n      0x40\n      mstore\n      dup1\n      swap3\n      swap2\n      swap1\n      dup2\n      dup2\n      mstore\n      0x20\n      add\n      dup3\n      dup1\n      sload\n      tag_44\n      swap1\n      tag_36\n      jump\t// in\n    tag_44:\n      dup1\n      iszero\n      tag_45\n      jumpi\n      dup1\n      0x1f\n      lt\n      tag_46\n      jumpi\n      0x0100\n      dup1\n      dup4\n      sload\n      div\n      mul\n      dup4\n      mstore\n      swap2\n      0x20\n      add\n      swap2\n      jump(tag_45)\n    tag_46:\n      dup3\n      add\n      swap2\n      swap1\n      0x00\n      mstore\n      keccak256(0x00, 0x20)\n      swap1\n    tag_47:\n      dup2\n      sload\n      dup2\n      mstore\n      swap1\n      0x01\n      add\n      swap1\n      0x20\n      add\n      dup1\n      dup4\n      gt\n      tag_47\n      jumpi\n      dup3\n      swap1\n      sub\n      0x1f\n      and\n      dup3\n      add\n      swap2\n    tag_45:\n      pop\n      pop\n      pop\n      pop\n      pop\n      swap1\n      dup1\n      0x01\n      add\n      sload\n      swap1\n      dup1\n      0x02\n      add\n      sload\n      swap1\n      pop\n      dup4\n      jump\t// out\n        /* \"#utility.yul\":7:82   */\n    tag_48:\n        /* \"#utility.yul\":40:46   */\n      0x00\n        /* \"#utility.yul\":73:75   */\n      0x40\n        /* \"#utility.yul\":67:76   */\n      mload\n        /* \"#utility.yul\":57:76   */\n      swap1\n      pop\n        /* \"#utility.yul\":7:82   */\n      swap1\n      jump\t// out\n        /* \"#utility.yul\":88:205   */\n    tag_49:\n        /* \"#utility.yul\":197:198   */\n      0x00\n        /* \"#utility.yul\":194:195   */\n      dup1\n        /* \"#utility.yul\":187:199   */\n      revert\n        /* \"#utility.yul\":211:328   */\n    tag_50:\n        /* \"#utility.yul\":320:321   */\n      0x00\n        /* \"#utility.yul\":317:318   */\n      dup1\n        /* \"#utility.yul\":310:322   */\n      revert\n        /* \"#utility.yul\":334:451   */\n    tag_51:\n        /* \"#utility.yul\":443:444   */\n      0x00\n        /* \"#utility.yul\":440:441   */\n      dup1\n        /* \"#utility.yul\":433:445   */\n      revert\n        /* \"#utility.yul\":457:574   */\n    tag_52:\n        /* \"#utility.yul\":566:567   */\n      0x00\n        /* \"#utility.yul\":563:564   */\n      dup1\n        /* \"#utility.yul\":556:568   */\n      revert\n        /* \"#utility.yul\":580:682   */\n    tag_53:\n        /* \"#utility.yul\":621:627   */\n      0x00\n        /* \"#utility.yul\":672:674   */\n      0x1f\n        /* \"#utility.yul\":668:675   */\n      not\n        /* \"#utility.yul\":663:665   */\n      0x1f\n        /* \"#utility.yul\":656:661   */\n      dup4\n        /* \"#utility.yul\":652:666   */\n      add\n        /* \"#utility.yul\":648:676   */\n      and\n        /* \"#utility.yul\":638:676   */\n      swap1\n      pop\n        /* \"#utility.yul\":580:682   */\n      swap2\n      swap1\n      pop\n      jump\t// out\n        /* \"#utility.yul\":688:868   */\n    tag_54:\n        /* \"#utility.yul\":736:813   */\n      0x4e487b7100000000000000000000000000000000000000000000000000000000\n        /* \"#utility.yul\":733:734   */\n      0x00\n        /* \"#utility.yul\":726:814   */\n      mstore\n        /* \"#utility.yul\":833:837   */\n      0x41\n        /* \"#utility.yul\":830:831   */\n      0x04\n        /* \"#utility.yul\":823:838   */\n      mstore\n        /* \"#utility.yul\":857:861   */\n      0x24\n        /* \"#utility.yul\":854:855   */\n      0x00\n        /* \"#utility.yul\":847:862   */\n      revert\n        /* \"#utility.yul\":874:1155   */\n    tag_55:\n        /* \"#utility.yul\":957:984   */\n      tag_94\n        /* \"#utility.yul\":979:983   */\n      dup3\n        /* \"#utility.yul\":957:984   */\n      tag_53\n      jump\t// in\n    tag_94:\n        /* \"#utility.yul\":949:955   */\n      dup2\n        /* \"#utility.yul\":945:985   */\n      add\n        /* \"#utility.yul\":1087:1093   */\n      dup2\n        /* \"#utility.yul\":1075:1085   */\n      dup2\n        /* \"#utility.yul\":1072:1094   */\n      lt\n        /* \"#utility.yul\":1051:1069   */\n      0xffffffffffffffff\n        /* \"#utility.yul\":1039:1049   */\n      dup3\n        /* \"#utility.yul\":1036:1070   */\n      gt\n        /* \"#utility.yul\":1033:1095   */\n      or\n        /* \"#utility.yul\":1030:1118   */\n      iszero\n      tag_95\n      jumpi\n        /* \"#utility.yul\":1098:1116   */\n      tag_96\n      tag_54\n      jump\t// in\n    tag_96:\n        /* \"#utility.yul\":1030:1118   */\n    tag_95:\n        /* \"#utility.yul\":1138:1148   */\n      dup1\n        /* \"#utility.yul\":1134:1136   */\n      0x40\n        /* \"#utility.yul\":1127:1149   */\n      mstore\n        /* \"#utility.yul\":917:1155   */\n      pop\n        /* \"#utility.yul\":874:1155   */\n      pop\n      pop\n      jump\t// out\n        /* \"#utility.yul\":1161:1290   */\n    tag_56:\n        /* \"#utility.yul\":1195:1201   */\n      0x00\n        /* \"#utility.yul\":1222:1242   */\n      tag_98\n      tag_48\n      jump\t// in\n    tag_98:\n        /* \"#utility.yul\":1212:1242   */\n      swap1\n      pop\n        /* \"#utility.yul\":1251:1284   */\n      tag_99\n        /* \"#utility.yul\":1279:1283   */\n      dup3\n        /* \"#utility.yul\":1271:1277   */\n      dup3\n        /* \"#utility.yul\":1251:1284   */\n      tag_55\n      jump\t// in\n    tag_99:\n        /* \"#utility.yul\":1161:1290   */\n      swap2\n      swap1\n      pop\n      jump\t// out\n        /* \"#utility.yul\":1296:1604   */\n    tag_57:\n        /* \"#utility.yul\":1358:1362   */\n      0x00\n        /* \"#utility.yul\":1448:1466   */\n      0xffffffffffffffff\n        /* \"#utility.yul\":1440:1446   */\n      dup3\n        /* \"#utility.yul\":1437:1467   */\n      gt\n        /* \"#utility.yul\":1434:1490   */\n      iszero\n      tag_101\n      jumpi\n        /* \"#utility.yul\":1470:1488   */\n      tag_102\n      tag_54\n      jump\t// in\n    tag_102:\n        /* \"#utility.yul\":1434:1490   */\n    tag_101:\n        /* \"#utility.yul\":1508:1537   */\n      tag_103\n        /* \"#utility.yul\":1530:1536   */\n      dup3\n        /* \"#utility.yul\":1508:1537   */\n      tag_53\n      jump\t// in\n    tag_103:\n        /* \"#utility.yul\":1500:1537   */\n      swap1\n      pop\n        /* \"#utility.yul\":1592:1596   */\n      0x20\n        /* \"#utility.yul\":1586:1590   */\n      dup2\n        /* \"#utility.yul\":1582:1597   */\n      add\n        /* \"#utility.yul\":1574:1597   */\n      swap1\n      pop\n        /* \"#utility.yul\":1296:1604   */\n      swap2\n      swap1\n      pop\n      jump\t// out\n        /* \"#utility.yul\":1610:1758   */\n    tag_58:\n        /* \"#utility.yul\":1708:1714   */\n      dup3\n        /* \"#utility.yul\":1703:1706   */\n      dup2\n        /* \"#utility.yul\":1698:1701   */\n      dup4\n        /* \"#utility.yul\":1685:1715   */\n      calldatacopy\n        /* \"#utility.yul\":1749:1750   */\n      0x00\n        /* \"#utility.yul\":1740:1746   */\n      dup4\n        /* \"#utility.yul\":1735:1738   */\n      dup4\n        /* \"#utility.yul\":1731:1747   */\n      add\n        /* \"#utility.yul\":1724:1751   */\n      mstore\n        /* \"#utility.yul\":1610:1758   */\n      pop\n      pop\n      pop\n      jump\t// out\n        /* \"#utility.yul\":1764:2189   */\n    tag_59:\n        /* \"#utility.yul\":1842:1847   */\n      0x00\n        /* \"#utility.yul\":1867:1933   */\n      tag_106\n        /* \"#utility.yul\":1883:1932   */\n      tag_107\n        /* \"#utility.yul\":1925:1931   */\n      dup5\n        /* \"#utility.yul\":1883:1932   */\n      tag_57\n      jump\t// in\n    tag_107:\n        /* \"#utility.yul\":1867:1933   */\n      tag_56\n      jump\t// in\n    tag_106:\n        /* \"#utility.yul\":1858:1933   */\n      swap1\n      pop\n        /* \"#utility.yul\":1956:1962   */\n      dup3\n        /* \"#utility.yul\":1949:1954   */\n      dup2\n        /* \"#utility.yul\":1942:1963   */\n      mstore\n        /* \"#utility.yul\":1994:1998   */\n      0x20\n        /* \"#utility.yul\":1987:1992   */\n      dup2\n        /* \"#utility.yul\":1983:1999   */\n      add\n        /* \"#utility.yul\":2032:2035   */\n      dup5\n        /* \"#utility.yul\":2023:2029   */\n      dup5\n        /* \"#utility.yul\":2018:2021   */\n      dup5\n        /* \"#utility.yul\":2014:2030   */\n      add\n        /* \"#utility.yul\":2011:2036   */\n      gt\n        /* \"#utility.yul\":2008:2120   */\n      iszero\n      tag_108\n      jumpi\n        /* \"#utility.yul\":2039:2118   */\n      tag_109\n      tag_52\n      jump\t// in\n    tag_109:\n        /* \"#utility.yul\":2008:2120   */\n    tag_108:\n        /* \"#utility.yul\":2129:2183   */\n      tag_110\n        /* \"#utility.yul\":2176:2182   */\n      dup5\n        /* \"#utility.yul\":2171:2174   */\n      dup3\n        /* \"#utility.yul\":2166:2169   */\n      dup6\n        /* \"#utility.yul\":2129:2183   */\n      tag_58\n      jump\t// in\n    tag_110:\n        /* \"#utility.yul\":1848:2189   */\n      pop\n        /* \"#utility.yul\":1764:2189   */\n      swap4\n      swap3\n      pop\n      pop\n      pop\n      jump\t// out\n        /* \"#utility.yul\":2209:2549   */\n    tag_60:\n        /* \"#utility.yul\":2265:2270   */\n      0x00\n        /* \"#utility.yul\":2314:2317   */\n      dup3\n        /* \"#utility.yul\":2307:2311   */\n      0x1f\n        /* \"#utility.yul\":2299:2305   */\n      dup4\n        /* \"#utility.yul\":2295:2312   */\n      add\n        /* \"#utility.yul\":2291:2318   */\n      slt\n        /* \"#utility.yul\":2281:2403   */\n      tag_112\n      jumpi\n        /* \"#utility.yul\":2322:2401   */\n      tag_113\n      tag_51\n      jump\t// in\n    tag_113:\n        /* \"#utility.yul\":2281:2403   */\n    tag_112:\n        /* \"#utility.yul\":2439:2445   */\n      dup2\n        /* \"#utility.yul\":2426:2446   */\n      calldataload\n        /* \"#utility.yul\":2464:2543   */\n      tag_114\n        /* \"#utility.yul\":2539:2542   */\n      dup5\n        /* \"#utility.yul\":2531:2537   */\n      dup3\n        /* \"#utility.yul\":2524:2528   */\n      0x20\n        /* \"#utility.yul\":2516:2522   */\n      dup7\n        /* \"#utility.yul\":2512:2529   */\n      add\n        /* \"#utility.yul\":2464:2543   */\n      tag_59\n      jump\t// in\n    tag_114:\n        /* \"#utility.yul\":2455:2543   */\n      swap2\n      pop\n        /* \"#utility.yul\":2271:2549   */\n      pop\n        /* \"#utility.yul\":2209:2549   */\n      swap3\n      swap2\n      pop\n      pop\n      jump\t// out\n        /* \"#utility.yul\":2555:2632   */\n    tag_61:\n        /* \"#utility.yul\":2592:2599   */\n      0x00\n        /* \"#utility.yul\":2621:2626   */\n      dup2\n        /* \"#utility.yul\":2610:2626   */\n      swap1\n      pop\n        /* \"#utility.yul\":2555:2632   */\n      swap2\n      swap1\n      pop\n      jump\t// out\n        /* \"#utility.yul\":2638:2760   */\n    tag_62:\n        /* \"#utility.yul\":2711:2735   */\n      tag_117\n        /* \"#utility.yul\":2729:2734   */\n      dup2\n        /* \"#utility.yul\":2711:2735   */\n      tag_61\n      jump\t// in\n    tag_117:\n        /* \"#utility.yul\":2704:2709   */\n      dup2\n        /* \"#utility.yul\":2701:2736   */\n      eq\n        /* \"#utility.yul\":2691:2754   */\n      tag_118\n      jumpi\n        /* \"#utility.yul\":2750:2751   */\n      0x00\n        /* \"#utility.yul\":2747:2748   */\n      dup1\n        /* \"#utility.yul\":2740:2752   */\n      revert\n        /* \"#utility.yul\":2691:2754   */\n    tag_118:\n        /* \"#utility.yul\":2638:2760   */\n      pop\n      jump\t// out\n        /* \"#utility.yul\":2766:2905   */\n    tag_63:\n        /* \"#utility.yul\":2812:2817   */\n      0x00\n        /* \"#utility.yul\":2850:2856   */\n      dup2\n        /* \"#utility.yul\":2837:2857   */\n      calldataload\n        /* \"#utility.yul\":2828:2857   */\n      swap1\n      pop\n        /* \"#utility.yul\":2866:2899   */\n      tag_120\n        /* \"#utility.yul\":2893:2898   */\n      dup2\n        /* \"#utility.yul\":2866:2899   */\n      tag_62\n      jump\t// in\n    tag_120:\n        /* \"#utility.yul\":2766:2905   */\n      swap3\n      swap2\n      pop\n      pop\n      jump\t// out\n        /* \"#utility.yul\":2911:3710   */\n    tag_8:\n        /* \"#utility.yul\":2998:3004   */\n      0x00\n        /* \"#utility.yul\":3006:3012   */\n      dup1\n        /* \"#utility.yul\":3014:3020   */\n      0x00\n        /* \"#utility.yul\":3063:3065   */\n      0x60\n        /* \"#utility.yul\":3051:3060   */\n      dup5\n        /* \"#utility.yul\":3042:3049   */\n      dup7\n        /* \"#utility.yul\":3038:3061   */\n      sub\n        /* \"#utility.yul\":3034:3066   */\n      slt\n        /* \"#utility.yul\":3031:3150   */\n      iszero\n      tag_122\n      jumpi\n        /* \"#utility.yul\":3069:3148   */\n      tag_123\n      tag_49\n      jump\t// in\n    tag_123:\n        /* \"#utility.yul\":3031:3150   */\n    tag_122:\n        /* \"#utility.yul\":3217:3218   */\n      0x00\n        /* \"#utility.yul\":3206:3215   */\n      dup5\n        /* \"#utility.yul\":3202:3219   */\n      add\n        /* \"#utility.yul\":3189:3220   */\n      calldataload\n        /* \"#utility.yul\":3247:3265   */\n      0xffffffffffffffff\n        /* \"#utility.yul\":3239:3245   */\n      dup2\n        /* \"#utility.yul\":3236:3266   */\n      gt\n        /* \"#utility.yul\":3233:3350   */\n      iszero\n      tag_124\n      jumpi\n        /* \"#utility.yul\":3269:3348   */\n      tag_125\n      tag_50\n      jump\t// in\n    tag_125:\n        /* \"#utility.yul\":3233:3350   */\n    tag_124:\n        /* \"#utility.yul\":3374:3437   */\n      tag_126\n        /* \"#utility.yul\":3429:3436   */\n      dup7\n        /* \"#utility.yul\":3420:3426   */\n      dup3\n        /* \"#utility.yul\":3409:3418   */\n      dup8\n        /* \"#utility.yul\":3405:3427   */\n      add\n        /* \"#utility.yul\":3374:3437   */\n      tag_60\n      jump\t// in\n    tag_126:\n        /* \"#utility.yul\":3364:3437   */\n      swap4\n      pop\n        /* \"#utility.yul\":3160:3447   */\n      pop\n        /* \"#utility.yul\":3486:3488   */\n      0x20\n        /* \"#utility.yul\":3512:3565   */\n      tag_127\n        /* \"#utility.yul\":3557:3564   */\n      dup7\n        /* \"#utility.yul\":3548:3554   */\n      dup3\n        /* \"#utility.yul\":3537:3546   */\n      dup8\n        /* \"#utility.yul\":3533:3555   */\n      add\n        /* \"#utility.yul\":3512:3565   */\n      tag_63\n      jump\t// in\n    tag_127:\n        /* \"#utility.yul\":3502:3565   */\n      swap3\n      pop\n        /* \"#utility.yul\":3457:3575   */\n      pop\n        /* \"#utility.yul\":3614:3616   */\n      0x40\n        /* \"#utility.yul\":3640:3693   */\n      tag_128\n        /* \"#utility.yul\":3685:3692   */\n      dup7\n        /* \"#utility.yul\":3676:3682   */\n      dup3\n        /* \"#utility.yul\":3665:3674   */\n      dup8\n        /* \"#utility.yul\":3661:3683   */\n      add\n        /* \"#utility.yul\":3640:3693   */\n      tag_63\n      jump\t// in\n    tag_128:\n        /* \"#utility.yul\":3630:3693   */\n      swap2\n      pop\n        /* \"#utility.yul\":3585:3703   */\n      pop\n        /* \"#utility.yul\":2911:3710   */\n      swap3\n      pop\n      swap3\n      pop\n      swap3\n      jump\t// out\n        /* \"#utility.yul\":3716:4045   */\n    tag_12:\n        /* \"#utility.yul\":3775:3781   */\n      0x00\n        /* \"#utility.yul\":3824:3826   */\n      0x20\n        /* \"#utility.yul\":3812:3821   */\n      dup3\n        /* \"#utility.yul\":3803:3810   */\n      dup5\n        /* \"#utility.yul\":3799:3822   */\n      sub\n        /* \"#utility.yul\":3795:3827   */\n      slt\n        /* \"#utility.yul\":3792:3911   */\n      iszero\n      tag_130\n      jumpi\n        /* \"#utility.yul\":3830:3909   */\n      tag_131\n      tag_49\n      jump\t// in\n    tag_131:\n        /* \"#utility.yul\":3792:3911   */\n    tag_130:\n        /* \"#utility.yul\":3950:3951   */\n      0x00\n        /* \"#utility.yul\":3975:4028   */\n      tag_132\n        /* \"#utility.yul\":4020:4027   */\n      dup5\n        /* \"#utility.yul\":4011:4017   */\n      dup3\n        /* \"#utility.yul\":4000:4009   */\n      dup6\n        /* \"#utility.yul\":3996:4018   */\n      add\n        /* \"#utility.yul\":3975:4028   */\n      tag_63\n      jump\t// in\n    tag_132:\n        /* \"#utility.yul\":3965:4028   */\n      swap2\n      pop\n        /* \"#utility.yul\":3921:4038   */\n      pop\n        /* \"#utility.yul\":3716:4045   */\n      swap3\n      swap2\n      pop\n      pop\n      jump\t// out\n        /* \"#utility.yul\":4051:4150   */\n    tag_64:\n        /* \"#utility.yul\":4103:4109   */\n      0x00\n        /* \"#utility.yul\":4137:4142   */\n      dup2\n        /* \"#utility.yul\":4131:4143   */\n      mload\n        /* \"#utility.yul\":4121:4143   */\n      swap1\n      pop\n        /* \"#utility.yul\":4051:4150   */\n      swap2\n      swap1\n      pop\n      jump\t// out\n        /* \"#utility.yul\":4156:4325   */\n    tag_65:\n        /* \"#utility.yul\":4240:4251   */\n      0x00\n        /* \"#utility.yul\":4274:4280   */\n      dup3\n        /* \"#utility.yul\":4269:4272   */\n      dup3\n        /* \"#utility.yul\":4262:4281   */\n      mstore\n        /* \"#utility.yul\":4314:4318   */\n      0x20\n        /* \"#utility.yul\":4309:4312   */\n      dup3\n        /* \"#utility.yul\":4305:4319   */\n      add\n        /* \"#utility.yul\":4290:4319   */\n      swap1\n      pop\n        /* \"#utility.yul\":4156:4325   */\n      swap3\n      swap2\n      pop\n      pop\n      jump\t// out\n        /* \"#utility.yul\":4331:4470   */\n    tag_66:\n        /* \"#utility.yul\":4420:4426   */\n      dup3\n        /* \"#utility.yul\":4415:4418   */\n      dup2\n        /* \"#utility.yul\":4410:4413   */\n      dup4\n        /* \"#utility.yul\":4404:4427   */\n      mcopy\n        /* \"#utility.yul\":4461:4462   */\n      0x00\n        /* \"#utility.yul\":4452:4458   */\n      dup4\n        /* \"#utility.yul\":4447:4450   */\n      dup4\n        /* \"#utility.yul\":4443:4459   */\n      add\n        /* \"#utility.yul\":4436:4463   */\n      mstore\n        /* \"#utility.yul\":4331:4470   */\n      pop\n      pop\n      pop\n      jump\t// out\n        /* \"#utility.yul\":4476:4853   */\n    tag_67:\n        /* \"#utility.yul\":4564:4567   */\n      0x00\n        /* \"#utility.yul\":4592:4631   */\n      tag_137\n        /* \"#utility.yul\":4625:4630   */\n      dup3\n        /* \"#utility.yul\":4592:4631   */\n      tag_64\n      jump\t// in\n    tag_137:\n        /* \"#utility.yul\":4647:4718   */\n      tag_138\n        /* \"#utility.yul\":4711:4717   */\n      dup2\n        /* \"#utility.yul\":4706:4709   */\n      dup6\n        /* \"#utility.yul\":4647:4718   */\n      tag_65\n      jump\t// in\n    tag_138:\n        /* \"#utility.yul\":4640:4718   */\n      swap4\n      pop\n        /* \"#utility.yul\":4727:4792   */\n      tag_139\n        /* \"#utility.yul\":4785:4791   */\n      dup2\n        /* \"#utility.yul\":4780:4783   */\n      dup6\n        /* \"#utility.yul\":4773:4777   */\n      0x20\n        /* \"#utility.yul\":4766:4771   */\n      dup7\n        /* \"#utility.yul\":4762:4778   */\n      add\n        /* \"#utility.yul\":4727:4792   */\n      tag_66\n      jump\t// in\n    tag_139:\n        /* \"#utility.yul\":4817:4846   */\n      tag_140\n        /* \"#utility.yul\":4839:4845   */\n      dup2\n        /* \"#utility.yul\":4817:4846   */\n      tag_53\n      jump\t// in\n    tag_140:\n        /* \"#utility.yul\":4812:4815   */\n      dup5\n        /* \"#utility.yul\":4808:4847   */\n      add\n        /* \"#utility.yul\":4801:4847   */\n      swap2\n      pop\n        /* \"#utility.yul\":4568:4853   */\n      pop\n        /* \"#utility.yul\":4476:4853   */\n      swap3\n      swap2\n      pop\n      pop\n      jump\t// out\n        /* \"#utility.yul\":4859:4977   */\n    tag_68:\n        /* \"#utility.yul\":4946:4970   */\n      tag_142\n        /* \"#utility.yul\":4964:4969   */\n      dup2\n        /* \"#utility.yul\":4946:4970   */\n      tag_61\n      jump\t// in\n    tag_142:\n        /* \"#utility.yul\":4941:4944   */\n      dup3\n        /* \"#utility.yul\":4934:4971   */\n      mstore\n        /* \"#utility.yul\":4859:4977   */\n      pop\n      pop\n      jump\t// out\n        /* \"#utility.yul\":4983:5516   */\n    tag_15:\n        /* \"#utility.yul\":5152:5156   */\n      0x00\n        /* \"#utility.yul\":5190:5192   */\n      0x60\n        /* \"#utility.yul\":5179:5188   */\n      dup3\n        /* \"#utility.yul\":5175:5193   */\n      add\n        /* \"#utility.yul\":5167:5193   */\n      swap1\n      pop\n        /* \"#utility.yul\":5239:5248   */\n      dup2\n        /* \"#utility.yul\":5233:5237   */\n      dup2\n        /* \"#utility.yul\":5229:5249   */\n      sub\n        /* \"#utility.yul\":5225:5226   */\n      0x00\n        /* \"#utility.yul\":5214:5223   */\n      dup4\n        /* \"#utility.yul\":5210:5227   */\n      add\n        /* \"#utility.yul\":5203:5250   */\n      mstore\n        /* \"#utility.yul\":5267:5345   */\n      tag_144\n        /* \"#utility.yul\":5340:5344   */\n      dup2\n        /* \"#utility.yul\":5331:5337   */\n      dup7\n        /* \"#utility.yul\":5267:5345   */\n      tag_67\n      jump\t// in\n    tag_144:\n        /* \"#utility.yul\":5259:5345   */\n      swap1\n      pop\n        /* \"#utility.yul\":5355:5427   */\n      tag_145\n        /* \"#utility.yul\":5423:5425   */\n      0x20\n        /* \"#utility.yul\":5412:5421   */\n      dup4\n        /* \"#utility.yul\":5408:5426   */\n      add\n        /* \"#utility.yul\":5399:5405   */\n      dup6\n        /* \"#utility.yul\":5355:5427   */\n      tag_68\n      jump\t// in\n    tag_145:\n        /* \"#utility.yul\":5437:5509   */\n      tag_146\n        /* \"#utility.yul\":5505:5507   */\n      0x40\n        /* \"#utility.yul\":5494:5503   */\n      dup4\n        /* \"#utility.yul\":5490:5508   */\n      add\n        /* \"#utility.yul\":5481:5487   */\n      dup5\n        /* \"#utility.yul\":5437:5509   */\n      tag_68\n      jump\t// in\n    tag_146:\n        /* \"#utility.yul\":4983:5516   */\n      swap5\n      swap4\n      pop\n      pop\n      pop\n      pop\n      jump\t// out\n        /* \"#utility.yul\":5522:5702   */\n    tag_69:\n        /* \"#utility.yul\":5570:5647   */\n      0x4e487b7100000000000000000000000000000000000000000000000000000000\n        /* \"#utility.yul\":5567:5568   */\n      0x00\n        /* \"#utility.yul\":5560:5648   */\n      mstore\n        /* \"#utility.yul\":5667:5671   */\n      0x22\n        /* \"#utility.yul\":5664:5665   */\n      0x04\n        /* \"#utility.yul\":5657:5672   */\n      mstore\n        /* \"#utility.yul\":5691:5695   */\n      0x24\n        /* \"#utility.yul\":5688:5689   */\n      0x00\n        /* \"#utility.yul\":5681:5696   */\n      revert\n        /* \"#utility.yul\":5708:6028   */\n    tag_36:\n        /* \"#utility.yul\":5752:5758   */\n      0x00\n        /* \"#utility.yul\":5789:5790   */\n      0x02\n        /* \"#utility.yul\":5783:5787   */\n      dup3\n        /* \"#utility.yul\":5779:5791   */\n      div\n        /* \"#utility.yul\":5769:5791   */\n      swap1\n      pop\n        /* \"#utility.yul\":5836:5837   */\n      0x01\n        /* \"#utility.yul\":5830:5834   */\n      dup3\n        /* \"#utility.yul\":5826:5838   */\n      and\n        /* \"#utility.yul\":5857:5875   */\n      dup1\n        /* \"#utility.yul\":5847:5928   */\n      tag_149\n      jumpi\n        /* \"#utility.yul\":5913:5917   */\n      0x7f\n        /* \"#utility.yul\":5905:5911   */\n      dup3\n        /* \"#utility.yul\":5901:5918   */\n      and\n        /* \"#utility.yul\":5891:5918   */\n      swap2\n      pop\n        /* \"#utility.yul\":5847:5928   */\n    tag_149:\n        /* \"#utility.yul\":5975:5977   */\n      0x20\n        /* \"#utility.yul\":5967:5973   */\n      dup3\n        /* \"#utility.yul\":5964:5978   */\n      lt\n        /* \"#utility.yul\":5944:5962   */\n      dup2\n        /* \"#utility.yul\":5941:5979   */\n      sub\n        /* \"#utility.yul\":5938:6022   */\n      tag_150\n      jumpi\n        /* \"#utility.yul\":5994:6012   */\n      tag_151\n      tag_69\n      jump\t// in\n    tag_151:\n        /* \"#utility.yul\":5938:6022   */\n    tag_150:\n        /* \"#utility.yul\":5759:6028   */\n      pop\n        /* \"#utility.yul\":5708:6028   */\n      swap2\n      swap1\n      pop\n      jump\t// out\n        /* \"#utility.yul\":6034:6175   */\n    tag_70:\n        /* \"#utility.yul\":6083:6087   */\n      0x00\n        /* \"#utility.yul\":6106:6109   */\n      dup2\n        /* \"#utility.yul\":6098:6109   */\n      swap1\n      pop\n        /* \"#utility.yul\":6129:6132   */\n      dup2\n        /* \"#utility.yul\":6126:6127   */\n      0x00\n        /* \"#utility.yul\":6119:6133   */\n      mstore\n        /* \"#utility.yul\":6163:6167   */\n      0x20\n        /* \"#utility.yul\":6160:6161   */\n      0x00\n        /* \"#utility.yul\":6150:6168   */\n      keccak256\n        /* \"#utility.yul\":6142:6168   */\n      swap1\n      pop\n        /* \"#utility.yul\":6034:6175   */\n      swap2\n      swap1\n      pop\n      jump\t// out\n        /* \"#utility.yul\":6181:6274   */\n    tag_71:\n        /* \"#utility.yul\":6218:6224   */\n      0x00\n        /* \"#utility.yul\":6265:6267   */\n      0x20\n        /* \"#utility.yul\":6260:6262   */\n      0x1f\n        /* \"#utility.yul\":6253:6258   */\n      dup4\n        /* \"#utility.yul\":6249:6263   */\n      add\n        /* \"#utility.yul\":6245:6268   */\n      div\n        /* \"#utility.yul\":6235:6268   */\n      swap1\n      pop\n        /* \"#utility.yul\":6181:6274   */\n      swap2\n      swap1\n      pop\n      jump\t// out\n        /* \"#utility.yul\":6280:6387   */\n    tag_72:\n        /* \"#utility.yul\":6324:6332   */\n      0x00\n        /* \"#utility.yul\":6374:6379   */\n      dup3\n        /* \"#utility.yul\":6368:6372   */\n      dup3\n        /* \"#utility.yul\":6364:6380   */\n      shl\n        /* \"#utility.yul\":6343:6380   */\n      swap1\n      pop\n        /* \"#utility.yul\":6280:6387   */\n      swap3\n      swap2\n      pop\n      pop\n      jump\t// out\n        /* \"#utility.yul\":6393:6786   */\n    tag_73:\n        /* \"#utility.yul\":6462:6468   */\n      0x00\n        /* \"#utility.yul\":6512:6513   */\n      0x08\n        /* \"#utility.yul\":6500:6510   */\n      dup4\n        /* \"#utility.yul\":6496:6514   */\n      mul\n        /* \"#utility.yul\":6535:6632   */\n      tag_156\n        /* \"#utility.yul\":6565:6631   */\n      0xffffffffffffffffffffffffffffffffffffffffffffffffffffffffffffffff\n        /* \"#utility.yul\":6554:6563   */\n      dup3\n        /* \"#utility.yul\":6535:6632   */\n      tag_72\n      jump\t// in\n    tag_156:\n        /* \"#utility.yul\":6653:6692   */\n      tag_157\n        /* \"#utility.yul\":6683:6691   */\n      dup7\n        /* \"#utility.yul\":6672:6681   */\n      dup4\n        /* \"#utility.yul\":6653:6692   */\n      tag_72\n      jump\t// in\n    tag_157:\n        /* \"#utility.yul\":6641:6692   */\n      swap6\n      pop\n        /* \"#utility.yul\":6725:6729   */\n      dup1\n        /* \"#utility.yul\":6721:6730   */\n      not\n        /* \"#utility.yul\":6714:6719   */\n      dup5\n        /* \"#utility.yul\":6710:6731   */\n      and\n        /* \"#utility.yul\":6701:6731   */\n      swap4\n      pop\n        /* \"#utility.yul\":6774:6778   */\n      dup1\n        /* \"#utility.yul\":6764:6772   */\n      dup7\n        /* \"#utility.yul\":6760:6779   */\n      and\n        /* \"#utility.yul\":6753:6758   */\n      dup5\n        /* \"#utility.yul\":6750:6780   */\n      or\n        /* \"#utility.yul\":6740:6780   */\n      swap3\n      pop\n        /* \"#utility.yul\":6469:6786   */\n      pop\n      pop\n        /* \"#utility.yul\":6393:6786   */\n      swap4\n      swap3\n      pop\n      pop\n      pop\n      jump\t// out\n        /* \"#utility.yul\":6792:6852   */\n    tag_74:\n        /* \"#utility.yul\":6820:6823   */\n      0x00\n        /* \"#utility.yul\":6841:6846   */\n      dup2\n        /* \"#utility.yul\":6834:6846   */\n      swap1\n      pop\n        /* \"#utility.yul\":6792:6852   */\n      swap2\n      swap1\n      pop\n      jump\t// out\n        /* \"#utility.yul\":6858:7000   */\n    tag_75:\n        /* \"#utility.yul\":6908:6917   */\n      0x00\n        /* \"#utility.yul\":6941:6994   */\n      tag_160\n        /* \"#utility.yul\":6959:6993   */\n      tag_161\n        /* \"#utility.yul\":6968:6992   */\n      tag_162\n        /* \"#utility.yul\":6986:6991   */\n      dup5\n        /* \"#utility.yul\":6968:6992   */\n      tag_61\n      jump\t// in\n    tag_162:\n        /* \"#utility.yul\":6959:6993   */\n      tag_74\n      jump\t// in\n    tag_161:\n        /* \"#utility.yul\":6941:6994   */\n      tag_61\n      jump\t// in\n    tag_160:\n        /* \"#utility.yul\":6928:6994   */\n      swap1\n      pop\n        /* \"#utility.yul\":6858:7000   */\n      swap2\n      swap1\n      pop\n      jump\t// out\n        /* \"#utility.yul\":7006:7081   */\n    tag_76:\n        /* \"#utility.yul\":7049:7052   */\n      0x00\n        /* \"#utility.yul\":7070:7075   */\n      dup2\n        /* \"#utility.yul\":7063:7075   */\n      swap1\n      pop\n        /* \"#utility.yul\":7006:7081   */\n      swap2\n      swap1\n      pop\n      jump\t// out\n        /* \"#utility.yul\":7087:7356   */\n    tag_77:\n        /* \"#utility.yul\":7197:7236   */\n      tag_165\n        /* \"#utility.yul\":7228:7235   */\n      dup4\n        /* \"#utility.yul\":7197:7236   */\n      tag_75\n      jump\t// in\n    tag_165:\n        /* \"#utility.yul\":7258:7349   */\n      tag_166\n        /* \"#utility.yul\":7307:7348   */\n      tag_167\n        /* \"#utility.yul\":7331:7347   */\n      dup3\n        /* \"#utility.yul\":7307:7348   */\n      tag_76\n      jump\t// in\n    tag_167:\n        /* \"#utility.yul\":7299:7305   */\n      dup5\n        /* \"#utility.yul\":7292:7296   */\n      dup5\n        /* \"#utility.yul\":7286:7297   */\n      sload\n        /* \"#utility.yul\":7258:7349   */\n      tag_73\n      jump\t// in\n    tag_166:\n        /* \"#utility.yul\":7252:7256   */\n      dup3\n        /* \"#utility.yul\":7245:7350   */\n      sstore\n        /* \"#utility.yul\":7163:7356   */\n      pop\n        /* \"#utility.yul\":7087:7356   */\n      pop\n      pop\n      pop\n      jump\t// out\n        /* \"#utility.yul\":7362:7435   */\n    tag_78:\n        /* \"#utility.yul\":7407:7410   */\n      0x00\n        /* \"#utility.yul\":7362:7435   */\n      swap1\n      jump\t// out\n        /* \"#utility.yul\":7441:7630   */\n    tag_79:\n        /* \"#utility.yul\":7518:7550   */\n      tag_170\n      tag_78\n      jump\t// in\n    tag_170:\n        /* \"#utility.yul\":7559:7624   */\n      tag_171\n        /* \"#utility.yul\":7617:7623   */\n      dup2\n        /* \"#utility.yul\":7609:7615   */\n      dup5\n        /* \"#utility.yul\":7603:7607   */\n      dup5\n        /* \"#utility.yul\":7559:7624   */\n      tag_77\n      jump\t// in\n    tag_171:\n        /* \"#utility.yul\":7494:7630   */\n      pop\n        /* \"#utility.yul\":7441:7630   */\n      pop\n      pop\n      jump\t// out\n        /* \"#utility.yul\":7636:7822   */\n    tag_80:\n        /* \"#utility.yul\":7696:7816   */\n    tag_173:\n        /* \"#utility.yul\":7713:7716   */\n      dup2\n        /* \"#utility.yul\":7706:7711   */\n      dup2\n        /* \"#utility.yul\":7703:7717   */\n      lt\n        /* \"#utility.yul\":7696:7816   */\n      iszero\n      tag_175\n      jumpi\n        /* \"#utility.yul\":7767:7806   */\n      tag_176\n        /* \"#utility.yul\":7804:7805   */\n      0x00\n        /* \"#utility.yul\":7797:7802   */\n      dup3\n        /* \"#utility.yul\":7767:7806   */\n      tag_79\n      jump\t// in\n    tag_176:\n        /* \"#utility.yul\":7740:7741   */\n      0x01\n        /* \"#utility.yul\":7733:7738   */\n      dup2\n        /* \"#utility.yul\":7729:7742   */\n      add\n        /* \"#utility.yul\":7720:7742   */\n      swap1\n      pop\n        /* \"#utility.yul\":7696:7816   */\n      jump(tag_173)\n    tag_175:\n        /* \"#utility.yul\":7636:7822   */\n      pop\n      pop\n      jump\t// out\n        /* \"#utility.yul\":7828:8371   */\n    tag_81:\n        /* \"#utility.yul\":7929:7931   */\n      0x1f\n        /* \"#utility.yul\":7924:7927   */\n      dup3\n        /* \"#utility.yul\":7921:7932   */\n      gt\n        /* \"#utility.yul\":7918:8364   */\n      iszero\n      tag_178\n      jumpi\n        /* \"#utility.yul\":7963:8001   */\n      tag_179\n        /* \"#utility.yul\":7995:8000   */\n      dup2\n        /* \"#utility.yul\":7963:8001   */\n      tag_70\n      jump\t// in\n    tag_179:\n        /* \"#utility.yul\":8047:8076   */\n      tag_180\n        /* \"#utility.yul\":8065:8075   */\n      dup5\n        /* \"#utility.yul\":8047:8076   */\n      tag_71\n      jump\t// in\n    tag_180:\n        /* \"#utility.yul\":8037:8045   */\n      dup2\n        /* \"#utility.yul\":8033:8077   */\n      add\n        /* \"#utility.yul\":8230:8232   */\n      0x20\n        /* \"#utility.yul\":8218:8228   */\n      dup6\n        /* \"#utility.yul\":8215:8233   */\n      lt\n        /* \"#utility.yul\":8212:8261   */\n      iszero\n      tag_181\n      jumpi\n        /* \"#utility.yul\":8251:8259   */\n      dup2\n        /* \"#utility.yul\":8236:8259   */\n      swap1\n      pop\n        /* \"#utility.yul\":8212:8261   */\n    tag_181:\n        /* \"#utility.yul\":8274:8354   */\n      tag_182\n        /* \"#utility.yul\":8330:8352   */\n      tag_183\n        /* \"#utility.yul\":8348:8351   */\n      dup6\n        /* \"#utility.yul\":8330:8352   */\n      tag_71\n      jump\t// in\n    tag_183:\n        /* \"#utility.yul\":8320:8328   */\n      dup4\n        /* \"#utility.yul\":8316:8353   */\n      add\n        /* \"#utility.yul\":8303:8314   */\n      dup3\n        /* \"#utility.yul\":8274:8354   */\n      tag_80\n      jump\t// in\n    tag_182:\n        /* \"#utility.yul\":7933:8364   */\n      pop\n      pop\n        /* \"#utility.yul\":7918:8364   */\n    tag_178:\n        /* \"#utility.yul\":7828:8371   */\n      pop\n      pop\n      pop\n      jump\t// out\n        /* \"#utility.yul\":8377:8494   */\n    tag_82:\n        /* \"#utility.yul\":8431:8439   */\n      0x00\n        /* \"#utility.yul\":8481:8486   */\n      dup3\n        /* \"#utility.yul\":8475:8479   */\n      dup3\n        /* \"#utility.yul\":8471:8487   */\n      shr\n        /* \"#utility.yul\":8450:8487   */\n      swap1\n      pop\n        /* \"#utility.yul\":8377:8494   */\n      swap3\n      swap2\n      pop\n      pop\n      jump\t// out\n        /* \"#utility.yul\":8500:8669   */\n    tag_83:\n        /* \"#utility.yul\":8544:8550   */\n      0x00\n        /* \"#utility.yul\":8577:8628   */\n      tag_186\n        /* \"#utility.yul\":8625:8626   */\n      0x00\n        /* \"#utility.yul\":8621:8627   */\n      not\n        /* \"#utility.yul\":8613:8618   */\n      dup5\n        /* \"#utility.yul\":8610:8611   */\n      0x08\n        /* \"#utility.yul\":8606:8619   */\n      mul\n        /* \"#utility.yul\":8577:8628   */\n      tag_82\n      jump\t// in\n    tag_186:\n        /* \"#utility.yul\":8573:8629   */\n      not\n        /* \"#utility.yul\":8658:8662   */\n      dup1\n        /* \"#utility.yul\":8652:8656   */\n      dup4\n        /* \"#utility.yul\":8648:8663   */\n      and\n        /* \"#utility.yul\":8638:8663   */\n      swap2\n      pop\n        /* \"#utility.yul\":8551:8669   */\n      pop\n        /* \"#utility.yul\":8500:8669   */\n      swap3\n      swap2\n      pop\n      pop\n      jump\t// out\n        /* \"#utility.yul\":8674:8969   */\n    tag_84:\n        /* \"#utility.yul\":8750:8754   */\n      0x00\n        /* \"#utility.yul\":8896:8925   */\n      tag_188\n        /* \"#utility.yul\":8921:8924   */\n      dup4\n        /* \"#utility.yul\":8915:8919   */\n      dup4\n        /* \"#utility.yul\":8896:8925   */\n      tag_83\n      jump\t// in\n    tag_188:\n        /* \"#utility.yul\":8888:8925   */\n      swap2\n      pop\n        /* \"#utility.yul\":8958:8961   */\n      dup3\n        /* \"#utility.yul\":8955:8956   */\n      0x02\n        /* \"#utility.yul\":8951:8962   */\n      mul\n        /* \"#utility.yul\":8945:8949   */\n      dup3\n        /* \"#utility.yul\":8942:8963   */\n      or\n        /* \"#utility.yul\":8934:8963   */\n      swap1\n      pop\n        /* \"#utility.yul\":8674:8969   */\n      swap3\n      swap2\n      pop\n      pop\n      jump\t// out\n        /* \"#utility.yul\":8974:10369   */\n    tag_23:\n        /* \"#utility.yul\":9091:9128   */\n      tag_190\n        /* \"#utility.yul\":9124:9127   */\n      dup3\n        /* \"#utility.yul\":9091:9128   */\n      tag_64\n      jump\t// in\n    tag_190:\n        /* \"#utility.yul\":9193:9211   */\n      0xffffffffffffffff\n        /* \"#utility.yul\":9185:9191   */\n      dup2\n        /* \"#utility.yul\":9182:9212   */\n      gt\n        /* \"#utility.yul\":9179:9235   */\n      iszero\n      tag_191\n      jumpi\n        /* \"#utility.yul\":9215:9233   */\n      tag_192\n      tag_54\n      jump\t// in\n    tag_192:\n        /* \"#utility.yul\":9179:9235   */\n    tag_191:\n        /* \"#utility.yul\":9259:9297   */\n      tag_193\n        /* \"#utility.yul\":9291:9295   */\n      dup3\n        /* \"#utility.yul\":9285:9296   */\n      sload\n        /* \"#utility.yul\":9259:9297   */\n      tag_36\n      jump\t// in\n    tag_193:\n        /* \"#utility.yul\":9344:9411   */\n      tag_194\n        /* \"#utility.yul\":9404:9410   */\n      dup3\n        /* \"#utility.yul\":9396:9402   */\n      dup3\n        /* \"#utility.yul\":9390:9394   */\n      dup6\n        /* \"#utility.yul\":9344:9411   */\n      tag_81\n      jump\t// in\n    tag_194:\n        /* \"#utility.yul\":9438:9439   */\n      0x00\n        /* \"#utility.yul\":9462:9466   */\n      0x20\n        /* \"#utility.yul\":9449:9466   */\n      swap1\n      pop\n        /* \"#utility.yul\":9494:9496   */\n      0x1f\n        /* \"#utility.yul\":9486:9492   */\n      dup4\n        /* \"#utility.yul\":9483:9497   */\n      gt\n        /* \"#utility.yul\":9511:9512   */\n      0x01\n        /* \"#utility.yul\":9506:10124   */\n      dup2\n      eq\n      tag_196\n      jumpi\n        /* \"#utility.yul\":10168:10169   */\n      0x00\n        /* \"#utility.yul\":10185:10191   */\n      dup5\n        /* \"#utility.yul\":10182:10259   */\n      iszero\n      tag_197\n      jumpi\n        /* \"#utility.yul\":10234:10243   */\n      dup3\n        /* \"#utility.yul\":10229:10232   */\n      dup8\n        /* \"#utility.yul\":10225:10244   */\n      add\n        /* \"#utility.yul\":10219:10245   */\n      mload\n        /* \"#utility.yul\":10210:10245   */\n      swap1\n      pop\n        /* \"#utility.yul\":10182:10259   */\n    tag_197:\n        /* \"#utility.yul\":10285:10352   */\n      tag_198\n        /* \"#utility.yul\":10345:10351   */\n      dup6\n        /* \"#utility.yul\":10338:10343   */\n      dup3\n        /* \"#utility.yul\":10285:10352   */\n      tag_84\n      jump\t// in\n    tag_198:\n        /* \"#utility.yul\":10279:10283   */\n      dup7\n        /* \"#utility.yul\":10272:10353   */\n      sstore\n        /* \"#utility.yul\":10141:10363   */\n      pop\n        /* \"#utility.yul\":9476:10363   */\n      jump(tag_195)\n        /* \"#utility.yul\":9506:10124   */\n    tag_196:\n        /* \"#utility.yul\":9558:9562   */\n      0x1f\n        /* \"#utility.yul\":9554:9563   */\n      not\n        /* \"#utility.yul\":9546:9552   */\n      dup5\n        /* \"#utility.yul\":9542:9564   */\n      and\n        /* \"#utility.yul\":9592:9629   */\n      tag_199\n        /* \"#utility.yul\":9624:9628   */\n      dup7\n        /* \"#utility.yul\":9592:9629   */\n      tag_70\n      jump\t// in\n    tag_199:\n        /* \"#utility.yul\":9651:9652   */\n      0x00\n        /* \"#utility.yul\":9665:9873   */\n    tag_200:\n        /* \"#utility.yul\":9679:9686   */\n      dup3\n        /* \"#utility.yul\":9676:9677   */\n      dup2\n        /* \"#utility.yul\":9673:9687   */\n      lt\n        /* \"#utility.yul\":9665:9873   */\n      iszero\n      tag_202\n      jumpi\n        /* \"#utility.yul\":9758:9767   */\n      dup5\n        /* \"#utility.yul\":9753:9756   */\n      dup10\n        /* \"#utility.yul\":9749:9768   */\n      add\n        /* \"#utility.yul\":9743:9769   */\n      mload\n        /* \"#utility.yul\":9735:9741   */\n      dup3\n        /* \"#utility.yul\":9728:9770   */\n      sstore\n        /* \"#utility.yul\":9809:9810   */\n      0x01\n        /* \"#utility.yul\":9801:9807   */\n      dup3\n        /* \"#utility.yul\":9797:9811   */\n      add\n        /* \"#utility.yul\":9787:9811   */\n      swap2\n      pop\n        /* \"#utility.yul\":9856:9858   */\n      0x20\n        /* \"#utility.yul\":9845:9854   */\n      dup6\n        /* \"#utility.yul\":9841:9859   */\n      add\n        /* \"#utility.yul\":9828:9859   */\n      swap5\n      pop\n        /* \"#utility.yul\":9702:9706   */\n      0x20\n        /* \"#utility.yul\":9699:9700   */\n      dup2\n        /* \"#utility.yul\":9695:9707   */\n      add\n        /* \"#utility.yul\":9690:9707   */\n      swap1\n      pop\n        /* \"#utility.yul\":9665:9873   */\n      jump(tag_200)\n    tag_202:\n        /* \"#utility.yul\":9901:9907   */\n      dup7\n        /* \"#utility.yul\":9892:9899   */\n      dup4\n        /* \"#utility.yul\":9889:9908   */\n      lt\n        /* \"#utility.yul\":9886:10065   */\n      iszero\n      tag_203\n      jumpi\n        /* \"#utility.yul\":9959:9968   */\n      dup5\n        /* \"#utility.yul\":9954:9957   */\n      dup10\n        /* \"#utility.yul\":9950:9969   */\n      add\n        /* \"#utility.yul\":9944:9970   */\n      mload\n        /* \"#utility.yul\":10002:10050   */\n      tag_204\n        /* \"#utility.yul\":10044:10048   */\n      0x1f\n        /* \"#utility.yul\":10036:10042   */\n      dup10\n        /* \"#utility.yul\":10032:10049   */\n      and\n        /* \"#utility.yul\":10021:10030   */\n      dup3\n        /* \"#utility.yul\":10002:10050   */\n      tag_83\n      jump\t// in\n    tag_204:\n        /* \"#utility.yul\":9994:10000   */\n      dup4\n        /* \"#utility.yul\":9987:10051   */\n      sstore\n        /* \"#utility.yul\":9909:10065   */\n      pop\n        /* \"#utility.yul\":9886:10065   */\n    tag_203:\n        /* \"#utility.yul\":10111:10112   */\n      0x01\n        /* \"#utility.yul\":10107:10108   */\n      0x02\n        /* \"#utility.yul\":10099:10105   */\n      dup9\n        /* \"#utility.yul\":10095:10109   */\n      mul\n        /* \"#utility.yul\":10091:10113   */\n      add\n        /* \"#utility.yul\":10085:10089   */\n      dup9\n        /* \"#utility.yul\":10078:10114   */\n      sstore\n        /* \"#utility.yul\":9513:10124   */\n      pop\n      pop\n      pop\n        /* \"#utility.yul\":9476:10363   */\n    tag_195:\n      pop\n        /* \"#utility.yul\":9066:10369   */\n      pop\n      pop\n      pop\n        /* \"#utility.yul\":8974:10369   */\n      pop\n      pop\n      jump\t// out\n        /* \"#utility.yul\":10375:10555   */\n    tag_27:\n        /* \"#utility.yul\":10423:10500   */\n      0x4e487b7100000000000000000000000000000000000000000000000000000000\n        /* \"#utility.yul\":10420:10421   */\n      0x00\n        /* \"#utility.yul\":10413:10501   */\n      mstore\n        /* \"#utility.yul\":10520:10524   */\n      0x32\n        /* \"#utility.yul\":10517:10518   */\n      0x04\n        /* \"#utility.yul\":10510:10525   */\n      mstore\n        /* \"#utility.yul\":10544:10548   */\n      0x24\n        /* \"#utility.yul\":10541:10542   */\n      0x00\n        /* \"#utility.yul\":10534:10549   */\n      revert\n\n    auxdata: 0xa264697066735822122062fbb631801f04227efa447cd0dbc9e27b1ba334a0ebd694c7e2fa06f27105b364736f6c634300081a0033\n}\n",
				"bytecode": {
					"linkReferences": {},
					"object": "6080604052348015600e575f80fd5b506108de8061001c5f395ff3fe608060405234801561000f575f80fd5b506004361061003f575f3560e01c80634ef75e0d1461004357806353c16cda1461005f578063b30bab6c14610091575b5f80fd5b61005d60048036038101906100589190610470565b6100c3565b005b610079600480360381019061007491906104dc565b610134565b60405161008893929190610576565b60405180910390f35b6100ab60048036038101906100a691906104dc565b610236565b6040516100ba93929190610576565b60405180910390f35b5f604051806060016040528085815260200184815260200183815250908060018154018082558091505060019003905f5260205f2090600302015f909190919091505f820151815f01908161011891906107ac565b5060208201518160010155604082015181600201555050505050565b60605f805f848154811061014b5761014a61087b565b5b905f5260205f2090600302015f015f858154811061016c5761016b61087b565b5b905f5260205f209060030201600101545f868154811061018f5761018e61087b565b5b905f5260205f209060030201600201548280546101ab906105df565b80601f01602080910402602001604051908101604052809291908181526020018280546101d7906105df565b80156102225780601f106101f957610100808354040283529160200191610222565b820191905f5260205f20905b81548152906001019060200180831161020557829003601f168201915b505050505092509250925092509193909250565b5f8181548110610244575f80fd5b905f5260205f2090600302015f91509050805f018054610263906105df565b80601f016020809104026020016040519081016040528092919081815260200182805461028f906105df565b80156102da5780601f106102b1576101008083540402835291602001916102da565b820191905f5260205f20905b8154815290600101906020018083116102bd57829003601f168201915b5050505050908060010154908060020154905083565b5f604051905090565b5f80fd5b5f80fd5b5f80fd5b5f80fd5b5f601f19601f8301169050919050565b7f4e487b71000000000000000000000000000000000000000000000000000000005f52604160045260245ffd5b61034f82610309565b810181811067ffffffffffffffff8211171561036e5761036d610319565b5b80604052505050565b5f6103806102f0565b905061038c8282610346565b919050565b5f67ffffffffffffffff8211156103ab576103aa610319565b5b6103b482610309565b9050602081019050919050565b828183375f83830152505050565b5f6103e16103dc84610391565b610377565b9050828152602081018484840111156103fd576103fc610305565b5b6104088482856103c1565b509392505050565b5f82601f83011261042457610423610301565b5b81356104348482602086016103cf565b91505092915050565b5f819050919050565b61044f8161043d565b8114610459575f80fd5b50565b5f8135905061046a81610446565b92915050565b5f805f60608486031215610487576104866102f9565b5b5f84013567ffffffffffffffff8111156104a4576104a36102fd565b5b6104b086828701610410565b93505060206104c18682870161045c565b92505060406104d28682870161045c565b9150509250925092565b5f602082840312156104f1576104f06102f9565b5b5f6104fe8482850161045c565b91505092915050565b5f81519050919050565b5f82825260208201905092915050565b8281835e5f83830152505050565b5f61053982610507565b6105438185610511565b9350610553818560208601610521565b61055c81610309565b840191505092915050565b6105708161043d565b82525050565b5f6060820190508181035f83015261058e818661052f565b905061059d6020830185610567565b6105aa6040830184610567565b949350505050565b7f4e487b71000000000000000000000000000000000000000000000000000000005f52602260045260245ffd5b5f60028204905060018216806105f657607f821691505b602082108103610609576106086105b2565b5b50919050565b5f819050815f5260205f209050919050565b5f6020601f8301049050919050565b5f82821b905092915050565b5f6008830261066b7fffffffffffffffffffffffffffffffffffffffffffffffffffffffffffffffff82610630565b6106758683610630565b95508019841693508086168417925050509392505050565b5f819050919050565b5f6106b06106ab6106a68461043d565b61068d565b61043d565b9050919050565b5f819050919050565b6106c983610696565b6106dd6106d5826106b7565b84845461063c565b825550505050565b5f90565b6106f16106e5565b6106fc8184846106c0565b505050565b5b8181101561071f576107145f826106e9565b600181019050610702565b5050565b601f821115610764576107358161060f565b61073e84610621565b8101602085101561074d578190505b61076161075985610621565b830182610701565b50505b505050565b5f82821c905092915050565b5f6107845f1984600802610769565b1980831691505092915050565b5f61079c8383610775565b9150826002028217905092915050565b6107b582610507565b67ffffffffffffffff8111156107ce576107cd610319565b5b6107d882546105df565b6107e3828285610723565b5f60209050601f831160018114610814575f8415610802578287015190505b61080c8582610791565b865550610873565b601f1984166108228661060f565b5f5b8281101561084957848901518255600182019150602085019450602081019050610824565b868310156108665784890151610862601f891682610775565b8355505b6001600288020188555050505b505050505050565b7f4e487b71000000000000000000000000000000000000000000000000000000005f52603260045260245ffdfea264697066735822122062fbb631801f04227efa447cd0dbc9e27b1ba334a0ebd694c7e2fa06f27105b364736f6c634300081a0033",
					"opcodes": "PUSH1 0x80 PUSH1 0x40 MSTORE CALLVALUE DUP1 ISZERO PUSH1 0xE JUMPI PUSH0 DUP1 REVERT JUMPDEST POP PUSH2 0x8DE DUP1 PUSH2 0x1C PUSH0 CODECOPY PUSH0 RETURN INVALID PUSH1 0x80 PUSH1 0x40 MSTORE CALLVALUE DUP1 ISZERO PUSH2 0xF JUMPI PUSH0 DUP1 REVERT JUMPDEST POP PUSH1 0x4 CALLDATASIZE LT PUSH2 0x3F JUMPI PUSH0 CALLDATALOAD PUSH1 0xE0 SHR DUP1 PUSH4 0x4EF75E0D EQ PUSH2 0x43 JUMPI DUP1 PUSH4 0x53C16CDA EQ PUSH2 0x5F JUMPI DUP1 PUSH4 0xB30BAB6C EQ PUSH2 0x91 JUMPI JUMPDEST PUSH0 DUP1 REVERT JUMPDEST PUSH2 0x5D PUSH1 0x4 DUP1 CALLDATASIZE SUB DUP2 ADD SWAP1 PUSH2 0x58 SWAP2 SWAP1 PUSH2 0x470 JUMP JUMPDEST PUSH2 0xC3 JUMP JUMPDEST STOP JUMPDEST PUSH2 0x79 PUSH1 0x4 DUP1 CALLDATASIZE SUB DUP2 ADD SWAP1 PUSH2 0x74 SWAP2 SWAP1 PUSH2 0x4DC JUMP JUMPDEST PUSH2 0x134 JUMP JUMPDEST PUSH1 0x40 MLOAD PUSH2 0x88 SWAP4 SWAP3 SWAP2 SWAP1 PUSH2 0x576 JUMP JUMPDEST PUSH1 0x40 MLOAD DUP1 SWAP2 SUB SWAP1 RETURN JUMPDEST PUSH2 0xAB PUSH1 0x4 DUP1 CALLDATASIZE SUB DUP2 ADD SWAP1 PUSH2 0xA6 SWAP2 SWAP1 PUSH2 0x4DC JUMP JUMPDEST PUSH2 0x236 JUMP JUMPDEST PUSH1 0x40 MLOAD PUSH2 0xBA SWAP4 SWAP3 SWAP2 SWAP1 PUSH2 0x576 JUMP JUMPDEST PUSH1 0x40 MLOAD DUP1 SWAP2 SUB SWAP1 RETURN JUMPDEST PUSH0 PUSH1 0x40 MLOAD DUP1 PUSH1 0x60 ADD PUSH1 0x40 MSTORE DUP1 DUP6 DUP2 MSTORE PUSH1 0x20 ADD DUP5 DUP2 MSTORE PUSH1 0x20 ADD DUP4 DUP2 MSTORE POP SWAP1 DUP1 PUSH1 0x1 DUP2 SLOAD ADD DUP1 DUP3 SSTORE DUP1 SWAP2 POP POP PUSH1 0x1 SWAP1 SUB SWAP1 PUSH0 MSTORE PUSH1 0x20 PUSH0 KECCAK256 SWAP1 PUSH1 0x3 MUL ADD PUSH0 SWAP1 SWAP2 SWAP1 SWAP2 SWAP1 SWAP2 POP PUSH0 DUP3 ADD MLOAD DUP2 PUSH0 ADD SWAP1 DUP2 PUSH2 0x118 SWAP2 SWAP1 PUSH2 0x7AC JUMP JUMPDEST POP PUSH1 0x20 DUP3 ADD MLOAD DUP2 PUSH1 0x1 ADD SSTORE PUSH1 0x40 DUP3 ADD MLOAD DUP2 PUSH1 0x2 ADD SSTORE POP POP POP POP POP JUMP JUMPDEST PUSH1 0x60 PUSH0 DUP1 PUSH0 DUP5 DUP2 SLOAD DUP2 LT PUSH2 0x14B JUMPI PUSH2 0x14A PUSH2 0x87B JUMP JUMPDEST JUMPDEST SWAP1 PUSH0 MSTORE PUSH1 0x20 PUSH0 KECCAK256 SWAP1 PUSH1 0x3 MUL ADD PUSH0 ADD PUSH0 DUP6 DUP2 SLOAD DUP2 LT PUSH2 0x16C JUMPI PUSH2 0x16B PUSH2 0x87B JUMP JUMPDEST JUMPDEST SWAP1 PUSH0 MSTORE PUSH1 0x20 PUSH0 KECCAK256 SWAP1 PUSH1 0x3 MUL ADD PUSH1 0x1 ADD SLOAD PUSH0 DUP7 DUP2 SLOAD DUP2 LT PUSH2 0x18F JUMPI PUSH2 0x18E PUSH2 0x87B JUMP JUMPDEST JUMPDEST SWAP1 PUSH0 MSTORE PUSH1 0x20 PUSH0 KECCAK256 SWAP1 PUSH1 0x3 MUL ADD PUSH1 0x2 ADD SLOAD DUP3 DUP1 SLOAD PUSH2 0x1AB SWAP1 PUSH2 0x5DF JUMP JUMPDEST DUP1 PUSH1 0x1F ADD PUSH1 0x20 DUP1 SWAP2 DIV MUL PUSH1 0x20 ADD PUSH1 0x40 MLOAD SWAP1 DUP2 ADD PUSH1 0x40 MSTORE DUP1 SWAP3 SWAP2 SWAP1 DUP2 DUP2 MSTORE PUSH1 0x20 ADD DUP3 DUP1 SLOAD PUSH2 0x1D7 SWAP1 PUSH2 0x5DF JUMP JUMPDEST DUP1 ISZERO PUSH2 0x222 JUMPI DUP1 PUSH1 0x1F LT PUSH2 0x1F9 JUMPI PUSH2 0x100 DUP1 DUP4 SLOAD DIV MUL DUP4 MSTORE SWAP2 PUSH1 0x20 ADD SWAP2 PUSH2 0x222 JUMP JUMPDEST DUP3 ADD SWAP2 SWAP1 PUSH0 MSTORE PUSH1 0x20 PUSH0 KECCAK256 SWAP1 JUMPDEST DUP2 SLOAD DUP2 MSTORE SWAP1 PUSH1 0x1 ADD SWAP1 PUSH1 0x20 ADD DUP1 DUP4 GT PUSH2 0x205 JUMPI DUP3 SWAP1 SUB PUSH1 0x1F AND DUP3 ADD SWAP2 JUMPDEST POP POP POP POP POP SWAP3 POP SWAP3 POP SWAP3 POP SWAP3 POP SWAP2 SWAP4 SWAP1 SWAP3 POP JUMP JUMPDEST PUSH0 DUP2 DUP2 SLOAD DUP2 LT PUSH2 0x244 JUMPI PUSH0 DUP1 REVERT JUMPDEST SWAP1 PUSH0 MSTORE PUSH1 0x20 PUSH0 KECCAK256 SWAP1 PUSH1 0x3 MUL ADD PUSH0 SWAP2 POP SWAP1 POP DUP1 PUSH0 ADD DUP1 SLOAD PUSH2 0x263 SWAP1 PUSH2 0x5DF JUMP JUMPDEST DUP1 PUSH1 0x1F ADD PUSH1 0x20 DUP1 SWAP2 DIV MUL PUSH1 0x20 ADD PUSH1 0x40 MLOAD SWAP1 DUP2 ADD PUSH1 0x40 MSTORE DUP1 SWAP3 SWAP2 SWAP1 DUP2 DUP2 MSTORE PUSH1 0x20 ADD DUP3 DUP1 SLOAD PUSH2 0x28F SWAP1 PUSH2 0x5DF JUMP JUMPDEST DUP1 ISZERO PUSH2 0x2DA JUMPI DUP1 PUSH1 0x1F LT PUSH2 0x2B1 JUMPI PUSH2 0x100 DUP1 DUP4 SLOAD DIV MUL DUP4 MSTORE SWAP2 PUSH1 0x20 ADD SWAP2 PUSH2 0x2DA JUMP JUMPDEST DUP3 ADD SWAP2 SWAP1 PUSH0 MSTORE PUSH1 0x20 PUSH0 KECCAK256 SWAP1 JUMPDEST DUP2 SLOAD DUP2 MSTORE SWAP1 PUSH1 0x1 ADD SWAP1 PUSH1 0x20 ADD DUP1 DUP4 GT PUSH2 0x2BD JUMPI DUP3 SWAP1 SUB PUSH1 0x1F AND DUP3 ADD SWAP2 JUMPDEST POP POP POP POP POP SWAP1 DUP1 PUSH1 0x1 ADD SLOAD SWAP1 DUP1 PUSH1 0x2 ADD SLOAD SWAP1 POP DUP4 JUMP JUMPDEST PUSH0 PUSH1 0x40 MLOAD SWAP1 POP SWAP1 JUMP JUMPDEST PUSH0 DUP1 REVERT JUMPDEST PUSH0 DUP1 REVERT JUMPDEST PUSH0 DUP1 REVERT JUMPDEST PUSH0 DUP1 REVERT JUMPDEST PUSH0 PUSH1 0x1F NOT PUSH1 0x1F DUP4 ADD AND SWAP1 POP SWAP2 SWAP1 POP JUMP JUMPDEST PUSH32 0x4E487B7100000000000000000000000000000000000000000000000000000000 PUSH0 MSTORE PUSH1 0x41 PUSH1 0x4 MSTORE PUSH1 0x24 PUSH0 REVERT JUMPDEST PUSH2 0x34F DUP3 PUSH2 0x309 JUMP JUMPDEST DUP2 ADD DUP2 DUP2 LT PUSH8 0xFFFFFFFFFFFFFFFF DUP3 GT OR ISZERO PUSH2 0x36E JUMPI PUSH2 0x36D PUSH2 0x319 JUMP JUMPDEST JUMPDEST DUP1 PUSH1 0x40 MSTORE POP POP POP JUMP JUMPDEST PUSH0 PUSH2 0x380 PUSH2 0x2F0 JUMP JUMPDEST SWAP1 POP PUSH2 0x38C DUP3 DUP3 PUSH2 0x346 JUMP JUMPDEST SWAP2 SWAP1 POP JUMP JUMPDEST PUSH0 PUSH8 0xFFFFFFFFFFFFFFFF DUP3 GT ISZERO PUSH2 0x3AB JUMPI PUSH2 0x3AA PUSH2 0x319 JUMP JUMPDEST JUMPDEST PUSH2 0x3B4 DUP3 PUSH2 0x309 JUMP JUMPDEST SWAP1 POP PUSH1 0x20 DUP2 ADD SWAP1 POP SWAP2 SWAP1 POP JUMP JUMPDEST DUP3 DUP2 DUP4 CALLDATACOPY PUSH0 DUP4 DUP4 ADD MSTORE POP POP POP JUMP JUMPDEST PUSH0 PUSH2 0x3E1 PUSH2 0x3DC DUP5 PUSH2 0x391 JUMP JUMPDEST PUSH2 0x377 JUMP JUMPDEST SWAP1 POP DUP3 DUP2 MSTORE PUSH1 0x20 DUP2 ADD DUP5 DUP5 DUP5 ADD GT ISZERO PUSH2 0x3FD JUMPI PUSH2 0x3FC PUSH2 0x305 JUMP JUMPDEST JUMPDEST PUSH2 0x408 DUP5 DUP3 DUP6 PUSH2 0x3C1 JUMP JUMPDEST POP SWAP4 SWAP3 POP POP POP JUMP JUMPDEST PUSH0 DUP3 PUSH1 0x1F DUP4 ADD SLT PUSH2 0x424 JUMPI PUSH2 0x423 PUSH2 0x301 JUMP JUMPDEST JUMPDEST DUP2 CALLDATALOAD PUSH2 0x434 DUP5 DUP3 PUSH1 0x20 DUP7 ADD PUSH2 0x3CF JUMP JUMPDEST SWAP2 POP POP SWAP3 SWAP2 POP POP JUMP JUMPDEST PUSH0 DUP2 SWAP1 POP SWAP2 SWAP1 POP JUMP JUMPDEST PUSH2 0x44F DUP2 PUSH2 0x43D JUMP JUMPDEST DUP2 EQ PUSH2 0x459 JUMPI PUSH0 DUP1 REVERT JUMPDEST POP JUMP JUMPDEST PUSH0 DUP2 CALLDATALOAD SWAP1 POP PUSH2 0x46A DUP2 PUSH2 0x446 JUMP JUMPDEST SWAP3 SWAP2 POP POP JUMP JUMPDEST PUSH0 DUP1 PUSH0 PUSH1 0x60 DUP5 DUP7 SUB SLT ISZERO PUSH2 0x487 JUMPI PUSH2 0x486 PUSH2 0x2F9 JUMP JUMPDEST JUMPDEST PUSH0 DUP5 ADD CALLDATALOAD PUSH8 0xFFFFFFFFFFFFFFFF DUP2 GT ISZERO PUSH2 0x4A4 JUMPI PUSH2 0x4A3 PUSH2 0x2FD JUMP JUMPDEST JUMPDEST PUSH2 0x4B0 DUP7 DUP3 DUP8 ADD PUSH2 0x410 JUMP JUMPDEST SWAP4 POP POP PUSH1 0x20 PUSH2 0x4C1 DUP7 DUP3 DUP8 ADD PUSH2 0x45C JUMP JUMPDEST SWAP3 POP POP PUSH1 0x40 PUSH2 0x4D2 DUP7 DUP3 DUP8 ADD PUSH2 0x45C JUMP JUMPDEST SWAP2 POP POP SWAP3 POP SWAP3 POP SWAP3 JUMP JUMPDEST PUSH0 PUSH1 0x20 DUP3 DUP5 SUB SLT ISZERO PUSH2 0x4F1 JUMPI PUSH2 0x4F0 PUSH2 0x2F9 JUMP JUMPDEST JUMPDEST PUSH0 PUSH2 0x4FE DUP5 DUP3 DUP6 ADD PUSH2 0x45C JUMP JUMPDEST SWAP2 POP POP SWAP3 SWAP2 POP POP JUMP JUMPDEST PUSH0 DUP2 MLOAD SWAP1 POP SWAP2 SWAP1 POP JUMP JUMPDEST PUSH0 DUP3 DUP3 MSTORE PUSH1 0x20 DUP3 ADD SWAP1 POP SWAP3 SWAP2 POP POP JUMP JUMPDEST DUP3 DUP2 DUP4 MCOPY PUSH0 DUP4 DUP4 ADD MSTORE POP POP POP JUMP JUMPDEST PUSH0 PUSH2 0x539 DUP3 PUSH2 0x507 JUMP JUMPDEST PUSH2 0x543 DUP2 DUP6 PUSH2 0x511 JUMP JUMPDEST SWAP4 POP PUSH2 0x553 DUP2 DUP6 PUSH1 0x20 DUP7 ADD PUSH2 0x521 JUMP JUMPDEST PUSH2 0x55C DUP2 PUSH2 0x309 JUMP JUMPDEST DUP5 ADD SWAP2 POP POP SWAP3 SWAP2 POP POP JUMP JUMPDEST PUSH2 0x570 DUP2 PUSH2 0x43D JUMP JUMPDEST DUP3 MSTORE POP POP JUMP JUMPDEST PUSH0 PUSH1 0x60 DUP3 ADD SWAP1 POP DUP2 DUP2 SUB PUSH0 DUP4 ADD MSTORE PUSH2 0x58E DUP2 DUP7 PUSH2 0x52F JUMP JUMPDEST SWAP1 POP PUSH2 0x59D PUSH1 0x20 DUP4 ADD DUP6 PUSH2 0x567 JUMP JUMPDEST PUSH2 0x5AA PUSH1 0x40 DUP4 ADD DUP5 PUSH2 0x567 JUMP JUMPDEST SWAP5 SWAP4 POP POP POP POP JUMP JUMPDEST PUSH32 0x4E487B7100000000000000000000000000000000000000000000000000000000 PUSH0 MSTORE PUSH1 0x22 PUSH1 0x4 MSTORE PUSH1 0x24 PUSH0 REVERT JUMPDEST PUSH0 PUSH1 0x2 DUP3 DIV SWAP1 POP PUSH1 0x1 DUP3 AND DUP1 PUSH2 0x5F6 JUMPI PUSH1 0x7F DUP3 AND SWAP2 POP JUMPDEST PUSH1 0x20 DUP3 LT DUP2 SUB PUSH2 0x609 JUMPI PUSH2 0x608 PUSH2 0x5B2 JUMP JUMPDEST JUMPDEST POP SWAP2 SWAP1 POP JUMP JUMPDEST PUSH0 DUP2 SWAP1 POP DUP2 PUSH0 MSTORE PUSH1 0x20 PUSH0 KECCAK256 SWAP1 POP SWAP2 SWAP1 POP JUMP JUMPDEST PUSH0 PUSH1 0x20 PUSH1 0x1F DUP4 ADD DIV SWAP1 POP SWAP2 SWAP1 POP JUMP JUMPDEST PUSH0 DUP3 DUP3 SHL SWAP1 POP SWAP3 SWAP2 POP POP JUMP JUMPDEST PUSH0 PUSH1 0x8 DUP4 MUL PUSH2 0x66B PUSH32 0xFFFFFFFFFFFFFFFFFFFFFFFFFFFFFFFFFFFFFFFFFFFFFFFFFFFFFFFFFFFFFFFF DUP3 PUSH2 0x630 JUMP JUMPDEST PUSH2 0x675 DUP7 DUP4 PUSH2 0x630 JUMP JUMPDEST SWAP6 POP DUP1 NOT DUP5 AND SWAP4 POP DUP1 DUP7 AND DUP5 OR SWAP3 POP POP POP SWAP4 SWAP3 POP POP POP JUMP JUMPDEST PUSH0 DUP2 SWAP1 POP SWAP2 SWAP1 POP JUMP JUMPDEST PUSH0 PUSH2 0x6B0 PUSH2 0x6AB PUSH2 0x6A6 DUP5 PUSH2 0x43D JUMP JUMPDEST PUSH2 0x68D JUMP JUMPDEST PUSH2 0x43D JUMP JUMPDEST SWAP1 POP SWAP2 SWAP1 POP JUMP JUMPDEST PUSH0 DUP2 SWAP1 POP SWAP2 SWAP1 POP JUMP JUMPDEST PUSH2 0x6C9 DUP4 PUSH2 0x696 JUMP JUMPDEST PUSH2 0x6DD PUSH2 0x6D5 DUP3 PUSH2 0x6B7 JUMP JUMPDEST DUP5 DUP5 SLOAD PUSH2 0x63C JUMP JUMPDEST DUP3 SSTORE POP POP POP POP JUMP JUMPDEST PUSH0 SWAP1 JUMP JUMPDEST PUSH2 0x6F1 PUSH2 0x6E5 JUMP JUMPDEST PUSH2 0x6FC DUP2 DUP5 DUP5 PUSH2 0x6C0 JUMP JUMPDEST POP POP POP JUMP JUMPDEST JUMPDEST DUP2 DUP2 LT ISZERO PUSH2 0x71F JUMPI PUSH2 0x714 PUSH0 DUP3 PUSH2 0x6E9 JUMP JUMPDEST PUSH1 0x1 DUP2 ADD SWAP1 POP PUSH2 0x702 JUMP JUMPDEST POP POP JUMP JUMPDEST PUSH1 0x1F DUP3 GT ISZERO PUSH2 0x764 JUMPI PUSH2 0x735 DUP2 PUSH2 0x60F JUMP JUMPDEST PUSH2 0x73E DUP5 PUSH2 0x621 JUMP JUMPDEST DUP2 ADD PUSH1 0x20 DUP6 LT ISZERO PUSH2 0x74D JUMPI DUP2 SWAP1 POP JUMPDEST PUSH2 0x761 PUSH2 0x759 DUP6 PUSH2 0x621 JUMP JUMPDEST DUP4 ADD DUP3 PUSH2 0x701 JUMP JUMPDEST POP POP JUMPDEST POP POP POP JUMP JUMPDEST PUSH0 DUP3 DUP3 SHR SWAP1 POP SWAP3 SWAP2 POP POP JUMP JUMPDEST PUSH0 PUSH2 0x784 PUSH0 NOT DUP5 PUSH1 0x8 MUL PUSH2 0x769 JUMP JUMPDEST NOT DUP1 DUP4 AND SWAP2 POP POP SWAP3 SWAP2 POP POP JUMP JUMPDEST PUSH0 PUSH2 0x79C DUP4 DUP4 PUSH2 0x775 JUMP JUMPDEST SWAP2 POP DUP3 PUSH1 0x2 MUL DUP3 OR SWAP1 POP SWAP3 SWAP2 POP POP JUMP JUMPDEST PUSH2 0x7B5 DUP3 PUSH2 0x507 JUMP JUMPDEST PUSH8 0xFFFFFFFFFFFFFFFF DUP2 GT ISZERO PUSH2 0x7CE JUMPI PUSH2 0x7CD PUSH2 0x319 JUMP JUMPDEST JUMPDEST PUSH2 0x7D8 DUP3 SLOAD PUSH2 0x5DF JUMP JUMPDEST PUSH2 0x7E3 DUP3 DUP3 DUP6 PUSH2 0x723 JUMP JUMPDEST PUSH0 PUSH1 0x20 SWAP1 POP PUSH1 0x1F DUP4 GT PUSH1 0x1 DUP2 EQ PUSH2 0x814 JUMPI PUSH0 DUP5 ISZERO PUSH2 0x802 JUMPI DUP3 DUP8 ADD MLOAD SWAP1 POP JUMPDEST PUSH2 0x80C DUP6 DUP3 PUSH2 0x791 JUMP JUMPDEST DUP7 SSTORE POP PUSH2 0x873 JUMP JUMPDEST PUSH1 0x1F NOT DUP5 AND PUSH2 0x822 DUP7 PUSH2 0x60F JUMP JUMPDEST PUSH0 JUMPDEST DUP3 DUP2 LT ISZERO PUSH2 0x849 JUMPI DUP5 DUP10 ADD MLOAD DUP3 SSTORE PUSH1 0x1 DUP3 ADD SWAP2 POP PUSH1 0x20 DUP6 ADD SWAP5 POP PUSH1 0x20 DUP2 ADD SWAP1 POP PUSH2 0x824 JUMP JUMPDEST DUP7 DUP4 LT ISZERO PUSH2 0x866 JUMPI DUP5 DUP10 ADD MLOAD PUSH2 0x862 PUSH1 0x1F DUP10 AND DUP3 PUSH2 0x775 JUMP JUMPDEST DUP4 SSTORE POP JUMPDEST PUSH1 0x1 PUSH1 0x2 DUP9 MUL ADD DUP9 SSTORE POP POP POP JUMPDEST POP POP POP POP POP POP JUMP JUMPDEST PUSH32 0x4E487B7100000000000000000000000000000000000000000000000000000000 PUSH0 MSTORE PUSH1 0x32 PUSH1 0x4 MSTORE PUSH1 0x24 PUSH0 REVERT INVALID LOG2 PUSH5 0x6970667358 0x22 SLT KECCAK256 PUSH3 0xFBB631 DUP1 0x1F DIV 0x22 PUSH31 0xFA447CD0DBC9E27B1BA334A0EBD694C7E2FA06F27105B364736F6C63430008 BYTE STOP CALLER "
				},
				"gasEstimates": {
					"creation": {
						"codeDepositCost": "454000",
						"executionCost": "484",
						"totalCost": "454484"
					},
					"external": {
						"EmployeeRecords(uint256)": "infinite",
						"addEmployee(string,uint256,uint256)": "infinite",
						"retriveEmployee(uint256)": "infinite"
					}
				},
				"methodIdentifiers": {
					"EmployeeRecords(uint256)": "b30bab6c",
					"addEmployee(string,uint256,uint256)": "4ef75e0d",
					"retriveEmployee(uint256)": "53c16cda"
				}
			},
			"storageLayout": {
				"storage": [
					{
						"astId": 12,
						"contract": "Struct/Struc.sol:StoreEmployee",
						"label": "EmployeeRecords",
						"offset": 0,
						"slot": "0",
						"type": "t_array(t_struct(employee)8_storage)dyn_storage"
					}
				],
				"types": {
					"t_array(t_struct(employee)8_storage)dyn_storage": {
						"base": "t_struct(employee)8_storage",
						"encoding": "dynamic_array",
						"label": "struct StoreEmployee.employee[]",
						"numberOfBytes": "32"
					},
					"t_string_storage": {
						"encoding": "bytes",
						"label": "string",
						"numberOfBytes": "32"
					},
					"t_struct(employee)8_storage": {
						"encoding": "inplace",
						"label": "struct StoreEmployee.employee",
						"members": [
							{
								"astId": 3,
								"contract": "Struct/Struc.sol:StoreEmployee",
								"label": "name",
								"offset": 0,
								"slot": "0",
								"type": "t_string_storage"
							},
							{
								"astId": 5,
								"contract": "Struct/Struc.sol:StoreEmployee",
								"label": "age",
								"offset": 0,
								"slot": "1",
								"type": "t_uint256"
							},
							{
								"astId": 7,
								"contract": "Struct/Struc.sol:StoreEmployee",
								"label": "salary",
								"offset": 0,
								"slot": "2",
								"type": "t_uint256"
							}
						],
						"numberOfBytes": "96"
					},
					"t_uint256": {
						"encoding": "inplace",
						"label": "uint256",
						"numberOfBytes": "32"
					}
				}
			},
			"userdoc": {
				"kind": "user",
				"methods": {},
				"version": 1
			}
		}
	}
}